:020000021000EC
:1080000000400020210402005D0402005F04020021
:108010000000000000000000000000000000000060
:1080200000000000000000000000000061040200E9
:10803000000000000000000063040200650402006C
:108040006704020055B00100DD0A02006704020067
:1080500067040200000000009904020067040200A7
:1080600067040200D50C02006509020067040200E3
:10807000670402006704020067040200670402004C
:10808000670402006704020067040200670402003C
:1080900067040200B9FD010045FF0100670402000A
:1080A00067040200670402000000000000000000F6
:1080B00000000000000000000000000000000000C0
:1080C000054B0648033310B51B1A062B03D9044B86
:1080D000002B00D0984710BDB4200020B420002011
:1080E000000000000648074910B5091A8910CB0F97
:1080F0005918491003D0044B002B00D0984710BDED
:10810000B4200020B42000200000000010B5074C6F
:108110002378002B09D1FFF7D3FF054B002B02D0AA
:10812000044800E000BF0123237010BDC0200020E0
:108130000000000054950200094B10B5002B03D03D
:108140000849094800E000BF08480368002B02D135
:10815000FFF7C8FF10BD064B002BF9D09847F7E793
:1081600000000000C420002054950200B42000202C
:1081700000000000144B002B00D1124B9D46402202
:1081800092029A1A924600218B460F461148124AD3
:10819000121A0AF0BBFF0D4B002B00D098470C4B76
:1081A000002B00D098470020002104000D000B4850
:1081B0000AF0D4FC0AF08EFE200029000FF049FFDF
:1081C0000AF0EAFC00000800004000200000000067
:1081D00000000000B8200020702B0020112E0200AB
:1081E000044A84B09378032B01DC0133937004B00C
:1081F0007047C04684200020044A84B09378002B46
:1082000001D0013B937004B07047C0468420002029
:1082100010B50400034B036040300DF00AF8200055
:1082200010BDC0468C84020030B5022087B001F03A
:10823000CFF8144B144C5A78050002709B782A0032
:10824000437020000223B430104902F0ABFF104B02
:10825000984208D00F4B1049984205D0280001F0F1
:10826000EBF807B030BD0D4905A801F0D7F92000A3
:10827000782205A9F03002F041FB05A80CF0D9FFE7
:10828000ECE7C046842000200C210020568F02001D
:1082900013FCFFFF17FCFFFF5B8F0200768F0200CD
:1082A0001FB5009009480191B43009490292039327
:1082B0000EF0DCF9002804D0064B027C5A70427C98
:1082C0009A7010F0BDF805B000BDC0460C2100202A
:1082D000568F02008420002010B503480AF078FF72
:1082E00001200AF059FCC046488F0200F0B585B065
:1082F0001F000AAB1B880600029115000393002F94
:108300001BD0282010F0A0F86B4604001989039BAD
:10831000AAB200933B000CF02BFF336821005B688E
:1083200030009847002806D020000CF038FF2000CD
:1083300010F086F8024805B0F0BD0248FBE7C046E1
:1083400016FCFFFF17FCFFFF07B5074901A801F066
:1083500065F90648782201A9F03002F0CFFA01A8A9
:108360000CF067FF07BDC0468C8F02000C21002077
:1083700070B504000800251E07D121000CF0AEFCEA
:10838000054B1860200070BD0D0069680029FBD105
:108390000CF0A4FC6860F5E7DC2000201FB5082085
:1083A00001F016F80400022001F012F8002C01D1AF
:1083B000FFF792FF064B60605A78210002709B78AD
:1083C000437000232370034B1868FFF7D1FF1FBDD4
:1083D00084200020DC20002070B504000D008142C4
:1083E00005D10CF089FC0B4B1860200070BD4B6868
:1083F000002B02D10CF090FCF5E70028F5D061606D
:108400004B684360086801F017F8280001F014F881
:10841000EBE7C046DC20002070B5124B1B78DB0771
:108420001ED4114D2C68002C1AD023681A78002A0B
:108430000ED15A681378042B03DC0133137064687F
:10844000F1E7052BFBD121002868FFF7C5FFF6E710
:10845000012AE8D15A681378002BF4D0013BEDE7EC
:1084600070BDC0469E2A0020DC20002070B500248C
:10847000124EA559002D0DD0114BA978187808F08F
:10848000C3FDC9B2002905D168680578002D05D063
:10849000013D057004342C2CEAD170BD094A1378D3
:1084A000002B02D1FFF750FFF4E7013B137000F0FF
:1084B000C3FFA05900F0C0FFA551EBE7E02000206A
:1084C0009E2A00208420002070B5060008200D00A0
:1084D00000F07EFF0400022000F07AFF002C01D1A2
:1084E000FFF7FAFE01232370044B067045706060AD
:1084F00021001868FFF73CFF70BDC046DC2000205B
:10850000024A817AD3785B18D370704784200020A8
:1085100070B506000024084D6359B34207D1706856
:1085200000F08AFF605900F087FF00236351043494
:108530002C2CF0D170BDC046E0200020F8B5254EAF
:108540003468002C45D023681D78002D1DD0646848
:10855000F7E70878874215D158784B78984211D1BF
:1085600010000CF0F2FB21003068FFF735FF09E046
:108570000878874206D149785B789942F0D0013378
:108580009942EDD004352C2DE1D0134BEA58002A46
:10859000F8D0D07801380328F4D8216853684968A6
:1085A0001F7808F097FCD6E5020D08788742E9D1DC
:1085B00049785B789942E5DB02339942E2DCCFE708
:1085C00008788742DED149785B789942DADB033359
:1085D000F3E7F8BDDC200020E020002070B5114B4F
:1085E0001921187808F010FDC9B2002912D10E4CDB
:1085F0008D002B59002B01D00131F9E7032000F049
:10860000BFFB012807D0022808D0002802D10CF0B7
:10861000AAFB285170BD0CF0C5FBFAE70CF0E1FB9A
:10862000F7E7C0469E2A0020E020002070B5174DD5
:10863000174B2800F0301C680DF0B0FC2800154BDB
:1086400065309A785978FF30052301F065F8002CE1
:108650000BD02800236865305B68FF305A781978A2
:10866000FF2301F059F86468F1E70B4BE358002B46
:1086700008D028005B6865305A781978FF30FF23EE
:1086800001F04AF804342C2CEFD170BD0C210020ED
:10869000DC20002084200020E020002070B5002491
:1086A0000A4BE558002D0CD0094B697A187808F070
:1086B000ABFCC9B2002904D16B6859781878FFF770
:1086C00003FF04342C2CEBD170BDC046E020002009
:1086D0009E2A002037B51025204C214BD034032290
:1086E000012100952000FFF701FE1E4B032202210D
:1086F00000952000FFF7FAFD1B4B03221A2100957D
:108700002000FFF7F3FD194B042201210095200002
:10871000FFF7ECFD0095164B042202212000FFF725
:10872000E5FD144B1B68002B17D0FFF77FFF124AA3
:108730001378642B0FDC01331370FFF7FFFEFFF794
:108740004DFFFFF7ABFFFFF767FEFFF78FFEFA2045
:1087500000F032FDE5E70023EEE737BD0C210020F5
:10876000F9810100E18101009D830100298201005E
:10877000A1820100042000209E2A002010B5034899
:1087800000F006F9FFF7A6FFFCE7C0460C21002029
:1087900010B5084C200000F043F8074A07492000B4
:1087A0000FF047FE06480222064901300AF01CFC81
:1087B00010BDC0460C21002000200020C987010008
:1087C0008420002088200020CA23144A9B0010B572
:1087D000C2501C330400C0180CF02BFDD0239B00AA
:1087E000E0180CF026FD20009130FF3001F01CFB5A
:1087F00020006930FF3001F017FB2000F03001F05D
:1088000099FE2000D03002F013FA2000643007F007
:10881000D7FC201DFFF7FCFC200010BD18890200CA
:108820001423F0B5040093B01922009318210430EA
:1088300002F060FC23002500260064331800B435E4
:1088400013211093B83607F0C7FC28000DF008FF7D
:1088500000221E2130000DF0A6FB2000D03002F0D7
:1088600007FA2300F033474A06211800119301F05C
:1088700085FE20000027012369301A00009711218E
:10888000FF3001F0DDFA2000913000970123022231
:108890001A21FF3001F0D4FA2000B9300222012160
:1088A0001A23FF3002F0A2FA300001F0D3F8E423DB
:1088B0005B00E050300001F01FFBE6235B00E0505E
:1088C0000100E42220005200D130119BA2580095F3
:1088D000FF3001F063FD2000E13029001C22FF3051
:1088E00002F0A0FD192320000F93013B0E93013BE2
:1088F0000D93013B0C93013B0B93013B0A93013B0E
:108900000993013B0893013B0793013B0693013B0D
:108910000593013B0493013B0393013B0293013B0D
:108920000193F930013B082200930721013BFF30FE
:108930000DF05AFBCA239B00E018290003F08EFDBE
:10894000D3239B00E0181D2102F020FBDD239B00B8
:10895000E7501098277003210FF088FA23002200B7
:10896000200009499C33A0321C6011605760074AFF
:1089700080305A610221012207F040FE200013B02E
:10898000F0BDC04694840200394E0200254E02001C
:108990000123F0B505788DB007001D4000D085E0BB
:1089A0000300D0331800029300F0EAFA00F00EFA48
:1089B00028200FF049FD040010300CF0C9FC6D4B6D
:1089C0006580238018200FF03FFD06006A4B80C6AB
:1089D00003901022290030000A930B950AF096FBB1
:1089E00008220AA930000AF0FFFA644B039AE560F6
:1089F00053611223A260A380256265622100029860
:108A000002F0A6F8002805D020000CF0C8FB2000DA
:108A10000FF016FD01233A78594913433B703B0090
:108A2000B433180004930DF021FE564903900498C6
:108A30000DF01CFE00240590642000F0BDFB260014
:108A400025003B006933FF33180006930CF09CFEB1
:108A500000282DD1039B002B33D1059B002B30D157
:108A6000DD2449494948A40000F086FC3B59002B0D
:108A70001CD100F099F8010008A800F0CFFD09A86A
:108A80000CF04EFACA239B00F818059B09AA08A906
:108A90000093029B03F038FD09A80CF0CAFB08A85C
:108AA0000CF0C7FBCC239B00FB583B510DB0F0BD35
:108AB00038009130FF300CF067FE0028CAD0182D26
:108AC000C8DC3800653031B222B2FF23FF300136F6
:108AD00000F022FEF6B2322000F06EFB0135052ECA
:108AE00002D10026631CDCB2039B192D06D0002B9B
:108AF000A7D02349049802F02BFC01E0002BF8D109
:108B000003980FF09DFC05980FF09AFC1E491F4832
:108B100000F032FCDD239B00FB580793002B20D193
:108B200000F042F8010008A800F078FD09A80CF058
:108B3000F7F9CA200123800009AA08A90093381870
:108B4000029B03F0E1FC09A80CF073FB08A80CF0F1
:108B500070FBCC239B00FB580793DD23079A9B00F7
:108B6000FA50CA2339009B00069AF031F81803F036
:108B7000C5FE66E7FD030000AD4E02006D4E02002B
:108B8000CA8F0200D58F020000200020001C0020A8
:108B9000BFF34F8F024A034BDA60BFF34F8FFEE7FC
:108BA0000400FA0500ED00E0F0B58DB005AF192224
:108BB000154938000AF018FA0022144B05245A719E
:108BC00080225205566E01222500019402920393E1
:108BD0000199300008F018FA0800029908F08EF99F
:108BE000019B03996B430193029B361A6B430293DB
:108BF000631E2C1B6C433C19225C1C1ECA54E7D11B
:108C000008000DB0F0BDC046E58F02009F2A00208D
:108C1000F0B595B01822002106000EA80AF076FAE9
:108C200013210EA80FF080FA03210EA80FF012FBFB
:108C30004C4B1B68002B00D10133DBB202934A4A34
:108C40000123002109A807F049FE484B9E4200D9A4
:108C5000002672B6464B1022002105A81D680AF0B6
:108C600055FA444B642130000593052408F0D0F9EF
:108C700060435030281806900A21300008F0C8F9E7
:108C80000A2108F0ABFA61435031691807913000AE
:108C90000A2108F0A3FA80236143002450316918A7
:108CA0009B0108910093029B002B59D000250023C3
:108CB0002E1F019305AB9B190393032C03D1802333
:108CC00000249B01009305AB2B4A585963000133E4
:108CD000D3180022110010265F1E3F783E41370056
:108CE0001E78865D3E4202D001279740394301320B
:108CF0000633092AEFD1C943204B09011940039BD0
:108D00001B68984229D1019B312B26DC002109A840
:108D10000FF059FBFA23139A0F99DB0010680142F8
:108D20001ED0013B002BF9D1009B01345B00009366
:108D3000019BE4B201330193FA23019A5B009A424A
:108D4000BBD10435102DB2D1064B1B68002BAAD025
:108D5000029B013BDBB20293A5E7009B1943D6E7D8
:108D6000FFF716FF88240020F0FF0000E703000053
:108D70000820002034900200FE8F0200F01F000047
:108D8000F0B500281BDD0F4C421E276811000020A3
:108D9000BE09FB0F73407B403E097D087340BF084E
:108DA0007B406B40DB072B4301251F0040002B401D
:108DB0001843E940ECD18242E8D32760F0BD024875
:108DC000FCE7C0468424002017FCFFFFF8B5002311
:108DD000124C23600CF0C5F8002808D004212000B4
:108DE0000CF0BBF8002801D00D4B2360F8BD012228
:108DF000A12704250B4B0C491A602268FF0048602C
:108E00004E68002EFCD0DE591202013D3243002D87
:108E1000F5D1226001225A60E8E7C0468424002090
:108E2000ED5EBC0B00D00040FCD000400B4B70B599
:108E30001C68002C10D0656D00F0ACFBA36C002901
:108E400001D1834206D820000CF0BEF8044920006E
:108E50000CF0A8F82C00ECE770BDC0469024002070
:108E6000B0240020F0B5060093B007932A4B04907D
:108E70001C682A4B05911F68069285B2360C002F9C
:108E800047D000230293002C2FD0636D2448039316
:108E90004823E3181A88A36C1B0C99B2854214D19D
:108EA0002048824211D1002B01D0B1420BD1029B4C
:108EB000002B08D120000CF087F81B4920000CF093
:108EC00071F801230293039CDDE7002A01D095424B
:108ED000F9D1002B01D0B142F5D120000CF074F88B
:108EE000114920000CF05EF8EDE7104BEB18012B58
:108EF0000FD910233200009329000D4B08A80CF065
:108F000037F93B6808A99B683800984708A80CF017
:108F100046F913B0F0BDC046BC2400208C240020CC
:108F2000FE030000FF030000B024002002FCFFFF4E
:108F3000658E010070B572B60B4B1C68002C08D012
:108F400020000CF041F80023E364084B2000E363A9
:108F500070BD62B65C200FF077FA050021005C223C
:108F60000AF0D4F82C00EEE7B424002000400020E2
:108F7000024B1878012318407047C046A52A0020EC
:108F8000F7B50600FFF7F4FF051E33D11A4C266033
:108F9000FFF7D0FF194B1A4918600CF003F8FFF7E0
:108FA000C9FF184B1860184B4363184B8363206844
:108FB00000280ED0C027164E2A003300154900970E
:108FC000FFF794F9009733002A0013492068FFF750
:108FD0008DF90C200FF038FA0023838083710F4B3A
:108FE00003600F4B836000F0EDFA01230D4A117806
:108FF0000B431370F7BDC0468C240020C024002012
:10900000B0240020B8240020FC3F00208F50020034
:10901000658E0100FF030000FE030000B48402001F
:109020002D8E0100A52A0020F7B506000D001700BF
:109030000193002802D100242000FEBD0029FAD0AF
:10904000FFF778FF041EF6D0074B019A43630660D2
:1090500045608760054B002A00D0054BA363054996
:1090600020000BF09FFFE7E7FC3F00205950020073
:1090700077500200B0240020024B18684342584148
:109080007047C046B0240020002310B504499C005E
:109090006258002A01D00133F9E76050100010BD7A
:1090A00098240020002310B5044A99008C5884426B
:1090B00001D00133F9E70020885010BD982400202A
:1090C00010B50024074BE058002802D003685B6805
:1090D00098470434182CF5D1034B1B68002B00D1A2
:1090E00020BF10BD98240020B0240020F8B5FFF761
:1090F0003FFF00281CD02A4D2C68E36CDA0718D5F6
:1091000002273B43E364274B1E680423F26C3000C4
:109110001343F364636BF3630BF07CFF3000716CFB
:1091200003F0F3FF2868C36C3B4201D004F027F83A
:10913000F8BD1D4F1D4E3A68002A02D132682A60E0
:1091400007E0216DB942FAD1616D002900D111000B
:1091500029602A6831688A4208D11B0706D52C602D
:10916000FFF7AEFF3B68002BFAD02B6029688C42DA
:10917000DED0336899420BD10D4B4B630D4B8B63A3
:1091800020000BF047FF2968626C4B6C200004E064
:109190009C42F5D1002210004B6C03F075FFC7E72D
:1091A000C024002094240020B0240020B8240020F3
:1091B000FC3F00208F50020070B50500FFF7D8FE7D
:1091C000002803D128000FF03EF870BD0C4B1C683E
:1091D000E36CDB0706D5FFF7ADFE0A4B18600028ED
:1091E00000D0040000F0D6F92D18A56420000BF083
:1091F000EBFE054920000BF0D5FEFFF777FFE4E713
:10920000C02400209424002090240020F0B51E4BA0
:109210001E4F1C683B6885B006000391002B30D0C0
:10922000FFF7A6FE00282CD0E36CDB070ED5FFF776
:1092300081FE174B051E186008D00BF0C5FE1549BE
:1092400028000BF0AFFE2C00FFF750FF039B20001F
:109250001B043343A3640BF0B7FE20000E490BF050
:10926000A1FE0E4B0020F318012B08D9C023009358
:10927000039A0B4B31003868FFF738F8002005B02F
:10928000F0BD0848FBE7C046C02400208C24002025
:1092900094240020B0240020BC24002002FCFFFF06
:1092A000658E010016FCFFFF10B5FFF761FE002878
:1092B00009D0054C20680BF087FE044920680BF0AC
:1092C00071FEFFF713FF10BDC0240020B42400205E
:1092D000F7B507000D0000282ED0FFF749FE002843
:1092E0002CD00724164E3068C36C1C4007D0154A9A
:1092F000290038000BF07FFE00242000FEBD03F0A3
:1093000026FF02213268D36C1940019103D003215A
:109310008B43D364F1E701242343D3642800B84787
:109320003268D36C1900A143D164019C5B07E4D57A
:1093300028000BF098FEE0E7034CDEE7034CDCE787
:10934000C02400206750020017FCFFFF16FCFFFF3F
:10935000020010B5014B12CB12C210BDC424002074
:10936000034B1A68034B1A607E225A607047C0464E
:1093700008200020C424002070B5114E3278022A43
:109380001AD081421AD90C1A072C17D90D000323C1
:1093900005432B4012D172B60A4DD2005051AA1883
:1093A00051608022A408120614430460327801320E
:1093B000327062B6180070BD0348FCE70348FAE754
:1093C000A72A0020CC24002013FCFFFF17FCFFFF7E
:1093D00070B5134C06002378124D002B0CD11249A6
:1093E00012482B70FFF7C8FF114B984202D11E2084
:1093F000FFF70EFC0123237000242B789C4209DA2E
:109400000C49E300C91830000BF047FE002805D1D5
:109410000134F2E71420FFF7FBFB002070BDC046CB
:10942000A62A0020A72A002000380020702B002048
:1094300017FCFFFFCC24002070B5002819D0104B7A
:1094400010491C780023A34216DADA005558A842C6
:1094500010D98A18526890420CD2041F2368002B3E
:1094600002DC1E20FFF7D4FB802322681B06134377
:10947000236070BD0133E6E71E20FFF7C9FBF8E764
:10948000A72A0020CC24002070B5051E14DD0B4E49
:109490000B4C3368002B02D020680EF04CFDFA21F3
:1094A00020680024074B89008361C46269433560EA
:1094B0000EF049FD200070BD0348FCE7DC240020CD
:1094C0000C2500207195010017FCFFFFF8B5114F26
:1094D00006003D68002D0AD130200EF0B5FF0400D3
:1094E00006F0D4FE0C4BA5612360E5623C600B4D99
:1094F0002B68002B09D110200EF0A6FF04000EF0FF
:109500006FFD20002C600EF045FD3000FFF7BCFF22
:10951000F8BDC0460C250020C08C020008250020A4
:10952000014B18687047C046DC24002070B50D4C14
:109530002368002B03D00C4B1B68002B02D10620A4
:10954000FFF7C4FF20680EF03CFD02000749C31777
:109550000D684E685219734120680A604B600EF026
:1095600036FD70BD082500200C250020B820002005
:1095700010B5FFF7DBFF0024054BE058002802D0B0
:1095800003681B6898470434282CF5D110BDC046E9
:10959000E024002010B5FFF7C9FFFA22034B920028
:1095A00018685968002307F059FE10BDB820002044
:1095B00010B5FFF7BBFF024B1868596810BDC046D5
:1095C000B82000200B4B10B51B680400002B03D003
:1095D000094B1B68002B02D10620FFF777FF002301
:1095E000064A99008858002801D00133F9E78C50C9
:1095F00010BDC046082500200C250020E0240020D6
:10960000002310B5044A99008C58844201D00133DC
:10961000F9E70020885010BDE024002010B50400B8
:10962000002902D00B78002B03D1034B23602000CC
:1096300010BD0BF005FEFAE7C4840200F8B5040083
:109640000E00150000290AD00B78002B07D0002A45
:1096500005D0080097B209F0C1FF874203D90B4B30
:1096600023602000F8BD681DFFF7B2FE20600BF0FC
:109670008CFF20682A0047803100043009F0B4FCD8
:1096800023685D1900232B71EBE7C046C4840200F8
:10969000014B03607047C046C484020010B5054802
:1096A000054C20600BF074FF044A054920000EF0C1
:1096B000C0FE10BDC4840200102500200020002040
:1096C00033520200084B73B51C680500002C0AD009
:1096D0000100266808310822684609F085FC0CCD97
:1096E00031682000884773BD14250020014B0360BA
:1096F0007047C046CC84020010B50400002903D195
:10970000044B0360200010BD016008000BF040FF17
:10971000F8E7C046CC84020030B500684488A14216
:1097200006DA8588AA4203DA002901DB002A01DA79
:10973000034830BD54434018001983710020F8E7F6
:1097400017FCFFFFF0B5070085B00E001D000029D3
:1097500021DD002A1FDD002B1DD0046863880393E0
:109760008B4200DD0391A3880293934200DD0292B5
:10977000002306340193019B029A93420EDA2900DA
:109780002000039A09F030FC3B68AD195B88E418AF
:10979000019B0133EEE7024805B0F0BD0020FBE776
:1097A00017FCFFFFF8B504000D0016001F0000298C
:1097B00001DB002A02DA0D4B2360F8BD100048439C
:1097C0000630FFF705FE20600BF0DFFE23685D80AA
:1097D0009E80002F06D03B00320029002000FFF7BA
:1097E000B1FFEAE720000BF005FEE6E7CC840200BB
:1097F000F7B506000D1E1BD000200F00040001006D
:1098000001903B78002B1ED03022524294469C445B
:109810006246092A15D90A2B0ED1019B241801335F
:109820000193A14200DA2100002004000137E8E79B
:10983000164B03603000FEBD0028F7D00134002035
:10984000F4E70120F2E76A460127928809B212B2D2
:1098500030007F42FFF7A6FF39000A2033689A1DC7
:109860002C78002CE6D02300303B092B08D8FB4392
:10987000DB173B4043431B19303B1F000135EFE72B
:10988000002FFBDB177001320F00F7E7CC840200DA
:10989000F0B587B0009004A815001E000F00FFF778
:1098A00057FD009B1B685A8895422ADA9B88B34271
:1098B00027DD1F2F25DD059B01939F4221DC05231A
:1098C00000217B430193049B0293019B029A5B1846
:1098D000A03BD35C0022039373189C46009B57194E
:1098E0001B6858880400874202DA988860450ADCC1
:1098F0000132052AF2D101310529E6D1002007B055
:10990000F0BD0748FBE7DB191027604617416043AD
:109910001B1803980740781E87417F429F71E7E735
:1099200017FCFFFFF7B5036806009C1D5B880D0060
:109930005A1A0192002919DD0027994203DB0BF026
:1099400059FD002013E033689B889F42F9DA6119C2
:10995000019A200009F048FB019B2900E0180BF058
:109960002CFD336801375B88E418ECE70048FEBD46
:1099700017FCFFFF10B50548054C20600BF008FEF2
:10998000044A054920000EF054FD10BDCC840200AD
:109990001825002000200020AD53020010B5054C12
:1099A000012120000BF0E8FD034A044920000EF0DD
:1099B00040FD10BD1C25002000200020395502006C
:1099C0000388074A10B50120934208D0834202D091
:1099D0000020DB0703D41E20FFF71AF9002010BD7A
:1099E000FFFF00000048704716FCFFFF10B5322053
:1099F000FFF70EF9004810BD16FCFFFF828014220D
:109A000010B5134C02810834020000230460416247
:109A100002240100303283718472C36003614361A8
:109A20008361C3610362363113705370438683864A
:109A30000A78A243F13422400A70020040321370C7
:109A4000021DD387013343878387C38710BDC04678
:109A5000EC840200F0B5544F97B03B6806000593C4
:109A6000002B00D08BE006AC0B331C222121200000
:109A700001F0F4F90EAD0B231D2222210AA801F0FA
:109A8000EDF90B231B222321280001F0E7F9082020
:109A90000EF0DAFC0122059B110004900DF0F9F89C
:109AA0003A2130000CF063FE00281DD0A38812ADCF
:109AB000AB80A3795C20AB713C4B1293A3681493E9
:109AC000237B2B73637B6B73A37BAB730EF0BCFCAC
:109AD00004230193363300932A00049B31000400D1
:109AE00001F0A4FF3C604AE0322130000CF06DFE32
:109AF00000281CD0A38812ADAB80A3795C20AB7189
:109B00002A4B1293A3681493237B2B73637B6B7391
:109B1000A37BAB730EF098FC042301932E330093C8
:109B20002A00049B3100040002F01EF9DAE73C2110
:109B300030000CF005FE00282CD0AB8812ACA380BE
:109B4000AB79A420A371194B1293AB6814932B7BB0
:109B500023736B7B6373AB7BA3730EF075FC0523E0
:109B600005000293013B0193383300932200049BCC
:109B7000310001F079FE0E4B3D6044351D600C4B09
:109B8000094C1868002802D021680BF06BFE206891
:109B900017B0F0BD44200EF057FC042204990400D5
:109BA000FFF72CFF9EE7C04620250020DC84020042
:109BB00024250020F0B56149C56885B08D4254DA8E
:109BC0000300022236331B78134059D104698C42BA
:109BD00064DA020036321278520768D44269019280
:109BE0000200019E40328E426FDA01003631097860
:109BF000090774D4002B7DD113780293002B16D063
:109C000006000127011DCB8F363601339BB2CB876F
:109C100003963678BC46374000D188E01D2B06D924
:109C200063469E43039B1E700023CB8713700BF08B
:109C3000F9FC434A0723904276D94249043B8D42BE
:109C400072DBC8220133920095426DDC023B8C42EC
:109C50006ADB013B944267DC01980433884263DB92
:109C60000133904260DC00235EE0C82200235200F2
:109C70009542ABDD030036331A7800239207A5D452
:109C8000012306001F00363632785408A7433C00F3
:109C900002279C40BA432243327097E7C822520001
:109CA00094429BDD020036321278520796D40600A9
:109CB0000122363633789F08BA4397000422934333
:109CC0001A003A433270012388E7C821019E4900F7
:109CD0008E428FDD01003631097809078AD40100F0
:109CE000012636310B78DF08BE430827F600BB4358
:109CF00033430B701378032B00DD7DE70133DBB2B8
:109D00001370012B03D10021031DD98774E7042BA5
:109D100000D071E7020036321178033B0B43137019
:109D200000230430C3870B33180005B0F0BD092BA6
:109D300000D87CE7029BCF87013B77E770FEFFFFEF
:109D4000FF700200E0FCFFFF70B5C369C2681B68CA
:109D50008AB00400451D1A4207D0EB7F002B09D0C2
:109D6000013B06E03300032239E0EB7F0B2B01DCE3
:109D70000133EB77EB7F082B0DDD0122A379134232
:109D800009D11343A371A188130006A80BF0EBFAC5
:109D9000FFF700FC2062EB7F012B23DC0123A2797B
:109DA0001A421FD00025A188A571022202A80BF03B
:109DB000DAFAA31DDE7F012E14D1FFF7EBFB2B0097
:109DC000226A801A994100900191019BA188AB42BF
:109DD00003D1134B009A9A42C4D90123042206A846
:109DE0000BF0C1FA0322A3791340012B0AD1FFF72C
:109DF000D1FB0023226A801A9941994204D1094B70
:109E0000984201D80AB070BD0223A279A1881343F9
:109E1000A3710522012306A80BF0A5FAF2E7C046BC
:109E2000E7030000DB05000010B50400034B083316
:109E30000360FFF7E5FB200010BDC046208502004F
:109E4000F0B5070000250E0085B002930AAB1B7821
:109E500008370393104B0400083303600192858098
:109E6000857129001822380009F050F9039A310051
:109E700038000EF05EF96B466A469B88127AA38022
:109E8000A31DE671DA77631D25622000DD77FFF7F9
:109E900099FB200005B0F0BD208502000048704706
:109EA00016FCFFFF10B53320FEF7B2FE004810BDD0
:109EB00016FCFFFF002310B50400838083710D485A
:109EC0002164083020608020C000A061E061206231
:109ED000E3602000236163616362A362E362236342
:109EE0006363A363E363636411000BF093FC2000DE
:109EF00010BDC04638850200F0B5534F97B03B689F
:109F000006000593002B00D08BE00B331C2221218F
:109F100006A80AAC00F0A2FF0EAD0B231D222221E1
:109F2000200000F09BFF0B231B222321280000F0C0
:109F300095FF08200EF088FA0122059B110004907D
:109F40000CF0A7FE1D2130000CF028FC00281DD0CD
:109F5000A38812ADAB80A3796020AB713B4B129309
:109F6000A3681493237B2B73637B6B73A37BAB730B
:109F70000EF06AFA05230193183300932A00049B1C
:109F80003100040001F026FE3C604AE03C21300034
:109F90000CF032FC00281CD0A38812ADAB80A37952
:109FA0006020AB71294B1293A3681493237B2B730E
:109FB000637B6B73A37BAB730EF046FA05230193AF
:109FC000373300932A00049B3100040001F06EFF38
:109FD000DAE73C2130000CF0B3FB00282BD0AB8833
:109FE00012ACA380AB79A420A371184B1293AB6879
:109FF00014932B7B23736B7B6373AB7BA3730EF088
:10A0000023FA052305000293013B019338330093A3
:10A010002200049B310001F027FC0D4B1D604435EC
:10A020003D600B4B1A68084B002A01D019684A643E
:10A03000186817B0F0BD48200EF006FA0522049902
:10A040000400FFF737FF9FE724250020DC8402008F
:10A050002025002082B0F0B50400EBB0642071939D
:10A0600070920EF0F0F805220EA811000BF0CBF95B
:10A0700097490FA8FFF7BCFB00221FAB6AA91A6023
:10A080005A609A600C338B42F9D11922002111A831
:10A0900009F03CF8A0680BF07FFF00260990FF2133
:10A0A000A06800F0BBFC8B4FA06800F05FFB079638
:10A0B0000896079B182B00DDBEE0864B9F4203D01D
:10A0C000854B9F4200DBAEE0A0680BF067FFA56800
:10A0D000824918A8FFF7A2FA782218A9280000F0F0
:10A0E000E3FB18A80BF0A5F800267A4F0322089B83
:10A0F000606801331A4008920BF02CFB0500606881
:10A100000BF02FFB0022764B04929D4210DB0132B4
:10A1100004922A00C8320BDBAA2204219200049187
:10A12000954205DC03220492C82D01DC013A049219
:10A1300000220592984210DB012305930300C833E7
:10A140000BDBAA2304329B000592984205DC032313
:10A150000593C82801DC013B05930EA80BF04AF9D2
:10A16000002511ABEB5C012B08D15E496B00CA18CE
:10A170005278C95C0EA8FF23FFF7CEFA0135192DDE
:10A18000EFD16B4614229A5E6B460EA81021595EE1
:10A19000089BFFF7C1FA002F01DB0F2E07DD00221D
:10A1A000A0680092743013000EA90BF039F9002357
:10A1B0000693069B04985A004A4BD15C814227D1F2
:10A1C0009B185B78059A934222D12C2206AB9B18F0
:10A1D000069A9B5C012B1BD00C23079A21685343E2
:10A1E0001D0000220AA80BF03FFB1FAA2B0094467B
:10A1F0000AAA634423CA23C32C2206AB06999B18E0
:10A200002B3A5A54079B01360133DBB20793F6B25F
:10A21000069B01330693192BCBD16420643F0EF0CB
:10A2200012F83FB245E7002F02D00F2E00D05DE7B5
:10A23000A06800F09BFA59E71FA918A8079A0BF02D
:10A2400022FD6A461BAB23CB23C21B6813601899FF
:10A25000199A1A9B20680BF0EFFAE568002D0CD0D4
:10A26000214910A8FFF7DAF91C2318AA10A9280021
:10A270000CF031FA10A80AF0DCFFA0680BF08EFE9B
:10A280000FA910A8A5680BF09EF80022174B0092AA
:10A2900010A901932800130000F0AAFA10A80BF0EF
:10A2A00085F8FA2080000DF0CEFFA0680BF076FE56
:10A2B0000999A06800F0B2FB0FA80BF077F80EA880
:10A2C0000BF074F86BB0F0BC08BC02B01847C04685
:10A2D000149202008C3C0000D18AFFFF59920200C8
:10A2E00058FDFFFF799202006E920200DC0500002B
:10A2F000F0B587B001930EAB1B88060003930D9B4E
:10A300000D000093019B02920C9F002B3ED0002F6A
:10A3100002D1009BDB0739D528200EF095F8040008
:10A3200010300BF015F86B461B89182025806380D0
:10A330000EF08AF8049707000500009B1022059391
:10A34000019B002108C7380008F0E0FE082204A99C
:10A35000380008F049FE0E4B02226B61002303997E
:10A36000E3602362636233680A43A560A2805B688E
:10A37000210030009847002806D020000AF00FFF87
:10A3800020000EF05DF8034807B0F0BD0248FBE77F
:10A39000A958020016FCFFFF17FCFFFF70B58CB038
:10A3A0008360109B01604260C3600400184918007C
:10A3B0000CF05CF9051E14D001001C22103105A818
:10A3C00008F012FE6A4608AB43CB43C21B68136019
:10A3D00020680599069A079B0BF02EFA28000EF0CC
:10A3E0002FF80C4B186800280ED00B4A05AB0592CD
:10A3F00000220692C03202926A4622CB22C2230079
:10A4000003220521FFF774FF20000CB070BDC04689
:10A410006E9202001425002055A00100F0B5040042
:10A4200085B0637A9C46002B04D120000BF048FCD9
:10A4300005B0F0BDA37A266F01931023019AF3565D
:10A4400000259B1801229A402900F3680292039389
:10A45000039B9D4231DAB368019A6B439B18726982
:10A460005B00E77AD3181A785878E379012F14D172
:10A470005F1E3F1A10003A005B004343606F821872
:10A48000D3189B79634500DD6346627B1A4202D094
:10A490000123AB4019430135DAE7022F05D15F1ED6
:10A4A000BA1A277A013F381AE6E7032FE4D1277A50
:10A4B000013FBF1A02003800DEE71123C943F356FB
:10A4C000606C994023691940029B19430DF07BFF92
:10A4D000A37B072BACDC627B581C520062730B49D8
:10A4E0009A00A073022B03DC88580DF0A1FE98E7B8
:10A4F000074B2000236300236363064B8958E46203
:10A50000236414300DF01FFD92E7C04664850200FD
:10A510001DA40100AD5C020010B50400044B0360F3
:10A520000DF009FD200005F0C7FE200010BDC0465B
:10A53000C08C020010B504000E4B08330360FFF717
:10A540005FF8200074300AF031FF200060300AF01C
:10A550002DFF200058300AF06CFE200050300AF029
:10A5600068FE2000044B14306361FFF7D5FF200024
:10A5700010BDC04684850200D48C0200F8B50025C9
:10A580000400324B85800833036085711430160057
:10A590000F0005F07BFE20002D4BE5626361256412
:10A5A0005030FFF775F820005830FFF771F82000A1
:10A5B0006030FFF79BF820000423F25E33682667C3
:10A5C000590009B274300AF01EFF3378226FE3712C
:10A5D0007368012623721023E572A572A780256196
:10A5E000D356916859188B4204DA300098400133F1
:10A5F0000543F8E711230120D356D16859188B423F
:10A6000006DA02009A402669013332432261F6E7F6
:10A6100014200DF019FF226900212A4301230600AE
:10A6200006F05CF9FF226272220000230125483205
:10A6300066646573A373237320001370A366FEF72B
:10A64000C1FFA37920001D43A571F8BD84850200D8
:10A65000D48C0200F0B5437A85B00400002B04D1FD
:10A6600020000BF02DFB05B0F0BD0122837A110014
:10A670009C461023066F0025F356039263449940CD
:10A6800001912900F3680293029B9D422CDAB36882
:10A6900072696B4363445B00E77AD3181A78587881
:10A6A000E379012F10D15F1E3F1A10003A005B00C2
:10A6B0004343606F8218D3189B79002B02D0039B11
:10A6C000AB4019430135DFE7022F05D15F1EBA1AEF
:10A6D000277A013F381AEAE7032FE8D1277A013FAA
:10A6E000BF1A02003800E2E71123C943F356606C39
:10A6F000994023691940019B19430DF064FE667A65
:10A70000B31EDBB2FC2B14D8FEF70AFF0B4B05007F
:10A71000236300230A4863630A4BFF21E462236436
:10A72000704306F075FC29004143200014300DF001
:10A730000AFC637A012B00DD95E791E7C15C02001A
:10A74000B6030000AD5C02001FB5012381881A002A
:10A7500068460AF008FE012303491A0068460AF019
:10A7600002FE05B000BDC046FE0300001FB5030099
:10A7700048331A780400002A0DD000221A700123F1
:10A7800081881A0068460AF0EEFD012304491A0088
:10A7900068460AF0E8FD200074300AF02BFE1FBD69
:10A7A000FF03000010B548300378002B06D0037873
:10A7B000012B03D0012102480AF045FC10BDC04620
:10A7C000FF03000010B50121040006200AF03BFC45
:10A7D000064B984208D148342378002B04D02378C4
:10A7E000012B01D020BFF7E710BDC04616FCFFFFCC
:10A7F00073B5079C0500002C0ADB0600483630784C
:10A80000002807D03078012804D00C4C200076BDF9
:10A810000B4CFBE76846007E1BB20090280012B28A
:10A8200074300AF0FDFD002CF0D02B004A331C8060
:10A83000002407234C352C803370E7E712FCFFFF20
:10A8400017FCFFFFF0B587B00D9C06000F000292C9
:10A850000393002C20DBFFF7A5FF330048331D785E
:10A86000EDB2002D1AD1390005A80AF0ACFD0C9B01
:10A8700001940093029A039B05A93000FFF7B8FFEB
:10A8800005A80AF093FD002C03D03000FFF79AFFD3
:10A890002C00200007B0F0BD014CFAE7014CF8E7AE
:10A8A00017FCFFFF11FCFFFFF8B50400171E09DDC0
:10A8B000060048363378002B06D03378012B03D0BE
:10A8C0000C48F8BD0C48FCE72200E3795632013B06
:10A8D000137023000025200054331D8050300AF0EF
:10A8E00005FD23004A331F8002234C3425802800B5
:10A8F0003370E6E712FCFFFF17FCFFFFF7B505001A
:10A900000F00161E18DDFFF74DFF2B0048331C7893
:10A91000E4B2002C12D1390001A80AF0DFFC3200A9
:10A9200001A92800FFF7C0FF01A80AF082FC280057
:10A93000FFF748FF2000FEBD0148FCE70148FAE7A9
:10A9400017FCFFFF11FCFFFFF8B50400161E0DDD1C
:10A95000070048373A78002A0AD03A78012A07D007
:10A960001548F8BD6B4618229B5E07E01348F8E7D0
:10A970005D42069BFF33F5D16B1D1BB22200643292
:10A9800013802300200066331D7060300AF023FD21
:10A99000230000226C331A70954200D0350023004A
:10A9A0004A331D80079B013E5A1E93414C340533A8
:10A9B000268000203B70D4E712FCFFFF17FCFFFF4E
:10A9C000F0B587B005000F00161E03931EDDFFF7DC
:10A9D000E9FE2B0048331C78E4B2002C18D1390072
:10A9E00005A80AF0F0FC0D9B320001930C9B05A911
:10A9F00000932800039BFFF7A7FF05A80AF0D6FCE9
:10AA00002800FFF7DFFE200007B0F0BD0148FBE79C
:10AA10000148F9E717FCFFFF11FCFFFFFF2902D8EF
:10AA20004172002070470148FCE7C04617FCFFFF59
:10AA300013B5040004A80078009020000DF0EEF992
:10AA4000002801D1207516BD0048FCE70EFCFFFF71
:10AA500013B5040004A80078009020000DF0C6F99A
:10AA6000002801D1207516BD0048FCE70EFCFFFF51
:10AA70007FB50D0011000F226A4404001E1E1170E4
:10AA800016D0089B002B13DD012329000093FFF74C
:10AA9000DFFF002802D0074804B070BD0090089B7B
:10AAA000320029002000FFF7C3FF0028F4D0F2E7AE
:10AAB0000148F1E70EFCFFFF17FCFFFFF7B50700A9
:10AAC0000D1E3FD00023022604690193002C35D0CF
:10AAD000AA88A3885340334204D1324204D1AB88C0
:10AAE000334226D0646AF1E7A968A0680CF0B6F892
:10AAF0000028F4D02B88002B02D022889A42F1D172
:10AB00006B88002B02D062889A42EBD1EB68E26836
:10AB1000934201D0002BE5D17B68002B01D02000AF
:10AB20009847A288084B1343A380019B01330193EC
:10AB3000D8E7A368AA689342D4D1DBE7019B200041
:10AB4000002B00DC0148FEBD0080FFFF17FCFFFF6B
:10AB5000F0B5060085B00D1E00D160E00127046944
:10AB6000002C26D00221AA8800230A4202D0A38802
:10AB70005B083B40226829688A4218D1002B12D01A
:10AB8000A968A0680CF06AF8002810D0EB68E268A9
:10AB900093420CD1A3881AB2002A02DA5B045B0C40
:10ABA000A380204811E0A368AA689342EED0646AAB
:10ABB000D6E731692A880F000B1E08D135610123C1
:10ABC000194968460AF0CFFB002005B0F0BD18888F
:10ABD000904205DA586A1F0000280ED00300F6E7FD
:10ABE00018003B000488944207D147886C88A7422C
:10ABF00003DC446A0300002C0BD199420BD1088876
:10AC0000824204DB07D14C886888844203DD696294
:10AC1000D4E72000E6E7596A69625D62CFE703483E
:10AC2000D3E7C04616FCFFFFFD03000017FCFFFF43
:10AC3000064B10B51A00040008322C330260836002
:10AC40000830FEF72FFA200010BDC0469C85020098
:10AC500008B4024B9C46083808BC604731AC010080
:10AC600008B4024B9C46083808BC60470F610200DC
:10AC70000C4A002311002C32083110B54360838147
:10AC800083738260036143618361C3830160040055
:10AC90000830FEF7F9F9044B1A68002A00D11C604D
:10ACA000200010BD9C85020014250020F7B50E0081
:10ACB000012504690192002C36D0238832889A42FB
:10ACC00001D0002B2AD1638872889A4201D0002BD0
:10ACD00024D1FEF74DF90123002806D0C022A38815
:10ACE0001340C03B5A425341DBB2019A934214D104
:10ACF000A7883BB2002B10DB10223100A01808F00F
:10AD000073F940231F420BD1FEF732F9002807D018
:10AD100021000648FEF7DCFA00E00025646ACAE775
:10AD200020000BF0FDF9F9E72800FEBD21610200CB
:10AD300008B4024B9C46083808BC6047A962020070
:10AD4000F0B587B001930EAB1B88060003930D9BF3
:10AD50000D000093019B02920C9F002B3ED0002F10
:10AD600002D1009BDB0739D528200DF06DFB0400D4
:10AD700010300AF0EDFA6B461B891820258063809D
:10AD80000DF062FB049707000500009B102205935D
:10AD9000019B002108C7380008F0B8F9082204A96F
:10ADA000380008F021F90E4B02226B610023039951
:10ADB000E3602362636233680A43A560A2805B6834
:10ADC000210030009847002806D020000AF0E7F95B
:10ADD00020000DF035FB034807B0F0BD0248FBE74B
:10ADE000E362020016FCFFFF17FCFFFFF0B5040052
:10ADF000160000258380164A164B8571026021815A
:10AE000046810573186889B08C46A8421DD0124A45
:10AE100005950492C02202926A4604AB82CB82C29C
:10AE2000614623002A00FFF78BFF0B4A094B06926D
:10AE3000C022186802926A4606AB079582CB82C28E
:10AE400023002A003100FFF77BFF200009B0F0BD8E
:10AE5000E0850200142500200D64020030B50024B6
:10AE600003730123034D84710560818082734373F2
:10AE7000846030BDDC84020070B583790400DB0798
:10AE800002D580680DF0DCFAA3799B0702D5A06893
:10AE90000DF0D6FAA3795B0707D5A0230021144A49
:10AEA000DB00D150A0680DF0CBFAA3791B0708D5C1
:10AEB000A568002D05D028000BF041FF28000DF0FB
:10AEC000BFFAA379DB0605D5A068002802D0036885
:10AED000DB6898476023A2791A4205D0A068002851
:10AEE00002D003685B6898470023A360A37170BD1C
:10AEF00000700040F7B50126037B040033422BD0DD
:10AF0000612385791D4017D1FFF7B6FF18200DF09A
:10AF10009BFA0E230700E35618220093637B290057
:10AF2000019308F0F3F8019A009938000DF001F947
:10AF3000A379A7603343A3716023A2791A4203D097
:10AF4000A0680CF08CFFFEBDA3685A6958681268AF
:10AF50001040431E9841F6E70048F4E716FCFFFF57
:10AF600010B50124837941731C4004D080680DF032
:10AF700071F9002010BD6022134203D080680CF0EC
:10AF800075FFF6E70048F5E716FCFFFF70B5040013
:10AF900000250D4B0E00083385808571036021006C
:10AFA00018300BF0E6FA2000210020300BF004FBF3
:10AFB000064BA680A571E5712572E5602561656186
:10AFC00020001C6070BDC046F085020028250020CE
:10AFD0008379DB0702D5C160002070470048FCE799
:10AFE00016FCFFFF8379DB0701D5C0687047014875
:10AFF000FCE7C04616FCFFFF70B545690400002D54
:10B0000020D0037A032B1FDCFFF7ECFFA8622C2073
:10B010000DF01AFA2C220021050008F077F8002321
:10B02000626953622369002B07D122610020237AD1
:10B0300065610133237270BD0B00596A0029FBD191
:10B040005A62F3E70148F6E70148F4E717FCFFFF0F
:10B0500013FCFFFF144B70B55A68144C002A03D040
:10B0600000225A600132A2601A69002A17D000211A
:10B0700019618023DB00E3580D4D012B10D1A9236A
:10B08000DB00E15828684942FFF7A2FF2868FFF774
:10B09000B3FF2B685A69074BE2500123A36070BDD0
:10B0A0002868FFF795FFF8E7FC100040001000400B
:10B0B000282500200405000003000069002809D0AD
:10B0C0000221054AD167426A1A611A7A013A1A7254
:10B0D000024B19607047C04604E100E000E100E067
:10B0E00010B5002903DB024B19600CF006FF10BD00
:10B0F0002C25002070B504001E0004AB1D7805F05F
:10B100008FF820000E4B40302360FEF7C1FA230079
:10B1100001364C33013522001E701D730023E121DE
:10B120004E32A3646365138053809381D381013BC6
:10B13000200063644902FFF7D3FF200070BDC046C2
:10B140008C840200F7B580277F053D697C69082261
:10B15000113C6C4306002100684607F045FF104B88
:10B16000009A9A4219D00093002301937969300024
:10B17000133969430BF035FA019A009930000BF04E
:10B1800048FA210030000BF02CFA7969AB0813392A
:10B190006943220030000BF02EFA0198FEBDC04634
:10B1A000FECA0000F0B50D00ABB00D9200213022B8
:10B1B000060012A80B9307F0A9FF280008F00EFA6A
:10B1C000431C0C93102B00DDB7E00B9B202B00D908
:10B1D000B3E0290030000BF049FA071E56D12900D0
:10B1E0000C9A12A807F000FF0D990B9A16A807F009
:10B1F000FBFE80235B051F695A693000113A7A43D0
:10B200005D690D92FFF79EFF0D9B302208330021F0
:10B2100004001EA80F9307F079FF29001339794322
:10B2200030000BF0DEF90F9B0B9300230C930E9371
:10B230000C9BA34249DA0B9930221EA807F0D4FEDA
:10B2400012A91EA808F086F900282DD13D4930002A
:10B250002200109111940BF0DCF96A460B9B0993C4
:10B2600015AB23CB23C223CB23C223CB23C2300075
:10B27000149B1299139A0BF0DAF901230E930B9B8E
:10B2800030330B930C9B01330C93D1E710300B9AA6
:10B290000D9907F083FE040038000DF0D1F8002C62
:10B2A0009DD120002BB0F0BD6A460B9B099321ABCA
:10B2B00023CB23C223CB23C223CB23C230001E992E
:10B2C0001F9A209B0BF0B3F9D9E7E5433021ED1726
:10B2D00025404D430F9B5D190E9B002B1BD1B81EC3
:10B2E00005F00CFE84422AD01649013430002200B9
:10B2F000109111940BF08DF96A46099515AB23CB8B
:10B3000023C223CB23C223CB23C230001299139A2A
:10B31000149B0BF08CF90D9930000BF062F980232F
:10B320005B0559690C2363431339023379430D9A42
:10B3300030000BF060F90024B3E7034CB1E7034C95
:10B34000AFE7C046FECA000017FCFFFF13FCFFFF7B
:10B350008023F0B55B051A6995B002925A69059190
:10B360000299113A51435C69029B133C0500039119
:10B370005C43FFF7E7FE061E39D00027039B30220F
:10B3800008330021083408A8019307F0BFFE21000C
:10B3900028000BF026F90497B74220DA01993022F1
:10B3A00008A807F021FE059908A808F0D3F800289E
:10B3B0000DD11A49721E2800069107920BF029F947
:10B3C00001230493019B013730330193E4E722000A
:10B3D0000C23019928000BF00EF93034F2E7049B9E
:10B3E000002B06D10D49320028000BF012F90C4851
:10B3F00012E0039928000BF0F4F880235B055969EB
:10B400000C23029A13394A43734311002800023374
:10B41000039A0BF0F0F8002015B0F0BDFECA000052
:10B420000CFCFFFF70B50400A280FA220023080084
:10B430000C49920008312160A3716061E260A36051
:10B44000638209490BF012F9051E09D001002000A2
:10B4500010310222123007F0C7FD28000CF0F0FF77
:10B46000200070BD08860200AB92020030B50225B4
:10B47000837987B004002B4204D1FDF705FEA37940
:10B480001D43A57120000BF037F900281CD06B4636
:10B49000DD1C28000BF027F92B78002B17D001A812
:10B4A0000BF01FF90321019AD3170B409B189B1037
:10B4B0002382FEF76FF8E368A18818180123A060C3
:10B4C0001A0002A809F04FFF002007B030BD01228A
:10B4D000064B1A60064A51680029FCD000215160D1
:10B4E000044A1268019201225A60DBE700C0004062
:10B4F000FCC0004008C50040022802D10122014BD7
:10B500001A707047A82A002070B5064C05002378F1
:10B51000002B04D1044802F089FC01232370280089
:10B5200070BDC046A92A0020F9B4010070B50C0016
:10B5300009F017FD002810D00023144DA40A2B7029
:10B5400020000BF0EDF8002803D00A200CF07BFE61
:10B55000F6E72B78002BFCD070BD02210C4B0D4A76
:10B5600099508021C90008005D58002DFCD0A12110
:10B57000C9005C5019580029FCD000219950802145
:10B58000C9005A58002AFCD0E6E7C046A82A002085
:10B5900000E0014004050000F8B50C0015001E0095
:10B5A00009F0DFFC002811D00023174F3B70320058
:10B5B000290020000BF0B2F8002803D00A200CF07C
:10B5C00042FEF4E73B78002BFCD0F8BD01210F4888
:10B5D0000F4B844619508021C9005A58002AFCD0CC
:10B5E00080270022FF00964207DD910068586050D6
:10B5F000D9590029FCD00132F5E7002261465A50A2
:10B60000DA59002AFCD0E0E7A82A0020040500004F
:10B6100000E0014008B4024B9C46443808BC604737
:10B6200025670200FA21F8B50389C90004005943CF
:10B6300032480BF029FBFA21890005F05FFC304FFE
:10B640002081A17A38000BF01FFB23002600250083
:10B6500022894C33A072A0361A808C3531780023B1
:10B660002A2228680AF0A7FC002801D02548F8BD46
:10B6700031781F235B2228680AF09DFC0028F5D151
:10B68000317820235C2228680AF095FC0028EDD14F
:10B69000317801232C2228680AF08DFC0028E5D19E
:10B6A000317801232D2228680AF085FC0028DDD19D
:10B6B000317801232E2228680AF07DFC0028D5D19C
:10B6C000A17A38000BF0DBFA3178C3B20E22286879
:10B6D0000AF071FC0028C9D1FA2123898900594355
:10B6E00006480BF0CCFA01230343DBB231782A225F
:10B6F00028680AF060FC0028B9D0B7E72886020065
:10B70000208602000EFCFFFF08B4024B9C46443822
:10B7100008BC604725B60100074B10B51A000400AD
:10B7200008323C330260436444300AF041F82000A0
:10B7300009F06AFF200010BD8886020008B4024BA1
:10B740009C46443808BC604719B7010008B4024B56
:10B750009C46443808BC60472F670200F0B50425BA
:10B7600083798BB004002B4204D1FDF78DFCA379C3
:10B770001D43A57120009030FFF7BCFB0026B042AE
:10B780000FD12300A033197820000C2307AD0093BC
:10B790008C302B0001220068FFF76AF9061E03D0E7
:10B7A0002C4E30000BB0F0BD0A2304AA9B182A7857
:10B7B0005A706A781A700022985EAA785A70EA78ED
:10B7C0001A700022995E03912A795A706A791A7068
:10B7D00000229F5EAA795A70EA791A7000215A5E97
:10B7E00004922A7A5A706A7A1A7000215A5E059277
:10B7F000AA7A5A70EA7A1F251A7000229B5EA27AF2
:10B800009C46039B504359425143CB172B407A43EC
:10B810005B185B11A361C3172B401818D3171D4089
:10B820006423AD18059A5B425343A36764236146C2
:10B83000049A40115A434B43E2676D11221DE061A7
:10B8400025622000D36709F058FF2000443009F03A
:10B85000B6FFA6E70EFCFFFF08B4024B9C46443837
:10B8600008BC60475DB70100F7B51E00040008ABD7
:10B870001B881500019309AB00911A8831000AABAF
:10B880001F88FEF7BBF820003A0031004430FEF775
:10B8900011FB134B20001A003C3363642300083271
:10B8A0002260009A8C331A60AB8890308380AB7929
:10B8B0006A4683710B4B92880360AB6803218360F7
:10B8C0002B7B03736B7B4373AB7B83732300A033AE
:10B8D0001A80FFF745FB2000FFF7A4FE2000FEBD05
:10B8E00088860200DC840200F8B5FA260189B600D9
:10B8F0000400714326480BF0C7F9310005F0FEFA49
:10B90000244F2081A17A38000BF0BEF92500A072E7
:10B910005835297800232A22606C0AF04CFB002855
:10B9200001D01D48F8BD297810232B22606C0AF045
:10B9300042FB0028F5D1297801232D22606C0AF002
:10B940003AFB0028EDD1297801232E22606C0AF001
:10B9500032FB0028E5D1A17A38000BF090F9297864
:10B96000C3B20E22606C0AF026FB0028D9D12189CF
:10B97000074871430BF083F901230343DBB22978B5
:10B980002A22606C0AF017FB0028CBD0C9E7C0461A
:10B99000F0860200E88602000EFCFFFF10B50400EE
:10B9A000034B0833036009F02FFE200010BDC04692
:10B9B000508702007FB50425837904002B4204D10F
:10B9C000FDF762FBA3791D43A57120004830FFF706
:10B9D00091FA0025A8420DD1230058331978062387
:10B9E00002AE009301223300606CFFF741F8051EA0
:10B9F00003D00D4D280004B070BD022300210420A7
:10BA0000F356A27ADB00715630565B425343C000B6
:10BA1000C90051434243A3612368E16122629B6AEA
:10BA200020009847E6E7C0460EFCFFFFF8B504008B
:10BA3000150006AA168807AA0F0012881900FDF73C
:10BA4000DDFF0F4B6764083323602300AA88483367
:10BA50009A80AA7920009A710A4AA264AA6822658B
:10BA60002A7B1A736A7B5A73AA7B9A730023A37189
:10BA7000230058331E80FFF737FF2000F8BDC04673
:10BA800050870200DC84020010B50400034B083329
:10BA9000036009F08DFE200010BDC046E48702005F
:10BAA000F0B507005C3787B0040039780023102216
:10BAB000806C0AF080FA0326002802D01F4807B0E5
:10BAC000F0BD0F2502ABED18012339780822009351
:10BAD000A06C2B00FEF7CCFF184B9842EED02B78D1
:10BAE000334203D06420FDF767FBEAE7FA26218999
:10BAF000134DB600714328000BF0C6F8310005F075
:10BB0000FDF920813978A0231122A06C0AF053FAA4
:10BB10000028D3D1A36C21890393714328003F7877
:10BB20000BF0ADF801231843C3B21022390003987B
:10BB30000AF041FA0028C2D0C0E7C0460EFCFFFF61
:10BB40008487020070B50825837986B004002B42F3
:10BB500004D1FDF799FAA3791D43A57120004C305B
:10BB6000FFF7C8F9061E0DD023005C3319780623B1
:10BB700004AD009301222B00A06CFEF779FF061E96
:10BB800003D0134E300006B070BD0E232A786B44EC
:10BB90005A706A7820001A700022995E64224A4323
:10BBA000A263AA785A70EA781A700022995E642219
:10BBB00052425143616329795970697919700021A2
:10BBC0005B5E5A432368E2631B6A9847DAE7C04624
:10BBD0000EFCFFFFF8B50400150006AA168807AA98
:10BBE0000F0012881900FEF765F90D4BA7640833A2
:10BBF00023602300AA884C339A80AA7920009A7186
:10BC0000084AE264AA6862652A7B1A736A7B5A73DF
:10BC1000AA7B1E829A73FFF743FF2000F8BDC0463F
:10BC2000E4870200DC840200F7B5FA250189204F81
:10BC3000AD000400694338000BF026F8290005F038
:10BC40005DF9A17A20811B480BF01EF82600636C79
:10BC5000A0720093218958363378694338000193E4
:10BC60000BF00DF807230343DBB220220199009863
:10BC70000AF0A1F9002801D00F48FEBD3178102349
:10BC80002222606C0AF097F90028F5D1A17A0948C0
:10BC9000656C37780AF0F3FF80235B420343DBB225
:10BCA0002322390028000AF086F90028E5D0E3E7CE
:10BCB00018880200108802000EFCFFFF10B5040077
:10BCC000034B0833036009F09FFC200010BDC04601
:10BCD00088880200F0B50425837985B004002B42E2
:10BCE00004D1FDF7D1F9A3791D43A5712000483097
:10BCF000FFF700F9061E0DD02300583319780623EC
:10BD000002AD0093A8222B00606CFEF7B1FE061E68
:10BD100003D0144E300005B0F0BD1F200023EA5EB2
:10BD2000D31703409B180222A95E5B11CA17024079
:10BD3000521804216F5E5211F9170140C9194911B7
:10BD40002B806A80A980A07A5B42434352424243DF
:10BD50004143E3612368A26121629B6A2000984706
:10BD6000D8E7C0460EFCFFFFF8B50400150006AA90
:10BD7000168807AA0F0012881900FDF73FFE0F4B27
:10BD80006764083323602300AA8848339A80AA791D
:10BD900020009A710A4AA264AA6822652A7B1A7353
:10BDA0006A7B5A73AA7B9A730023A37123005833CA
:10BDB0001E80FFF739FF2000F8BDC04688880200CA
:10BDC000DC840200F7B5FA2504000189134EAD00AA
:10BDD000694330000AF058FF290005F08FF827006A
:10BDE000A36C208100935C373B7881B269433000BB
:10BDF00001930AF044FF6022C3B2019900980AF04F
:10BE0000DAF8002801D00648FEBD39780123622205
:10BE1000A06C0AF0D0F80028F6D0F4E7BC88020045
:10BE20000EFCFFFF10B50400034B0833036009F05C
:10BE3000BFFC200010BDC046E48802007FB5082585
:10BE4000837904002B4204D1FDF71EF9A3791D4329
:10BE5000A57120004C30FFF74DF8051E0DD02300D2
:10BE60005C331978062302AE0093E8223300A06CFD
:10BE7000FEF7FEFD051E03D00B4D280004B070BD7B
:10BE80000223F25E96235B425A4362630021725E94
:10BE900020005343A3630423F25E96235343E363DA
:10BEA00023681B6A9847E8E70EFCFFFFF8B504001B
:10BEB000150006AA168807AA0F0012881900FDF7B8
:10BEC000F9FF0D4BA764083323602300AA884C3385
:10BED0009A80AA7920009A71084AE264AA68626589
:10BEE0002A7B1A736A7B5A73AA7B1E829A73FFF7A6
:10BEF00069FF2000F8BDC046E4880200DC8402002F
:10BF000010B50400054B083303601C3009F091F9AB
:10BF10002000183009F08DF9200010BD10890200B2
:10BF2000FF23F0B52B4D8DB02B7000230400694624
:10BF30000088009303F070F9002802D16B469B78CB
:10BF40002B70254E3368DB68002B07D10023208837
:10BF50001A0019000AF05BFC0DB0F0BD2B78032B22
:10BF6000F4DC1E4901A8FDF759FB336801A9DE681E
:10BF700004A809F0B3F904A930000AF0A6FB0600F2
:10BF800004A809F056F9371E1ED0310020221031C6
:10BF900004A807F029F830000CF052FA297804AB15
:10BFA000C9005918082202A807F01EF820880123AA
:10BFB000082202A90AF02BFC0127002804D12088BE
:10BFC000074A0C210AF021FC01A809F032F9002FE0
:10BFD000C2D1BBE78A2000203C2500203E9302000E
:10BFE000FFFF0000F0B5837991B004005B071BD51B
:10BFF000FDF7D0FA00232269801A9941994203D1B2
:10C00000F423FF3398420FD9A068002808D0364B9C
:10C010001D8801F061F9036815221B6A2900984701
:10C020000422A3799343A371A3799B0759D52F4D7C
:10C030002B68DB68002B50D02D4B1B78032B4CDC7E
:10C04000294B2C491B8804A80193FDF7E7FA2B68BC
:10C0500004A9DE6808A809F041F908A930000AF02F
:10C0600034FB070008A809F0E4F802AB9E1D082382
:10C070003200338006A9073B01980AF0CAFB002F63
:10C0800008D039002022103108A806F0ADFF380092
:10C090000CF0D6F9164B32881B7806A9DE0008ABE7
:10C0A0009E19300006F07AFF002813D0082206A956
:10C0B000300006F099FF2B6804A9DD6805A809F097
:10C0C0000DF9202308AA05A928000AF004FB05A8F9
:10C0D00009F0AFF804A809F0ACF80222A379934361
:10C0E000A37111B0F0BDC046502A00203C250020AD
:10C0F0008A2000203E930200F7B50400002501923B
:10C10000C77FBD4251DA66197078884218D1152967
:10C1100027D801228A402748024222D0F91801205C
:10C120001F291DDCE1193718B9420ED800218B42B6
:10C130000FDD019A7018575C01318770C9B2F6E7BC
:10C14000605D2D180135EDB2DBE70878C854013980
:10C15000EAE7625D9A186255E27F9B18E377002058
:10C16000FEBD655D013DEDB2AB4209D10023AB429E
:10C17000F5DA019AF118D05C01338870DBB2F6E78A
:10C18000DF197F1B01201F2FEADC0227A81C7F423A
:10C1900036187F1BE07F2218964203D23078F05584
:10C1A0000136F7E7451B023DE577019A20000AF0CA
:10C1B0007AFBD5E7FC002000F0B585B001930AAB0F
:10C1C0001E880BAB1B78451C02930EAB1B7804003A
:10C1D00003930B78170003704B8A102243820131BE
:10C1E000280006F001FF6B469B88268363836B461D
:10C1F0001B7B002623776B4601221B7A6761E6834F
:10C20000EB77A31CDA7724210C9B0C2563622300B7
:10C21000200004AA5218127828331A705E709E709B
:10C220002A0031002C3006F071FF2000064BE66337
:10C23000A3632A003100403006F068FF2000034B62
:10C240002665E36405B0F0BD296802001B680200A2
:10C2500070B50D0001F040F804000368002D09D10D
:10C260005B699847FA2080006843074904F046FE5E
:10C27000E08070BD9B6898478542F3DA2368200010
:10C280009B6898470500EDE771020000F0B50700D4
:10C290001600A1B002C70400684918A81D000AF0E2
:10C2A00034FB301E01D007F099F9012204920022DC
:10C2B00083B203920292023201920093320018A9D3
:10C2C0003800FFF779FF23005D49583318A807931A
:10C2D0000AF01BFB281E01D007F080F9012204920E
:10C2E000002283B2039202920232019200932A004A
:10C2F00018A90798FFF760FF23005249AC3318A82C
:10C3000008930AF002FB2698002801D007F066F98E
:10C3100001220492002283B203920292023201921D
:10C320000093269A18A90898FFF746FF631CFF336D
:10C33000454918A809930AF0E8FA2798002801D07F
:10C3400007F04CF901220492002283B20392029278
:10C35000601C023201920093279A18A9FF30FFF760
:10C360002BFF23005533FF33384918A809930AF0EF
:10C37000CCFA2898002801D007F030F90122049265
:10C38000002283B203920292023201920093289A11
:10C3900018A90998FFF710FF2300A933FF332C4990
:10C3A00018A80A930AF0B1FA2998002801D007F0DA
:10C3B00015F901220492002283B20392029218AD71
:10C3C000023201920093299A29000A98FFF7F4FE9D
:10C3D000204B1B780B93002B2DD1079B12971393A7
:10C3E000089B0DAF1493631CFF331593099B1A49E7
:10C3F00016930A9B380017930AF087FA1D214920EB
:10C400003B7810222B707B8A12AE6B8206ABC91868
:10C41000C01806F0E9FD06232B756B469B8D20683E
:10C42000AB83AE6100F068FF036829001B68984782
:10C430000122084B1A70200021B0F0BD292A00000B
:10C44000242A0000252A0000272A0000262A0000AE
:10C45000282A0000AA2A00200A18000070B500252A
:10C4600004000B4B8580083385710360C160183070
:10C47000FDF70EF920001C30FDF70AF90123621CBC
:10C48000D377044AA560656120001460A37170BD74
:10C49000108902003C250020FA2130B585B0050046
:10C4A000012302228900684608F05DFF074C2068DE
:10C4B000002809D00AF062FA2988054B2268198001
:10C4C000022391790B43937105B030BD3C250020C8
:10C4D000502A002010B50C0007290AD8806800F007
:10C4E000FBFE064B195703685B6C9847002802D186
:10C4F00010BD0348FCE70348FAE7C0463693020044
:10C5000017FCFFFF16FCFFFFF0B5A54C0D00A5447E
:10C51000040007939AAB1B78A24909A804930692DA
:10C52000FDF77CF8200029001C3008F0DFFEC02059
:10C53000800001F071FC08200BF086FF070000214D
:10C5400000F092FE15AD0021A7600C220EA806F0A7
:10C55000DDFD2B000EAA43CA43C3934B2900EB60B9
:10C56000002338002B610AF0F0FBA06800F0B4FE55
:10C570000C2200210590280006F0C8FD14200BF0C5
:10C5800063FF8A4B2A0015930300C2CAC2C3884BBB
:10C59000059EC3600023A43603613368002B00D0DE
:10C5A000F7E03060A06800F0A7FE0C220021060032
:10C5B000280006F0ABFD14200BF046FF7D4B1593D1
:10C5C000030086CD86C37C4BC36000230361336BBD
:10C5D000002B00D0DFE03063A06800F07DFE15ADD9
:10C5E0000C2200210600280006F090FD14200BF01C
:10C5F0002BFF724B98361593030086CD86C3704B84
:10C60000C360002303613368002B00D0C5E001251F
:10C6100004AB1B7C04AA2B43306008A928001374C8
:10C620000AF0F9F8A06800F077FE036865495B6AD4
:10C630009847A06800F070FE036863499B699847BB
:10C64000A06800F069FE0023026800931668049950
:10C650002A00B047049B002B0AD020000AF097F96B
:10C66000032805DDA06800F057FE0368DB689847E3
:10C670000EA80AF00FF92F2004ABC0180AF00AF92F
:10C68000362004ABC0180AF005F93D20042504ABA0
:10C69000C0180AF0FFF80EAB0A93A06804AB5D77F0
:10C6A00000F03AFE03680AA91B699847A06800F0E9
:10C6B00013FE03680AA95B6D9847A06800F00CFEA2
:10C6C00003680021DB6D9847A06800F005FE036851
:10C6D00002219B6D984700212000FFF7FBFE1820E8
:10C6E0000BF0B2FEA16800F057FA384B384A1B68CD
:10C6F000A1680393374B15A81B680CAE0293364B09
:10C7000000271B680193069B1B685B190093334B42
:10C7100012681B68FFF7BAFD30200BF095FE079AF0
:10C72000A16800F0FFFAA06800F0D6FD03683100B0
:10C730009B6A98470823A0683380DB187380B78012
:10C7400000F0CAFD03683100DB6A98472900A06841
:10C750000AF0E7F8099A09219378A06852190AF0BB
:10C76000F3F8A06800F0B8FD32210771A068FFF768
:10C770006FFD04AB1B7FBB4204D0A06800F0ACFD92
:10C780000AF0B9F809A808F054FD95239B009D44D0
:10C79000F0BD036105E703611DE7036137E7C046AC
:10C7A000ACFDFFFF239402003768020099C401002A
:10C7B0004568020021BF0100536802008168020041
:10C7C00061680200E1C7010015C80100382500209A
:10C7D000342500200C2000203025002010200020CF
:10C7E00013B506226846FCF729FF094B1C68002C8C
:10C7F0000AD0694601A808F071FD200001A90AF0DD
:10C80000E7F801A808F015FD684608F012FD13BD11
:10C810003C250020002373B501AE0C00310005005B
:10C82000019302F0F9FC002802D1B278064B1A708D
:10C83000064B1868002806D061426141044BC9B21A
:10C840001D800AF0CDF873BD8A2000203C25002011
:10C85000502A002030B5284CA9B06A220D000DA83E
:10C86000210006F0C1FB0DA903A8FCF745FF03A9B1
:10C8700006A808F0A8FD01230193013BFF3B0093AC
:10C880000533FF33642206A92800FEF799F806A8AD
:10C8900008F08CFD210019226A3106A806F0A4FBDD
:10C8A00005220024110006AB04A808F0B3FD04A97A
:10C8B00005A808F088FD019400942300220005A932
:10C8C0002800FDF7BFFF05A808F070FD2100280033
:10C8D000FEF7A4F805340520FCF76EFCFF2CF5D11B
:10C8E000FA208000FCF768FC04A808F05FFD03A8AC
:10C8F00008F05CFD29B030BDB3920200F0B59D4B4D
:10C9000095B005921A68082307000291D16C06A819
:10C910000B43D3649849FCF781FE984907A8FCF7BC
:10C920007DFE3A0000240DAD28001C3206A908F057
:10C93000ECFC07AA290008A808F0E7FC280008F08A
:10C9400078FC7B1CDC77B86800F0C6FC03680BAE93
:10C950005B699847280009F09DFF2B2004ABC018A5
:10C9600009F098FF322004ABC01809F093FF39207A
:10C9700004ABC01809F08EFF0B950425B8687571DB
:10C98000347100F0A9FC036831005B6D9847B8680A
:10C9900000F0A2FC036821009B6D9847B86800F086
:10C9A0009BFC030006000A331F222100180003939A
:10C9B00006F0ACFB039B3000DC7709F093FF062107
:10C9C000B86809F0AEFF089A09219378B86852193F
:10C9D00009F0BAFFB86800F07FFCC8210471B8689C
:10C9E000FFF736FCB86800F077FCFF260481B868D2
:10C9F00000F072FC09F07FFF0298FDF7B7FE3800E7
:10CA0000FCF742FB02993800FFF724FF0299380037
:10CA100009F0F9FF0394049501257B691D402DD091
:10CA2000574909A8FCF7E4FE09A90AA808F0CBFCBD
:10CA300000220AA91300019200920298FDF702FF5A
:10CA40000AA808F0B3FC039B002B42D1043E282E19
:10CA500041DD0025FE2E00DC039D059808F094FEC4
:10CA6000002806D001237A699A431300049A1343DD
:10CA70007B61002409A808F099FC03957B69049A5E
:10CA8000134233D0FF210298C825FDF7C7FF0024C9
:10CA9000AD00BB6902229B5E9C4222DA380021B2C3
:10CAA000183008F048FC0023010002981A00743086
:10CAB000FCF7EEFE2800FCF77FFB029809F06EFA07
:10CAC000C820FCF779FB02227B69134209D10134AB
:10CAD000DFE70436BBE7029809F060FA002EBCDD00
:10CAE000BAE7FA208000FCF767FB002402237D6987
:10CAF0001D421CD006331D4024D0224909A8FCF752
:10CB000077FE09A90AA808F05EFC00220AA9019292
:10CB1000009213000298FDF795FE0AA808F046FC63
:10CB20001948FCF749FB09A808F040FC174C6420A1
:10CB3000FCF742FB164B01349C4200DC6CE708F02A
:10CB400022FA69E7134909A8FCF752FE09A90AA8C5
:10CB500008F039FC2B002A000AA9019500950298DB
:10CB6000FDF770FE0AA808F021FC09A808F01EFCD9
:10CB7000DDE7C046C02400204A9302005A93020019
:10CB80005C930200A1930200983A00008C0A000016
:10CB90008B0A0000DE93020000225C4BF0B50833E4
:10CBA000060003600F001000A9B0B1600BAB99182C
:10CBB00001324870102AFAD10F3A554C1A700E32D1
:10CBC000105D991A0874013AFAD2997B5A7B0902CE
:10CBD0000A4331000C31039125211B7813AD2B70D2
:10CBE00002ABC918452302A81B186A82180010223C
:10CBF00006F0FAF9039B64216B610123002402AA69
:10CC00002B832B775218093313701DAB1C706D23C7
:10CC100002AA9B181C706E2321009B181EA80C22D0
:10CC20006C83EC836C621C7006F070FA394B0C223A
:10CC3000210023A8AB63EC6306F068FA364B0322AD
:10CC4000EB64462302A95B18DA7722002C65059570
:10CC5000347306AD2B1901345A70102CFAD101230C
:10CC60002E482B700E33195CEA1A1174013BFAD26C
:10CC700011212520AA7B6B7B12020BAC13432A786F
:10CC8000638202ABC9182270C018102206F0ACF9FA
:10CC90000123237505ABA36100233800A38300F0B3
:10CCA0002BFB036821001B68984713ABDB8BB06834
:10CCB000B38200F021FB002203680092B18A039A3C
:10CCC000DC680123A047B06800F016FB07001420C1
:10CCD0000BF0BAFB04000C22002106F017FA002327
:10CCE00020002361069340C00133082229000793E6
:10CCF00006F07AF90A4BE360BB69002B03D13000E0
:10CD0000BC6129B0F0BD2361F9E7C0462889020063
:10CD100037940200296802001B6802004794020051
:10CD2000696A0200F0B500260400774BDDB00833D5
:10CD300003608160C260868086713200734947A8B3
:10CD400009F032FF230014330893122301250193C5
:10CD50000E3B04950093089A330047A90396029668
:10CD60001DA8FFF729FA3200694947A809F01CFFFE
:10CD70000C2322000193083B15AF10320495009359
:10CD800047A933000396029632A8FFF715FA32003E
:10CD90006049380009F008FF23001C330993082379
:10CDA0000193043B390004950093099A33000396DC
:10CDB000029647A8FFF700FA32005749380009F0F9
:10CDC000F3FE54200BF040FB23001833079312238B
:10CDD00001930E3B390004950093079A33000396A4
:10CDE00002960690FFF7E8F9069B0822A3624B4BD8
:10CDF0000AA90A93069B0B961800DC62303006F0F5
:10CE0000F3F8069A464B2682936313006682293311
:10CE10001D7023690422E3610999079806F0E4F87C
:10CE200004220799089806F0DFF86622032304A974
:10CE30005218D377BA225218D37787225200521849
:10CE4000D377069A37490232D3771DAB0C9332ABB6
:10CE50000D9347AB0E93069B3200A68510A80F9347
:10CE600009F0A2FE30223121452004AB9B181B782B
:10CE700012323B7004AB9B181B88323A7B8204ABA6
:10CE8000C918C01806F0B0F804230CADA0683B75B3
:10CE9000BD61BE8300F030FA036839001B68984713
:10CEA000822204AB9B181B885432238404AB9B184A
:10CEB0001B885432A38404AB9B181B88A06863842E
:10CEC00000F01AFA070014200BF0BEFA05000C223D
:10CED000310006F01BF92800134B2E61082210C008
:10CEE00010A91093119606F07FF8104BEB60BB6908
:10CEF000B34206D1BD612000FCF7C6F820005DB04A
:10CF0000F0BD2B61F6E7C046348902007794020039
:10CF10005794020067940200879402007B6B020022
:10CF2000E76A02009794020099CF0100116B02009A
:10CF3000F0B504000E00150085B000930CAB1B8803
:10CF40001030019308F004FA2680658018200BF059
:10CF50007BFA070002AE33003D000AAA03CA03C3EE
:10CF6000009B102208C50021280006F0CFF83100F0
:10CF70000822280006F038F8064B02227B612000C8
:10CF800000230199A7600A43E360A28023626362E1
:10CF900005B0F0BD3B6B0200F0B50B898DB0059379
:10CFA000CB68050004934B88828C9A420ED1049C76
:10CFB000059B049A1B1BD318032B39DD628821883B
:10CFC000012308A808F0CFF90434F1E7428C9A4213
:10CFD0002ED1049C059B049A1B1BD318032B27DD21
:10CFE0002388282006936388EF680793114B0893E2
:10CFF000002309930BF028FAC0236A460600029327
:10D0000008AB03CB03C22B000699079A3000FFF749
:10D010008FFF3B6831005B6838009847002805D0D7
:10D02000300008F0BCF830000BF00AFA0434D1E705
:10D030000DB0F0BDF96B020070B5040090B08068CF
:10D0400009F0D5FD022101401AD1A38D002B17D084
:10D050000C4B6A4604931023E568A1850591029361
:10D0600004AB41CB41C20A00230006A8FFF760FFD2
:10D070002B6806A99B682800984706A808F08FF837
:10D0800010B070BDF96B0200002815D0006041603F
:10D090008260C360046145618661C7614446046281
:10D0A0004C464462544684625C46C46264460463EF
:10D0B0006E46466374468463002A06D0C46B043C03
:10D0C000043A25681560B442F9D18C6BA6464E6BC4
:10D0D000B546002B06D0CC6B043C043B1D68256094
:10D0E000B442F9D10C6BA446CC6AA3468C6AA24622
:10D0F0004C6AA1460C6AA046CF698E694D690C69DD
:10D10000CB688A680868496870470060416082603F
:10D11000C360046145618661C761444604624C4650
:10D120004462544684625C46C462644604636E464C
:10D13000466374468463C46B043C043925680D60FF
:10D14000B442F9D1C76986694569046970470060CE
:10D1500041608260C360046145618661C761444685
:10D1600004624C464462544684625C46C46264462F
:10D1700004636C4644637446846304697047846B3B
:10D18000A646446BA546046BA446C46AA346846ABB
:10D19000A246446AA146046AA046C76986694569F1
:10D1A0000469C368826800684168704710B5041E4E
:10D1B0000CD006F013FA431EE3189C4208D22278E2
:10D1C0001978013B21705A700134F6E7014810BD0F
:10D1D0000020FCE717FCFFFFF0B585B002900C1EA5
:10D1E0002AD00023C217161A56400193019B300023
:10D1F0005D1C63190A215F1E039303F0EFFF494290
:10D200003031397030000A2103F002FF4742060036
:10D21000002F0FD1029B002B04DA2D23019D039ACE
:10D2200002351370002320006355FFF7BFFF38005D
:10D2300005B0F0BD0195D9E7004FF8E717FCFFFFF7
:10D240000268084B406810B5C018C00010180300F1
:10D25000934205D31C688C4202D31800083BF7E7C1
:10D2600010BDC046FFFFFF1F002370B50400016022
:10D27000436099420AD1064D2B68002B02D109F078
:10D28000B1FF286023689B00EB586360200070BDED
:10D290005025002070B500280DD10C4C2668002EBA
:10D2A00007D108300BF0D0F805003100FFF7DCFFA4
:10D2B0002560206870BD0122054906480B681340AF
:10D2C000F8D1026043600A60F4E7C04644250020BC
:10D2D0004025002048250020436810B50400002B9D
:10D2E00002D104480AF0F7FE606803681B6998479A
:10D2F00010BDC046A7940200436810B50400002B7F
:10D3000002D104480AF0E7FE606803689B69984709
:10D3100010BDC046A7940200436810B50400002B5E
:10D3200002D104480AF0D7FE606803685B6A984738
:10D3300010BDC046A794020000487047FFFF0000E0
:10D34000F0B597B00593036807AD1B68049103938C
:10D3500011002B00060091C991C30024D36821005D
:10D360000C220CA8EB602C6105F0D0FE22000B4BC8
:10D3700010940F9311AB1C70191901344A70102CC2
:10D38000FAD15A820193059B2A00009304990CABB1
:10D390003000039CA04717B0F0BDC046976E020056
:10D3A000FC3070B5046C0500002C0DD124200BF06E
:10D3B0004BF8064B44608361054B8460C460046194
:10D3C0004461C46103602864286C70BD208A020037
:10D3D000088B0200FC3070B5C56B0400002D11D124
:10D3E00034200BF031F8084B85604360074B4561F2
:10D3F0000361074B0562C361064BC5628362064B3E
:10D40000E0630360E06B70BD508A0200408A020056
:10D41000B08A0200C08A0200D08A02007FB5037978
:10D420001548002B1CD0154E154C33782000002BCE
:10D4300016D102AD280009F00BFD002815D16B882C
:10D44000592B12D12B78AA88D91F01290AD800920A
:10D450000C4A2021200005F0EBFF0123337020004F
:10D4600004B070BD0092084AF3E72022074920006B
:10D4700006F0E6F8F3E7C046CA940200CB2A002083
:10D48000AB2A0020E49402000195020026950200D8
:10D4900010B50400024B08C009F0BDFD200010BD0E
:10D4A000408A020010B50400024B08C009F0C8FD14
:10D4B000200010BD508A0200064B70B504000360C6
:10D4C0004068002804D005690AF0BAFF2800F8E790
:10D4D000200070BD308A0200064B70B50400036066
:10D4E0004068002804D005690AF0AAFF2800F8E780
:10D4F000200070BD608A0200064B70B50400036016
:10D500004068002804D005690AF09AFF2800F8E76F
:10D51000200070BD708A0200064B70B504000360E5
:10D520004068002804D005690AF08AFF2800F8E75F
:10D53000200070BDB08A0200064B70B50400036085
:10D540004068002804D005690AF07AFF2800F8E74F
:10D55000200070BDC08A0200064B70B50400036055
:10D560004068002804D005690AF06AFF2800F8E73F
:10D57000200070BD54890200064B70B504000360A2
:10D580004068002804D005690AF05AFF2800F8E72F
:10D59000200070BD64890200064B70B50400036072
:10D5A0004068002804D005690AF04AFF2800F8E71F
:10D5B000200070BD74890200064B70B50400036042
:10D5C0004068002804D005690AF03AFF2800F8E70F
:10D5D000200070BD84890200064B70B50400036012
:10D5E0004068002804D005690AF02AFF2800F8E7FF
:10D5F000200070BD208A0200FC3070B5046C05006C
:10D60000002C0DD124200AF01FFF064B44608361DB
:10D61000054B8460C46004614461C4610360286494
:10D62000286C70BD208A0200088B0200104B10B5D8
:10D63000083303600F4B0400C36080230E4A5B0075
:10D64000C250C018FCF768FF20000C4BB830E360F4
:10D65000FFF7B2FF2000AC30FFF79EFF2000A030A4
:10D66000FFF78AFF20006C30FFF776FF200010BD27
:10D67000348B02007C8B0200D48C0200948902005F
:10D68000F0B50500040087B0AC356B68AB60A868E6
:10D69000002807D0C36821009847AB68002BF4D05E
:10D6A0001B69F3E72500B0352868002804D0066917
:10D6B0000AF0C6FE3000F8E72200FC215832137849
:10D6C00028600B40137023005C33187020000A3070
:10D6D00009F07FFD2000343009F07BFD606E0028EA
:10D6E00004D005690AF0ACFE2800F8E7250098355B
:10D6F00060662868002804D006690AF0A1FE3000A0
:10D70000F8E728602500A4352E68002E05D037697B
:10D7100030000AF095FE3E00F7E72E6001AD3100C3
:10D720000C22280005F0F2FC23002A006C3383CA87
:10D7300083C3094BE667A3670C223100280005F07C
:10D74000E5FC2300803307CD07C33000034A903443
:10D750001A60266007B0F0BD7B6E02006D6E02009D
:10D76000444AF0B50600C260A022434B1636083387
:10D7700003600100002342820400320085B003717F
:10D780008360037483823531137001329142FBD17F
:10D79000802580222000AD00D201F377358411006E
:10D7A00000933830002300F00DFF230021004033A8
:10D7B00003931A002B0000255F31157001328A4255
:10D7C000FBD1039AFC21D5772200603213801379B4
:10D7D00020000B401371230068331D70274B256711
:10D7E000E3660C220021783005F090FC230027002E
:10D7F00088331D60224B0837FB67843700210C22D9
:10D80000380005F083FC1F4B1F4AFB602300A03348
:10D810003D611A601D4A5D60DA601D4A1D619A61B2
:10D82000DD61300009F0D5FC039809F0D2FC194BFA
:10D83000601CE3602300C4331D705D709D70FF3079
:10D8400002F024FD8C235B00E55023001933FF33E5
:10D850005D618023104A5B00E2502300012220001A
:10D86000FE3352425A86023B9D63DD631D6405B060
:10D87000F0BDC04694890200348B02005489020036
:10D880007B6E02006D6E02006489020074890200E2
:10D89000848902007C8B0200D48C020070B5074C96
:10D8A0002368002B07D1A02040000AF0CDFD050021
:10D8B000FFF756FF2560206870BDC0465425002044
:10D8C00070B50C220D000021040005F01FFC0023A0
:10D8D0002361024B25602000E36070BD896E020069
:10D8E00070B500250400254B05710360244B45717C
:10D8F0008360244BC5604361234B85610362234BE6
:10D900004562C362224B05638363C56329004430CB
:10D91000FFF7D6FF200029005830FFF7D1FF200085
:10D9200029006C30FFF7CCFF1A4B22002360230044
:10D930008032F83320C29342FCD126001D00E93624
:10D94000FF36280008220021083505F0DFFBB5422C
:10D95000F7D18E239B00E218002308C5AA42FCD110
:10D960008E2200219200A3540B4B0C4AE318A218FC
:10D97000198002339A42FBD1200070BD808A0200D8
:10D98000308A0200408A0200508A0200608A020047
:10D99000708A0200088C02003A0200006202000055
:10D9A000024B0B60092313607047C0462E9502009E
:10D9B00010B504000020FFF771FF03681B6998474A
:10D9C0000300F3331C7086235B00C050030000216A
:10D9D000044AFC335A61044A99615A62F4300AF0ED
:10D9E000B2FA10BDAF740200C1740200012110B57B
:10D9F000044A080002F0F0F9031E00D00B231800BF
:10DA000010BDC046B1D90100F0B5060093B00020AA
:10DA10000C00FFF743FF03685B6A984700F0F0FCD7
:10DA200006AB00280ED000221A7105AA0692082221
:10DA300018001A730AAA9A6000F0ACFD002803D0FF
:10DA400013B0F0BD18711873002323732371019371
:10DA50003300BA331B78019A9A4241DA07235343C1
:10DA6000F218BB321278BB33022A31D10025F318E9
:10DA7000029306AF3B7B9D4223DAAB000393089BE6
:10DA8000AA00995802980AF0EEF800281DD0237BCE
:10DA9000AA009C46BB6899180293634608689A00DE
:10DAA000A368D0506346013323733B7B5A1E9542D3
:10DAB00005D00C481B1802989B001B580B6006AB46
:10DAC0001A73019B0133DBB2C1E70135EDB2D0E738
:10DAD000227920689100F31801320B502271F0E78F
