:020000021000EC
:108000000040002069FF0100A5FF0100A7FF01005B
:108010000000000000000000000000000000000060
:10802000000000000000000000000000A9FF0100A7
:108030000000000000000000ABFF0100ADFF0100E8
:10804000AFFF0100D5AC010025060200AFFF010023
:10805000AFFF010000000000E1FF0100AFFF0100E1
:10806000AFFF010001080200AD040200AFFF0100F4
:10807000AFFF0100AFFF0100AFFF0100AFFF010044
:10808000AFFF0100AFFF0100AFFF0100AFFF010034
:10809000AFFF010039FA0100C5FB0100AFFF01008D
:1080A000AFFF0100AFFF0100000000000000000072
:1080B00000000000000000000000000000000000C0
:1080C000054B0648033310B51B1A062B03D9044B86
:1080D000002B00D0984710BDAC200020AC20002021
:1080E000000000000648074910B5091A8910CB0F97
:1080F0005918491003D0044B002B00D0984710BDED
:10810000AC200020AC2000200000000010B5074C7F
:108110002378002B09D1FFF7D3FF054B002B02D0AA
:10812000044800E000BF0123237010BDB8200020E8
:1081300000000000807F0200094B10B5002B03D027
:108140000849094800E000BF08480368002B02D135
:10815000FFF7C8FF10BD064B002BF9D09847F7E793
:1081600000000000BC200020807F0200AC20002026
:1081700000000000144B002B00D1124B9D46402202
:1081800092029A1A924600218B460F461148124AD3
:10819000121A0AF0D9FB0D4B002B00D098470C4B5C
:1081A000002B00D098470020002104000D000B4850
:1081B0000AF060FA0AF0ACFA200029000EF078FC10
:1081C0000AF076FA000008000040002000000000DD
:1081D00000000000B0200020482A0020DD26020018
:1081E000044A84B05378032B01DC0133537004B08C
:1081F0007047C04674290020044A84B05378002B8D
:1082000001D0013B537004B07047C0467429002070
:1082100030B5022085B000F01BFF094B094D1A78DC
:108220002C6802705B7801004370074B60001818DF
:1082300002220AF0F7FA01342C6005B030BDC046C6
:1082400074290020D42000206A29002070B5002461
:10825000094D6535FF35094BE25C032A01DC01322B
:10826000E2541A19195D5278FF232800023401F0F4
:1082700093F80A2CEFD170BDD82000206A29002085
:1082800010B50400034B036040300BF013FD2000D9
:1082900010BDC046D06E020030B5022087B000F09D
:1082A000D7FE144B144C1A78050002705B782A0034
:1082B000437020000223B430104902F0B3FD104B8C
:1082C000984208D00F4B1049984205D0280000F082
:1082D000F3FE07B030BD0D4905A800F0DFFF200018
:1082E000782205A9F03002F049F905A80BF0E2FC6C
:1082F000ECE7C04674290020D82000208C790200C9
:1083000013FCFFFF17FCFFFF91790200AC7902001C
:108310001FB5009009480191B430094902920393B6
:108320000CF0E5FE002804D0064B027C1A70427C5B
:108330005A700EF0A7FD05B000BDC046D820002041
:108340008C79020074290020F0B585B01F000AABBB
:108350001B880600029115000393002F1BD02820D4
:108360000EF094FD6B4604001989039BAAB200939A
:108370003B000BF03EFC336821005B6830009847FF
:10838000002806D020000BF04BFC20000EF07AFDF8
:10839000024805B0F0BD0248FBE7C04616FCFFFFEF
:1083A00017FCFFFFF7B5002310250227214C224EB2
:1083B000D03433707770214B0322012100952000C7
:1083C000FFF7C2FF1E4B0322390000952000FFF784
:1083D000BBFF1C4B03221A2100952000FFF7B4FFBE
:1083E000194B0422012100952000FFF7ADFF390051
:1083F0000095164B04222000FFF7A6FF14491548EC
:108400000BF02CFB144B1B68002B11D00948F030EB
:108410000CF005FB0748727865303178FF23FF3098
:1084200000F0BAFFFFF712FFFA2000F005FDE9E7C0
:10843000F7BDC046D820002074290020F981010032
:10844000E181010011820100998201001183010084
:10845000298F01004D8201000420002010B503483F
:1084600000F0FCF8FFF79EFFFCE7C046D820002094
:1084700010B5054C200000F039F8044A04492000EA
:108480000EF0F9FC10BDC046D820002000200020CE
:1084900095840100CA23144A9B0010B5C2501C33B6
:1084A0000400C0180BF006FCD0239B00E0180BF072
:1084B00001FC20009130FF3001F0F6FA2000693015
:1084C000FF3001F0F1FA2000F03001F073FE2000DF
:1084D000D03002F0EDF92000643007F0B1FC201D2F
:1084E000FFF7CEFE200010BD5C7302001423F0B530
:1084F000040093B0192200931821043002F03AFCD2
:1085000023002500260064331800B435132110938E
:10851000B83607F0A1FC28000CF0E3FD00221E2174
:1085200030000CF081FA2000D03002F0E1F9230095
:10853000F033474A06211800119301F05FFE200036
:108540000027012369301A0000971121FF3001F044
:10855000B7FA200091300097012302221A21FF3040
:1085600001F0AEFA2000B930022201211A23FF30B7
:1085700002F07CFA300001F0ADF8E4235B00E0503B
:10858000300001F0F9FAE6235B00E0500100E4223C
:1085900020005200D130119BA2580095FF3001F00D
:1085A0003DFD2000E13029001C22FF3002F07AFD61
:1085B000192320000F93013B0E93013B0D93013BC8
:1085C0000C93013B0B93013B0A93013B0993013B45
:1085D0000893013B0793013B0693013B0593013B45
:1085E0000493013B0393013B0293013B0193F93058
:1085F000013B082200930721013BFF300CF035FAC4
:10860000CA239B00E018290003F068FDD3239B00D8
:10861000E0181D2102F0FAFADD239B00E7501098C4
:10862000277003210EF063F923002200200009497E
:108630009C33A0321C6011605760074A80305A6139
:108640000221012207F07EFD200013B0F0BDC046DC
:10865000D86E02009F3802008B3802000123F0B56B
:1086600005788DB007001D4000D085E00300D033B1
:108670001800029300F0C4FA00F0E8F928200EF088
:1086800005FC040010300BF0A4FB6D4B65802380CB
:1086900018200EF0FBFB06006A4B80C603901022E8
:1086A000290030000A930B950AF04EF908220AA916
:1086B00030000AF0B7F8644B039AE5605361122367
:1086C000A260A380256265622100029802F080F812
:1086D000002805D020000BF0A3FA20000EF0D2FBFA
:1086E00001233A78594913433B703B00B4331800D7
:1086F00004930CF0FCFC5649039004980CF0F7FC32
:1087000000240590642000F097FB260025003B0024
:108710006933FF33180006930BF077FD00282DD145
:10872000039B002B33D1059B002B30D1DD2449491D
:108730004948A40000F060FC3B59002B1CD100F01C
:1087400099F8010008A800F0A9FD09A80BF01BF991
:10875000CA239B00F818059B09AA08A90093029B4D
:1087600003F012FD09A80BF0A5FA08A80BF0A2FA75
:10877000CC239B00FB583B510DB0F0BD380091302D
:10878000FF300BF042FD0028CAD0182DC8DC38009D
:10879000653031B222B2FF23FF30013600F0FCFD1C
:1087A000F6B2322000F048FB0135052E02D100263A
:1087B000631CDCB2039B192D06D0002BA7D02349E4
:1087C000049802F005FC01E0002BF8D103980EF0AC
:1087D00059FB05980EF056FB1E491F4800F00CFC93
:1087E000DD239B00FB580793002B20D100F042F8BB
:1087F000010008A800F052FD09A80BF0C4F8CA2037
:108800000123800009AA08A900933818029B03F0ED
:10881000BBFC09A80BF04EFA08A80BF04BFACC23CE
:108820009B00FB580793DD23079A9B00FA50CA234D
:1088300039009B00069AF031F81803F09FFE66E7B6
:10884000FD03000013390200D3380200F87902005A
:10885000037A020000200020001C0020BFF34F8F8D
:10886000024A034BDA60BFF34F8FFEE70400FA05BC
:1088700000ED00E0F0B58DB005AF192215493800C4
:1088800009F0D0FF0022144B05245A7180225205B2
:10889000566E012225000194029203930199300043
:1088A00008F03EF90800029908F0B4F8019B03991A
:1088B0006B430193029B361A6B430293631E2C1B7E
:1088C0006C433C19225C1C1ECA54E7D108000DB051
:1088D000F0BDC046137A020076290020F0B595B0AD
:1088E0001822002106000EA80AF02EF813210EA867
:1088F0000EF049F903210EA80EF0DBF94C4B1B6872
:10890000002B00D10133DBB202934A4A012300213C
:1089100009A807F087FD484B9E4200D9002672B691
:10892000464B1022002105A81D680AF00DF8444BA3
:10893000642130000593052408F0F6F860435030B8
:10894000281806900A21300008F0EEF80A2108F0F5
:10895000D1F9614350316918079130000A2108F0BC
:10896000C9F9802361430024503169189B010891A3
:108970000093029B002B59D0002500232E1F01934A
:1089800005AB9B190393032C03D1802300249B0187
:10899000009305AB2B4A585963000133D3180022CA
:1089A000110010265F1E3F783E4137001E78865D1D
:1089B0003E4202D001279740394301320633092A4B
:1089C000EFD1C943204B09011940039B1B68984212
:1089D00029D1019B312B26DC002109A80EF022FAB7
:1089E000FA23139A0F99DB00106801421ED0013B55
:1089F000002BF9D1009B01345B000093019BE4B292
:108A000001330193FA23019A5B009A42BBD10435EA
:108A1000102DB2D1064B1B68002BAAD0029B013B44
:108A2000DBB20293A5E7009B1943D6E7FFF716FFD9
:108A300054240020F0FF0000E7030000082000207D
:108A4000627A02002C7A0200F01F0000F8B50023C1
:108A5000124C23600AF0B8FF002808D0042120003F
:108A60000AF0AEFF002801D00D4B2360F8BD0122B3
:108A7000A12704250B4B0C491A602268FF004860AF
:108A80004E68002EFCD0DE591202013D3243002D0B
:108A9000F5D1226001225A60E8E7C0465024002048
:108AA000ED5EBC0B00D00040FCD000400B4B70B51D
:108AB0001C68002C10D0656D00F0ACFBA36C002985
:108AC00001D1834206D820000AF0B1FF04492000FA
:108AD0000AF09BFF2C00ECE770BDC0465C24002030
:108AE0007C240020F0B5060093B007932A4B049035
:108AF0001C682A4B05911F68069285B2360C002F20
:108B000047D000230293002C2FD0636D2448039399
:108B10004823E3181A88A36C1B0C99B2854214D120
:108B20002048824211D1002B01D0B1420BD1029BCF
:108B3000002B08D120000AF07AFF1B4920000AF020
:108B400064FF01230293039CDDE7002A01D09542D4
:108B5000F9D1002B01D0B142F5D120000AF067FF16
:108B6000114920000AF051FFEDE7104BEB18012BE3
:108B70000FD910233200009329000D4B08A80BF0E9
:108B800038F83B6808A99B683800984708A80BF09C
:108B900047F813B0F0BDC0468824002058240020B8
:108BA000FE030000FF0300007C24002002FCFFFF06
:108BB000E58A010070B572B60B4B1C68002C08D01A
:108BC00020000AF034FF0023E364084B2000E36335
:108BD00070BD62B65C200EF059F9050021005C22E0
:108BE00009F0B2FE2C00EEE78024002000400020B7
:108BF000024B1878012318407047C0467C2900209A
:108C0000F7B50600FFF7F4FF051E33D11A4C2660B6
:108C1000FFF7D0FF194B1A4918600AF0F6FEFFF76C
:108C2000C9FF184B1860184B4363184B83632068C7
:108C300000280ED0C027164E2A0033001549009791
:108C4000FFF782FB009733002A0013492068FFF7E3
:108C50007BFB0C200EF01AF90023838083710F4BED
:108C600003600F4B836000F0EDFA01230D4A117889
:108C70000B431370F7BDC046582400208C240020FD
:108C80007C24002084240020FC3F0020113B0200B3
:108C9000E58A0100FF030000FE030000F86E0200F9
:108CA000AD8A01007C290020F7B506000D001700F1
:108CB0000193002802D100242000FEBD0029FAD033
:108CC000FFF778FF041EF6D0074B019A4363066056
:108CD00045608760054B002A00D0054BA36305491A
:108CE00020000AF092FEE7E7FC3F0020DB3A02009A
:108CF000F93A02007C240020024B18684342584194
:108D00007047C0467C240020002310B504499C0015
:108D10006258002A01D00133F9E76050100010BDFD
:108D200064240020002310B5044A99008C58844222
:108D300001D00133F9E70020885010BD64240020E1
:108D400010B50024074BE058002802D003685B6888
:108D500098470434182CF5D1034B1B68002B00D125
:108D600020BF10BD642400207C240020F8B5FFF74C
:108D70003FFF00281CD02A4D2C68E36CDA0718D579
:108D800002273B43E364274B1E680423F26C300048
:108D90001343F364636BF3630AF07DFE3000716C80
:108DA00003F0F3FF2868C36C3B4201D004F027F8BE
:108DB000F8BD1D4F1D4E3A68002A02D132682A6064
:108DC00007E0216DB942FAD1616D002900D111008F
:108DD00029602A6831688A4208D11B0706D52C60B1
:108DE000FFF7AEFF3B68002BFAD02B6029688C425E
:108DF000DED0336899420BD10D4B4B630D4B8B6327
:108E000020000AF048FE2968626C4B6C200004E0E8
:108E10009C42F5D1002210004B6C03F075FFC7E7B0
:108E20008C240020602400207C2400208424002046
:108E3000FC3F0020113B020070B50500FFF7D8FE93
:108E4000002803D128000DF02DFF70BD0C4B1C68CD
:108E5000E36CDB0706D5FFF7ADFE0A4B1860002870
:108E600000D0040000F0D6F92D18A56420000AF007
:108E7000DEFD054920000AF0C8FDFFF777FFE4E7B3
:108E80008C240020602400205C240020F0B51E4BC0
:108E90001E4F1C683B6885B006000391002B30D044
:108EA000FFF7A6FE00282CD0E36CDB070ED5FFF7FA
:108EB00081FE174B051E186008D00AF0B8FD154951
:108EC00028000AF0A2FD2C00FFF750FF039B2000B2
:108ED0001B043343A3640AF0AAFD20000E490AF0E4
:108EE00094FD0E4B0020F318012B08D9C0230093EA
:108EF000039A0B4B31003868FFF726FA002005B0C3
:108F0000F0BD0848FBE7C0468C2400205824002010
:108F1000602400207C2400208824002002FCFFFF25
:108F2000E58A010016FCFFFF10B5FFF761FE00287F
:108F300009D0054C20680AF07AFD044920680AF03F
:108F400064FDFFF713FF10BD8C2400208024002057
:108F5000F7B507000D0000282ED0FFF749FE0028C6
:108F60002CD00724164E3068C36C1C4007D0154A1D
:108F7000290038000AF080FD00242000FEBD03F027
:108F800026FF02213268D36C1940019103D00321DE
:108F90008B43D364F1E701242343D3642800B8470B
:108FA0003268D36C1900A143D164019C5B07E4D5FE
:108FB00028000AF099FDE0E7034CDEE7034CDCE70C
:108FC0008C240020E93A020017FCFFFF16FCFFFF8B
:108FD000020010B5014B12CB12C210BD902400202C
:108FE000034B1A68034B1A607E225A607047C046D2
:108FF000082000209024002070B5114E3278022AFB
:109000001AD081421AD90C1A072C17D90D00032344
:1090100005432B4012D172B60A4DD2005051AA1806
:1090200051608022A4081206144304603278013291
:10903000327062B6180070BD0348FCE70348FAE7D7
:109040007E2900209824002013FCFFFF17FCFFFF5F
:1090500070B5134C06002378124D002B0CD1124929
:1090600012482B70FFF7C8FF114B984202D11E2007
:10907000FFF734FC0123237000242B789C4209DA8B
:109080000C49E300C91830000AF048FD002805D15A
:109090000134F2E71420FFF721FC002070BDC04628
:1090A0007D2900207E29002000380020482A002049
:1090B00017FCFFFF9824002070B5002819D0104B32
:1090C00010491C780023A34216DADA005558A8424A
:1090D00010D98A18526890420CD2041F2368002BC2
:1090E00002DC1E20FFF7FAFB802322681B061343D5
:1090F000236070BD0133E6E71E20FFF7EFFBF8E7C2
:109100007E2900209824002070B5051E14DD0B4E2A
:109110000B4C3368002B02D020680DF04DFCFA2177
:1091200020680024074B89008361C462694335606D
:109130000DF04AFC200070BD0348FCE7A824002085
:10914000D8240020F191010017FCFFFFF8B5114F62
:1091500006003D68002D0AD130200DF097FE040076
:1091600006F0D4FE0C4BA5612360E5623C600B4D1C
:109170002B68002B09D110200DF088FE04000DF0A3
:1091800070FC20002C600DF046FC3000FFF7BCFFA7
:10919000F8BDC046D824002004770200D424002063
:1091A000014B18687047C046A824002070B50D4CCC
:1091B0002368002B03D00C4B1B68002B02D1062028
:1091C000FFF7C4FF20680DF03DFC02000749C317FC
:1091D0000D684E685219734120680A604B600DF0AB
:1091E00037FC70BDD4240020D8240020B0200020FB
:1091F00010B5FFF7DBFF0024054BE058002802D034
:1092000003681B6898470434282CF5D110BDC0466C
:10921000AC24002010B5FFF7C9FFFA22034B9200DF
:1092200018685968002307F0A5FD10BDB020002084
:1092300010B5FFF7BBFF024B1868596810BDC04658
:10924000B02000200B4B10B51B680400002B03D08E
:10925000094B1B68002B02D10620FFF777FF002384
:10926000064A99008858002801D00133F9E78C504C
:1092700010BDC046D4240020D8240020AC240020F7
:10928000002310B5044A99008C58844201D0013360
:10929000F9E70020885010BDAC24002010B5040070
:1092A000002902D00B78002B03D1034B2360200050
:1092B00010BD0AF006FDFAE7086F0200F8B50400D9
:1092C0000E00150000290AD00B78002B07D0002AC9
:1092D00005D0080097B209F01BFD874203D90B4B5C
:1092E00023602000F8BD681DFFF7B2FE20600AF081
:1092F0008DFE20682A0047803100043009F092FA80
:1093000023685D1900232B71EBE7C046086F02004C
:10931000014B03607047C046086F020010B5054856
:10932000054C20600AF075FE044A054920000DF046
:10933000A2FD10BD086F0200DC24002000200020E8
:10934000B53C0200084B73B51C680500002C0AD020
:109350000100266808310822684609F063FA0CCD3E
:1093600031682000884773BDE0240020014B036072
:109370007047C046106F020010B50400002903D1E9
:10938000044B0360200010BD016008000AF041FE9C
:10939000F8E7C046106F020030B500684488A1426B
:1093A00006DA8588AA4203DA002901DB002A01DAFD
:1093B000034830BD54434018001983710020F8E77A
:1093C00017FCFFFFF0B5070085B00E001D00002957
:1093D00021DD002A1FDD002B1DD004686388039364
:1093E0008B4200DD0391A3880293934200DD029239
:1093F000002306340193019B029A93420EDA29005E
:109400002000039A09F00EFA3B68AD195B88E41856
:10941000019B0133EEE7024805B0F0BD0020FBE7F9
:1094200017FCFFFFF8B504000D0016001F0000290F
:1094300001DB002A02DA0D4B2360F8BD100048431F
:109440000630FFF705FE20600AF0E0FD23685D802E
:109450009E80002F06D03B00320029002000FFF73D
:10946000B1FFEAE720000AF006FDE6E7106F020010
:10947000F7B506000D1E1BD000200F0004000100F0
:1094800001903B78002B1ED03022524294469C44DF
:109490006246092A15D90A2B0ED1019B24180133E3
:1094A0000193A14200DA2100002004000137E8E71F
:1094B000164B03603000FEBD0028F7D001340020B9
:1094C000F4E70120F2E76A460127928809B212B256
:1094D00030007F42FFF7A6FF39000A2033689A1D4B
:1094E0002C78002CE6D02300303B092B08D8FB4316
:1094F000DB173B4043431B19303B1F000135EFE7AF
:10950000002FFBDB177001320F00F7E7106F02002E
:10951000F0B587B0009004A815001E000F00FFF7FB
:1095200057FD009B1B685A8895422ADA9B88B342F4
:1095300027DD1F2F25DD059B01939F4221DC05239D
:1095400000217B430193049B0293019B029A5B18C9
:10955000A03BD35C0022039373189C46009B5719D1
:109560001B6858880400874202DA988860450ADC44
:109570000132052AF2D101310529E6D1002007B0D8
:10958000F0BD0748FBE7DB19102760461741604331
:109590001B1803980740781E87417F429F71E7E7B9
:1095A00017FCFFFFF7B5036806009C1D5B880D00E4
:1095B0005A1A0192002919DD0027994203DB0AF0AB
:1095C0005AFC002013E033689B889F42F9DA611946
:1095D000019A200009F026F9019B2900E0180AF001
:1095E0002DFC336801375B88E418ECE70048FEBDCA
:1095F00017FCFFFF10B50548054C20600AF009FD77
:10960000044A054920000DF036FC10BD106F020021
:10961000E4240020002000202F3E020010B5054C5D
:10962000012120000AF0E9FC034A044920000DF062
:1096300022FC10BDE824002000200020BB3F0200D7
:109640000388074A10B50120934208D0834202D014
:109650000020DB0703D41E20FFF740F9002010BDD7
:10966000FFFF00000048704716FCFFFF10B53220D6
:10967000FFF734F9004810BD16FCFFFF828014226A
:1096800010B5134C028108340200002304604162CB
:1096900002240100303283718472C360036143612C
:1096A0008361C361036236311370537043868386CE
:1096B0000A78A243F13422400A700200403213704B
:1096C000021DD387013343878387C38710BDC046FC
:1096D000306F0200F0B5544F97B03B680600059319
:1096E000002B00D08BE006AC0B331C222121200084
:1096F00001F0F4F90EAD0B231D2222210AA801F07E
:10970000EDF90B231B222321280001F0E7F90820A3
:109710000DF0BCFB0122059B110004900BF0FAFF39
:109720003A2130000BF064FD00281DD0A38812AD53
:10973000AB80A3795C20AB713C4B1293A36814936C
:10974000237B2B73637B6B73A37BAB730DF09EFB4F
:1097500004230193363300932A00049B3100040054
:1097600001F0A4FF3C604AE0322130000BF06EFDB6
:1097700000281CD0A38812ADAB80A3795C20AB710C
:109780002A4B1293A3681493237B2B73637B6B7315
:10979000A37BAB730DF07AFB042301932E3300936C
:1097A0002A00049B3100040002F01EF9DAE73C2194
:1097B00030000BF006FD00282CD0AB8812ACA38043
:1097C000AB79A420A371194B1293AB6814932B7B34
:1097D00023736B7B6373AB7BA3730DF057FB052384
:1097E00005000293013B0193383300932200049B50
:1097F000310001F079FE0E4B3D6044351D600C4B8D
:10980000094C1868002802D021680AF06CFD206815
:1098100017B0F0BD44200DF039FB04220499040078
:10982000FFF72CFF9EE7C046EC240020206F0200CB
:10983000F0240020F0B56149C56885B08D4254DA46
:109840000300022236331B78134059D104698C423D
:1098500064DA020036321278520768D44269019203
:109860000200019E40328E426FDA010036310978E3
:10987000090774D4002B7DD113780293002B16D0E6
:1098800006000127011DCB8F363601339BB2CB87F3
:1098900003963678BC46374000D188E01D2B06D9A8
:1098A00063469E43039B1E700023CB8713700AF010
:1098B000FAFB434A0723904276D94249043B8D4242
:1098C00072DBC8220133920095426DDC023B8C4270
:1098D0006ADB013B944267DC01980433884263DB16
:1098E0000133904260DC00235EE0C8220023520076
:1098F0009542ABDD030036331A7800239207A5D4D6
:10990000012306001F00363632785408A7433C0076
:1099100002279C40BA432243327097E7C822520084
:1099200094429BDD020036321278520796D406002C
:109930000122363633789F08BA43970004229343B6
:109940001A003A433270012388E7C821019E49007A
:109950008E428FDD01003631097809078AD4010073
:10996000012636310B78DF08BE430827F600BB43DB
:1099700033430B701378032B00DD7DE70133DBB23B
:109980001370012B03D10021031DD98774E7042B29
:1099900000D071E7020036321178033B0B4313709D
:1099A00000230430C3870B33180005B0F0BD092B2A
:1099B00000D87CE7029BCF87013B77E770FEFFFF73
:1099C000FF700200E0FCFFFF70B5C369C2681B684E
:1099D0008AB00400451D1A4207D0EB7F002B09D046
:1099E000013B06E03300032239E0EB7F0B2B01DC67
:1099F0000133EB77EB7F082B0DDD0122A3791342B6
:109A000009D11343A371A188130006A80AF0ECF949
:109A1000FFF700FC2062EB7F012B23DC0123A279FE
:109A20001A421FD00025A188A571022202A80AF0BF
:109A3000DBF9A31DDE7F012E14D1FFF7EBFB2B001A
:109A4000226A801A994100900191019BA188AB4242
:109A500003D1134B009A9A42C4D90123042206A8C9
:109A60000AF0C2F90322A3791340012B0AD1FFF7B0
:109A7000D1FB0023226A801A9941994204D1094BF3
:109A8000984201D80AB070BD0223A279A18813437D
:109A9000A3710522012306A80AF0A6F9F2E7C04641
:109AA000E7030000DB05000010B50400034B08339A
:109AB0000360FFF7E5FB200010BDC046646F0200A5
:109AC000F0B5070000250E0085B002930AAB1B78A5
:109AD00008370393104B040008330360019285801C
:109AE000857129001822380008F02EFF039A3100F2
:109AF00038000DF04DF86B466A469B88127AA380B9
:109B0000A31DE671DA77631D25622000DD77FFF77C
:109B100099FB200005B0F0BD646F0200004870475B
:109B200016FCFFFF10B53320FEF7D8FE004810BD2D
:109B300016FCFFFF002310B50400838083710D48DD
:109B40002164083020608020C000A061E0612062B4
:109B5000E3602000236163616362A362E3622363C5
:109B60006363A363E363636411000AF094FB200062
:109B700010BDC0467C6F0200F0B5534F97B03B68F4
:109B800006000593002B00D08BE00B331C22212113
:109B900006A80AAC00F0A2FF0EAD0B231D22222165
:109BA000200000F09BFF0B231B222321280000F044
:109BB00095FF08200DF06AF90122059B1100049021
:109BC0000BF0A8FD1D2130000BF029FB00281DD053
:109BD000A38812ADAB80A3796020AB713B4B12938D
:109BE000A3681493237B2B73637B6B73A37BAB738F
:109BF0000DF04CF905230193183300932A00049BC0
:109C00003100040001F026FE3C604AE03C213000B7
:109C10000BF033FB00281CD0A38812ADAB80A379D6
:109C20006020AB71294B1293A3681493237B2B7391
:109C3000637B6B73A37BAB730DF028F90523019352
:109C4000373300932A00049B3100040001F06EFFBB
:109C5000DAE73C2130000BF0B4FA00282BD0AB88B7
:109C600012ACA380AB79A420A371184B1293AB68FC
:109C700014932B7B23736B7B6373AB7BA3730DF00C
:109C800005F9052305000293013B01933833009346
:109C90002200049B310001F027FC0D4B1D60443570
:109CA0003D600B4B1A68084B002A01D019684A64C2
:109CB000186817B0F0BD48200DF0E8F805220499A7
:109CC0000400FFF737FF9FE7F0240020206F020019
:109CD000EC24002082B0F0B50400EBB06420719356
:109CE00070920CF0DFFF05220EA811000AF0CCF8EC
:109CF00097490FA8FFF7BCFB00221FAB6AA91A60A7
:109D00005A609A600C338B42F9D11922002111A8B4
:109D100008F01AFEA0680AF080FE00260990FF21D4
:109D2000A06800F0BBFC8B4FA06800F05FFB0796BB
:109D30000896079B182B00DDBEE0864B9F4203D0A0
:109D4000854B9F4200DBAEE0A0680AF068FEA56884
:109D5000824918A8FFF7A2FA782218A9280000F073
:109D6000E3FB18A809F0A6FF00267A4F0322089B00
:109D7000606801331A4008920AF02DFA0500606805
:109D80000AF030FA0022764B04929D4210DB013239
:109D900004922A00C8320BDBAA220421920004910B
:109DA000954205DC03220492C82D01DC013A04929D
:109DB00000220592984210DB012305930300C8336B
:109DC0000BDBAA2304329B000592984205DC032397
:109DD0000593C82801DC013B05930EA80AF04BF857
:109DE000002511ABEB5C012B08D15E496B00CA1852
:109DF0005278C95C0EA8FF23FFF7CEFA0135192D62
:109E0000EFD16B4614229A5E6B460EA81021595E64
:109E1000089BFFF7C1FA002F01DB0F2E07DD0022A0
:109E2000A0680092743013000EA90AF03AF80023DB
:109E30000693069B04985A004A4BD15C814227D175
:109E40009B185B78059A934222D12C2206AB9B1873
:109E5000069A9B5C012B1BD00C23079A2168534365
:109E60001D0000220AA80AF040FA1FAA2B009446FF
:109E70000AAA634423CA23C32C2206AB06999B1863
:109E80002B3A5A54079B01360133DBB20793F6B2E3
:109E9000069B01330693192BCBD16420643F0CF051
:109EA00001FF3FB245E7002F02D00F2E00D05DE743
:109EB000A06800F09BFA59E71FA918A8079A0AF0B2
:109EC00023FC6A461BAB23CB23C21B681360189983
:109ED000199A1A9B20680AF0F0F9E568002D0CD059
:109EE000214910A8FFF7DAF91C2318AA10A92800A5
:109EF0000BF032F910A809F0DDFEA0680AF08FFD22
:109F00000FA910A8A56809F09FFF0022174B009227
:109F100010A901932800130000F0AAFA10A809F074
:109F200086FFFA2080000CF0BDFEA0680AF077FDE5
:109F30000999A06800F0B2FB0FA809F078FF0EA8FD
:109F400009F075FF6BB0F0BC08BC02B01847C04602
:109F5000427C02008C3C0000D18AFFFF877C02001B
:109F600058FDFFFFA77C02009C7C0200DC0500007E
:109F7000F0B587B001930EAB1B88060003930D9BD1
:109F80000D000093019B02920C9F002B3ED0002FEE
:109F900002D1009BDB0739D528200CF077FF0400A5
:109FA000103009F016FF6B461B891820258063804E
:109FB0000CF06CFF049707000500009B102205932E
:109FC000019B002108C7380008F0BEFC082204A944
:109FD000380008F027FC0E4B02226B610023039926
:109FE000E3602362636233680A43A560A2805B6812
:109FF000210030009847002806D0200009F010FE0C
:10A0000020000CF03FFF034807B0F0BD0248FBE71B
:10A010002B43020016FCFFFF17FCFFFF70B58CB04E
:10A020008360109B01604260C360040018491800FF
:10A030000BF05DF8051E14D001001C22103105A89C
:10A0400008F0F0FB6A4608AB43CB43C21B681360C1
:10A0500020680599069A079B0AF02FF928000CF052
:10A0600011FF0C4B186800280ED00B4A05AB059267
:10A0700000220692C03202926A4622CB22C22300FC
:10A0800003220521FFF774FF20000CB070BDC0460D
:10A090009C7C0200E0240020D59C0100F0B5040067
:10A0A00085B0637A9C46002B04D120000AF049FB5E
:10A0B00005B0F0BDA37A266F01931023019AF356E1
:10A0C00000259B1801229A402900F368029203930D
:10A0D000039B9D4231DAB368019A6B439B18726906
:10A0E0005B00E77AD3181A785878E379012F14D1F6
:10A0F0005F1E3F1A10003A005B004343606F8218F6
:10A10000D3189B79634500DD6346627B1A4202D017
:10A110000123AB4019430135DAE7022F05D15F1E59
:10A12000BA1A277A013F381AE6E7032FE4D1277AD3
:10A13000013FBF1A02003800DEE71123C943F3567E
:10A14000606C994023691940029B19430CF06AFE28
:10A15000A37B072BACDC627B581C520062730B495B
:10A160009A00A073022B03DC88580CF090FD98E74E
:10A17000074B2000236300236363064B8958E46286
:10A18000236414300CF020FC92E7C046A86F020054
:10A190009DA001002F47020010B50400044B03608E
:10A1A0000CF00AFC200005F0C7FE200010BDC046E0
:10A1B0000477020010B504000E4B08330360FFF76C
:10A1C0005FF82000743009F032FE2000603009F0A2
:10A1D0002EFE2000583009F06DFD2000503009F0AF
:10A1E00069FD2000044B14306361FFF7D5FF2000A8
:10A1F00010BDC046C86F020018770200F8B50025F0
:10A200000400324B858008330360857114301600DA
:10A210000F0005F07BFE20002D4BE5626361256495
:10A220005030FFF775F820005830FFF771F8200024
:10A230006030FFF79BF820000423F25E3368266746
:10A24000590009B2743009F01FFE3378226FE371B0
:10A250007368012623721023E572A572A780256119
:10A26000D356916859188B4204DA30009840013374
:10A270000543F8E711230120D356D16859188B42C2
:10A2800006DA02009A402669013332432261F6E77A
:10A2900014200CF0FBFD226900212A430123060053
:10A2A00006F0C0F8FF226272220000230125483226
:10A2B00066646573A373237320001370A366FEF7AF
:10A2C000C1FFA37920001D43A571F8BDC86F02002E
:10A2D00018770200F0B5437A85B00400002B04D152
:10A2E00020000AF02EFA05B0F0BD0122837A110099
:10A2F0009C461023066F0025F35603926344994051
:10A3000001912900F3680293029B9D422CDAB36805
:10A3100072696B4363445B00E77AD3181A78587804
:10A32000E379012F10D15F1E3F1A10003A005B0045
:10A330004343606F8218D3189B79002B02D0039B94
:10A34000AB4019430135DFE7022F05D15F1EBA1A72
:10A35000277A013F381AEAE7032FE8D1277A013F2D
:10A36000BF1A02003800E2E71123C943F356606CBC
:10A37000994023691940019B19430CF053FD667AFB
:10A38000B31EDBB2FC2B14D8FEF70AFF0B4B050003
:10A39000236300230A4863630A4BFF21E4622364BA
:10A3A000704306F0C1FB29004143200014300CF03B
:10A3B0000BFB637A012B00DD95E791E74347020031
:10A3C000B60300002F4702001FB5012381881A0041
:10A3D000684609F009FD012303491A00684609F09F
:10A3E00003FD05B000BDC046FE0300001FB503001D
:10A3F00048331A780400002A0DD000221A70012375
:10A4000081881A00684609F0EFFC012304491A000C
:10A41000684609F0E9FC2000743009F02CFD1FBDEE
:10A42000FF03000010B548300378002B06D00378F6
:10A43000012B03D00121024809F046FB10BDC046A4
:10A44000FF03000010B501210400062009F03CFBC9
:10A45000064B984208D148342378002B04D0237847
:10A46000012B01D020BFF7E710BDC04616FCFFFF4F
:10A4700073B5079C0500002C0ADB060048363078CF
:10A48000002807D03078012804D00C4C200076BD7D
:10A490000B4CFBE76846007E1BB20090280012B20E
:10A4A000743009F0FEFC002CF0D02B004A331C80E5
:10A4B000002407234C352C803370E7E712FCFFFFA4
:10A4C00017FCFFFFF0B587B00D9C06000F0002924D
:10A4D0000393002C20DBFFF7A5FF330048331D78E2
:10A4E000EDB2002D1AD1390005A809F0ADFC0C9B86
:10A4F00001940093029A039B05A93000FFF7B8FF6F
:10A5000005A809F094FC002C03D03000FFF79AFF57
:10A510002C00200007B0F0BD014CFAE7014CF8E731
:10A5200017FCFFFF11FCFFFFF8B50400171E09DD43
:10A53000060048363378002B06D03378012B03D041
:10A540000C48F8BD0C48FCE72200E3795632013B89
:10A55000137023000025200054331D80503009F073
:10A5600006FC23004A331F8002234C342580280038
:10A570003370E6E712FCFFFF17FCFFFFF7B505009D
:10A580000F00161E18DDFFF74DFF2B0048331C7817
:10A59000E4B2002C12D1390001A809F0E0FB32002E
:10A5A00001A92800FFF7C0FF01A809F083FB2800DC
:10A5B000FFF748FF2000FEBD0148FCE70148FAE72D
:10A5C00017FCFFFF11FCFFFFF8B50400161E0DDDA0
:10A5D000070048373A78002A0AD03A78012A07D08B
:10A5E0001548F8BD6B4618229B5E07E01348F8E754
:10A5F0005D42069BFF33F5D16B1D1BB22200643216
:10A6000013802300200066331D70603009F024FCA5
:10A61000230000226C331A70954200D035002300CD
:10A620004A331D80079B013E5A1E93414C3405332B
:10A63000268000203B70D4E712FCFFFF17FCFFFFD1
:10A64000F0B587B005000F00161E03931EDDFFF75F
:10A65000E9FE2B0048331C78E4B2002C18D13900F5
:10A6600005A809F0F1FB0D9B320001930C9B05A995
:10A6700000932800039BFFF7A7FF05A809F0D7FB6D
:10A680002800FFF7DFFE200007B0F0BD0148FBE720
:10A690000148F9E717FCFFFF11FCFFFFFF2902D873
:10A6A0004172002070470148FCE7C04617FCFFFFDD
:10A6B00013B5040004A80078009020000CF0EFF817
:10A6C000002801D1207516BD0048FCE70EFCFFFFF5
:10A6D00013B5040004A80078009020000CF0C7F81F
:10A6E000002801D1207516BD0048FCE70EFCFFFFD5
:10A6F0007FB50D0011000F226A4404001E1E117068
:10A7000016D0089B002B13DD012329000093FFF7CF
:10A71000DFFF002802D0074804B070BD0090089BFE
:10A72000320029002000FFF7C3FF0028F4D0F2E731
:10A730000148F1E70EFCFFFF17FCFFFFF7B507002C
:10A740000D1E3FD00023022604690193002C35D052
:10A75000AA88A3885340334204D1324204D1AB8843
:10A76000334226D0646AF1E7A968A0680AF0B7FF0F
:10A770000028F4D02B88002B02D022889A42F1D1F5
:10A780006B88002B02D062889A42EBD1EB68E268BA
:10A79000934201D0002BE5D17B68002B01D0200033
:10A7A0009847A288084B1343A380019B0133019370
:10A7B000D8E7A368AA689342D4D1DBE7019B2000C5
:10A7C000002B00DC0148FEBD0080FFFF17FCFFFFEF
:10A7D000F0B5060085B00D1E00D160E001270469C8
:10A7E000002C26D00221AA8800230A4202D0A38886
:10A7F0005B083B40226829688A4218D1002B12D09E
:10A80000A968A0680AF06BFF002810D0EB68E26826
:10A8100093420CD1A3881AB2002A02DA5B045B0CC3
:10A82000A380204811E0A368AA689342EED0646A2E
:10A83000D6E731692A880F000B1E08D13561012344
:10A840001949684609F0D0FA002005B0F0BD188813
:10A85000904205DA586A1F0000280ED00300F6E780
:10A8600018003B000488944207D147886C88A742AF
:10A8700003DC446A0300002C0BD199420BD10888F9
:10A88000824204DB07D14C886888844203DD696218
:10A89000D4E72000E6E7596A69625D62CFE70348C2
:10A8A000D3E7C04616FCFFFFFD03000017FCFFFFC7
:10A8B000064B10B51A00040008322C330260836086
:10A8C0000830FEF72FFA200010BDC046E06F0200EE
:10A8D00008B4024B9C46083808BC6047B1A8010088
:10A8E00008B4024B9C46083808BC6047914B0200F4
:10A8F0000C4A002311002C32083110B543608381CB
:10A9000083738260036143618361C38301600400D8
:10A910000830FEF7F9F9044B1A68002A00D11C60D0
:10A92000200010BDE06F0200E0240020F7B50E000B
:10A93000012504690192002C36D0238832889A427E
:10A9400001D0002B2AD1638872889A4201D0002B53
:10A9500024D1FEF74DF90123002806D0C022A38898
:10A960001340C03B5A425341DBB2019A934214D187
:10A97000A7883BB2002B10DB10223100A01807F093
:10A9800051FF40231F420BD1FEF732F9002807D0B8
:10A9900021000648FEF7DCFA00E00025646ACAE7F9
:10A9A00020000AF0FEF8F9E72800FEBDA34B0200E4
:10A9B00008B4024B9C46083808BC60472B4D020087
:10A9C000F0B587B001930EAB1B88060003930D9B77
:10A9D0000D000093019B02920C9F002B3ED0002F94
:10A9E00002D1009BDB0739D528200CF04FFA040078
:10A9F000103009F0EEF96B461B8918202580638022
:10AA00000CF044FA049707000500009B1022059300
:10AA1000019B002108C7380007F096FF082204A90F
:10AA2000380007F0FFFE0E4B02226B6100230399F2
:10AA3000E3602362636233680A43A560A2805B68B7
:10AA4000210030009847002806D0200009F0E8F8DF
:10AA500020000CF017FA034807B0F0BD0248FBE7EE
:10AA6000654D020016FCFFFF17FCFFFFF0B5040068
:10AA7000160000258380164A164B857102602181DD
:10AA800046810573186889B08C46A8421DD0124AC9
:10AA900005950492C02202926A4604AB82CB82C220
:10AAA000614623002A00FFF78BFF0B4A094B0692F1
:10AAB000C022186802926A4606AB079582CB82C212
:10AAC00023002A003100FFF77BFF200009B0F0BD12
:10AAD00024700200E02400208F4E020030B50024D4
:10AAE00003730123034D8471056081808273437376
:10AAF000846030BD206F020070B583790400DB07ED
:10AB000002D580680CF0BEF9A3799B0702D5A06836
:10AB10000CF0B8F9A3795B0707D5A0230021144AEC
:10AB2000DB00D150A0680CF0ADF9A3791B0708D564
:10AB3000A568002D05D028000AF042FE28000CF080
:10AB4000A1F9A379DB0605D5A068002802D0036827
:10AB5000DB6898476023A2791A4205D0A0680028D4
:10AB600002D003685B6898470023A360A37170BD9F
:10AB700000700040F7B50126037B040033422BD060
:10AB8000612385791D4017D1FFF7B6FF18200CF01F
:10AB90007DF90E230700E35618220093637B2900FA
:10ABA000019307F0D1FE019A009938000BF0F0FFF5
:10ABB000A379A7603343A3716023A2791A4203D01B
:10ABC000A0680BF08DFEFEBDA3685A695868126834
:10ABD0001040431E9841F6E70048F4E716FCFFFFDB
:10ABE00010B50124837941731C4004D080680CF0B7
:10ABF00060F8002010BD6022134203D080680BF083
:10AC000076FEF6E70048F5E716FCFFFF70B5040096
:10AC100000250D4B0E0008338580857103602100EF
:10AC200018300AF0E7F92000210020300AF005FA78
:10AC3000064BA680A571E5712572E5602561656109
:10AC400020001C6070BDC04634700200F424002057
:10AC50008379DB0702D5C160002070470048FCE71C
:10AC600016FCFFFF8379DB0701D5C06870470148F8
:10AC7000FCE7C04616FCFFFF70B545690400002DD7
:10AC800020D0037A032B1FDCFFF7ECFFA8622C20F7
:10AC90000CF0FCF82C220021050007F055FE0023E3
:10ACA000626953622369002B07D122610020237A55
:10ACB00065610133237270BD0B00596A0029FBD115
:10ACC0005A62F3E70148F6E70148F4E717FCFFFF93
:10ACD00013FCFFFF144B70B55A68144C002A03D0C4
:10ACE00000225A600132A2601A69002A17D000219E
:10ACF00019618023DB00E3580D4D012B10D1A923EE
:10AD0000DB00E15828684942FFF7A2FF2868FFF7F7
:10AD1000B3FF2B685A69074BE2500123A36070BD53
:10AD20002868FFF795FFF8E7FC100040001000408E
:10AD3000F42400200405000003000069002809D065
:10AD40000221054AD167426A1A611A7A013A1A72D7
:10AD5000024B19607047C04604E100E000E100E0EA
:10AD600010B5002903DB024B19600BF007FE10BD84
:10AD7000F824002070B504001E0004AB1D7805F017
:10AD80008FF820000E4B40302360FEF7C1FA2300FD
:10AD900001364C33013522001E701D730023E12162
:10ADA0004E32A3646365138053809381D381013B4A
:10ADB000200063644902FFF7D3FF200070BDC04646
:10ADC000D06E0200F7B580277F053D697C690822B7
:10ADD000113C6C4306002100684607F023FD104B30
:10ADE000009A9A4219D000930023019379693000A8
:10ADF000133969430AF036F9019A009930000AF0D4
:10AE000049F9210030000AF02DF97969AB081339AE
:10AE10006943220030000AF02FF90198FEBDC046B8
:10AE2000FECA0000F0B50D00ABB00D92002130223B
:10AE3000060012A80B9307F087FD280007F068FFB3
:10AE4000431C0C93102B00DDB7E00B9B202B00D98B
:10AE5000B3E0290030000AF04AF9071E56D1290054
:10AE60000C9A12A807F0DEFC0D990B9A16A807F0B1
:10AE7000D9FC80235B051F695A693000113A7A4377
:10AE80005D690D92FFF79EFF0D9B30220833002174
:10AE900004001EA80F9307F057FD290013397943CA
:10AEA00030000AF0DFF80F9B0B9300230C930E93F6
:10AEB0000C9BA34249DA0B9930221EA807F0B2FC82
:10AEC00012A91EA807F0E0FE00282DD13D49300050
:10AED0002200109111940AF0DDF86A460B9B099349
:10AEE00015AB23CB23C223CB23C223CB23C23000F9
:10AEF000149B1299139A0AF0DBF801230E930B9B13
:10AF000030330B930C9B01330C93D1E710300B9A29
:10AF10000D9907F061FC040038000BF0B3FF002C22
:10AF20009DD120002BB0F0BD6A460B9B099321AB4D
:10AF300023CB23C223CB23C223CB23C230001E99B1
:10AF40001F9A209B0AF0B4F8D9E7E5433021ED17AA
:10AF500025404D430F9B5D190E9B002B1BD1B81E46
:10AF600005F058FD84422AD01649013430002200F1
:10AF7000109111940AF08EF86A46099515AB23CB0F
:10AF800023C223CB23C223CB23C230001299139AAE
:10AF9000149B0AF08DF80D9930000AF063F88023B5
:10AFA0005B0559690C2363431339023379430D9AC6
:10AFB00030000AF061F80024B3E7034CB1E7034C1A
:10AFC000AFE7C046FECA000017FCFFFF13FCFFFFFF
:10AFD0008023F0B55B051A6995B002925A69059114
:10AFE0000299113A51435C69029B133C050003919D
:10AFF0005C43FFF7E7FE061E39D00027039B302293
:10B0000008330021083408A8019307F09DFC2100B3
:10B0100028000AF027F80497B74220DA0199302275
:10B0200008A807F0FFFB059908A807F02DFE0028E7
:10B030000DD11A49721E2800069107920AF02AF8CB
:10B0400001230493019B013730330193E4E722008D
:10B050000C23019928000AF00FF83034F2E7049B22
:10B06000002B06D10D49320028000AF013F80C48D5
:10B0700012E00399280009F0F5FF80235B05596968
:10B080000C23029A13394A437343110028000233F8
:10B09000039A09F0F1FF002015B0F0BDFECA0000D0
:10B0A0000CFCFFFF70B50400A280FA220023080008
:10B0B0000C49920008312160A3716061E260A360D5
:10B0C000638209490AF013F8051E09D00100200027
:10B0D00010310222123007F0A5FB28000BF0D2FE3F
:10B0E000200070BD4C700200D97C020030B50225F2
:10B0F000837987B004002B4204D1FDF705FEA379C4
:10B100001D43A57120000AF038F800281CD06B46BA
:10B11000DD1C28000AF028F82B78002B17D001A896
:10B120000AF020F80321019AD3170B409B189B10BB
:10B130002382FEF76FF8E368A18818180123A06046
:10B140001A0002A808F050FE002007B030BD01220E
:10B15000064B1A60064A51680029FCD00021516054
:10B16000044A1268019201225A60DBE700C00040E5
:10B17000FCC0004008C50040022802D10122014B5A
:10B180001A7070477F29002070B5064C050023789F
:10B19000002B04D1044802F089FC0123237028000D
:10B1A00070BDC0468029002079B1010070B50C0047
:10B1B00008F00AFC002810D00023144DA40A2B70BC
:10B1C000200009F0EEFF002803D00A200BF06AFDF2
:10B1D000F6E72B78002BFCD070BD02210C4B0D4AFA
:10B1E00099508021C90008005D58002DFCD0A12194
:10B1F000C9005C5019580029FCD0002199508021C9
:10B20000C9005A58002AFCD0E6E7C0467F29002032
:10B2100000E0014004050000F8B50C0015001E0018
:10B2200008F0D2FB002811D00023174F3B703200EA
:10B230002900200009F0B3FF002803D00A200BF0FA
:10B2400031FDF4E73B78002BFCD0F8BD01210F481D
:10B250000F4B844619508021C9005A58002AFCD04F
:10B2600080270022FF00964207DD91006858605059
:10B27000D9590029FCD00132F5E7002261465A5025
:10B28000DA59002AFCD0E0E77F29002004050000FD
:10B2900000E0014008B4024B9C46443808BC6047BB
:10B2A000A7510200FA21F8B50389C90004005943E7
:10B2B00032480AF02AFAFA21890005F0ABFB304F38
:10B2C0002081A17A38000AF020FA23002600250008
:10B2D00022894C33A072A0361A808C353178002335
:10B2E0002A22286809F0A8FB002801D02548F8BDCB
:10B2F00031781F235B22286809F09EFB0028F5D1D6
:10B30000317820235C22286809F096FB0028EDD1D3
:10B31000317801232C22286809F08EFB0028E5D122
:10B32000317801232D22286809F086FB0028DDD121
:10B33000317801232E22286809F07EFB0028D5D120
:10B34000A17A38000AF0DCF93178C3B20E222868FD
:10B3500009F072FB0028C9D1FA21238989005943D9
:10B3600006480AF0CDF901230343DBB231782A22E3
:10B37000286809F061FB0028B9D0B7E76C700200BB
:10B38000647002000EFCFFFF08B4024B9C46443878
:10B3900008BC6047A5B20100074B10B51A000400B5
:10B3A00008323C3302604364443008F042FF20001E
:10B3B00008F06BFE200010BDCC70020008B4024BF8
:10B3C0009C46443808BC604799B3010008B4024B5E
:10B3D0009C46443808BC6047B1510200F0B50425D2
:10B3E00083798BB004002B4204D1FDF78DFCA37947
:10B3F0001D43A57120009030FFF7BCFB0026B04232
:10B400000FD12300A033197820000C2307AD00933F
:10B410008C302B0001220068FFF76AF9061E03D06A
:10B420002C4E30000BB0F0BD0A2304AA9B182A78DA
:10B430005A706A781A700022985EAA785A70EA7870
:10B440001A700022995E03912A795A706A791A70EB
:10B4500000229F5EAA795A70EA791A7000215A5E1A
:10B4600004922A7A5A706A7A1A7000215A5E0592FA
:10B47000AA7A5A70EA7A1F251A7000229B5EA27A75
:10B480009C46039B504359425143CB172B407A4370
:10B490005B185B11A361C3172B401818D3171D400D
:10B4A0006423AD18059A5B425343A3676423614646
:10B4B000049A40115A434B43E2676D11221DE0612B
:10B4C00025622000D36708F059FE2000443008F0C0
:10B4D000B7FEA6E70EFCFFFF08B4024B9C464438BB
:10B4E00008BC6047DDB30100F7B51E00040008ABDF
:10B4F0001B881500019309AB00911A8831000AAB33
:10B500001F88FEF7BBF820003A0031004430FEF7F8
:10B5100011FB134B20001A003C33636423000832F4
:10B520002260009A8C331A60AB8890308380AB79AC
:10B530006A4683710B4B92880360AB68032183607A
:10B540002B7B03736B7B4373AB7B83732300A03331
:10B550001A80FFF745FB2000FFF7A4FE2000FEBD88
:10B56000CC700200206F0200F8B5FA260189B600FF
:10B570000400714326480AF0C8F8310005F04AFA81
:10B58000244F2081A17A38000AF0BFF82500A0726C
:10B590005835297800232A22606C09F04DFA0028DA
:10B5A00001D01D48F8BD297810232B22606C09F0CA
:10B5B00043FA0028F5D1297801232D22606C09F087
:10B5C0003BFA0028EDD1297801232E22606C09F086
:10B5D00033FA0028E5D1A17A38000AF091F82978E9
:10B5E000C3B20E22606C09F027FA0028D9D1218954
:10B5F000074871430AF084F801230343DBB229783A
:10B600002A22606C09F018FA0028CBD0C9E7C0469E
:10B61000347102002C7102000EFCFFFF10B5040013
:10B62000034B0833036008F030FD200010BDC04616
:10B63000947102007FB50425837904002B4204D164
:10B64000FDF762FBA3791D43A57120004830FFF789
:10B6500091FA0025A8420DD123005833197806230A
:10B6600002AE009301223300606CFFF741F8051E23
:10B6700003D00D4D280004B070BD0223002104202A
:10B68000F356A27ADB00715630565B425343C0003A
:10B69000C90051434243A3612368E16122629B6A6E
:10B6A00020009847E6E7C0460EFCFFFFF8B504000F
:10B6B000150006AA168807AA0F0012881900FDF7C0
:10B6C000DDFF0F4B6764083323602300AA884833EB
:10B6D0009A80AA7920009A710A4AA264AA6822650F
:10B6E0002A7B1A736A7B5A73AA7B9A730023A3710D
:10B6F000230058331E80FFF737FF2000F8BDC046F7
:10B7000094710200206F020010B50400034B08334F
:10B71000036008F08EFD200010BDC04628720200B4
:10B72000F0B507005C3787B0040039780023102299
:10B73000806C09F081F90326002802D01F4807B069
:10B74000F0BD0F2502ABED180123397808220093D4
:10B75000A06C2B00FEF7CCFF184B9842EED02B7854
:10B76000334203D06420FDF767FBEAE7FA2621891C
:10B77000134DB6007143280009F0C7FF310005F0F2
:10B7800049F920813978A0231122A06C09F054F9DD
:10B790000028D3D1A36C21890393714328003F78FB
:10B7A00009F0AEFF01231843C3B2102239000398F9
:10B7B00009F042F90028C2D0C0E7C0460EFCFFFFE6
:10B7C000C871020070B50825837986B004002B4249
:10B7D00004D1FDF799FAA3791D43A57120004C30DF
:10B7E000FFF7C8F9061E0DD023005C331978062335
:10B7F00004AD009301222B00A06CFEF779FF061E1A
:10B8000003D0134E300006B070BD0E232A786B446F
:10B810005A706A7820001A700022995E64224A43A6
:10B82000A263AA785A70EA781A700022995E64229C
:10B830005242514361632979597069791970002125
:10B840005B5E5A432368E2631B6A9847DAE7C046A7
:10B850000EFCFFFFF8B50400150006AA168807AA1B
:10B860000F0012881900FEF765F90D4BA764083325
:10B8700023602300AA884C339A80AA7920009A7109
:10B88000084AE264AA6862652A7B1A736A7B5A7363
:10B89000AA7B1E829A73FFF743FF2000F8BDC046C3
:10B8A00028720200206F0200F7B5FA250189204FA7
:10B8B000AD0004006943380009F027FF290005F0B6
:10B8C000A9F8A17A20811B4809F01FFF2600636CAC
:10B8D000A072009321895836337869433800019368
:10B8E00009F00EFF07230343DBB2202201990098E1
:10B8F00009F0A2F8002801D00F48FEBD31781023CE
:10B900002222606C09F098F80028F5D1A17A094844
:10B91000656C377809F0F4FE80235B420343DBB2A9
:10B9200023223900280009F087F80028E5D0E3E752
:10B930005C720200547202000EFCFFFF10B504009E
:10B94000034B0833036008F0A0FB200010BDC04685
:10B95000CC720200F0B50425837985B004002B4237
:10B9600004D1FDF7D1F9A3791D43A571200048301A
:10B97000FFF700F9061E0DD023005833197806236F
:10B9800002AD0093A8222B00606CFEF7B1FE061EEC
:10B9900003D0144E300005B0F0BD1F200023EA5E36
:10B9A000D31703409B180222A95E5B11CA170240FD
:10B9B000521804216F5E5211F9170140C91949113B
:10B9C0002B806A80A980A07A5B4243435242424363
:10B9D0004143E3612368A26121629B6A200098478A
:10B9E000D8E7C0460EFCFFFFF8B50400150006AA14
:10B9F000168807AA0F0012881900FDF73FFE0F4BAB
:10BA00006764083323602300AA8848339A80AA79A0
:10BA100020009A710A4AA264AA6822652A7B1A73D6
:10BA20006A7B5A73AA7B9A730023A371230058334D
:10BA30001E80FFF739FF2000F8BDC046CC7202001F
:10BA4000206F0200F7B5FA2504000189134EAD00FE
:10BA50006943300009F059FE290004F0DBFF27009C
:10BA6000A36C208100935C373B7881B2694330003E
:10BA7000019309F045FE6022C3B20199009808F0D5
:10BA8000DBFF002801D00648FEBD39780123622281
:10BA9000A06C08F0D1FF0028F6D0F4E70073020094
:10BAA0000EFCFFFF10B50400034B0833036008F0E1
:10BAB000C0FB200010BDC046287302007FB50825DA
:10BAC000837904002B4204D1FDF71EF9A3791D43AD
:10BAD000A57120004C30FFF74DF8051E0DD0230056
:10BAE0005C331978062302AE0093E8223300A06C81
:10BAF000FEF7FEFD051E03D00B4D280004B070BDFF
:10BB00000223F25E96235B425A4362630021725E17
:10BB100020005343A3630423F25E96235343E3635D
:10BB200023681B6A9847E8E70EFCFFFFF8B504009E
:10BB3000150006AA168807AA0F0012881900FDF73B
:10BB4000F9FF0D4BA764083323602300AA884C3308
:10BB50009A80AA7920009A71084AE264AA6862650C
:10BB60002A7B1A736A7B5A73AA7B1E829A73FFF729
:10BB700069FF2000F8BDC04628730200206F020054
:10BB800010B50400054B083303601C3008F092F830
:10BB90002000183008F08EF8200010BD5473020009
:10BBA000FF23F0B52B4D8DB02B70002304006946A8
:10BBB0000088009303F070F9002802D16B469B784F
:10BBC0002B70254E3368DB68002B07D100232088BB
:10BBD0001A00190009F05CFB0DB0F0BD2B78032BA7
:10BBE000F4DC1E4901A8FDF759FB336801A9DE68A2
:10BBF00004A808F0B4F804A9300009F0A7FA060078
:10BC000004A808F057F8371E1ED03100202210314A
:10BC100004A806F007FE30000BF034F9297804ABD5
:10BC2000C9005918082202A806F0FCFD208801234B
:10BC3000082202A909F02CFB0127002804D1208842
:10BC4000074A0C2109F022FB01A808F033F8002F65
:10BC5000C2D1BBE784200020082500206C7D0200B3
:10BC6000FFFF0000F0B5837991B004005B071BD59E
:10BC7000FDF7D0FA00232269801A9941994203D135
:10BC8000F423FF3398420FD9A068002808D0364B20
:10BC90001D8801F061F9036815221B6A2900984785
:10BCA0000422A3799343A371A3799B0759D52F4D00
:10BCB0002B68DB68002B50D02D4B1B78032B4CDC02
:10BCC000294B2C491B8804A80193FDF7E7FA2B6840
:10BCD00004A9DE6808A808F042F808A9300009F0B5
:10BCE00035FA070008A807F0E5FF02AB9E1D082300
:10BCF0003200338006A9073B019809F0CBFA002FE8
:10BD000008D039002022103108A806F08BFD380039
:10BD10000BF0B8F8164B32881B7806A9DE0008AB8A
:10BD20009E19300006F058FD002813D0082206A9FD
:10BD3000300006F077FD2B6804A9DD6805A808F03F
:10BD40000EF8202308AA05A9280009F005FA05A87D
:10BD500007F0B0FF04A807F0ADFF0222A3799343D8
:10BD6000A37111B0F0BDC0461C2900200825002099
:10BD7000842000206C7D0200F7B5040000250192AC
:10BD8000C77FBD4251DA66197078884218D11529EB
:10BD900027D801228A402748024222D0F9180120E0
:10BDA0001F291DDCE1193718B9420ED800218B423A
:10BDB0000FDD019A7018575C01318770C9B2F6E740
:10BDC000605D2D180135EDB2DBE70878C854013904
:10BDD000EAE7625D9A186255E27F9B18E3770020DC
:10BDE000FEBD655D013DEDB2AB4209D10023AB4222
:10BDF000F5DA019AF118D05C01338870DBB2F6E70E
:10BE0000DF197F1B01201F2FEADC0227A81C7F42BD
:10BE100036187F1BE07F2218964203D23078F05507
:10BE20000136F7E7451B023DE577019A200009F04E
:10BE30007BFAD5E7FC002000F0B585B001930AAB92
:10BE40001E880BAB1B78451C02930EAB1B780400BD
:10BE500003930B78170003704B8A10224382013141
:10BE6000280006F0DFFC6B469B88268363836B46C5
:10BE70001B7B002623776B4601221B7A6761E683D2
:10BE8000EB77A31CDA7724210C9B0C25636223003B
:10BE9000200004AA5218127828331A705E709E701F
:10BEA0002A0031002C3006F04FFD2000064BE663DF
:10BEB000A3632A003100403006F046FD2000034B0A
:10BEC0002665E36405B0F0BDAB5202009D5202004E
:10BED00070B50D0001F040F804000368002D09D191
:10BEE0005B699847FA2080006843074904F092FD97
:10BEF000E08070BD9B6898478542F3DA2368200094
:10BF00009B6898470500EDE771020000F0B5070057
:10BF10001600A1B002C70400684918A81D0009F066
:10BF200035FA301E01D006F0F3FE01220492002201
:10BF300083B203920292023201920093320018A956
:10BF40003800FFF779FF23005D49583318A807939D
:10BF500009F01CFA281E01D006F0DAFE0122049234
:10BF6000002283B2039202920232019200932A00CD
:10BF700018A90798FFF760FF23005249AC3318A8AF
:10BF8000089309F003FA2698002801D006F0C0FEB5
:10BF900001220492002283B20392029202320192A1
:10BFA0000093269A18A90898FFF746FF631CFF33F1
:10BFB000454918A8099309F0E9F92798002801D004
:10BFC00006F0A6FE01220492002283B2039202929E
:10BFD000601C023201920093279A18A9FF30FFF7E4
:10BFE0002BFF23005533FF33384918A8099309F074
:10BFF000CDF92898002801D006F08AFE012204928B
:10C00000002283B203920292023201920093289A94
:10C0100018A90998FFF710FF2300A933FF332C4913
:10C0200018A80A9309F0B2F92998002801D006F05F
:10C030006FFE01220492002283B20392029218AD95
:10C04000023201920093299A29000A98FFF7F4FE20
:10C05000204B1B780B93002B2DD1079B129713932A
:10C06000089B0DAF1493631CFF331593099B1A496A
:10C0700016930A9B3800179309F088F91D2149206F
:10C080003B7810222B707B8A12AE6B8206ABC918EC
:10C09000C01806F0C7FB06232B756B469B8D2068E6
:10C0A000AB83AE6100F068FF036829001B68984706
:10C0B0000122084B1A70200021B0F0BD292A00008F
:10C0C000242A0000252A0000272A0000262A000032
:10C0D000282A0000812900200A18000070B50025D8
:10C0E00004000B4B8580083385710360C1601830F4
:10C0F000FDF70EF920001C30FDF70AF90123621C40
:10C10000D377044AA560656120001460A37170BDF7
:10C110005473020008250020FA2130B585B00500CF
:10C12000012302228900684607F05EFE074C206862
:10C13000002809D009F063F92988054B2268198085
:10C14000022391790B43937105B030BD082500207F
:10C150001C29002010B50C0007290AD8806800F0BF
:10C16000FBFE064B195703685B6C9847002802D109
:10C1700010BD0348FCE70348FAE7C046647D0200AF
:10C1800017FCFFFF16FCFFFFF0B5A54C0D00A54402
:10C19000040007939AAB1B78A24909A8049306925E
:10C1A000FDF77CF8200029001C3007F0E0FDC020DE
:10C1B000800001F071FC08200AF068FE07000021F1
:10C1C00000F092FE15AD0021A7600C220EA806F02B
:10C1D000BBFB2B000EAA43CA43C3934B2900EB6061
:10C1E000002338002B6109F0F1FAA06800F0B4FEDA
:10C1F0000C2200210590280006F0A6FB14200AF06E
:10C2000045FE8A4B2A0015930300C2CAC2C3884B5D
:10C21000059EC3600023A43603613368002B00D061
:10C22000F7E03060A06800F0A7FE0C2200210600B5
:10C23000280006F089FB14200AF028FE7D4B159398
:10C24000030086CD86C37C4BC36000230361336B40
:10C25000002B00D0DFE03063A06800F07DFE15AD5C
:10C260000C2200210600280006F06EFB14200AF0C4
:10C270000DFE724B98361593030086CD86C3704B26
:10C28000C360002303613368002B00D0C5E00125A3
:10C2900004AB1B7C04AA2B43306008A9280013744C
:10C2A00008F0FAFFA06800F077FE036865495B6A52
:10C2B0009847A06800F070FE036863499B6998473F
:10C2C000A06800F069FE00230268009316680499D4
:10C2D0002A00B047049B002B0AD0200009F098F8F0
:10C2E000032805DDA06800F057FE0368DB68984767
:10C2F0000EA809F010F82F2004ABC01809F00BF8B5
:10C30000362004ABC01809F006F83D20042504AB24
:10C31000C01809F000F80EAB0A93A06804AB5D7773
:10C3200000F03AFE03680AA91B699847A06800F06C
:10C3300013FE03680AA95B6D9847A06800F00CFE25
:10C3400003680021DB6D9847A06800F005FE0368D4
:10C3500002219B6D984700212000FFF7FBFE18206B
:10C360000AF094FDA16800F057FA384B384A1B6870
:10C37000A1680393374B15A81B680CAE0293364B8C
:10C3800000271B680193069B1B685B190093334BC6
:10C3900012681B68FFF7BAFD30200AF077FD079A94
:10C3A000A16800F0FFFAA06800F0D6FD0368310034
:10C3B0009B6A98470823A0683380DB187380B78096
:10C3C00000F0CAFD03683100DB6A98472900A068C5
:10C3D00008F0E8FF099A09219378A068521908F03B
:10C3E000F4FFA06800F0B8FD32210771A068FFF7E4
:10C3F0006FFD04AB1B7FBB4204D0A06800F0ACFD16
:10C4000008F0BAFF09A807F055FC95239B009D444E
:10C41000F0BD036105E703611DE7036137E7C0462F
:10C42000ACFDFFFF517E0200B952020019C10100AC
:10C43000C7520200A1BB0100D55202000353020003
:10C44000E352020061C4010095C4010004250020EC
:10C45000002500200C200020FC24002010200020BB
:10C4600013B506226846FCF729FF094B1C68002C0F
:10C470000AD0694601A807F072FC200001A908F063
:10C48000E8FF01A807F016FC684607F013FC13BD8F
:10C4900008250020002373B501AE0C003100050013
:10C4A000019302F0F9FC002802D1B278064B1A7011
:10C4B000064B1868002806D061426141044BC9B29E
:10C4C0001D8008F0CEFF73BD8420002008250020C9
:10C4D0001C29002030B5284CA9B06A220D000DA8F7
:10C4E000210006F09FF90DA903A8FCF745FF03A959
:10C4F00006A807F0A9FC01230193013BFF3B009331
:10C500000533FF33642206A92800FEF799F806A830
:10C5100007F08DFC210019226A3106A806F082F985
:10C5200005220024110006AB04A807F0B4FC04A9FE
:10C5300005A807F089FC019400942300220005A9B6
:10C540002800FDF7BFFF05A807F071FC21002800B7
:10C55000FEF7A4F805340520FCF76EFCFF2CF5D19E
:10C56000FA208000FCF768FC04A807F060FC03A830
:10C5700007F05DFC29B030BDE17C0200F0B59D4BB9
:10C5800095B005921A68082307000291D16C06A89D
:10C590000B43D3649849FCF781FE984907A8FCF740
:10C5A0007DFE3A0000240DAD28001C3206A907F0DC
:10C5B000EDFB07AA290008A807F0E8FB280007F010
:10C5C00079FB7B1CDC77B86800F0C6FC03680BAE17
:10C5D0005B699847280008F09EFE2B2004ABC0182A
:10C5E00008F099FE322004ABC01808F094FE392000
:10C5F00004ABC01808F08FFE0B950425B868757160
:10C60000347100F0A9FC036831005B6D9847B8688D
:10C6100000F0A2FC036821009B6D9847B86800F009
:10C620009BFC030006000A331F222100180003931D
:10C6300006F08AF9039B3000DC7708F094FE0621AF
:10C64000B86808F0AFFE089A09219378B8685219C3
:10C6500008F0BBFEB86800F07FFCC8210471B86820
:10C66000FFF736FCB86800F077FCFF260481B86855
:10C6700000F072FC08F080FE0298FDF7B7FE38006B
:10C68000FCF742FB02993800FFF724FF02993800BB
:10C6900008F0FAFE0394049501257B691D402DD016
:10C6A000574909A8FCF7E4FE09A90AA807F0CCFB42
:10C6B00000220AA91300019200920298FDF702FFDE
:10C6C0000AA807F0B4FB039B002B42D1043E282E9E
:10C6D00041DD0025FE2E00DC039D059807F095FD49
:10C6E000002806D001237A699A431300049A134361
:10C6F0007B61002409A807F09AFB03957B69049AE3
:10C70000134233D0FF210298C825FDF7C7FF00244C
:10C71000AD00BB6902229B5E9C4222DA380021B246
:10C72000183007F049FB0023010002981A0074300A
:10C73000FCF7EEFE2800FCF77FFB029808F06FF98B
:10C74000C820FCF779FB02227B69134209D101342E
:10C75000DFE70436BBE7029808F061F9002EBCDD84
:10C76000BAE7FA208000FCF767FB002402237D690A
:10C770001D421CD006331D4024D0224909A8FCF7D5
:10C7800077FE09A90AA807F05FFB00220AA9019217
:10C79000009213000298FDF795FE0AA807F047FBE8
:10C7A0001948FCF749FB09A807F041FB174C642026
:10C7B000FCF742FB164B01349C4200DC6CE707F0AF
:10C7C00015F969E7134909A8FCF752FE09A90AA857
:10C7D00007F03AFB2B002A000AA901950095029860
:10C7E000FDF770FE0AA807F022FB09A807F01FFB5F
:10C7F000DDE7C0468C240020787D0200887D0200A1
:10C800008A7D0200CF7D0200983A00008C0A000069
:10C810008B0A00000C7E020000225C4BF0B508334E
:10C82000060003600F001000A9B0B1600BAB9918AF
:10C8300001324870102AFAD10F3A554C1A700E3254
:10C84000105D991A0874013AFAD2997B5A7B090251
:10C850000A4331000C31039125211B7813AD2B7055
:10C8600002ABC918452302A81B186A8218001022BF
:10C8700005F0D8FF039B64216B610123002402AA09
:10C880002B832B775218093313701DAB1C706D234B
:10C8900002AA9B181C706E2321009B181EA80C2254
:10C8A0006C83EC836C621C7006F04EF8394B0C22E2
:10C8B000210023A8AB63EC6306F046F8364B032255
:10C8C000EB64462302A95B18DA7722002C650595F4
:10C8D000347306AD2B1901345A70102CFAD1012390
:10C8E0002E482B700E33195CEA1A1174013BFAD2F0
:10C8F00011212520AA7B6B7B12020BAC13432A78F3
:10C90000638202ABC9182270C018102205F08AFF9A
:10C910000123237505ABA36100233800A38300F036
:10C920002BFB036821001B68984713ABDB8BB068B7
:10C93000B38200F021FB002203680092B18A039ABF
:10C94000DC680123A047B06800F016FB0700142044
:10C950000AF09CFA04000C22002105F0F5FF0023E8
:10C9600020002361069340C0013308222900079369
:10C9700005F058FF0A4BE360BB69002B03D1300080
:10C98000BC6129B0F0BD2361F9E7C0466C730200B9
:10C99000657E0200AB5202009D520200757E0200CD
:10C9A000EB540200F0B500260400774BDDB00833ED
:10C9B00003608160C260868086713200734947A837
:10C9C00008F033FE2300143308931223012501934A
:10C9D0000E3B04950093089A330047A903960296EC
:10C9E0001DA8FFF729FA3200694947A808F01DFE83
:10C9F0000C2322000193083B15AF103204950093DD
:10CA000047A933000396029632A8FFF715FA3200C1
:10CA10006049380008F009FE23001C3309930823FD
:10CA20000193043B390004950093099A330003965F
:10CA3000029647A8FFF700FA32005749380008F07D
:10CA4000F4FD54200AF022FA23001833079312232E
:10CA500001930E3B390004950093079A3300039627
:10CA600002960690FFF7E8F9069B0822A3624B4B5B
:10CA70000AA90A93069B0B961800DC62303005F079
:10CA8000D1FE069A464B26829363130066822933B1
:10CA90001D7023690422E3610999079805F0C2FE1D
:10CAA00004220799089805F0BDFE6622032304A915
:10CAB0005218D377BA225218D377872252005218CD
:10CAC000D377069A37490232D3771DAB0C9332AB3A
:10CAD0000D9347AB0E93069B3200A68510A80F93CB
:10CAE00008F0A3FD30223121452004AB9B181B78B0
:10CAF00012323B7004AB9B181B88323A7B8204AB2A
:10CB0000C918C01805F08EFE04230CADA0683B7553
:10CB1000BD61BE8300F030FA036839001B68984796
:10CB2000822204AB9B181B885432238404AB9B18CD
:10CB30001B885432A38404AB9B181B88A0686384B1
:10CB400000F01AFA070014200AF0A0F905000C22E0
:10CB5000310005F0F9FE2800134B2E61082210C0A9
:10CB600010A91093119605F05DFE104BEB60BB69A8
:10CB7000B34206D1BD612000FCF7C6F820005DB0CD
:10CB8000F0BD2B61F6E7C04678730200A57E020077
:10CB9000857E0200957E0200B57E0200FD550200F2
:10CBA00069550200C57E020019CC010093550200B0
:10CBB000F0B504000E00150085B000930CAB1B8887
:10CBC0001030019307F005F92680658018200AF0DF
:10CBD0005DF9070002AE33003D000AAA03CA03C391
:10CBE000009B102208C50021280005F0ADFE310091
:10CBF0000822280005F016FE064B02227B61200069
:10CC000000230199A7600A43E360A2802362636264
:10CC100005B0F0BDBD550200F0B50B898DB0059390
:10CC2000CB68050004934B88828C9A420ED1049CF9
:10CC3000059B049A1B1BD318032B39DD62882188BE
:10CC4000012308A807F0D0F80434F1E7428C9A4297
:10CC50002ED1049C059B049A1B1BD318032B27DDA4
:10CC60002388282006936388EF680793114B089365
:10CC7000002309930AF00AF9C0236A4606000293CA
:10CC800008AB03CB03C22B000699079A3000FFF7CD
:10CC90008FFF3B6831005B6838009847002805D05B
:10CCA000300006F0BDFF30000AF0ECF80434D1E7A4
:10CCB0000DB0F0BD7B56020070B5040090B08068E6
:10CCC00008F0D6FC022101401AD1A38D002B17D009
:10CCD0000C4B6A4604931023E568A18505910293E5
:10CCE00004AB41CB41C20A00230006A8FFF760FF56
:10CCF0002B6806A99B682800984706A806F090FFB5
:10CD000010B070BD7B560200002815D00060416055
:10CD10008260C360046145618661C7614446046204
:10CD20004C464462544684625C46C4626446046372
:10CD30006E46466374468463002A06D0C46B043C86
:10CD4000043A25681560B442F9D18C6BA6464E6B47
:10CD5000B546002B06D0CC6B043C043B1D68256017
:10CD6000B442F9D10C6BA446CC6AA3468C6AA246A5
:10CD70004C6AA1460C6AA046CF698E694D690C6960
:10CD8000CB688A68086849687047006041608260C3
:10CD9000C360046145618661C761444604624C46D4
:10CDA0004462544684625C46C462644604636E46D0
:10CDB000466374468463C46B043C043925680D6083
:10CDC000B442F9D1C7698669456904697047006052
:10CDD00041608260C360046145618661C761444609
:10CDE00004624C464462544684625C46C4626446B3
:10CDF00004636C4644637446846304697047846BBF
:10CE0000A646446BA546046BA446C46AA346846A3E
:10CE1000A246446AA146046AA046C7698669456974
:10CE20000469C368826800684168704710B5041ED1
:10CE30000CD005F06DFF431EE3189C4208D2227807
:10CE40001978013B21705A700134F6E7014810BD92
:10CE50000020FCE717FCFFFFF0B585B002900C1E28
:10CE60002AD00023C217161A56400193019B3000A6
:10CE70005D1C63190A215F1E039303F03BFF4942C7
:10CE80003031397030000A2103F04EFE474206006F
:10CE9000002F0FD1029B002B04DA2D23019D039A52
:10CEA00002351370002320006355FFF7BFFF3800E1
:10CEB00005B0F0BD0195D9E7004FF8E717FCFFFF7B
:10CEC0000268084B406810B5C018C0001018030075
:10CED000934205D31C688C4202D31800083BF7E745
:10CEE00010BDC046FFFFFF1F002370B504000160A6
:10CEF000436099420AD1064D2B68002B02D108F0FD
:10CF0000B2FE286023689B00EB586360200070BD70
:10CF10001C25002070B500280DD10C4C2668002E71
:10CF200007D1083009F0B2FF05003100FFF7DCFF40
:10CF30002560206870BD0122054906480B68134032
:10CF4000F8D1026043600A60F4E7C0461025002073
:10CF50000C25002014250020436810B50400002B88
:10CF600002D1044809F0E6FD606803681B69984730
:10CF700010BDC046D57E0200436810B50400002BEA
:10CF800002D1044809F0D6FD606803689B699847A0
:10CF900010BDC046D57E0200436810B50400002BCA
:10CFA00002D1044809F0C6FD606803685B6A9847CF
:10CFB00010BDC046D57E020000487047FFFF00004C
:10CFC000F0B597B00593036807AD1B680491039310
:10CFD00011002B00060091C991C30024D3682100E1
:10CFE0000C220CA8EB602C6105F0AEFC22000B4B70
:10CFF00010940F9311AB1C70191901344A70102C46
:10D00000FAD15A820193059B2A00009304990CAB34
:10D010003000039CA04717B0F0BDC046195902006C
:10D02000FC3070B5046C0500002C0DD1242009F0F3
:10D030002DFF064B44608361054B8460C46004612E
:10D040004461C46103602864286C70BD647402008C
:10D050004C750200FC3070B5C56B0400002D11D179
:10D06000342009F013FF084B85604360074B45618E
:10D070000361074B0562C361064BC5628362064BC1
:10D08000E0630360E06B70BD94740200847402007E
:10D09000F474020004750200147502007FB5037970
:10D0A0001548002B1CD0154E154C33782000002B52
:10D0B00016D102AD280008F00CFC002815D16B88B1
:10D0C000592B12D12B78AA88D91F01290AD800928E
:10D0D0000C4A2021200005F095FD0123337020002B
:10D0E00004B070BD0092084AF3E7202207492000EF
:10D0F00005F040FEF3E7C046F87E0200A2290020BA
:10D1000082290020127F02002F7F0200547F02003C
:10D1100010B50400024B08C008F0BEFC200010BD92
:10D120008474020010B50400024B08C008F0C9FC6A
:10D13000200010BD94740200064B70B5040003601B
:10D140004068002804D0056909F09CFE2800F8E733
:10D15000200070BD74740200064B70B504000360BB
:10D160004068002804D0056909F08CFE2800F8E723
:10D17000200070BDA4740200064B70B5040003606B
:10D180004068002804D0056909F07CFE2800F8E713
:10D19000200070BDB4740200064B70B5040003603B
:10D1A0004068002804D0056909F06CFE2800F8E703
:10D1B000200070BDF4740200064B70B504000360DB
:10D1C0004068002804D0056909F05CFE2800F8E7F3
:10D1D000200070BD04750200064B70B504000360AA
:10D1E0004068002804D0056909F04CFE2800F8E7E3
:10D1F000200070BD98730200064B70B504000360F8
:10D200004068002804D0056909F03CFE2800F8E7D2
:10D21000200070BDA8730200064B70B504000360C7
:10D220004068002804D0056909F02CFE2800F8E7C2
:10D23000200070BDB8730200064B70B50400036097
:10D240004068002804D0056909F01CFE2800F8E7B2
:10D25000200070BDC8730200064B70B50400036067
:10D260004068002804D0056909F00CFE2800F8E7A2
:10D27000200070BD64740200FC3070B5046C0500C1
:10D28000002C0DD1242009F001FE064B446083617F
:10D29000054B8460C46004614461C4610360286418
:10D2A000286C70BD647402004C750200104B10B500
:10D2B000083303600F4B0400C36080230E4A5B00F9
:10D2C000C250C018FCF768FF20000C4BB830E36078
:10D2D000FFF7B2FF2000AC30FFF79EFF2000A03028
:10D2E000FFF78AFF20006C30FFF776FF200010BDAB
:10D2F00078750200C075020018770200D87302002A
:10D30000F0B50500040087B0AC356B68AB60A86869
:10D31000002807D0C36821009847AB68002BF4D0E1
:10D320001B69F3E72500B0352868002804D006699A
:10D3300009F0A8FD3000F8E72200FC2158321378EC
:10D3400028600B40137023005C33187020000A30F3
:10D3500008F080FC2000343008F07CFC606E00286F
:10D3600004D0056909F08EFD2800F8E725009835FE
:10D3700060662868002804D0066909F083FD300043
:10D38000F8E728602500A4352E68002E05D03769FF
:10D39000300009F077FD3E00F7E72E6001AD310067
:10D3A0000C22280005F0D0FA23002A006C3383CA2F
:10D3B00083C3094BE667A3670C223100280005F000
:10D3C000C3FA2300803307CD07C33000034A9034EB
:10D3D0001A60266007B0F0BDFD580200EF58020049
:10D3E000444AF0B50600C260A022434B163608330B
:10D3F00003600100002342820400320085B0037103
:10D400008360037483823531137001329142FBD102
:10D41000802580222000AD00D201F37735841100F1
:10D4200000933830002300F00DFF2300210040332B
:10D4300003931A002B0000255F31157001328A42D8
:10D44000FBD1039AFC21D577220060321380137937
:10D4500020000B401371230068331D70274B256794
:10D46000E3660C220021783005F06EFA23002700D5
:10D4700088331D60224B0837FB67843700210C225C
:10D48000380005F061FA1F4B1F4AFB602300A033F0
:10D490003D611A601D4A5D60DA601D4A1D619A6136
:10D4A000DD61300008F0D6FB039808F0D3FB194B80
:10D4B000601CE3602300C4331D705D709D70FF30FD
:10D4C00002F024FD8C235B00E55023001933FF3369
:10D4D0005D618023104A5B00E2502300012220009E
:10D4E000FE3352425A86023B9D63DD631D6405B0E4
:10D4F000F0BDC046D8730200787502009873020030
:10D50000FD580200EF580200A8730200B873020031
:10D51000C8730200C07502001877020070B5074C8E
:10D520002368002B07D1A020400009F0AFFC0500C4
:10D53000FFF756FF2560206870BDC04620250020FB
:10D5400070B50C220D000021040005F0FDF9002348
:10D550002361024B25602000E36070BD0B5902007F
:10D5600070B500250400254B05710360244B4571FF
:10D570008360244BC5604361234B85610362234B69
:10D580004562C362224B05638363C563290044304F
:10D59000FFF7D6FF200029005830FFF7D1FF200009
:10D5A00029006C30FFF7CCFF1A4B220023602300C8
:10D5B0008032F83320C29342FCD126001D00E936A8
:10D5C000FF36280008220021083505F0BDF9B542D4
:10D5D000F7D18E239B00E218002308C5AA42FCD194
:10D5E0008E2200219200A3540B4B0C4AE318A21880
:10D5F000198002339A42FBD1200070BDC47402002E
:10D60000747402008474020094740200A474020012
:10D61000B47402004C7602003A020000620200007C
:10D62000024B0B60092313607047C0465C7F020009
:10D6300010B504000020FFF771FF03681B699847CD
:10D640000300F3331C7086235B00C05003000021ED
:10D65000044AFC335A61044A99615A62F43009F071
:10D66000B3F910BD315F0200435F0200012110B524
:10D67000044A080002F0F0F9031E00D00B23180042
:10D6800010BDC04631D60100F0B5060093B00020B1
:10D690000C00FFF743FF03685B6A984700F0F0FC5B
:10D6A00006AB00280ED000221A7105AA06920822A5
:10D6B00018001A730AAA9A6000F0ACFD002803D083
:10D6C00013B0F0BD187118730023237323710193F5
:10D6D0003300BA331B78019A9A4241DA0723534345
:10D6E000F218BB321278BB33022A31D10025F3186D
:10D6F000029306AF3B7B9D4223DAAB000393089B6A
:10D70000AA009958029808F0EFFF00281DD0237B4B
:10D71000AA009C46BB6899180293634608689A0061
:10D72000A368D0506346013323733B7B5A1E954256
:10D7300005D00C481B1802989B001B580B6006ABC9
:10D740001A73019B0133DBB2C1E70135EDB2D0E7BB
:10D75000227920689100F31801320B502271F0E712
:10D760000020ADE7FFFFFF3FF0B50A7804009BB053
:10D770000D000220012A44D04B88032A3BD1A03B54
:10D7800021499BB210008B423BD8204BAA88032032
:10D790009A4236D80AAB009312AB02936A46002332
:10D7A000260013711373B8363378002B05D0694601
:10D7B0002000FFF769FF002823D104AF18220021C1
:10D7C000380005F0C1F82B7838003B7033783B7295
:10D7D0006B46FB606B883B82AB887B8208F0CCFA9F
:10D7E00002000320002A0CD10123583421781000B4
:10D7F0000B43237005E0203B054A9BB20320934274
:10D80000C3D91BB0F0BDC046603F0000FF3F000021
:10D81000E03F0000F0B59DB01F006B4605001A7098
:10D82000581C0622229E02AC04F0FCFF002F2ED0D2
:10D830003B8823807B886380BB88A380FB88E38050
:10D840000CAB04A9049314AB8B602F000023B937F1
:10D850000B710B733B78002B21D101203B78022701
:10D8600008A903405A000B78BB4304AF4F60134331
:10D87000002E1BD12A003232127883430240134318
:10D880000B70AB8D0B81EB8D4B812B8E18E032230F
:10D890002380DB186380F533A780FF33CFE72800B0
:10D8A000FFF7F2FE0028D8D01DB0F0BDB279834357
:10D8B000024013430B7033880B8173884B81B3880C
:10D8C000220068468B8108F06DFA03000020834235
:10D8D000EAD00630082BE7D006D80130042BE3D07D
:10D8E000834209D10420DFE70520112BDCD0034A55
:10D8F0009342F7D0102BF5D00B20D5E70232000071
:10D9000010B5040001F094FE034B1B68002B01D0FE
:10D910002000984710BDC04628250020F0B58DB0E6
:10D92000050001F0F9F80020FFF7F8FD0368070093
:10D930001B6998473B6804009B69380098473B681F
:10D9400006005B6A380098470300288810380B28C7
:10D9500062D803F055F8063E6161615B6161616701
:10D960006179AF882000390008F083FB22006B7BCF
:10D97000583201931378A8799C46022361460B43E1
:10D98000137006AB1F80012306AA9370D07013009A
:10D990006A461279E91D9A722B000622163307A8EF
:10D9A0000B9304F03FFF29000B2006AB06220E313B
:10D9B000C01804F037FF94346368A360A06800289F
:10D9C0002AD0C36806A99847A368002BF4D01B6926
:10D9D000F3E720002F49AF8808F04BFB220002201C
:10D9E00058321378A9798343137006AB1F8099705E
:10D9F000A0346368A360A06800280DD0C36806A99E
:10DA00009847A368002BF4D01B69F3E75B69A91D55
:10DA1000002B01D0A88898472900300008F01AFC94
:10DA20000DB0F0BD636EAF79002BF5D0A366A06E8C
:10DA30000028F1D0C36839009847A36E002B01D1AC
:10DA4000636EF3E71B69F1E701220D27AB7BE91D4C
:10DA50001A4001925A07920F0292DB08062206A88A
:10DA6000EF57049304F0DEFE6A46127906ABDA71D2
:10DA70006A46127A9F711A726A46127C20005A72A4
:10DA80002B008C340F3309938030236806A9984704
:10DA9000C2E7C046FFFF00000723D72802D9024B88
:10DAA000186000231800704724250020014B1860DF
:10DAB0007047C046282500201FB5A3238022DB0025
:10DAC000D205D3580820DB0700D405301E4B48226E
:10DAD0001E4902F033F800280AD080B2002807D18E
