:020000021000EC
:10800000004000200506020041060200430602006F
:108010000000000000000000000000000000000060
:108020000000000000000000000000004506020003
:1080300000000000000000004706020049060200A0
:108040004B06020071B30100C10C02004B06020096
:108050004B060200000000007D0602004B060200F5
:108060004B0602009D0E0200490B02004B06020067
:108070004B0602004B0602004B0602004B060200B4
:108080004B0602004B0602004B0602004B060200A4
:108090004B060200D5000200610202004B060200FE
:1080A0004B0602004B06020000000000000000002A
:1080B00000000000000000000000000000000000C0
:1080C000054B0648033310B51B1A062B03D9044B86
:1080D000002B00D0984710BDB0200020B020002019
:1080E000000000000648074910B5091A8910CB0F97
:1080F0005918491003D0044B002B00D0984710BDED
:10810000B0200020B02000200000000010B5074C77
:108110002378002B09D1FFF7D3FF054B002B02D0AA
:10812000044800E000BF0123237010BDB8200020E8
:1081300000000000A0870200094B10B5002B03D0FF
:108140000849094800E000BF08480368002B02D135
:10815000FFF7C8FF10BD064B002BF9D09847F7E793
:1081600000000000BC200020A0870200B0200020FA
:1081700000000000144B002B00D1124B9D46402202
:1081800092029A1A924600218B460F461148124AD3
:10819000121A0AF031FF0D4B002B00D098470C4B00
:1081A000002B00D098470020002104000D000B4850
:1081B0000AF0B8FD0AF004FE200029000FF07DF857
:1081C0000AF0CEFD00000800004000200000000082
:1081D00000000000B0200020802A00208D2D020029
:1081E000044A84B09378032B01DC0133937004B00C
:1081F0007047C046AB290020044A84B09378002B16
:1082000001D0013B937004B07047C046AB290020F9
:1082100010B50400034B036040300CF050F920000F
:1082200010BDC046DC760200F0B585B01F000AAB79
:108230001B880600029115000393002F1BD02820F5
:108240000FF029FA6B4604001989039BAAB2009328
:108250003B000CF0D3F8336821005B68300098478E
:10826000002806D020000CF0E0F820000FF00FFAF4
:10827000024805B0F0BD0248FBE7C04616FCFFFF10
:1082800017FCFFFF094B70B51C68002C0CD023684D
:108290006568586801F05EFA206801F05BFA20001A
:1082A00001F058FA2C00F0E7200070BDD420002027
:1082B00037B50024134D6359002B07D0586801F0DF
:1082C00049FA605901F046FA0023635104343C2C0A
:1082D000F0D10D4D2C68002C03D0FFF7D3FF2860A0
:1082E000F7E70A4901A801F027FB0948782201A90C
:1082F000F03002F091FC01A80CF0E1F8054B1C7085
:1083000037BDC046DC200020D4200020CE810200F2
:10831000182100208520002070B504000800251ECB
:1083200007D121000BF009FE054B1860200070BD3D
:108330000D0069680029FBD10BF0FFFD6860F5E7CF
:10834000D420002030B5082085B001F0CFF904001A
:10835000022001F0CBF90500002C01D1FFF7A8FFA6
:10836000074B65605A7821002A709B786B70002358
:108370002370044B1868FFF7CFFF05B030BDC0462F
:10838000AB290020D4200020F8B51C4D1C4B280040
:10839000F0301C680CF048FF28001A4B65309A78C2
:1083A0005978FF30052301F045FB002C0BD0280045
:1083B000236865305B68FF305A781978FF2301F035
:1083C00039FB6468F1E7104FE359002B11D0002608
:1083D0003B59DA7896420CDA28005B6865305A78A7
:1083E0001978921912B2FF30FF2301F023FB0136F6
:1083F000EEE704343C2CE6D1F8BDC046182100203D
:10840000D4200020AB290020DC200020024A417A41
:10841000D3785B18D3707047AB2900200023180075
:10842000044A9958002901D00130C0B204333C2BD2
:10843000F7D17047DC200020F8B5204B19211E68C9
:10844000300008F0AFFF00291AD10C001C4DA3002A
:108450005B59002B03D001340F2CF8D10024194BA9
:108460001B68002B13D0032000F018FE012808D051
:10847000022809D0002803D10BF08FFDA400285159
:10848000F8BD0BF0A9FDF9E70BF0C4FDF6E70E2CE3
:10849000F6DC0D4F3B78002BF2D1FFF7BFFF002831
:1084A000EED16421300008F07DFF0029E8D10BF007
:1084B000D0FD0123A40028513B70E1E7D820002023
:1084C000DC20002004200020AA29002070B506002E
:1084D0000024084D6359B34207D1706801F03AF99E
:1084E000605901F037F90023635104343C2CF0D17A
:1084F00070BDC046DC20002070B50024114BE5584B
:10850000002D0ED0A97800290BD00F4B186808F069
:1085100049FF002905D16A681378002B05D0013B7B
:10852000137004343C2CE9D105E0084A1378002B81
:1085300002D1FFF7BDFE70BD013B28001370FFF7AD
:10854000C5FFEEE7DC200020D8200020AB2900206A
:1085500010B543780400002B02D0053B437010BDDA
:1085600001780A4A03290AD107311160084A1370B9
:108570002000FFF74BFF2000FFF7A8FFEFE713688D
:10858000002BF5DD013B1360F2E7C046042000201C
:10859000AA290020F8B5070008200E0001F0A6F86F
:1085A0000400022001F0A2F80500002C01D1FFF721
:1085B0007FFE01232370044B210018682F706E701A
:1085C0006560FFF7A9FEF8BDD420002070B5002437
:1085D000094BE558002D0BD0084B297A186808F094
:1085E000E1FE002904D16B6859781878FFF7D2FFB3
:1085F00004343C2CECD170BDDC200020D8200020BD
:10860000124B70B51B68DB071FD4114C2168002981
:108610001BD00B684D681A78002A0ED15A6813785F
:10862000032B03DC013313702900F0E7042BFBD18B
:1086300020680BF090FC2060F6E7012AF4D15A681C
:108640001378002BF4D0013BEDE770BDD82000205B
:10865000D4200020F8B5264D2C68002C46D0236885
:108660001E78002E1ED06468F7E70878874216D17E
:1086700058784B78984212D11000FFF769FF21001B
:1086800028680BF068FC286009E00878874206D16A
:1086900049785B789942EFD001339942ECD00436A7
:1086A0003C2EE0D0134BF258002AF8D0D078013895
:1086B0000328F4D82168536849681F7808F0EEFC55
:1086C000D5E5020D08788742E9D149785B7899426F
:1086D000E5DB02339942E2DCCEE708788742DED15F
:1086E00049785B789942DADB0333F3E7F8BDC0469B
:1086F000D4200020DC20002070B5104D2C68002C08
:1087000012D023681A78012A16D15A680C4B1078B7
:108710005978884210D151789A7891420CD11A78C0
:10872000002A02D1FFF7C4FD70BD013A210028687C
:108730001A700BF010FC28606468E0E7D420002079
:10874000AB29002070B5144E35682C00002C21D0C8
:1087500023681B78002B1BD1002D19D02B681A78A9
:10876000012A13D122685B68526819781078884210
:108770000CD152785B789A4208D1290030680BF00E
:10878000EAFB210030600BF0E6FB30606D68E3E748
:108790006468DBE770BDC046D42000207FB5294E59
:1087A00010253400D034284B0322012100952000ED
:1087B000FFF73AFD254B0322022100952000FFF729
:1087C00033FD234B03221A2100952000FFF72CFDD7
:1087D000204B0422012100952000FFF725FD009584
:1087E0001D4B042202212000FFF71EFD1B4B1B78AE
:1087F000002B17D0FFF7C8FD194A1368642B0FDC54
:1088000001331360FFF718FEFFF7E0FEFFF7F8FEF5
:108810000BF03BFCFFF770FEFA2000F05BFEE5E793
:108820000023EEE70F4B03A8D9780BF064FE30006D
:10883000782203A9F03002F0EFF903A80BF03FFE15
:108840007FBDC04618210020F9810100E1810100AF
:10885000458301009D880100D98901008520002001
:10886000D8200020AB29002013B50A4C200000F0CE
:108870001DFA094901A801F05FF820007822F030C4
:1088800001A902F0C9F901A80BF019FEFFF786FF54
:10889000FCE7C04618210020D6810200F0B589B05F
:1088A0000391049205930290FFF7B8FD4300033350
:1088B00004001800019300F019FF00260500047061
:1088C000441C1C4BF758002F06D038000BF0E5FB7A
:1088D00020707B786370023404363C2EF1D1164A46
:1088E00013789178DB000B432370D37813496370BE
:1088F000134C019B20002A00B43002F0E1FD114B23
:10890000984208D0104B1149984205D0280000F039
:1089100021FF09B0F0BD0E4907A801F00DF82000B5
:10892000782207A9F03002F077F907A80BF0C7FD0D
:10893000ECE7C046DC200020AB2900209881020033
:108940001821002013FCFFFF17FCFFFF9D81020090
:10895000B881020007210378034ADB069B0F1370DE
:1089600003780B4093707047AB290020F7B50322C2
:10897000037801901340154D8C00154F154E022BB6
:1089800019D093421AD0012B12D00BF006FB0A2308
:108990003B600023285133702B595A68019B1B7888
:1089A0005B091370019B1B78DB065B0F5370F7BDEF
:1089B0000BF012FBEBE70BF02DFBE8E70BF049FBAC
:1089C000002328513B600133E5E7C046DC2000204E
:1089D00004200020AA290020F0B52B4D87B002907A
:1089E0002800F0300391049205930CF01DFC274EF3
:1089F0003468002C03D0FFF745FC3060F7E7244FC4
:108A0000E359002B07D0586800F0A4FEE05900F0AD
:108A1000A1FE0023E35104343C2CF0D128001D4971
:108A2000B4300CF069FF051E28D0037C00240093AD
:108A3000030011331E000193009B9C420ADA2100BF
:108A40003000FFF793FFA3007278FB5802365A708C
:108A50000134F1E7009B5C00019B1C19009B002B7B
:108A600006D10A220C4B1A606A460C4B12781A7017
:108A70002000FFF76FFF6278094BDA7028000EF0D4
:108A800006FE07B0F0BDC04618210020D42000200B
:108A9000DC2000209881020004200020AA29002068
:108AA000AB29002010B5094C200000F047F8084A17
:108AB000084920000EF0E4FD074B08481B7802220D
:108AC0000370074901300AF005FA10BD1821002093
:108AD00000200020E58A010084200020AB2900202E
:108AE00086200020CA23144A9B0010B5C2501C33B4
:108AF0000400C0180BF0E3FCD0239B00E0180BF03F
:108B0000DEFC20009130FF3001F01CFB20006930BA
:108B1000FF3001F017FB2000F03001F099FE20003B
:108B2000D03002F013FA2000643007F0D7FC201D8B
:108B3000FFF76EFB200010BD687B02001423F0B528
:108B4000040093B0192200931821043002F060FC55
:108B500023002500260064331800B4351321109338
:108B6000B83607F0C7FC28000CF0C0FE00221E211A
:108B700030000CF05EFB2000D03002F007FA23003A
:108B8000F033474A06211800119301F085FE2000BA
:108B90000027012369301A0000971121FF3001F0EE
:108BA000DDFA200091300097012302221A21FF30C4
:108BB00001F0D4FA2000B930022201211A23FF303B
:108BC00002F0A2FA300001F0D3F8E4235B00E05099
:108BD000300001F01FFBE6235B00E0500100E422BF
:108BE00020005200D130119BA2580095FF3001F0B7
:108BF00063FD2000E13029001C22FF3002F0A0FDBF
:108C0000192320000F93013B0E93013B0D93013B71
:108C10000C93013B0B93013B0A93013B0993013BEE
:108C20000893013B0793013B0693013B0593013BEE
:108C30000493013B0393013B0293013B0193F93001
:108C4000013B082200930721013BFF300CF012FB8F
:108C5000CA239B00E018290003F08EFDD3239B005C
:108C6000E0181D2102F020FBDD239B00E750109847
:108C7000277003210EF040FA23002200200009494A
:108C80009C33A0321C6011605760074A80305A61E3
:108C90000221012207F0A4FD200013B0F0BDC04660
:108CA000E4760200C5400200B14002000123F0B5A5
:108CB00005788DB007001D4000D085E00300D0335B
:108CC0001800029300F0EAFA00F00EFA28200EF0E5
:108CD000E2FC040010300BF081FC6D4B65802380BA
:108CE00018200EF0D8FC06006A4B80C603901022B4
:108CF000290030000A930B950AF07EF908220AA990
:108D000030000AF0E7F8644B039AE56053611223E0
:108D1000A260A380256265622100029802F0A6F895
:108D2000002805D020000BF080FB20000EF0AFFCE7
:108D300001233A78594913433B703B00B433180080
:108D400004930CF0D9FD5649039004980CF0D4FD1F
:108D500000240590642000F0BDFB260025003B00A8
:108D60006933FF33180006930BF054FE00282DD111
:108D7000039B002B33D1059B002B30D1DD244949C7
:108D80004948A40000F086FC3B59002B1CD100F0A0
:108D900099F8010008A800F0CFFD09A80BF006FA29
:108DA000CA239B00F818059B09AA08A90093029BF7
:108DB00003F038FD09A80BF082FB08A80BF07FFB3D
:108DC000CC239B00FB583B510DB0F0BD38009130D7
:108DD000FF300BF01FFE0028CAD0182DC8DC380069
:108DE000653031B222B2FF23FF30013600F022FE9F
:108DF000F6B2322000F06EFB0135052E02D10026BE
:108E0000631CDCB2039B192D06D0002BA7D023498D
:108E1000049802F02BFC01E0002BF8D103980EF02F
:108E200036FC05980EF033FC1E491F4800F032FC5A
:108E3000DD239B00FB580793002B20D100F042F864
:108E4000010008A800F078FD09A80BF0AFF9CA20CE
:108E50000123800009AA08A900933818029B03F097
:108E6000E1FC09A80BF02BFB08A80BF028FBCC2396
:108E70009B00FB580793DD23079A9B00FA50CA23F7
:108E800039009B00069AF031F81803F0C5FE66E73A
:108E9000FD03000039410200F94002001682020081
:108EA0002182020000200020001C0020BFF34F8F11
:108EB000024A034BDA60BFF34F8FFEE70400FA0566
:108EC00000ED00E0F0B58DB005AF1922154938006E
:108ED0000AF000F80022144B05245A718022520532
:108EE000566E0122250001940292039301993000ED
:108EF00008F06EF90800029908F0E4F8019B039964
:108F00006B430193029B361A6B430293631E2C1B27
:108F10006C433C19225C1C1ECA54E7D108000DB0FA
:108F2000F0BDC04631820200AF290020F0B595B0F7
:108F30001822002106000EA80AF05EF813210EA8E0
:108F40000EF026FA03210EA80EF0B8FA4C4B1B685F
:108F5000002B00D10133DBB202934A4A01230021E6
:108F600009A807F0ADFD484B9E4200D9002672B615
:108F7000464B1022002105A81D680AF03DF8444B1D
:108F8000642130000593052408F026F96043503031
:108F9000281806900A21300008F01EF90A2108F06E
:108FA00001FA614350316918079130000A2108F035
:108FB000F9F9802361430024503169189B0108911D
:108FC0000093029B002B59D0002500232E1F0193F4
:108FD00005AB9B190393032C03D1802300249B0131
:108FE000009305AB2B4A585963000133D318002274
:108FF000110010265F1E3F783E4137001E78865DC7
:109000003E4202D001279740394301320633092AF4
:10901000EFD1C943204B09011940039B1B689842BB
:1090200029D1019B312B26DC002109A80EF0FFFA83
:10903000FA23139A0F99DB00106801421ED0013BFE
:10904000002BF9D1009B01345B000093019BE4B23B
:1090500001330193FA23019A5B009A42BBD1043594
:10906000102DB2D1064B1B68002BAAD0029B013BEE
:10907000DBB20293A5E7009B1943D6E7FFF716FF83
:1090800094240020F0FF0000E703000008200020E7
:10909000808202004A820200F01F0000F0B5002822
:1090A0001BDD0F4C421E276811000020BE09FB0F7C
:1090B00073407B403E097D087340BF087B406B4096
:1090C000DB072B4301251F0040002B401843E940DC
:1090D000ECD18242E8D32760F0BD0248FCE7C046ED
:1090E0009024002017FCFFFFF8B50023124C2360EA
:1090F0000BF07DF8002808D0042120000BF073F855
:10910000002801D00D4B2360F8BD0122A1270425C2
:109110000B4B0C491A602268FF0048604E68002E15
:10912000FCD0DE591202013D3243002DF5D1226000
:1091300001225A60E8E7C04690240020ED5EBC0B97
:1091400000D00040FCD000400B4B70B51C68002CD8
:1091500010D0656D00F0ACFBA36C002901D18342F7
:1091600006D820000BF076F8044920000BF060F8D8
:109170002C00ECE770BDC0469C240020BC240020DD
:10918000F0B5060093B007932A4B04901C682A4B55
:1091900005911F68069285B2360C002F47D0002338
:1091A0000293002C2FD0636D244803934823E318C7
:1091B0001A88A36C1B0C99B2854214D120488242B4
:1091C00011D1002B01D0B1420BD1029B002B08D151
:1091D00020000BF03FF81B4920000BF029F8012379
:1091E0000293039CDDE7002A01D09542F9D1002BC0
:1091F00001D0B142F5D120000BF02CF8114920002C
:109200000BF016F8EDE7104BEB18012B0FD91023DC
:109210003200009329000D4B08A80BF0EFF83B68D3
:1092200008A99B683800984708A80BF0FEF813B00F
:10923000F0BDC046C824002098240020FE03000092
:10924000FF030000BC24002002FCFFFF819101000D
:1092500070B572B60B4B1C68002C08D020000AF0C9
:10926000F9FF0023E364084B2000E36370BD62B69E
:109270005C200EF010FA050021005C2209F0BCFE13
:109280002C00EEE7C024002000400020024B18789C
:10929000012318407047C046B5290020F7B50600E5
:1092A000FFF7F4FF051E33D11A4C2660FFF7D0FFFD
:1092B000194B1A4918600AF0BBFFFFF7C9FF184B9A
:1092C0001860184B4363184B8363206800280ED046
:1092D000C027164E2A00330015490097FEF7A4FF59
:1092E000009733002A0013492068FEF79DFF0C20E9
:1092F0000EF0D1F90023838083710F4B03600F4B75
:10930000836000F0EDFA01230D4A11780B431370CE
:10931000F7BDC04698240020CC240020BC240020A7
:10932000C4240020FC3F00201B4302008191010067
:10933000FF030000FE0300000477020049910100D2
:10934000B5290020F7B506000D001700019300288D
:1093500002D100242000FEBD0029FAD0FFF778FFDB
:10936000041EF6D0074B019A436306604560876090
:10937000054B002A00D0054BA363054920000AF0E5
:1093800057FFE7E7FC3F0020E542020003430200ED
:10939000BC240020024B1868434258417047C04625
:1093A000BC240020002310B504499C006258002A08
:1093B00001D00133F9E76050100010BDA424002053
:1093C000002310B5044A99008C58844201D001331F
:1093D000F9E70020885010BDA424002010B5002417
:1093E000074BE058002802D003685B6898470434B4
:1093F000182CF5D1034B1B68002B00D120BF10BDEA
:10940000A4240020BC240020F8B5FFF73FFF00286B
:109410001CD02A4D2C68E36CDA0718D502273B4391
:10942000E364274B1E680423F26C30001343F3649B
:10943000636BF3630AF034FF3000716C03F0F3FFE9
:109440002868C36C3B4201D004F027F8F8BD1D4FDB
:109450001D4E3A68002A02D132682A6007E0216D69
:10946000B942FAD1616D002900D1110029602A6842
:1094700031688A4208D11B0706D52C60FFF7AEFF82
:109480003B68002BFAD02B6029688C42DED0336811
:1094900099420BD10D4B4B630D4B8B6320000AF0AF
:1094A000FFFE2968626C4B6C200004E09C42F5D101
:1094B000002210004B6C03F075FFC7E7CC2400209E
:1094C000A0240020BC240020C4240020FC3F002055
:1094D0001B43020070B50500FFF7D8FE002803D13A
:1094E00028000DF0E4FF70BD0C4B1C68E36CDB073B
:1094F00006D5FFF7ADFE0A4B1860002800D0040027
:1095000000F0D6F92D18A56420000AF0A3FE054945
:1095100020000AF08DFEFFF777FFE4E7CC2400205F
:10952000A02400209C240020F0B51E4B1E4F1C6878
:109530003B6885B006000391002B30D0FFF7A6FEF4
:1095400000282CD0E36CDB070ED5FFF781FE174B0C
:10955000051E186008D00AF07DFE154928000AF0A3
:1095600067FE2C00FFF750FF039B20001B043343D2
:10957000A3640AF06FFE20000E490AF059FE0E4B5C
:109580000020F318012B08D9C0230093039A0B4B3A
:1095900031003868FEF748FE002005B0F0BD0848ED
:1095A000FBE7C046CC24002098240020A024002003
:1095B000BC240020C824002002FCFFFF8191010090
:1095C00016FCFFFF10B5FFF761FE002809D0054C1F
:1095D00020680AF03FFE044920680AF029FEFFF7E0
:1095E00013FF10BDCC240020C0240020F7B50700D5
:1095F0000D0000282ED0FFF749FE00282CD00724AC
:10960000164E3068C36C1C4007D0154A290038003C
:109610000AF037FE00242000FEBD03F026FF0221E1
:109620003268D36C1940019103D003218B43D3647A
:10963000F1E701242343D3642800B8473268D36C90
:109640001900A143D164019C5B07E4D528000AF00E
:1096500050FEE0E7034CDEE7034CDCE7CC240020BF
:10966000F342020017FCFFFF16FCFFFF020010B5DB
:10967000014B12CB12C210BDD0240020034B1A683C
:10968000034B1A607E225A607047C04608200020B3
:10969000D024002070B5114E3278022A1AD08142AF
:1096A0001AD90C1A072C17D90D00032305432B4098
:1096B00012D172B60A4DD2005051AA1851608022C0
:1096C000A40812061443046032780132327062B684
:1096D000180070BD0348FCE70348FAE7B7290020EB
:1096E000D824002013FCFFFF17FCFFFF70B5134CBC
:1096F00006002378124D002B0CD1124912482B7012
:10970000FFF7C8FF114B984202D11E20FFF70EFC55
:109710000123237000242B789C4209DA0C49E300D2
:10972000C91830000AF0FFFD002805D10134F2E726
:109730001420FFF7FBFB002070BDC046B6290020B7
:10974000B729002000380020802A002017FCFFFFE6
:10975000D824002070B5002819D0104B10491C786F
:109760000023A34216DADA005558A84210D98A1805
:10977000526890420CD2041F2368002B02DC1E208A
:10978000FFF7D4FB802322681B061343236070BDC0
:109790000133E6E71E20FFF7C9FBF8E7B7290020F1
:1097A000D824002070B5051E14DD0B4E0B4C336819
:1097B000002B02D020680DF004FDFA21206800245F
:1097C000074B89008361C462694335600DF001FD78
:1097D000200070BD0348FCE7E82400201825002085
:1097E0008D98010017FCFFFFF8B5114F06003D688A
:1097F000002D0AD130200DF04EFF040006F0D4FEFB
:109800000C4BA5612360E5623C600B4D2B68002B7F
:1098100009D110200DF03FFF04000DF027FD2000BE
:109820002C600DF0FDFC3000FFF7BCFFF8BDC0461A
:1098300018250020107F020014250020014B186815
:109840007047C046E824002070B50D4C2368002BFB
:1098500003D00C4B1B68002B02D10620FFF7C4FF7E
:1098600020680DF0F4FC02000749C3170D684E682C
:109870005219734120680A604B600DF0EEFC70BD18
:109880001425002018250020B020002010B5FFF777
:10989000DBFF0024054BE058002802D003681B685A
:1098A00098470434282CF5D110BDC046EC24002084
:1098B00010B5FFF7C9FFFA22034B920018685968E8
:1098C000002307F0AFFD10BDB020002010B5FFF75A
:1098D000BBFF024B1868596810BDC046B02000207D
:1098E0000B4B10B51B680400002B03D0094B1B6801
:1098F000002B02D10620FFF777FF0023064A9900CC
:109900008858002801D00133F9E78C5010BDC046BB
:109910001425002018250020EC240020002310B579
:10992000044A99008C58844201D00133F9E70020A1
:10993000885010BDEC24002010B50400002902D08E
:109940000B78002B03D1034B2360200010BD0AF0DD
:10995000BDFDFAE714770200F8B504000E0015000B
:1099600000290AD00B78002B07D0002A05D0080068
:1099700097B209F025FD874203D90B4B23602000E5
:10998000F8BD681DFFF7B2FE20600AF044FF2068B2
:109990002A0047803100043009F09CFA23685D19E1
:1099A00000232B71EBE7C04614770200014B0360E4
:1099B0007047C0461477020010B50548054C20607A
:1099C0000AF02CFF044A054920000DF059FE10BD95
:1099D000147702001C25002000200020BF44020054
:1099E000084B73B51C680500002C0AD001002668DE
:1099F00008310822684609F06DFA0CCD3168200064
:109A0000884773BD20250020014B03607047C04686
:109A10001C77020010B50400002903D1044B036039
:109A2000200010BD016008000AF0F8FEF8E7C0460B
:109A30001C77020030B500684488A14206DA8588A8
:109A4000AA4203DA002901DB002A01DA034830BD0B
:109A500054434018001983710020F8E717FCFFFFFA
:109A6000F0B5070085B00E001D00002921DD002A99
:109A70001FDD002B1DD00468638803938B4200DD3B
:109A80000391A3880293934200DD029200230634DF
:109A90000193019B029A93420EDA29002000039A57
:109AA00009F018FA3B68AD195B88E418019B013393
:109AB000EEE7024805B0F0BD0020FBE717FCFFFF12
:109AC000F8B504000D0016001F00002901DB002A74
:109AD00002DA0D4B2360F8BD100048430630FFF753
:109AE00005FE20600AF097FE23685D809E80002FAF
:109AF00006D03B00320029002000FFF7B1FFEAE763
:109B000020000AF0BDFDE6E71C770200F7B506006D
:109B10000D1E1BD000200F000400010001903B78B7
:109B2000002B1ED03022524294469C446246092AA1
:109B300015D90A2B0ED1019B241801330193A142A0
:109B400000DA2100002004000137E8E7164B03602B
:109B50003000FEBD0028F7D001340020F4E70120DA
:109B6000F2E76A460127928809B212B230007F42BA
:109B7000FFF7A6FF39000A2033689A1D2C78002CC5
:109B8000E6D02300303B092B08D8FB43DB173B40D2
:109B900043431B19303B1F000135EFE7002FFBDB70
:109BA000177001320F00F7E71C770200F0B587B09D
:109BB000009004A815001E000F00FFF757FD009B42
:109BC0001B685A8895422ADA9B88B34227DD1F2FEB
:109BD00025DD059B01939F4221DC052300217B436A
:109BE0000193049B0293019B029A5B18A03BD35CF8
:109BF0000022039373189C46009B57191B685888D2
:109C00000400874202DA988860450ADC0132052A9E
:109C1000F2D101310529E6D1002007B0F0BD074897
:109C2000FBE7DB1910276046174160431B180398B8
:109C30000740781E87417F429F71E7E717FCFFFFCF
:109C4000F7B5036806009C1D5B880D005A1A019247
:109C5000002919DD0027994203DB0AF011FD0020DD
:109C600013E033689B889F42F9DA6119019A20005A
:109C700009F030F9019B2900E0180AF0E4FC336890
:109C800001375B88E418ECE70048FEBD17FCFFFFD6
:109C900010B50548054C20600AF0C0FD044A05498E
:109CA00020000DF0EDFC10BD1C77020024250020E3
:109CB000002000203946020010B5054C012120008B
:109CC0000AF0A0FD034A044920000DF0D9FC10BDA4
:109CD0002825002000200020C54702000388074AED
:109CE00010B50120934208D0834202D00020DB0748
:109CF00003D41E20FFF71AF9002010BDFFFF00005B
:109D00000048704716FCFFFF10B53220FFF70EF930
:109D1000004810BD16FCFFFF8280142210B5134CC2
:109D20000281083402000023046041620224010021
:109D3000303283718472C360036143618361C361A4
:109D40000362363113705370438683860A78A243C8
:109D5000F13422400A70020040321370021DD38792
:109D6000013343878387C38710BDC0463C77020019
:109D7000F0B5544F97B03B6806000593002B00D018
:109D80008BE006AC0B331C222121200001F0F4F9FA
:109D90000EAD0B231D2222210AA801F0EDF90B23A1
:109DA0001B222321280001F0E7F908200DF073FCA5
:109DB0000122059B110004900CF0B1F83A2130000B
:109DC0000BF01BFE00281DD0A38812ADAB80A37939
:109DD0005C20AB713C4B1293A3681493237B2B73D1
:109DE000637B6B73A37BAB730DF055FC0423019372
:109DF000363300932A00049B3100040001F0A4FFD5
:109E00003C604AE0322130000BF025FE00281CD0D7
:109E1000A38812ADAB80A3795C20AB712A4B12935F
:109E2000A3681493237B2B73637B6B73A37BAB734C
:109E30000DF031FC042301932E3300932A00049B80
:109E40003100040002F01EF9DAE73C2130000BF08B
:109E5000BDFD00282CD0AB8812ACA380AB79A42028
:109E6000A371194B1293AB6814932B7B23736B7BF9
:109E70006373AB7BA3730DF00EFC05230500029307
:109E8000013B0193383300932200049B310001F021
:109E900079FE0E4B3D6044351D600C4B094C186833
:109EA000002802D021680AF023FE206817B0F0BD18
:109EB00044200DF0F0FB042204990400FFF72CFF6E
:109EC0009EE7C0462C2500202C770200302500207C
:109ED000F0B56149C56885B08D4254DA03000222AD
:109EE00036331B78134059D104698C4264DA02007E
:109EF00036321278520768D4426901920200019EFC
:109F000040328E426FDA010036310978090774D485
:109F1000002B7DD113780293002B16D00600012769
:109F2000011DCB8F363601339BB2CB870396367833
:109F3000BC46374000D188E01D2B06D963469E43BE
:109F4000039B1E700023CB8713700AF0B1FC434AB9
:109F50000723904276D94249043B8D4272DBC822E6
:109F60000133920095426DDC023B8C426ADB013B7F
:109F7000944267DC01980433884263DB01339042EA
:109F800060DC00235EE0C822002352009542ABDD76
:109F9000030036331A7800239207A5D40123060064
:109FA0001F00363632785408A7433C0002279C40F5
:109FB000BA432243327097E7C822520094429BDD95
:109FC000020036321278520796D406000122363645
:109FD00033789F08BA439700042293431A003A4308
:109FE0003270012388E7C821019E49008E428FDD2F
:109FF00001003631097809078AD40100012636317B
:10A000000B78DF08BE430827F600BB4333430B70D1
:10A010001378032B00DD7DE70133DBB21370012BD6
:10A0200003D10021031DD98774E7042B00D071E709
:10A03000020036321178033B0B43137000230430C7
:10A04000C3870B33180005B0F0BD092B00D87CE79F
:10A05000029BCF87013B77E770FEFFFFFF70020096
:10A06000E0FCFFFF70B5C369C2681B688AB00400DA
:10A07000451D1A4207D0EB7F002B09D0013B06E0BB
:10A080003300032239E0EB7F0B2B01DC0133EB774C
:10A09000EB7F082B0DDD0122A379134209D1134375
:10A0A000A371A188130006A80AF0A3FAFFF700FC29
:10A0B0002062EB7F012B23DC0123A2791A421FD0FF
:10A0C0000025A188A571022202A80AF092FAA31D18
:10A0D000DE7F012E14D1FFF7EBFB2B00226A801AE2
:10A0E000994100900191019BA188AB4203D1134B90
:10A0F000009A9A42C4D90123042206A80AF079FAE8
:10A100000322A3791340012B0AD1FFF7D1FB0023CF
:10A11000226A801A9941994204D1094B984201D888
:10A120000AB070BD0223A279A1881343A37105224E
:10A13000012306A80AF05DFAF2E7C046E703000033
:10A14000DB05000010B50400034B08330360FFF784
:10A15000E5FB200010BDC04670770200F0B5070097
:10A1600000250E0085B002930AAB1B7808370393D5
:10A17000104B04000833036001928580857129002B
:10A180001822380008F038FF039A310038000DF02B
:10A1900004F96B466A469B88127AA380A31DE67178
:10A1A000DA77631D25622000DD77FFF799FB200039
:10A1B00005B0F0BD707702000048704716FCFFFF45
:10A1C00010B53320FEF7B2FE004810BD16FCFFFFAD
:10A1D000002310B50400838083710D48216408308A
:10A1E00020608020C000A061E0612062E360200068
:10A1F000236163616362A362E36223636363A363B6
:10A20000E363636411000AF04BFC200010BDC046FC
:10A2100088770200F0B5534F97B03B68060005936E
:10A22000002B00D08BE00B331C22212106A80AACA6
:10A2300000F0A2FF0EAD0B231D222221200000F012
:10A240009BFF0B231B222321280000F095FF0820F1
:10A250000DF021FA0122059B110004900BF05FFE26
:10A260001D2130000BF0E0FB00281DD0A38812ADAB
:10A27000AB80A3796020AB713B4B1293A36814931E
:10A28000237B2B73637B6B73A37BAB730DF003FAA0
:10A2900005230193183300932A00049B3100040026
:10A2A00001F026FE3C604AE03C2130000BF0EAFB66
:10A2B00000281CD0A38812ADAB80A3796020AB71BD
:10A2C000294B1293A3681493237B2B73637B6B73CB
:10A2D000A37BAB730DF0DFF90523019337330093B4
:10A2E0002A00049B3100040001F06EFFDAE73C21F4
:10A2F00030000BF06BFB00282BD0AB8812ACA38096
:10A30000AB79A420A371184B1293AB6814932B7BE9
:10A3100023736B7B6373AB7BA3730DF0BCF90523D5
:10A3200005000293013B0193383300932200049B04
:10A33000310001F027FC0D4B1D6044353D600B4B97
:10A340001A68084B002A01D019684A64186817B0C7
:10A35000F0BD48200DF09FF9052204990400FFF795
:10A3600037FF9FE7302500202C7702002C250020A6
:10A3700082B0F0B50400EBB06420719370920DF0E0
:10A3800096F805220EA811000AF083F997490FA844
:10A39000FFF7BCFB00221FAB6AA91A605A609A60E3
:10A3A0000C338B42F9D11922002111A808F024FEA8
:10A3B000A0680AF037FF00260990FF21A06800F08E
:10A3C000BBFC8B4FA06800F05FFB07960896079BCD
:10A3D000182B00DDBEE0864B9F4203D0854B9F4289
:10A3E00000DBAEE0A0680AF01FFFA568824918A84C
:10A3F000FFF7A2FA782218A9280000F0E3FB18A8BA
:10A400000AF05DF800267A4F0322089B606801334A
:10A410001A4008920AF0E4FA050060680AF0E7FAC8
:10A420000022764B04929D4210DB013204922A00F6
:10A43000C8320BDBAA22042192000491954205DC6C
:10A4400003220492C82D01DC013A049200220592F5
:10A45000984210DB012305930300C8330BDBAA23CA
:10A4600004329B000592984205DC03230593C8281B
:10A4700001DC013B05930EA80AF002F9002511AB9F
:10A48000EB5C012B08D15E496B00CA185278C95C9D
:10A490000EA8FF23FFF7CEFA0135192DEFD16B4639
:10A4A00014229A5E6B460EA81021595E089BFFF796
:10A4B000C1FA002F01DB0F2E07DD0022A0680092F9
:10A4C000743013000EA90AF0F1F800230693069BDE
:10A4D00004985A004A4BD15C814227D19B185B7883
:10A4E000059A934222D12C2206AB9B18069A9B5CBC
:10A4F000012B1BD00C23079A216853431D00002217
:10A500000AA80AF0F7FA1FAA2B0094460AAA634485
:10A5100023CA23C32C2206AB06999B182B3A5A5404
:10A52000079B01360133DBB20793F6B2069B01337A
:10A530000693192BCBD16420643F0CF0B8FF3FB2D7
:10A5400045E7002F02D00F2E00D05DE7A06800F095
:10A550009BFA59E71FA918A8079A0AF0DAFC6A467D
:10A560001BAB23CB23C21B6813601899199A1A9B43
:10A5700020680AF0A7FAE568002D0CD0214910A840
:10A58000FFF7DAF91C2318AA10A928000BF0E9F943
:10A5900010A809F094FFA0680AF046FE0FA910A8C1
:10A5A000A5680AF056F80022174B009210A90193F3
:10A5B0002800130000F0AAFA10A80AF03DF8FA20CB
:10A5C00080000CF074FFA0680AF02EFE0999A068C4
:10A5D00000F0B2FB0FA80AF02FF80EA80AF02CF832
:10A5E0006BB0F0BC08BC02B01847C04660840200E3
:10A5F0008C3C0000D18AFFFFA584020058FDFFFFBC
:10A60000C5840200BA840200DC050000F0B587B002
:10A6100001930EAB1B88060003930D9B0D00009366
:10A62000019B02920C9F002B3ED0002F02D1009B79
:10A63000DB0739D528200DF02EF80400103009F082
:10A64000CDFF6B461B891820258063800DF023F811
:10A65000049707000500009B10220593019B002131
:10A6600008C7380008F0C8FC082204A9380008F020
:10A6700031FC0E4B02226B6100230399E3602362DD
:10A68000636233680A43A560A2805B6821003000E2
:10A690009847002806D0200009F0C7FE20000CF0E3
:10A6A000F6FF034807B0F0BD0248FBE7354B020058
:10A6B00016FCFFFF17FCFFFF70B58CB08360109B8A
:10A6C00001604260C3600400184918000BF014F9DF
:10A6D000051E14D001001C22103105A808F0FAFB59
:10A6E0006A4608AB43CB43C21B68136020680599D8
:10A6F000069A079B0AF0E6F928000CF0C8FF0C4BFD
:10A70000186800280ED00B4A05AB0592002206926D
:10A71000C03202926A4622CB22C2230003220521C4
:10A72000FFF774FF20000CB070BDC046BA84020071
:10A730002025002071A30100F0B5040085B0637AE4
:10A740009C46002B04D120000AF000FC05B0F0BDAF
:10A75000A37A266F01931023019AF35600259B18C4
:10A7600001229A402900F36802920393039B9D42C1
:10A7700031DAB368019A6B439B1872695B00E77A20
:10A78000D3181A785878E379012F14D15F1E3F1A35
:10A7900010003A005B004343606F8218D3189B7926
:10A7A000634500DD6346627B1A4202D00123AB4061
:10A7B00019430135DAE7022F05D15F1EBA1A277A4D
:10A7C000013F381AE6E7032FE4D1277A013FBF1A89
:10A7D00002003800DEE71123C943F356606C99404C
:10A7E00023691940029B19430CF021FFA37B072B1F
:10A7F000ACDC627B581C520062730B499A00A07358
:10A80000022B03DC88580CF047FE98E7074B20002A
:10A81000236300236363064B8958E4622364143086
:10A820000CF0D7FC92E7C046B477020039A70100CC
:10A83000394F020010B50400044B03600CF0C1FC5A
:10A84000200005F0C7FE200010BDC046107F0200AA
:10A8500010B504000E4B08330360FFF75FF82000CB
:10A86000743009F0E9FE2000603009F0E5FE2000B8
:10A87000583009F024FE2000503009F020FE20005E
:10A88000044B14306361FFF7D5FF200010BDC046B4
:10A89000D4770200247F0200F8B500250400324B73
:10A8A0008580083303608571143016000F0005F0B1
:10A8B0007BFE20002D4BE562636125645030FFF77D
:10A8C00075F820005830FFF771F820006030FFF76E
:10A8D0009BF820000423F25E33682667590009B212
:10A8E000743009F0D6FE3378226FE3717368012665
:10A8F00023721023E572A572A7802561D356916853
:10A9000059188B4204DA3000984001330543F8E7C8
:10A9100011230120D356D16859188B4206DA020060
:10A920009A402669013332432261F6E714200CF085
:10A93000B2FE226900212A430123060006F0C0F876
:10A94000FF2262722200002301254832666465738B
:10A95000A373237320001370A366FEF7C1FFA379CE
:10A9600020001D43A571F8BDD4770200247F0200AA
:10A97000F0B5437A85B00400002B04D120000AF022
:10A98000E5FA05B0F0BD0122837A11009C46102340
:10A99000066F0025F3560392634499400191290004
:10A9A000F3680293029B9D422CDAB36872696B4391
:10A9B00063445B00E77AD3181A785878E379012F5B
:10A9C00010D15F1E3F1A10003A005B004343606FD6
:10A9D0008218D3189B79002B02D0039BAB401943FC
:10A9E0000135DFE7022F05D15F1EBA1A277A013F32
:10A9F000381AEAE7032FE8D1277A013FBF1A02008D
:10AA00003800E2E71123C943F356606C994023698B
:10AA10001940019B19430CF00AFE667AB31EDBB2A3
:10AA2000FC2B14D8FEF70AFF0B4B05002363002311
:10AA30000A4863630A4BFF21E4622364704306F013
:10AA4000CBFB29004143200014300CF0C2FB637A99
:10AA5000012B00DD95E791E74D4F0200B6030000A2
:10AA6000394F02001FB5012381881A00684609F09A
:10AA7000C0FD012303491A00684609F0BAFD05B07C
:10AA800000BDC046FE0300001FB5030048331A781E
:10AA90000400002A0DD000221A70012381881A00B8
:10AAA000684609F0A6FD012304491A00684609F02A
:10AAB000A0FD2000743009F0E3FD1FBDFF0300007E
:10AAC00010B548300378002B06D00378012B03D053
:10AAD0000121024809F0FDFB10BDC046FF03000044
:10AAE00010B501210400062009F0F3FB064B984243
:10AAF00008D148342378002B04D02378012B01D0CF
:10AB000020BFF7E710BDC04616FCFFFF73B5079CDA
:10AB10000500002C0ADB060048363078002807D0F4
:10AB20003078012804D00C4C200076BD0B4CFBE79C
:10AB30006846007E1BB20090280012B2743009F003
:10AB4000B5FD002CF0D02B004A331C8000240723D5
:10AB50004C352C803370E7E712FCFFFF17FCFFFF3A
:10AB6000F0B587B00D9C06000F0002920393002CF5
:10AB700020DBFFF7A5FF330048331D78EDB2002D31
:10AB80001AD1390005A809F064FD0C9B01940093CB
:10AB9000029A039B05A93000FFF7B8FF05A809F04A
:10ABA0004BFD002C03D03000FFF79AFF2C00200053
:10ABB00007B0F0BD014CFAE7014CF8E717FCFFFFC6
:10ABC00011FCFFFFF8B50400171E09DD060048362A
:10ABD0003378002B06D03378012B03D00C48F8BD16
:10ABE0000C48FCE72200E3795632013B1370230046
:10ABF0000025200054331D80503009F0BDFC230097
:10AC00004A331F8002234C34258028003370E6E746
:10AC100012FCFFFF17FCFFFFF7B505000F00161E23
:10AC200018DDFFF74DFF2B0048331C78E4B2002CF1
:10AC300012D1390001A809F097FC320001A92800BF
:10AC4000FFF7C0FF01A809F03AFC2800FFF748FF12
:10AC50002000FEBD0148FCE70148FAE717FCFFFFB2
:10AC600011FCFFFFF8B50400161E0DDD0700483784
:10AC70003A78002A0AD03A78012A07D01548F8BD58
:10AC80006B4618229B5E07E01348F8E75D42069B7F
:10AC9000FF33F5D16B1D1BB22200643213802300F9
:10ACA000200066331D70603009F0DBFC23000022B9
:10ACB0006C331A70954200D0350023004A331D8052
:10ACC000079B013E5A1E93414C34053326800020D9
:10ACD0003B70D4E712FCFFFF17FCFFFFF0B587B015
:10ACE00005000F00161E03931EDDFFF7E9FE2B0083
:10ACF00048331C78E4B2002C18D1390005A809F0BB
:10AD0000A8FC0D9B320001930C9B05A90093280021
:10AD1000039BFFF7A7FF05A809F08EFC2800FFF7AB
:10AD2000DFFE200007B0F0BD0148FBE70148F9E76E
:10AD300017FCFFFF11FCFFFFFF2902D84172002022
:10AD400070470148FCE7C04617FCFFFF13B504003D
:10AD500004A80078009020000CF0A6F9002801D18A
:10AD6000207516BD0048FCE70EFCFFFF13B504007C
:10AD700004A80078009020000CF07EF9002801D192
:10AD8000207516BD0048FCE70EFCFFFF7FB50D00E7
:10AD900011000F226A4404001E1E117016D0089B79
:10ADA000002B13DD012329000093FFF7DFFF0028AC
:10ADB00002D0074804B070BD0090089B3200290003
:10ADC0002000FFF7C3FF0028F4D0F2E70148F1E7C5
:10ADD0000EFCFFFF17FCFFFFF7B507000D1E3FD06D
:10ADE0000023022604690193002C35D0AA88A38889
:10ADF0005340334204D1324204D1AB88334226D08F
:10AE0000646AF1E7A968A0680BF06EF80028F4D036
:10AE10002B88002B02D022889A42F1D16B88002B1C
:10AE200002D062889A42EBD1EB68E268934201D08B
:10AE3000002BE5D17B68002B01D020009847A28829
:10AE4000084B1343A380019B01330193D8E7A36808
:10AE5000AA689342D4D1DBE7019B2000002B00DCE1
:10AE60000148FEBD0080FFFF17FCFFFFF0B50600A4
:10AE700085B00D1E00D160E001270469002C26D0AA
:10AE80000221AA8800230A4202D0A3885B083B4023
:10AE9000226829688A4218D1002B12D0A968A068BC
:10AEA0000BF022F8002810D0EB68E26893420CD136
:10AEB000A3881AB2002A02DA5B045B0CA380204844
:10AEC00011E0A368AA689342EED0646AD6E73169BC
:10AED0002A880F000B1E08D13561012319496846E5
:10AEE00009F087FB002005B0F0BD1888904205DA14
:10AEF000586A1F0000280ED00300F6E718003B0038
:10AF00000488944207D147886C88A74203DC446ACE
:10AF10000300002C0BD199420BD10888824204DB3C
:10AF200007D14C886888844203DD6962D4E7200039
:10AF3000E6E7596A69625D62CFE70348D3E7C04636
:10AF400016FCFFFFFD03000017FCFFFF064B10B5CA
:10AF50001A00040008322C33026083600830FEF7C8
:10AF60002FFA200010BDC046EC77020008B4024B57
:10AF70009C46083808BC60474DAF010008B4024B3E
:10AF80009C46083808BC60479B5302000C4A0023CB
:10AF900011002C32083110B54360838183738260C5
:10AFA000036143618361C383016004000830FEF7DD
:10AFB000F9F9044B1A68002A00D11C60200010BD6A
:10AFC000EC77020020250020F7B50E00012504696A
:10AFD0000192002C36D0238832889A4201D0002B6F
:10AFE0002AD1638872889A4201D0002B24D1FEF7BF
:10AFF0004DF90123002806D0C022A3881340C03B8E
:10B000005A425341DBB2019A934214D1A7883BB212
:10B01000002B10DB10223100A01807F05BFF40234B
:10B020001F420BD1FEF732F9002807D02100064855
:10B03000FEF7DCFA00E00025646ACAE720000AF0A7
:10B04000B5F9F9E72800FEBDAD53020008B4024B84
:10B050009C46083808BC604735550200F0B587B0FB
:10B0600001930EAB1B88060003930D9B0D0000930C
:10B07000019B02920C9F002B3ED0002F02D1009B1F
:10B08000DB0739D528200CF006FB0400103009F04E
:10B09000A5FA6B461B891820258063800CF0FBFA0B
:10B0A000049707000500009B10220593019B0021D7
:10B0B00008C7380007F0A0FF082204A9380007F0ED
:10B0C00009FF0E4B02226B6100230399E3602362A8
:10B0D000636233680A43A560A2805B682100300088
:10B0E0009847002806D0200009F09FF920000CF0B6
:10B0F000CEFA034807B0F0BD0248FBE76F550200E7
:10B1000016FCFFFF17FCFFFFF0B50400160000253A
:10B110008380164A164B8571026021814681057332
:10B12000186889B08C46A8421DD0124A0595049231
:10B13000C02202926A4604AB82CB82C261462300DF
:10B140002A00FFF78BFF0B4A094B0692C0221868B2
:10B1500002926A4606AB079582CB82C223002A0080
:10B160003100FFF77BFF200009B0F0BD307802000E
:10B17000202500209956020030B5002403730123D6
:10B18000034D84710560818082734373846030BD98
:10B190002C77020070B583790400DB0702D5806844
:10B1A0000CF075FAA3799B0702D5A0680CF06FFA32
:10B1B000A3795B0707D5A0230021144ADB00D150F7
:10B1C000A0680CF064FAA3791B0708D5A568002DC8
:10B1D00005D028000AF0F9FE28000CF058FAA379EF
:10B1E000DB0605D5A068002802D00368DB68984715
:10B1F0006023A2791A4205D0A068002802D0036813
:10B200005B6898470023A360A37170BD0070004085
:10B21000F7B50126037B040033422BD061238579E7
:10B220001D4017D1FFF7B6FF18200CF034FA0E239B
:10B230000700E35618220093637B2900019307F06F
:10B24000DBFE019A009938000CF0A7F8A379A760FB
:10B250003343A3716023A2791A4203D0A0680BF094
:10B2600044FFFEBDA3685A69586812681040431E27
:10B270009841F6E70048F4E716FCFFFF10B50124FB
:10B28000837941731C4004D080680CF017F90020CA
:10B2900010BD6022134203D080680BF02DFFF6E74B
:10B2A0000048F5E716FCFFFF70B5040000250D4BC4
:10B2B0000E000833858085710360210018300AF084
:10B2C0009EFA2000210020300AF0BCFA064BA6802E
:10B2D000A571E5712572E5602561656120001C603E
:10B2E00070BDC04640780200342500208379DB071A
:10B2F00002D5C160002070470048FCE716FCFFFF44
:10B300008379DB0701D5C06870470148FCE7C04678
:10B3100016FCFFFF70B545690400002D20D0037AAC
:10B32000032B1FDCFFF7ECFFA8622C200CF0B3F915
:10B330002C220021050007F05FFE002362695362A2
:10B340002369002B07D122610020237A6561013334
:10B35000237270BD0B00596A0029FBD15A62F3E7D2
:10B360000148F6E70148F4E717FCFFFF13FCFFFF75
:10B37000144B70B55A68144C002A03D000225A604E
:10B380000132A2601A69002A17D0002119618023B6
:10B39000DB00E3580D4D012B10D1A923DB00E15850
:10B3A00028684942FFF7A2FF2868FFF7B3FF2B6820
:10B3B0005A69074BE2500123A36070BD2868FFF76C
:10B3C00095FFF8E7FC1000400010004034250020F5
:10B3D0000405000003000069002809D00221054A85
:10B3E000D167426A1A611A7A013A1A72024B1960DD
:10B3F0007047C04604E100E000E100E010B500291C
:10B4000003DB024B19600BF0BEFE10BD3825002097
:10B4100070B504001E0004AB1D7805F08FF8200005
:10B420000E4B40302360FEF7C1FA230001364C3347
:10B43000013522001E701D730023E1214E32A364EA
:10B440006365138053809381D381013B2000636443
:10B450004902FFF7D3FF200070BDC046DC76020032
:10B46000F7B580277F053D697C690822113C6C4354
:10B4700006002100684607F02DFD104B009A9A4205
:10B4800019D000930023019379693000133969437F
:10B490000AF0EDF9019A009930000AF000FA210053
:10B4A00030000AF0E4F97969AB08133969432200E6
:10B4B00030000AF0E6F90198FEBDC046FECA000061
:10B4C000F0B50D00ABB00D9200213022060012A89D
:10B4D0000B9307F091FD280007F072FF431C0C93BB
:10B4E000102B00DDB7E00B9B202B00D9B3E0290027
:10B4F00030000AF001FA071E56D129000C9A12A852
:10B5000007F0E8FC0D990B9A16A807F0E3FC8023DE
:10B510005B051F695A693000113A7A435D690D92E3
:10B52000FFF79EFF0D9B30220833002104001EA868
:10B530000F9307F061FD29001339794330000AF0B9
:10B5400096F90F9B0B9300230C930E930C9BA34235
:10B5500049DA0B9930221EA807F0BCFC12A91EA8DC
:10B5600007F0EAFE00282DD13D493000220010915D
:10B5700011940AF094F96A460B9B099315AB23CBFF
:10B5800023C223CB23C223CB23C23000149B1299A6
:10B59000139A0AF092F901230E930B9B30330B930D
:10B5A0000C9B01330C93D1E710300B9A0D9907F0E7
:10B5B0006BFC040038000CF06AF8002C9DD12000D0
:10B5C0002BB0F0BD6A460B9B099321AB23CB23C262
:10B5D00023CB23C223CB23C230001E991F9A209B6A
:10B5E0000AF06BF9D9E7E5433021ED1725404D43CB
:10B5F0000F9B5D190E9B002B1BD1B81E05F062FD41
:10B6000084422AD01649013430002200109111944E
:10B610000AF045F96A46099515AB23CB23C223CB23
:10B6200023C223CB23C230001299139A149B0AF031
:10B6300044F90D9930000AF01AF980235B05596925
:10B640000C2363431339023379430D9A30000AF017
:10B6500018F90024B3E7034CB1E7034CAFE7C04649
:10B66000FECA000017FCFFFF13FCFFFF8023F0B5AC
:10B670005B051A6995B002925A6905910299113ACF
:10B6800051435C69029B133C050003915C43FFF747
:10B69000E7FE061E39D00027039B30220833002125
:10B6A000083408A8019307F0A7FC210028000AF03D
:10B6B000DEF80497B74220DA0199302208A807F093
:10B6C00009FC059908A807F037FE00280DD11A4992
:10B6D000721E2800069107920AF0E1F801230493F4
:10B6E000019B013730330193E4E722000C230199D9
:10B6F00028000AF0C6F83034F2E7049B002B06D18C
:10B700000D49320028000AF0CAF80C4812E00399EB
:10B7100028000AF0ACF880235B0559690C23029AD3
:10B7200013394A437343110028000233039A0AF085
:10B73000A8F8002015B0F0BDFECA00000CFCFFFF09
:10B7400070B50400A280FA22002308000C49920080
:10B7500008312160A3716061E260A36063820949DE
:10B760000AF0CAF8051E09D001002000103102229B
:10B77000123007F0AFFB28000BF089FF200070BDEE
:10B7800058780200F784020030B50225837987B02B
:10B7900004002B4204D1FDF705FEA3791D43A571DA
:10B7A00020000AF0EFF800281CD06B46DD1C2800B2
:10B7B0000AF0DFF82B78002B17D001A80AF0D7F891
:10B7C0000321019AD3170B409B189B102382FEF78D
:10B7D0006FF8E368A18818180123A0601A0002A876
:10B7E00008F007FF002007B030BD0122064B1A60A9
:10B7F000064A51680029FCD000215160044A1268B1
:10B80000019201225A60DBE700C00040FCC000400A
:10B8100008C50040022802D10122014B1A7070476E
:10B82000B829002070B5064C05002378002B04D100
:10B83000044802F089FC01232370280070BDC04633
:10B84000B929002015B8010070B50C0008F0CFFC34
:10B85000002810D00023144DA40A2B7020000AF0F9
:10B86000A5F8002803D00A200BF021FEF6E72B787C
:10B87000002BFCD070BD02210C4B0D4A9950802149
:10B88000C90008005D58002DFCD0A121C9005C5002
:10B8900019580029FCD0002199508021C9005A581C
:10B8A000002AFCD0E6E7C046B829002000E00140AD
:10B8B00004050000F8B50C0015001E0008F097FC08
:10B8C000002811D00023174F3B70320029002000C0
:10B8D0000AF06AF8002803D00A200BF0E8FDF4E72C
:10B8E0003B78002BFCD0F8BD01210F480F4B84465C
:10B8F00019508021C9005A58002AFCD08027002204
:10B90000FF00964207DD910068586050D959002920
:10B91000FCD00132F5E7002261465A50DA59002A7C
:10B92000FCD0E0E7B82900200405000000E0014059
:10B9300008B4024B9C46443808BC6047B159020029
:10B94000FA21F8B50389C9000400594332480AF0C6
:10B95000E1FAFA21890005F0B5FB304F2081A17A88
:10B9600038000AF0D7FA23002600250022894C333C
:10B97000A072A0361A808C35317800232A222868DC
:10B9800009F05FFC002801D02548F8BD31781F235D
:10B990005B22286809F055FC0028F5D13178202376
:10B9A0005C22286809F04DFC0028EDD13178012394
:10B9B0002C22286809F045FC0028E5D131780123C4
:10B9C0002D22286809F03DFC0028DDD131780123C3
:10B9D0002E22286809F035FC0028D5D1A17A38003C
:10B9E0000AF093FA3178C3B20E22286809F029FCD4
:10B9F0000028C9D1FA2123898900594306480AF051
:10BA000084FA01230343DBB231782A22286809F043
:10BA100018FC0028B9D0B7E77878020070780200E7
:10BA20000EFCFFFF08B4024B9C46443808BC60473C
:10BA300041B90100074B10B51A00040008323C332D
:10BA400002604364443008F0F9FF200008F022FF50
:10BA5000200010BDD878020008B4024B9C46443840
:10BA600008BC604735BA010008B4024B9C46443814
:10BA700008BC6047BB590200F0B5042583798BB040
:10BA800004002B4204D1FDF78DFCA3791D43A57161
:10BA900020009030FFF7BCFB0026B0420FD12300FE
:10BAA000A033197820000C2307AD00938C302B00B5
:10BAB00001220068FFF76AF9061E03D02C4E300001
:10BAC0000BB0F0BD0A2304AA9B182A785A706A7832
:10BAD0001A700022985EAA785A70EA781A700022CA
:10BAE000995E03912A795A706A791A7000229F5ED2
:10BAF000AA795A70EA791A7000215A5E04922A7A59
:10BB00005A706A7A1A7000215A5E0592AA7A5A709F
:10BB1000EA7A1F251A7000229B5EA27A9C46039B3C
:10BB2000504359425143CB172B407A435B185B116A
:10BB3000A361C3172B401818D3171D406423AD18F9
:10BB4000059A5B425343A36764236146049A4011FC
:10BB50005A434B43E2676D11221DE06125622000CC
:10BB6000D36708F010FF2000443008F06EFFA6E70E
:10BB70000EFCFFFF08B4024B9C46443808BC6047EB
:10BB800079BA0100F7B51E00040008AB1B88150048
:10BB9000019309AB00911A8831000AAB1F88FEF7A8
:10BBA000BBF820003A0031004430FEF711FB134B84
:10BBB00020001A003C336364230008322260009A9C
:10BBC0008C331A60AB8890308380AB796A4683717E
:10BBD0000B4B92880360AB68032183602B7B03735C
:10BBE0006B7B4373AB7B83732300A0331A80FFF717
:10BBF00045FB2000FFF7A4FE2000FEBDD878020020
:10BC00002C770200F8B5FA260189B60004007143CA
:10BC100026480AF07FF9310005F054FA244F2081BC
:10BC2000A17A38000AF076F92500A07258352978F3
:10BC300000232A22606C09F004FB002801D01D4873
:10BC4000F8BD297810232B22606C09F0FAFA00283D
:10BC5000F5D1297801232D22606C09F0F2FA002831
:10BC6000EDD1297801232E22606C09F0EAFA002830
:10BC7000E5D1A17A38000AF048F92978C3B20E223A
:10BC8000606C09F0DEFA0028D9D121890748714398
:10BC90000AF03BF901230343DBB229782A22606CC6
:10BCA00009F0CFFA0028CBD0C9E7C046407902009E
:10BCB000387902000EFCFFFF10B50400034B083377
:10BCC000036008F0E7FD200010BDC046A079020027
:10BCD0007FB50425837904002B4204D1FDF762FB74
:10BCE000A3791D43A57120004830FFF791FA002584
:10BCF000A8420DD1230058331978062302AE0093D1
:10BD000001223300606CFFF741F8051E03D00D4D92
:10BD1000280004B070BD022300210420F356A27A4B
:10BD2000DB00715630565B425343C000C90051439B
:10BD30004243A3612368E16122629B6A2000984725
:10BD4000E6E7C0460EFCFFFFF8B50400150006AAA2
:10BD5000168807AA0F0012881900FDF7DDFF0F4BA8
:10BD60006764083323602300AA8848339A80AA793D
:10BD700020009A710A4AA264AA6822652A7B1A7373
:10BD80006A7B5A73AA7B9A730023A37123005833EA
:10BD90001E80FFF737FF2000F8BDC046A0790200E3
:10BDA0002C77020010B50400034B0833036008F041
:10BDB00045FE200010BDC046347A0200F0B50700F1
:10BDC0005C3787B00400397800231022806C09F0BA
:10BDD00038FA0326002802D01F4807B0F0BD0F250F
:10BDE00002ABED180123397808220093A06C2B00D8
:10BDF000FEF7CCFF184B9842EED02B78334203D09D
:10BE00006420FDF767FBEAE7FA262189134DB600A7
:10BE1000714328000AF07EF8310005F053F92081C3
:10BE20003978A0231122A06C09F00BFA0028D3D195
:10BE3000A36C21890393714328003F780AF065F8C9
:10BE400001231843C3B210223900039809F0F9F90D
:10BE50000028C2D0C0E7C0460EFCFFFFD479020024
:10BE600070B50825837986B004002B4204D1FDF714
:10BE700099FAA3791D43A57120004C30FFF7C8F94A
:10BE8000061E0DD023005C331978062304AD009301
:10BE900001222B00A06CFEF779FF061E03D0134E83
:10BEA000300006B070BD0E232A786B445A706A7851
:10BEB00020001A700022995E64224A43A263AA7885
:10BEC0005A70EA781A700022995E642252425143F5
:10BED0006163297959706979197000215B5E5A4351
:10BEE0002368E2631B6A9847DAE7C0460EFCFFFF4F
:10BEF000F8B50400150006AA168807AA0F001288D4
:10BF00001900FEF765F90D4BA76408332360230081
:10BF1000AA884C339A80AA7920009A71084AE26470
:10BF2000AA6862652A7B1A736A7B5A73AA7B1E828F
:10BF30009A73FFF743FF2000F8BDC046347A020031
:10BF40002C770200F7B5FA250189204FAD000400D7
:10BF50006943380009F0DEFF290005F0B3F8A17A43
:10BF600020811B4809F0D6FF2600636CA072009365
:10BF700021895836337869433800019309F0C5FFA9
:10BF800007230343DBB220220199009809F059F9F5
:10BF9000002801D00F48FEBD317810232222606CAA
:10BFA00009F04FF90028F5D1A17A0948656C377876
:10BFB00009F0ABFF80235B420343DBB2232239004D
:10BFC000280009F03EF90028E5D0E3E7687A02008E
:10BFD000607A02000EFCFFFF10B50400034B08332B
:10BFE000036008F057FC200010BDC046D87A02005C
:10BFF000F0B50425837985B004002B4204D1FDF708
:10C00000D1F9A3791D43A57120004830FFF700F94D
:10C01000061E0DD0230058331978062302AD009375
:10C02000A8222B00606CFEF7B1FE061E03D0144E52
:10C03000300005B0F0BD1F200023EA5ED317034097
:10C040009B180222A95E5B11CA17024052180421F4
:10C050006F5E5211F9170140C91949112B806A808E
:10C06000A980A07A5B424343524242434143E36189
:10C070002368A26121629B6A20009847D8E7C046E6
:10C080000EFCFFFFF8B50400150006AA168807AAE3
:10C090000F0012881900FDF73FFE0F4B676408334D
:10C0A00023602300AA8848339A80AA7920009A71D5
:10C0B0000A4AA264AA6822652A7B1A736A7B5A73A9
:10C0C000AA7B9A730023A371230058331E80FFF7C5
:10C0D00039FF2000F8BDC046D87A02002C77020054
:10C0E000F7B5FA2504000189134EAD00694330000D
:10C0F00009F010FF290004F0E5FF2700A36C208160
:10C1000000935C373B7881B269433000019309F0BA
:10C11000FCFE6022C3B20199009809F092F8002851
:10C1200001D00648FEBD397801236222A06C09F0D7
:10C1300088F80028F6D0F4E70C7B02000EFCFFFF25
:10C1400010B50400034B0833036008F077FC2000AF
:10C1500010BDC046347B02007FB5082583790400FA
:10C160002B4204D1FDF71EF9A3791D43A5712000D0
:10C170004C30FFF74DF8051E0DD023005C331978C5
:10C18000062302AE0093E8223300A06CFEF7FEFD0A
:10C19000051E03D00B4D280004B070BD0223F25ED3
:10C1A00096235B425A4362630021725E2000534330
:10C1B000A3630423F25E96235343E36323681B6A5D
:10C1C0009847E8E70EFCFFFFF8B50400150006AA43
:10C1D000168807AA0F0012881900FDF7F9FF0D4B0A
:10C1E000A764083323602300AA884C339A80AA7975
:10C1F00020009A71084AE264AA6862652A7B1A7371
:10C200006A7B5A73AA7B1E829A73FFF769FF20002C
:10C21000F8BDC046347B02002C77020010B5040044
:10C22000054B083303601C3008F049F92000183032
:10C2300008F045F9200010BD607B0200FF23F0B537
:10C240002B4D8DB02B7000230400694600880093AD
:10C2500003F070F9002802D16B469B782B70254EB5
:10C260003368DB68002B07D1002320881A001900EF
:10C2700009F013FC0DB0F0BD2B78032BF4DC1E4944
:10C2800001A8FDF759FB336801A9DE6804A808F08E
:10C290006BF904A9300009F05EFB060004A808F061
:10C2A0000EF9371E1ED031002022103104A806F0EE
:10C2B00011FE30000BF0EBF9297804ABC9005918D6
:10C2C000082202A806F006FE20880123082202A9FF
:10C2D00009F0E3FB0127002804D12088074A0C213C
:10C2E00009F0D9FB01A808F0EAF8002FC2D1BBE79A
:10C2F00088200020482500208A850200FFFF0000DA
:10C30000F0B5837991B004005B071BD5FDF7D0FA37
:10C3100000232269801A9941994203D1F423FF3303
:10C3200098420FD9A068002808D0364B1D8801F02C
:10C3300061F9036815221B6A290098470422A37932
:10C340009343A371A3799B0759D52F4D2B68DB68C5
:10C35000002B50D02D4B1B78032B4CDC294B2C4948
:10C360001B8804A80193FDF7E7FA2B6804A9DE688F
:10C3700008A808F0F9F808A9300009F0ECFA07005D
:10C3800008A808F09CF802AB9E1D082332003380F9
:10C3900006A9073B019809F082FB002F08D039005D
:10C3A0002022103108A806F095FD38000BF06FF937
:10C3B000164B32881B7806A9DE0008AB9E193000A8
:10C3C00006F062FD002813D0082206A9300006F00E
:10C3D00081FD2B6804A9DD6805A808F0C5F82023B5
:10C3E00008AA05A9280009F0BCFA05A808F067F812
:10C3F00004A808F064F80222A3799343A37111B052
:10C40000F0BDC0465C29002048250020882000207F
:10C410008A850200F7B5040000250192C77FBD425E
:10C4200051DA66197078884218D1152927D8012267
:10C430008A402748024222D0F91801201F291DDC1A
:10C44000E1193718B9420ED800218B420FDD019A4D
:10C450007018575C01318770C9B2F6E7605D2D181E
:10C460000135EDB2DBE70878C8540139EAE7625DCF
:10C470009A186255E27F9B18E3770020FEBD655D48
:10C48000013DEDB2AB4209D10023AB42F5DA019A8E
:10C49000F118D05C01338870DBB2F6E7DF197F1B3F
:10C4A00001201F2FEADC0227A81C7F4236187F1BC1
:10C4B000E07F2218964203D23078F0550136F7E734
:10C4C000451B023DE577019A200009F032FBD5E7D4
:10C4D000FC002000F0B585B001930AAB1E880BABC1
:10C4E0001B78451C02930EAB1B78040003930B785A
:10C4F000170003704B8A102243820131280006F096
:10C50000E9FC6B469B88268363836B461B7B002676
:10C5100023776B4601221B7A6761E683EB77A31CC6
:10C52000DA7724210C9B0C2563622300200004AAE7
:10C530005218127828331A705E709E702A003100EB
:10C540002C3006F059FD2000064BE663A3632A0059
:10C550003100403006F050FD2000034B2665E364B7
:10C5600005B0F0BDB55A0200A75A020070B50D0023
:10C5700001F040F804000368002D09D15B69984779
:10C58000FA2080006843074904F09CFDE08070BDFC
:10C590009B6898478542F3DA236820009B68984798
:10C5A0000500EDE771020000F0B507001600A1B02C
:10C5B00002C70400684918A81D0009F0ECFA301EF3
:10C5C00001D006F0FDFE01220492002283B2039204
:10C5D0000292023201920093320018A93800FFF74C
:10C5E00079FF23005D49583318A8079309F0D3FA5F
:10C5F000281E01D006F0E4FE01220492002283B23C
:10C60000039202920232019200932A0018A907981D
:10C61000FFF760FF23005249AC3318A8089309F0D4
:10C62000BAFA2698002801D006F0CAFE0122049228
:10C63000002283B203920292023201920093269A60
:10C6400018A90898FFF746FF631CFF33454918A84F
:10C65000099309F0A0FA2798002801D006F0B0FE4F
:10C6600001220492002283B203920292601C0232E1
:10C6700001920093279A18A9FF30FFF72BFF2300A0
:10C680005533FF33384918A8099309F084FA2898DC
:10C69000002801D006F094FE01220492002283B209
:10C6A00003920292023201920093289A18A90998E3
:10C6B000FFF710FF2300A933FF332C4918A80A9372
:10C6C00009F069FA2998002801D006F079FE0122C4
:10C6D0000492002283B20392029218AD02320192B8
:10C6E0000093299A29000A98FFF7F4FE204B1B7843
:10C6F0000B93002B2DD1079B12971393089B0DAF23
:10C700001493631CFF331593099B1A4916930A9BD4
:10C710003800179309F03FFA1D2149203B78102279
:10C720002B707B8A12AE6B8206ABC918C01806F05C
:10C73000D1FB06232B756B469B8D2068AB83AE61C6
:10C7400000F068FF036829001B6898470122084B26
:10C750001A70200021B0F0BD292A0000242A000010
:10C76000252A0000272A0000262A0000282A000087
:10C77000BA2900200A18000070B5002504000B4BF0
:10C780008580083385710360C1601830FDF70EF9AC
:10C7900020001C30FDF70AF90123621CD377044AFC
:10C7A000A560656120001460A37170BD607B02000C
:10C7B00048250020FA2130B585B00500012302226A
:10C7C0008900684607F015FF074C2068002809D04B
:10C7D00009F01AFA2988054B2268198002239179F9
:10C7E0000B43937105B030BD482500205C29002023
:10C7F00010B50C0007290AD8806800F0FBFE064B34
:10C80000195703685B6C9847002802D110BD034894
:10C81000FCE70348FAE7C0468285020017FCFFFFE9
:10C8200016FCFFFFF0B5A54C0D00A54404000793CE
:10C830009AAB1B78A24909A804930692FDF77CF8ED
:10C84000200029001C3007F097FEC020800001F076
:10C8500071FC08200AF01FFF0700002100F092FE83
:10C8600015AD0021A7600C220EA806F0C5FB2B0019
:10C870000EAA43CA43C3934B2900EB600023380040
:10C880002B6109F0A8FBA06800F0B4FE0C22002187
:10C890000590280006F0B0FB14200AF0FCFE8A4B3D
:10C8A0002A0015930300C2CAC2C3884B059EC36009
:10C8B0000023A43603613368002B00D0F7E030601A
:10C8C000A06800F0A7FE0C2200210600280006F058
:10C8D00093FB14200AF0DFFE7D4B1593030086CDF9
:10C8E00086C37C4BC36000230361336B002B00D0F5
:10C8F000DFE03063A06800F07DFE15AD0C22002162
:10C900000600280006F078FB14200AF0C4FE724BE3
:10C9100098361593030086CD86C3704BC360002301
:10C9200003613368002B00D0C5E0012504AB1B7CFC
:10C9300004AA2B43306008A92800137409F0B1F849
:10C94000A06800F077FE036865495B6A9847A068B5
:10C9500000F070FE036863499B699847A06800F087
:10C9600069FE002302680093166804992A00B04704
:10C97000049B002B0AD0200009F04FF9032805DDA5
:10C98000A06800F057FE0368DB6898470EA809F01E
:10C99000C7F82F2004ABC01809F0C2F8362004AB4A
:10C9A000C01809F0BDF83D20042504ABC01809F0FB
:10C9B000B7F80EAB0A93A06804AB5D7700F03AFEBF
:10C9C00003680AA91B699847A06800F013FE036872
:10C9D0000AA95B6D9847A06800F00CFE036800216F
:10C9E000DB6D9847A06800F005FE036802219B6D8F
:10C9F000984700212000FFF7FBFE18200AF04BFEAD
:10CA0000A16800F057FA384B384A1B68A1680393B5
:10CA1000374B15A81B680CAE0293364B00271B68DA
:10CA20000193069B1B685B190093334B12681B68CC
:10CA3000FFF7BAFD30200AF02EFE079AA16800F039
:10CA4000FFFAA06800F0D6FD036831009B6A9847A2
:10CA50000823A0683380DB187380B78000F0CAFD1C
:10CA600003683100DB6A98472900A06809F09FF845
:10CA7000099A09219378A068521909F0ABF8A068C7
:10CA800000F0B8FD32210771A068FFF76FFD04AB1D
:10CA90001B7FBB4204D0A06800F0ACFD09F071F828
:10CAA00009A807F00CFD95239B009D44F0BD036190
:10CAB00005E703611DE7036137E7C046ACFDFFFFF3
:10CAC0006F860200C35A0200B5C70100D15A0200A6
:10CAD0003DC20100DF5A02000D5B0200ED5A020068
:10CAE000FDCA010031CB0100442500204025002073
:10CAF0000C2000203C2500201020002013B5062229
:10CB00006846FCF729FF094B1C68002C0AD06946CF
:10CB100001A807F029FD200001A909F09FF801A84C
:10CB200007F0CDFC684607F0CAFC13BD482500207D
:10CB3000002373B501AE0C0031000500019302F033
:10CB4000F9FC002802D1B278064B1A70064B18681F
:10CB5000002806D061426141044BC9B21D8009F032
:10CB600085F873BD88200020482500205C2900201E
:10CB700030B5284CA9B06A220D000DA8210006F09E
:10CB8000A9F90DA903A8FCF745FF03A906A807F01A
:10CB900060FD01230193013BFF3B00930533FF330D
:10CBA000642206A92800FEF799F806A807F044FDBC
:10CBB000210019226A3106A806F08CF9052200240A
:10CBC000110006AB04A807F06BFD04A905A807F047
:10CBD00040FD019400942300220005A92800FDF7E0
:10CBE000BFFF05A807F028FD21002800FEF7A4F8E4
:10CBF00005340520FCF76EFCFF2CF5D1FA208000EF
:10CC0000FCF768FC04A807F017FD03A807F014FD63
:10CC100029B030BDFF840200F0B59D4B95B0059260
:10CC20001A68082307000291D16C06A80B43D3644D
:10CC30009849FCF781FE984907A8FCF77DFE3A0069
:10CC400000240DAD28001C3206A907F0A4FC07AA99
:10CC5000290008A807F09FFC280007F030FC7B1C87
:10CC6000DC77B86800F0C6FC03680BAE5B699847D8
:10CC7000280008F055FF2B2004ABC01808F050FF27
:10CC8000322004ABC01808F04BFF392004ABC018A9
:10CC900008F046FF0B950425B8687571347100F0F3
:10CCA000A9FC036831005B6D9847B86800F0A2FCEE
:10CCB000036821009B6D9847B86800F09BFC030057
:10CCC00006000A331F2221001800039306F094F98E
:10CCD000039B3000DC7708F04BFF0621B86808F0B2
:10CCE00066FF089A09219378B868521908F072FF14
:10CCF000B86800F07FFCC8210471B868FFF736FC03
:10CD0000B86800F077FCFF260481B86800F072FC78
:10CD100008F037FF0298FDF7B7FE3800FCF742FB3A
:10CD200002993800FFF724FF0299380008F0B1FF9C
:10CD30000394049501257B691D402DD0574909A80E
:10CD4000FCF7E4FE09A90AA807F083FC00220AA95F
:10CD50001300019200920298FDF702FF0AA807F063
:10CD60006BFC039B002B42D1043E282E41DD0025A5
:10CD7000FE2E00DC039D059807F04CFE002806D02F
:10CD800001237A699A431300049A13437B610024B8
:10CD900009A807F051FC03957B69049A134233D02C
:10CDA000FF210298C825FDF7C7FF0024AD00BB692D
:10CDB00002229B5E9C4222DA380021B2183007F032
:10CDC00000FC0023010002981A007430FCF7EEFE0C
:10CDD0002800FCF77FFB029808F026FAC820FCF731
:10CDE00079FB02227B69134209D10134DFE7043663
:10CDF000BBE7029808F018FA002EBCDDBAE7FA206B
:10CE00008000FCF767FB002402237D691D421CD0D3
:10CE100006331D4024D0224909A8FCF777FE09A952
:10CE20000AA807F016FC00220AA90192009213003A
:10CE30000298FDF795FE0AA807F0FEFB1948FCF7DB
:10CE400049FB09A807F0F8FB174C6420FCF742FBEC
:10CE5000164B01349C4200DC6CE707F0DAF969E715
:10CE6000134909A8FCF752FE09A90AA807F0F1FB2B
:10CE70002B002A000AA9019500950298FDF770FE83
:10CE80000AA807F0D9FB09A807F0D6FBDDE7C046E2
:10CE9000CC24002096850200A6850200A885020009
:10CEA000ED850200983A00008C0A00008B0A000011
:10CEB0002A86020000225C4BF0B5083306000360AE
:10CEC0000F001000A9B0B1600BAB99180132487087
:10CED000102AFAD10F3A554C1A700E32105D991A79
:10CEE0000874013AFAD2997B5A7B09020A4331004D
:10CEF0000C31039125211B7813AD2B7002ABC9189F
:10CF0000452302A81B186A821800102205F0E2FFD0
:10CF1000039B64216B610123002402AA2B832B77DE
:10CF20005218093313701DAB1C706D2302AA9B1895
:10CF30001C706E2321009B181EA80C226C83EC83AE
:10CF40006C621C7006F058F8394B0C22210023A8A3
:10CF5000AB63EC6306F050F8364B0322EB644623D8
:10CF600002A95B18DA7722002C650595347306ADAB
:10CF70002B1901345A70102CFAD101232E482B7032
:10CF80000E33195CEA1A1174013BFAD211212520E3
:10CF9000AA7B6B7B12020BAC13432A78638202AB31
:10CFA000C9182270C018102205F094FF01232375C0
:10CFB00005ABA36100233800A38300F02BFB0368BB
:10CFC00021001B68984713ABDB8BB068B38200F07D
:10CFD00021FB002203680092B18A039ADC680123D6
:10CFE000A047B06800F016FB070014200AF053FBBE
:10CFF00004000C22002105F0FFFF00232000236124
:10D00000069340C0013308222900079305F062FF10
:10D010000A4BE360BB69002B03D13000BC6129B02F
:10D02000F0BD2361F9E7C046787B020083860200E9
:10D03000B55A0200A75A020093860200F55C02006E
:10D04000F0B500260400774BDDB008330360816043
:10D05000C260868086713200734947A808F0EAFEF4
:10D060002300143308931223012501930E3B0495EA
:10D070000093089A330047A9039602961DA8FFF76C
:10D0800029FA3200694947A808F0D4FE0C2322008F
:10D090000193083B15AF10320495009347A9330064
:10D0A0000396029632A8FFF715FA3200604938005D
:10D0B00008F0C0FE23001C33099308230193043BAE
:10D0C000390004950093099A33000396029647A805
:10D0D000FFF700FA32005749380008F0ABFE542041
:10D0E0000AF0D9FA230018330793122301930E3B59
:10D0F000390004950093079A330003960296069030
:10D10000FFF7E8F9069B0822A3624B4B0AA90A9392
:10D11000069B0B961800DC62303005F0DBFE069AA9
:10D12000464B268293631300668229331D70236960
:10D130000422E3610999079805F0CCFE04220799BF
:10D14000089805F0C7FE6622032304A95218D37776
:10D15000BA225218D377872252005218D377069AF0
:10D1600037490232D3771DAB0C9332AB0D9347ABEB
:10D170000E93069B3200A68510A80F9308F05AFE66
:10D1800030223121452004AB9B181B7812323B70B2
:10D1900004AB9B181B88323A7B8204ABC918C018B9
:10D1A00005F098FE04230CADA0683B75BD61BE83FD
:10D1B00000F030FA036839001B689847822204ABFC
:10D1C0009B181B885432238404AB9B181B88543251
:10D1D000A38404AB9B181B88A068638400F01AFA30
:10D1E000070014200AF057FA05000C22310005F060
:10D1F00003FF2800134B2E61082210C010A91093C2
:10D20000119605F067FE104BEB60BB69B34206D187
:10D21000BD612000FCF7C6F820005DB0F0BD2B61B9
:10D22000F6E7C046847B0200C3860200A3860200A4
:10D23000B3860200D3860200075E0200735D02001F
:10D24000E3860200B5D201009D5D0200F0B5040046
:10D250000E00150085B000930CAB1B8810300193B5
:10D2600007F0BCF92680658018200AF014FA070040
:10D2700002AE33003D000AAA03CA03C3009B10227A
:10D2800008C50021280005F0B7FE3100082228005B
:10D2900005F020FE064B02227B612000002301994D
:10D2A000A7600A43E360A2802362636205B0F0BD19
:10D2B000C75D0200F0B50B898DB00593CB68050002
:10D2C00004934B88828C9A420ED1049C059B049A4D
:10D2D0001B1BD318032B39DD62882188012308A882
:10D2E00007F087F90434F1E7428C9A422ED1049C6E
:10D2F000059B049A1B1BD318032B27DD23882820AA
:10D3000006936388EF680793114B089300230993F2
:10D310000AF0C1F9C0236A460600029308AB03CBAA
:10D3200003C22B000699079A3000FFF78FFF3B6876
:10D3300031005B6838009847002805D0300007F0BE
:10D3400074F830000AF0A3F90434D1E70DB0F0BD51
:10D35000855E020070B5040090B0806808F08DFD15
:10D36000022101401AD1A38D002B17D00C4B6A4625
:10D3700004931023E568A1850591029304AB41CB8A
:10D3800041C20A00230006A8FFF760FF2B6806A928
:10D390009B682800984706A807F047F810B070BDB2
:10D3A000855E0200002815D0006041608260C36085
:10D3B000046145618661C761444604624C4644622B
:10D3C000544684625C46C462644604636E464663A7
:10D3D00074468463002A06D0C46B043C043A256872
:10D3E0001560B442F9D18C6BA6464E6BB546002B46
:10D3F00006D0CC6B043C043B1D682560B442F9D1D7
:10D400000C6BA446CC6AA3468C6AA2464C6AA14621
:10D410000C6AA046CF698E694D690C69CB688A6831
:10D42000086849687047006041608260C3600461B9
:10D4300045618661C761444604624C464462544675
:10D4400084625C46C462644604636E464663744606
:10D450008463C46B043C043925680D60B442F9D17F
:10D46000C7698669456904697047006041608260E8
:10D47000C360046145618661C761444604624C46ED
:10D480004462544684625C46C462644604636C46EB
:10D4900044637446846304697047846BA646446B96
:10D4A000A546046BA446C46AA346846AA246446A9D
:10D4B000A146046AA046C769866945690469C368CC
:10D4C000826800684168704710B5041E0CD005F0F2
:10D4D00077FF431EE3189C4208D222781978013B5B
:10D4E00021705A700134F6E7014810BD0020FCE7B6
:10D4F00017FCFFFFF0B585B002900C1E2AD0002368
:10D50000C217161A56400193019B30005D1C631927
:10D510000A215F1E039303F045FF49423031397001
:10D5200030000A2103F058FE47420600002F0FD1B9
:10D53000029B002B04DA2D23019D039A0235137000
:10D54000002320006355FFF7BFFF380005B0F0BD92
:10D550000195D9E7004FF8E717FCFFFF0268084B79
:10D56000406810B5C018C00010180300934205D3DE
:10D570001C688C4202D31800083BF7E710BDC04678
:10D58000FFFFFF1F002370B5040001604360994254
:10D590000AD1064D2B68002B02D108F069FF2860E4
:10D5A00023689B00EB586360200070BD5C25002061
:10D5B00070B500280DD10C4C2668002E07D108301C
:10D5C0000AF069F805003100FFF7DCFF25602068EC
:10D5D00070BD0122054906480B681340F8D102606E
:10D5E00043600A60F4E7C046502500204C25002027
:10D5F00054250020436810B50400002B02D10448D4
:10D6000009F09DFE606803681B69984710BDC0461D
:10D61000F3860200436810B50400002B02D10448D1
:10D6200009F08DFE606803689B69984710BDC0468D
:10D63000F3860200436810B50400002B02D10448B1
:10D6400009F07DFE606803685B6A984710BDC046BC
:10D65000F386020000487047FFFF0000F0B597B066
:10D660000593036807AD1B680491039311002B0019
:10D67000060091C991C30024D36821000C220CA894
:10D68000EB602C6105F0B8FC22000B4B10940F935B
:10D6900011AB1C70191901344A70102CFAD15A823E
:10D6A0000193059B2A00009304990CAB3000039C66
:10D6B000A04717B0F0BDC04623610200FC3070B532
:10D6C000046C0500002C0DD1242009F0E4FF064B6A
:10D6D00044608361054B8460C46004614461C4613B
:10D6E00003602864286C70BD707C0200587D0200C5
:10D6F000FC3070B5C56B0400002D11D1342009F049
:10D70000CAFF084B85604360074B45610361074BC7
:10D710000562C361064BC5628362064BE06303602A
:10D72000E06B70BDA07C0200907C0200007D0200D6
:10D73000107D0200207D02007FB503791548002B83
:10D740001CD0154E154C33782000002B16D102AD9D
:10D75000280008F0C3FC002815D16B88592B12D182
:10D760002B78AA88D91F01290AD800920C4A2021B7
:10D77000200005F09FFD01233370200004B070BD30
:10D780000092084AF3E720220749200005F04AFEEC
:10D79000F3E7C04616870200DB290020BB290020E2
:10D7A000308702004D8702007287020010B5040026
:10D7B000024B08C008F075FD200010BD907C0200EF
:10D7C00010B50400024B08C008F080FD200010BD19
:10D7D000A07C0200064B70B504000360406800287E
:10D7E00004D0056909F053FF2800F8E7200070BD58
:10D7F000807C0200064B70B504000360406800287E
:10D8000004D0056909F043FF2800F8E7200070BD47
:10D81000B07C0200064B70B504000360406800282D
:10D8200004D0056909F033FF2800F8E7200070BD37
:10D83000C07C0200064B70B50400036040680028FD
:10D8400004D0056909F023FF2800F8E7200070BD27
:10D85000007D0200064B70B504000360406800289C
:10D8600004D0056909F013FF2800F8E7200070BD17
:10D87000107D0200064B70B504000360406800286C
:10D8800004D0056909F003FF2800F8E7200070BD07
:10D89000A47B0200064B70B50400036040680028BA
:10D8A00004D0056909F0F3FE2800F8E7200070BDF8
:10D8B000B47B0200064B70B504000360406800288A
:10D8C00004D0056909F0E3FE2800F8E7200070BDE8
:10D8D000C47B0200064B70B504000360406800285A
:10D8E00004D0056909F0D3FE2800F8E7200070BDD8
:10D8F000D47B0200064B70B504000360406800282A
:10D9000004D0056909F0C3FE2800F8E7200070BDC7
:10D91000707C0200FC3070B5046C0500002C0DD149
:10D92000242009F0B8FE064B44608361054B8460F7
:10D93000C46004614461C46103602864286C70BDE4
:10D94000707C0200587D0200104B10B50833036054
:10D950000F4B0400C36080230E4A5B00C250C01806
:10D96000FCF768FF20000C4BB830E360FFF7B2FF14
:10D970002000AC30FFF79EFF2000A030FFF78AFFA9
:10D9800020006C30FFF776FF200010BD847D020080
:10D99000CC7D0200247F0200E47B0200F0B505008C
:10D9A000040087B0AC356B68AB60A868002807D06E
:10D9B000C36821009847AB68002BF4D01B69F3E7DC
:10D9C0002500B0352868002804D0066909F05FFEFC
:10D9D0003000F8E72200FC215832137828600B4011
:10D9E000137023005C33187020000A3008F037FDF4
:10D9F0002000343008F033FD606E002804D0056943
:10DA000009F045FE2800F8E725009835606628688B
:10DA1000002804D0066909F03AFE3000F8E72860D3
:10DA20002500A4352E68002E05D03769300009F096
:10DA30002EFE3E00F7E72E6001AD31000C222800DB
:10DA400005F0DAFA23002A006C3383CA83C3094B3A
:10DA5000E667A3670C223100280005F0CDFA230009
:10DA6000803307CD07C33000034A90341A60266024
:10DA700007B0F0BD07610200F9600200444AF0B54A
:10DA80000600C260A022434B163608330360010033
:10DA9000002342820400320085B003718360037466
:10DAA00083823531137001329142FBD1802580226F
:10DAB0002000AD00D201F377358411000093383097
:10DAC000002300F00DFF23002100403303931A00D0
:10DAD0002B0000255F31157001328A42FBD1039A79
