:020000021000EC
:1080000000400020510202008D0202008F02020097
:108010000000000000000000000000000000000060
:1080200000000000000000000000000091020200BB
:108030000000000000000000930202009502020010
:108040009702020031AE01000D0902009702020002
:108050009702020000000000C9020200970202001D
:1080600097020200050B020095070200970202002A
:108070009702020097020200970202009702020094
:108080009702020097020200970202009702020084
:108090009702020095FB010021FD010097020200FA
:1080A000970202009702020000000000000000009A
:1080B00000000000000000000000000000000000C0
:1080C000054B0648033310B51B1A062B03D9044B86
:1080D000002B00D0984710BDB0200020B020002019
:1080E000000000000648074910B5091A8910CB0F97
:1080F0005918491003D0044B002B00D0984710BDED
:10810000B0200020B02000200000000010B5074C77
:108110002378002B09D1FFF7D3FF054B002B02D0AA
:10812000044800E000BF0123237010BDB8200020E8
:1081300000000000B0940200094B10B5002B03D0E2
:108140000849094800E000BF08480368002B02D135
:10815000FFF7C8FF10BD064B002BF9D09847F7E793
:1081600000000000BC200020B0940200B0200020DD
:1081700000000000144B002B00D1124B9D46402202
:1081800092029A1A924600218B460F461148124AD3
:10819000121A0AF0C9FE0D4B002B00D098470C4B69
:1081A000002B00D098470020002104000D000B4850
:1081B0000AF0E2FB0AF09CFD200029000FF0F7FE18
:1081C0000AF0F8FB0000080000400020000000005A
:1081D00000000000B0200020782B00202D2C020091
:1081E000044A84B09378032B01DC0133937004B00C
:1081F0007047C04684200020044A84B09378002B46
:1082000001D0013B937004B07047C0468420002029
:1082100010B50400034B036040300CF0B8FF2000A1
:1082200010BDC046E883020030B5022087B000F0E0
:10823000BDFF144B144C5A78050002709B782A003D
:10824000437020000223B430104902F099FE104B15
:10825000984208D00F4B1049984205D0280000F0F2
:10826000D9FF07B030BD0D4905A801F0C5F82000C1
:10827000782205A9F03002F02FFA05A80CF087FF4C
:10828000ECE7C0468420002004210020A48E0200D8
:1082900013FCFFFF17FCFFFFA98E0200C48E020033
:1082A0001FB5009009480191B43009490292039327
:1082B0000EF08AF9002804D0064B027C5A70427CEA
:1082C0009A7010F06BF805B000BDC0460421002084
:1082D000A48E02008420002010B503480AF086FE18
:1082E00001200AF067FBC046E28E0200F0B585B0BF
:1082F0001F000AAB1B880600029115000393002F94
:108300001BD0282010F04EF86B4604001989039BFF
:10831000AAB200933B000CF0D9FE336821005B68E1
:1083200030009847002806D020000CF0E6FE200020
:1083300010F034F8024805B0F0BD0248FBE7C04633
:1083400016FCFFFF17FCFFFF07B5074901A801F066
:1083500053F80648782201A9F03002F0BDF901A8CF
:108360000CF015FF07BDC046DA8E02000421002084
:1083700070B504000800251E07D121000CF05EFC3A
:10838000054B1860200070BD0D0069680029FBD105
:108390000CF054FC6860F5E7D42000201FB50220E3
:1083A00000F004FF011E01D1FFF796FF054B5A783C
:1083B00002709B784370044B1868FFF7D9FF05B033
:1083C00000BDC04684200020D420002070B50400E9
:1083D0000D00814205D10CF03FFC0B4B18602000D2
:1083E00070BD4B68002B02D10CF046FCF5E700286D
:1083F000F5D061604B684360086800F00BFF28000F
:1084000000F008FFEBE7C046D420002070B50E4D09
:108410002C68002C17D02368197804290CDC0B4831
:108420000131C9B2653019705A7809B2FF23FF30A3
:1084300001F060F86468ECE70529FBD121002868A9
:10844000FFF7C4FFF6E770BDD42000200421002010
:1084500070B500240D4EA35958680578002D05D03D
:10846000013D057004342C2CF4D170BD084A1378FA
:10847000002B02D1FFF768FFF4E7013B137000F017
:10848000C9FEA05900F0C6FEA551EBE7D820002098
:108490008420002070B50024651C032C08DC0CF03F
:1084A00004FC0D4BA400E0502C000B2DF4D111E086
:1084B000231F022B02D80CF013FCF2E7E31F022B60
:1084C00002D80CF028FCECE70A2CEDD10CF03EFCB5
:1084D000014B986270BDC046D820002073B5264E6F
:1084E00010253400D034254B0322012100952000B3
:1084F000FFF7FCFE224B0322022100952000FFF72C
:10850000F5FE204B03221A2100952000FFF7EEFE16
:108510001D4B0422012100952000FFF7E7FE1B4BB5
:108520000422022100952000FFF7E0FEFFF7B2FFD2
:10853000174B1B68002B1ED030003400F0300DF0BC
:10854000DBFC6534134BFF349A78597820000523FF
:1085500000F0D0FF104B20001B685B685A78197838
:10856000FF2300F0C7FFFFF751FFFFF771FFFA206D
:1085700000F010FDDCE773BD04210020F98101004B
:10858000E18101009D83010029820100A182010097
:108590000420002084200020D820002010B50020D6
:1085A00007F032FE0AF03EFD024800F005F9FFF741
:1085B00095FFFCE70421002010B5084C200000F0D6
:1085C00043F8074A074920000FF0E1FE064802225F
:1085D000064901300AF016FC10BDC04604210020F7
:1085E00000200020F1850100842000208720002049
:1085F000CA23144A9B0010B5C2501C330400C01893
:108600000CF0C5FDD0239B00E0180CF0C0FD20004D
:108610009130FF3001F0F6FA20006930FF3001F0B0
:10862000F1FA2000F03001F073FE2000D03002F0AB
:10863000EDF92000643007F0B1FC201DFFF7E8FDE4
:10864000200010BD748802001423F0B5040093B01C
:10865000192200931821043002F03AFC230025006F
:10866000260064331800B43513211093B83607F090
:10867000A1FC28000DF0A2FF00221E2130000DF009
:1086800040FC2000D03002F0E1F92300F033474AEB
:1086900006211800119301F05FFE2000002701233E
:1086A00069301A0000971121FF3001F0B7FA20005D
:1086B00091300097012302221A21FF3001F0AEFA17
:1086C0002000B930022201211A23FF3002F07CFA87
:1086D000300001F0ADF8E4235B00E050300001F021
:1086E000F9FAE6235B00E0500100E422200052008A
:1086F000D130119BA2580095FF3001F03DFD2000C4
:10870000E13029001C22FF3002F07AFD19232000FD
:108710000F93013B0E93013B0D93013B0C93013BE7
:108720000B93013B0A93013B0993013B0893013BE7
:108730000793013B0693013B0593013B0493013BE7
:108740000393013B0293013B0193F930013B082263
:1087500000930721013BFF300DF0F4FBCA239B007F
:10876000E018290003F068FDD3239B00E0181D21C9
:1087700002F0FAFADD239B00E750109827700321DE
:108780000FF022FB23002200200009499C33A03275
:108790001C6011605760074A80305A610221012233
:1087A00007F044FE200013B0F0BDC046F083020085
:1087B000954D0200814D02000123F0B505788DB082
:1087C00007001D4000D085E00300D033180002935D
:1087D00000F0C4FA00F0E8F928200FF0E3FD0400EF
:1087E00010300CF063FD6D4B6580238018200FF076
:1087F000D9FD06006A4B80C6039010222900300084
:108800000A930B950AF090FB08220AA930000AF09F
:10881000F9FA644B039AE56053611223A260A380C6
:10882000256265622100029802F080F8002805D0D8
:1088300020000CF062FC20000FF0B0FD01233A781C
:10884000594913433B703B00B433180004930DF0B7
:10885000BBFE5649039004980DF0B6FE0024059027
:10886000642000F097FB260025003B006933FF33AE
:10887000180006930CF036FF00282DD1039B002B27
:1088800033D1059B002B30D1DD2449494948A40050
:1088900000F060FC3B59002B1CD100F099F801005E
:1088A00008A800F0A9FD09A80CF0E8FACA239B006B
:1088B000F818059B09AA08A90093029B03F012FD72
:1088C00009A80CF064FC08A80CF061FCCC239B0008
:1088D000FB583B510DB0F0BD38009130FF300CF02B
:1088E00001FF0028CAD0182DC8DC3800653031B22D
:1088F00022B2FF23FF30013600F0FCFDF6B2322039
:1089000000F048FB0135052E02D10026631CDCB2C5
:10891000039B192D06D0002BA7D02349049802F001
:1089200005FC01E0002BF8D103980FF037FD059806
:108930000FF034FD1E491F4800F00CFCDD239B00A6
:10894000FB580793002B20D100F042F8010008A843
:1089500000F052FD09A80CF091FACA200123800012
:1089600009AA08A900933818029B03F0BBFC09A8C8
:108970000CF00DFC08A80CF00AFCCC239B00FB5863
:108980000793DD23079A9B00FA50CA2339009B0006
:10899000069AF031F81803F09FFE66E7FD03000029
:1089A000094E0200C94D0200268F0200318F0200DD
:1089B00000200020001C0020BFF34F8F024A034B11
:1089C000DA60BFF34F8FFEE70400FA0500ED00E028
:1089D000F0B58DB005AF1922154938000AF012FA2A
:1089E0000022144B05245A7180225205566E012232
:1089F00025000194029203930199300008F012FAC5
:108A00000800029908F088F9019B03996B430193D0
:108A1000029B361A6B430293631E2C1B6C433C195A
:108A2000225C1C1ECA54E7D108000DB0F0BDC04640
:108A3000418F0200A62A0020F0B595B0182200212F
:108A400006000EA80AF070FA13210EA80FF01AFB08
:108A500003210EA80FF0ACFB4C4B1B68002B00D180
:108A60000133DBB202934A4A0123002109A807F02F
:108A70004DFE484B9E4200D9002672B6464B10224E
:108A8000002105A81D680AF04FFA444B642130000C
:108A90000593052408F0CAF9604350302818069061
:108AA0000A21300008F0C2F90A2108F0A5FA614352
:108AB00050316918079130000A2108F09DFA80238F
:108AC00061430024503169189B0108910093029B77
:108AD000002B59D0002500232E1F019305AB9B19B5
:108AE0000393032C03D1802300249B01009305AB47
:108AF0002B4A585963000133D31800221100102665
:108B00005F1E3F783E4137001E78865D3E4202D0B0
:108B100001279740394301320633092AEFD1C9436F
:108B2000204B09011940039B1B68984229D1019BE6
:108B3000312B26DC002109A80FF0F3FBFA23139A4E
:108B40000F99DB00106801421ED0013B002BF9D1C8
:108B5000009B01345B000093019BE4B2013301935D
:108B6000FA23019A5B009A42BBD10435102DB2D191
:108B7000064B1B68002BAAD0029B013BDBB2029381
:108B8000A5E7009B1943D6E7FFF716FF80240020D6
:108B9000F0FF0000E703000008200020908F020093
:108BA0005A8F0200F01F0000F8B50023124C23601A
:108BB0000CF085F9002808D0042120000CF07BF986
:108BC000002801D00D4B2360F8BD0122A127042508
:108BD0000B4B0C491A602268FF0048604E68002E5B
:108BE000FCD0DE591202013D3243002DF5D1226046
:108BF00001225A60E8E7C0467C240020ED5EBC0BF1
:108C000000D00040FCD000400B4B70B51C68002C1D
:108C100010D0656D00F0ACFBA36C002901D183423C
:108C200006D820000CF07EF9044920000CF068F909
:108C30002C00ECE770BDC04688240020A82400204A
:108C4000F0B5060093B007932A4B04901C682A4B9A
:108C500005911F68069285B2360C002F47D000237D
:108C60000293002C2FD0636D244803934823E3180C
:108C70001A88A36C1B0C99B2854214D120488242F9
:108C800011D1002B01D0B1420BD1029B002B08D196
:108C900020000CF047F91B4920000CF031F90123AA
:108CA0000293039CDDE7002A01D09542F9D1002B05
:108CB00001D0B142F5D120000CF034F91149200067
:108CC0000CF01EF9EDE7104BEB18012B0FD9102318
:108CD0003200009329000D4B08A80CF0F7F93B680F
:108CE00008A99B683800984708A80CF006FA13B04A
:108CF000F0BDC046B424002084240020FE03000000
:108D0000FF030000A824002002FCFFFF418C0100AB
:108D100070B572B60B4B1C68002C08D020000CF00C
:108D200001F90023E364084B2000E36370BD62B6E1
:108D30005C200FF037FB050021005C220AF0F4F8FC
:108D40002C00EEE7AC24002000400020024B1878F5
:108D5000012318407047C046AC2A0020F7B5060032
:108D6000FFF7F4FF051E33D11A4C2660FFF7D0FF42
:108D7000194B1A4918600CF0C3F8FFF7C9FF184BDC
:108D80001860184B4363184B8363206800280ED08B
:108D9000C027164E2A00330015490097FFF7A6FAA0
:108DA000009733002A0013492068FFF79FFA0C2030
:108DB0000FF0F8FA0023838083710F4B03600F4B91
:108DC000836000F0EDFA01230D4A11780B43137014
:108DD000F7BDC04684240020B8240020A824002029
:108DE000B0240020FC3F0020EB4F0200418C01002A
:108DF000FF030000FE03000010840200098C010044
:108E0000AC2A0020F7B506000D00170001930028DA
:108E100002D100242000FEBD0029FAD0FFF778FF20
:108E2000041EF6D0074B019A4363066045608760D5
:108E3000054B002A00D0054BA363054920000CF028
:108E40005FF8E7E7FC3F0020B54F0200D34F020078
:108E5000A8240020024B1868434258417047C0467E
:108E6000A8240020002310B504499C006258002A61
:108E700001D00133F9E76050100010BD90240020AC
:108E8000002310B5044A99008C58844201D0013364
:108E9000F9E70020885010BD9024002010B5002470
:108EA000074BE058002802D003685B6898470434F9
:108EB000182CF5D1034B1B68002B00D120BF10BD2F
:108EC00090240020A8240020F8B5FFF73FFF0028D9
:108ED0001CD02A4D2C68E36CDA0718D502273B43D7
:108EE000E364274B1E680423F26C30001343F364E1
:108EF000636BF3630CF03CF83000716C03F0F3FF2C
:108F00002868C36C3B4201D004F027F8F8BD1D4F20
:108F10001D4E3A68002A02D132682A6007E0216DAE
:108F2000B942FAD1616D002900D1110029602A6887
:108F300031688A4208D11B0706D52C60FFF7AEFFC7
:108F40003B68002BFAD02B6029688C42DED0336856
:108F500099420BD10D4B4B630D4B8B6320000CF0F2
:108F600007F82968626C4B6C200004E09C42F5D144
:108F7000002210004B6C03F075FFC7E7B8240020F7
:108F80008C240020A8240020B0240020FC3F0020D6
:108F9000EB4F020070B50500FFF7D8FE002803D1A3
:108FA00028000FF0FEF870BD0C4B1C68E36CDB076B
:108FB00006D5FFF7ADFE0A4B1860002800D004006C
:108FC00000F0D6F92D18A56420000BF0ABFF054981
:108FD00020000BF095FFFFF777FFE4E7B8240020AF
:108FE0008C24002088240020F0B51E4B1E4F1C68E6
:108FF0003B6885B006000391002B30D0FFF7A6FE3A
:1090000000282CD0E36CDB070ED5FFF781FE174B51
:10901000051E186008D00BF085FF154928000BF0DD
:109020006FFF2C00FFF750FF039B20001B0433430E
:10903000A3640BF077FF20000E490BF061FF0E4B8D
:109040000020F318012B08D9C0230093039A0B4B7F
:1090500031003868FFF74AF9002005B0F0BD084834
:10906000FBE7C046B8240020842400208C24002084
:10907000A8240020B424002002FCFFFF418C010042
:1090800016FCFFFF10B5FFF761FE002809D0054C64
:1090900020680BF047FF044920680BF031FFFFF711
:1090A00013FF10BDB8240020AC240020F7B5070042
:1090B0000D0000282ED0FFF749FE00282CD00724F1
:1090C000164E3068C36C1C4007D0154A2900380082
:1090D0000BF03FFF00242000FEBD03F026FF02211D
:1090E0003268D36C1940019103D003218B43D364C0
:1090F000F1E701242343D3642800B8473268D36CD6
:109100001900A143D164019C5B07E4D528000BF052
:1091100058FFE0E7034CDEE7034CDCE7B82400200F
:10912000C34F020017FCFFFF16FCFFFF020010B543
:10913000014B12CB12C210BDBC240020034B1A6895
:10914000034B1A607E225A607047C04608200020F8
:10915000BC24002070B5114E3278022A1AD0814208
:109160001AD90C1A072C17D90D00032305432B40DD
:1091700012D172B60A4DD2005051AA185160802205
:10918000A40812061443046032780132327062B6C9
:10919000180070BD0348FCE70348FAE7AE2A002038
:1091A000C424002013FCFFFF17FCFFFF70B5134C15
:1091B00006002378124D002B0CD1124912482B7057
:1091C000FFF7C8FF114B984202D11E20FFF734FC75
:1091D0000123237000242B789C4209DA0C49E30018
:1091E000C91830000BF007FF002805D10134F2E761
:1091F0001420FFF721FC002070BDC046AD2A0020DE
:10920000AE2A002000380020782B002017FCFFFF3A
:10921000C424002070B5002819D0104B10491C78C8
:109220000023A34216DADA005558A84210D98A184A
:10923000526890420CD2041F2368002B02DC1E20CF
:10924000FFF7FAFB802322681B061343236070BDDF
:109250000133E6E71E20FFF7EFFBF8E7AE2A002018
:10926000C424002070B5051E14DD0B4E0B4C336872
:10927000002B02D020680EF00CFEFA21206800249A
:10928000074B89008361C462694335600EF009FEB3
:10929000200070BD0348FCE7D424002004250020F2
:1092A0004D93010017FCFFFFF8B5114F06003D6814
:1092B000002D0AD130200FF075F8040006F0D4FE1E
:1092C0000C4BA5612360E5623C600B4D2B68002BC5
:1092D00009D110200FF066F804000EF02FFE2000D8
:1092E0002C600EF005FE3000FFF7BCFFF8BDC04655
:1092F000042500201C8C020000250020014B18686A
:109300007047C046D424002070B50D4C2368002B54
:1093100003D00C4B1B68002B02D10620FFF7C4FFC3
:1093200020680EF0FCFD02000749C3170D684E6867
:109330005219734120680A604B600EF0F6FD70BD53
:109340000025002004250020B020002010B5FFF7E4
:10935000DBFF0024054BE058002802D003681B689F
:1093600098470434282CF5D110BDC046D8240020DD
:1093700010B5FFF7C9FFFA22034B9200186859682D
:10938000002307F079FE10BDB020002010B5FFF7D4
:10939000BBFF024B1868596810BDC046B0200020C2
:1093A0000B4B10B51B680400002B03D0094B1B6846
:1093B000002B02D10620FFF777FF0023064A990011
:1093C0008858002801D00133F9E78C5010BDC04601
:1093D0000025002004250020D8240020002310B5FB
:1093E000044A99008C58844201D00133F9E70020E7
:1093F000885010BDD824002010B50400002902D0E8
:109400000B78002B03D1034B2360200010BD0BF021
:10941000C5FEFAE720840200F8B504000E0015002E
:1094200000290AD00B78002B07D0002A05D00800AD
:1094300097B20AF051F8874203D90B4B2360200002
:10944000F8BD681DFFF7B2FE20600CF04CF82068F4
:109450002A0047803100043009F0D4FC23685D19EC
:1094600000232B71EBE7C04620840200014B036010
:109470007047C0462084020010B50548054C2060A6
:109480000CF034F8044A054920000EF080FF10BDAE
:109490002084020008250020002000208F510200B7
:1094A000084B73B51C680500002C0AD00100266823
:1094B00008310822684609F0A5FC0CCD316820006F
:1094C000884773BD0C250020014B03607047C046E0
:1094D0002884020010B50400002903D1044B036066
:1094E000200010BD016008000CF000F8F8E7C0464D
:1094F0002884020030B500684488A14206DA8588D5
:10950000AA4203DA002901DB002A01DA034830BD50
:1095100054434018001983710020F8E717FCFFFF3F
:10952000F0B5070085B00E001D00002921DD002ADE
:109530001FDD002B1DD00468638803938B4200DD80
:109540000391A3880293934200DD02920023063424
:109550000193019B029A93420EDA29002000039A9C
:1095600009F050FC3B68AD195B88E418019B01339E
:10957000EEE7024805B0F0BD0020FBE717FCFFFF57
:10958000F8B504000D0016001F00002901DB002AB9
:1095900002DA0D4B2360F8BD100048430630FFF798
:1095A00005FE20600BF09FFF23685D809E80002FEA
:1095B00006D03B00320029002000FFF7B1FFEAE7A8
:1095C00020000BF0C5FEE6E728840200F7B5060090
:1095D0000D1E1BD000200F000400010001903B78FD
:1095E000002B1ED03022524294469C446246092AE7
:1095F00015D90A2B0ED1019B241801330193A142E6
:1096000000DA2100002004000137E8E7164B036070
:109610003000FEBD0028F7D001340020F4E701201F
:10962000F2E76A460127928809B212B230007F42FF
:10963000FFF7A6FF39000A2033689A1D2C78002C0A
:10964000E6D02300303B092B08D8FB43DB173B4017
:1096500043431B19303B1F000135EFE7002FFBDBB5
:10966000177001320F00F7E728840200F0B587B0C9
:10967000009004A815001E000F00FFF757FD009B87
:109680001B685A8895422ADA9B88B34227DD1F2F30
:1096900025DD059B01939F4221DC052300217B43AF
:1096A0000193049B0293019B029A5B18A03BD35C3D
:1096B0000022039373189C46009B57191B68588817
:1096C0000400874202DA988860450ADC0132052AE4
:1096D000F2D101310529E6D1002007B0F0BD0748DD
:1096E000FBE7DB1910276046174160431B180398FE
:1096F0000740781E87417F429F71E7E717FCFFFF15
:10970000F7B5036806009C1D5B880D005A1A01928C
:10971000002919DD0027994203DB0BF019FE002018
:1097200013E033689B889F42F9DA6119019A20009F
:1097300009F068FB019B2900E0180BF0ECFD336891
:1097400001375B88E418ECE70048FEBD17FCFFFF1B
:1097500010B50548054C20600BF0C8FE044A0549C9
:1097600020000EF014FE10BD2884020010250020F9
:10977000002000200953020010B5054C01212000F3
:109780000BF0A8FE034A044920000EF000FE10BDB5
:109790001425002000200020955402000388074A69
:1097A00010B50120934208D0834202D00020DB078D
:1097B00003D41E20FFF740F9002010BDFFFF00007A
:1097C0000048704716FCFFFF10B53220FFF734F950
:1097D000004810BD16FCFFFF8280142210B5134C08
:1097E0000281083402000023046041620224010067
:1097F000303283718472C360036143618361C361EA
:109800000362363113705370438683860A78A2430D
:10981000F13422400A70020040321370021DD387D7
:10982000013343878387C38710BDC0464884020045
:10983000F0B5544F97B03B6806000593002B00D05D
:109840008BE006AC0B331C222121200001F0F4F93F
:109850000EAD0B231D2222210AA801F0EDF90B23E6
:109860001B222321280001F0E7F908200EF09AFDC1
:109870000122059B110004900DF0B9F93A21300046
:109880000CF023FF00281DD0A38812ADAB80A37974
:109890005C20AB713C4B1293A3681493237B2B7316
:1098A000637B6B73A37BAB730EF07CFD042301938E
:1098B000363300932A00049B3100040001F0A4FF1A
:1098C0003C604AE0322130000CF02DFF00281CD013
:1098D000A38812ADAB80A3795C20AB712A4B1293A5
:1098E000A3681493237B2B73637B6B73A37BAB7392
:1098F0000EF058FD042301932E3300932A00049B9D
:109900003100040002F01EF9DAE73C2130000CF0CF
:10991000C5FE00282CD0AB8812ACA380AB79A42064
:10992000A371194B1293AB6814932B7B23736B7B3E
:109930006373AB7BA3730EF035FD05230500029323
:10994000013B0193383300932200049B310001F066
:1099500079FE0E4B3D6044351D600C4B094C186878
:10996000002802D021680BF02BFF206817B0F0BD53
:1099700044200EF017FD042204990400FFF72CFF89
:109980009EE7C04618250020388402001C250020D0
:10999000F0B56149C56885B08D4254DA03000222F2
:1099A00036331B78134059D104698C4264DA0200C3
:1099B00036321278520768D4426901920200019E41
:1099C00040328E426FDA010036310978090774D4CB
:1099D000002B7DD113780293002B16D006000127AF
:1099E000011DCB8F363601339BB2CB870396367879
:1099F000BC46374000D188E01D2B06D963469E4304
:109A0000039B1E700023CB8713700BF0B9FD434AF4
:109A10000723904276D94249043B8D4272DBC8222B
:109A20000133920095426DDC023B8C426ADB013BC4
:109A3000944267DC01980433884263DB013390422F
:109A400060DC00235EE0C822002352009542ABDDBB
:109A5000030036331A7800239207A5D401230600A9
:109A60001F00363632785408A7433C0002279C403A
:109A7000BA432243327097E7C822520094429BDDDA
:109A8000020036321278520796D40600012236368A
:109A900033789F08BA439700042293431A003A434D
:109AA0003270012388E7C821019E49008E428FDD74
:109AB00001003631097809078AD4010001263631C0
:109AC0000B78DF08BE430827F600BB4333430B7017
:109AD0001378032B00DD7DE70133DBB21370012B1C
:109AE00003D10021031DD98774E7042B00D071E74F
:109AF000020036321178033B0B431370002304300D
:109B0000C3870B33180005B0F0BD092B00D87CE7E4
:109B1000029BCF87013B77E770FEFFFFFF700200DB
:109B2000E0FCFFFF70B5C369C2681B688AB004001F
:109B3000451D1A4207D0EB7F002B09D0013B06E000
:109B40003300032239E0EB7F0B2B01DC0133EB7791
:109B5000EB7F082B0DDD0122A379134209D11343BA
:109B6000A371A188130006A80BF0ABFBFFF700FC64
:109B70002062EB7F012B23DC0123A2791A421FD044
:109B80000025A188A571022202A80BF09AFBA31D53
:109B9000DE7F012E14D1FFF7EBFB2B00226A801A27
:109BA000994100900191019BA188AB4203D1134BD5
:109BB000009A9A42C4D90123042206A80BF081FB23
:109BC0000322A3791340012B0AD1FFF7D1FB002315
:109BD000226A801A9941994204D1094B984201D8CE
:109BE0000AB070BD0223A279A1881343A371052294
:109BF000012306A80BF065FBF2E7C046E70300006F
:109C0000DB05000010B50400034B08330360FFF7C9
:109C1000E5FB200010BDC0467C840200F0B50700C3
:109C200000250E0085B002930AAB1B78083703931A
:109C3000104B040008330360019285808571290070
:109C40001822380009F070F9039A310038000EF03C
:109C50001EFA6B466A469B88127AA380A31DE671A2
:109C6000DA77631D25622000DD77FFF799FB20007E
:109C700005B0F0BD7C8402000048704716FCFFFF71
:109C800010B53320FEF7D8FE004810BD16FCFFFFCC
:109C9000002310B50400838083710D4821640830CF
:109CA00020608020C000A061E0612062E3602000AD
:109CB000236163616362A362E36223636363A363FB
:109CC000E363636411000BF053FD200010BDC04638
:109CD00094840200F0B5534F97B03B68060005939B
:109CE000002B00D08BE00B331C22212106A80AACEC
:109CF00000F0A2FF0EAD0B231D222221200000F058
:109D00009BFF0B231B222321280000F095FF082036
:109D10000EF048FB0122059B110004900CF067FF38
:109D20001D2130000CF0E8FC00281DD0A38812ADE6
:109D3000AB80A3796020AB713B4B1293A368149363
:109D4000237B2B73637B6B73A37BAB730EF02AFBBC
:109D500005230193183300932A00049B310004006B
:109D600001F026FE3C604AE03C2130000CF0F2FCA1
:109D700000281CD0A38812ADAB80A3796020AB7102
:109D8000294B1293A3681493237B2B73637B6B7310
:109D9000A37BAB730EF006FB0523019337330093CF
:109DA0002A00049B3100040001F06EFFDAE73C2139
:109DB00030000CF073FC00282BD0AB8812ACA380D1
:109DC000AB79A420A371184B1293AB6814932B7B2F
:109DD00023736B7B6373AB7BA3730EF0E3FA0523F2
:109DE00005000293013B0193383300932200049B4A
:109DF000310001F027FC0D4B1D6044353D600B4BDD
:109E00001A68084B002A01D019684A64186817B00C
:109E1000F0BD48200EF0C6FA052204990400FFF7B1
:109E200037FF9FE71C2500203884020018250020FA
:109E300082B0F0B50400EBB06420719370920EF024
:109E4000B0F905220EA811000BF08BFA97490FA864
:109E5000FFF7BCFB00221FAB6AA91A605A609A6028
:109E60000C338B42F9D11922002111A809F05CF8BA
:109E7000A0680CF03FF800260990FF21A06800F0D0
:109E8000BBFC8B4FA06800F05FFB07960896079B12
:109E9000182B00DDBEE0864B9F4203D0854B9F42CE
:109EA00000DBAEE0A0680CF027F8A568824918A88E
:109EB000FFF7A2FA782218A9280000F0E3FB18A8FF
:109EC0000BF065F900267A4F0322089B6068013386
:109ED0001A4008920BF0ECFB050060680BF0EFFBFA
:109EE0000022764B04929D4210DB013204922A003C
:109EF000C8320BDBAA22042192000491954205DCB2
:109F000003220492C82D01DC013A0492002205923A
:109F1000984210DB012305930300C8330BDBAA230F
:109F200004329B000592984205DC03230593C82860
:109F300001DC013B05930EA80BF00AFA002511ABDA
:109F4000EB5C012B08D15E496B00CA185278C95CE2
:109F50000EA8FF23FFF7CEFA0135192DEFD16B467E
:109F600014229A5E6B460EA81021595E089BFFF7DB
:109F7000C1FA002F01DB0F2E07DD0022A06800923E
:109F8000743013000EA90BF0F9F900230693069B19
:109F900004985A004A4BD15C814227D19B185B78C8
:109FA000059A934222D12C2206AB9B18069A9B5C01
:109FB000012B1BD00C23079A216853431D0000225C
:109FC0000AA80BF0FFFB1FAA2B0094460AAA6344C1
:109FD00023CA23C32C2206AB06999B182B3A5A544A
:109FE000079B01360133DBB20793F6B2069B0133C0
:109FF0000693192BCBD16420643F0EF0D2F83FB208
:10A0000045E7002F02D00F2E00D05DE7A06800F0DA
:10A010009BFA59E71FA918A8079A0BF0E2FD6A46B8
:10A020001BAB23CB23C21B6813601899199A1A9B88
:10A0300020680BF0AFFBE568002D0CD0214910A87B
:10A04000FFF7DAF91C2318AA10A928000CF0F1FA7E
:10A0500010A80BF09CF8A0680BF04EFF0FA910A8F9
:10A06000A5680BF05EF90022174B009210A901932E
:10A070002800130000F0AAFA10A80BF045F9FA2006
:10A0800080000EF08EF8A0680BF036FF0999A068EA
:10A0900000F0B2FB0FA80BF037F90EA80BF034F963
:10A0A0006BB0F0BC08BC02B01847C046709102000B
:10A0B0008C3C0000D18AFFFFB591020058FDFFFFE4
:10A0C000D5910200CA910200DC050000F0B587B00E
:10A0D00001930EAB1B88060003930D9B0D000093AC
:10A0E000019B02920C9F002B3ED0002F02D1009BBF
:10A0F000DB0739D528200EF055F9040010300BF09D
:10A10000D5F86B461B891820258063800EF04AF92C
:10A11000049707000500009B10220593019B002176
:10A1200008C7380008F000FF082204A9380008F02A
:10A1300069FE0E4B02226B6100230399E3602362E8
:10A14000636233680A43A560A2805B682100300027
:10A150009847002806D020000AF0CFFF20000EF01C
:10A160001DF9034807B0F0BD0248FBE7055802009F
:10A1700016FCFFFF17FCFFFF70B58CB08360109BCF
:10A1800001604260C3600400184918000CF01CFA1A
:10A19000051E14D001001C22103105A808F032FE63
:10A1A0006A4608AB43CB43C21B681360206805991D
:10A1B000069A079B0BF0EEFA28000EF0EFF80C4B16
:10A1C000186800280ED00B4A05AB059200220692B3
:10A1D000C03202926A4622CB22C22300032205210A
:10A1E000FFF774FF20000CB070BDC046CA9102009A
:10A1F0000C250020319E0100F0B5040085B0637A83
:10A200009C46002B04D120000BF008FD05B0F0BDEA
:10A21000A37A266F01931023019AF35600259B1809
:10A2200001229A402900F36802920393039B9D4206
:10A2300031DAB368019A6B439B1872695B00E77A65
:10A24000D3181A785878E379012F14D15F1E3F1A7A
:10A2500010003A005B004343606F8218D3189B796B
:10A26000634500DD6346627B1A4202D00123AB40A6
:10A2700019430135DAE7022F05D15F1EBA1A277A92
:10A28000013F381AE6E7032FE4D1277A013FBF1ACE
:10A2900002003800DEE71123C943F356606C994091
:10A2A00023691940029B19430EF03BF8A37B072B4F
:10A2B000ACDC627B581C520062730B499A00A0739D
:10A2C000022B03DC88580DF061FF98E7074B200054
:10A2D000236300236363064B8958E46223641430CC
:10A2E0000DF0DFFD92E7C046C0840200F9A1010035
:10A2F000095C020010B50400044B03600DF0C9FDB9
:10A30000200005F0C7FE200010BDC0461C8C0200D6
:10A3100010B504000E4B08330360FFF75FF8200010
:10A3200074300AF0F1FF200060300AF0EDFF2000E9
:10A3300058300AF02CFF200050300AF028FF20008F
:10A34000044B14306361FFF7D5FF200010BDC046F9
:10A35000E0840200308C0200F8B500250400324B86
:10A360008580083303608571143016000F0005F0F6
:10A370007BFE20002D4BE562636125645030FFF7C2
:10A3800075F820005830FFF771F820006030FFF7B3
:10A390009BF820000423F25E33682667590009B257
:10A3A00074300AF0DEFF3378226FE37173680126A0
:10A3B00023721023E572A572A7802561D356916898
:10A3C00059188B4204DA3000984001330543F8E70E
:10A3D00011230120D356D16859188B4206DA0200A6
:10A3E0009A402669013332432261F6E714200DF0CA
:10A3F000D9FF226900212A430123060006F086F9CD
:10A40000FF226272220000230125483266646573D0
:10A41000A373237320001370A366FEF7C1FFA37913
:10A4200020001D43A571F8BDE0840200308C0200BD
:10A43000F0B5437A85B00400002B04D120000BF066
:10A44000EDFB05B0F0BD0122837A11009C4610237C
:10A45000066F0025F3560392634499400191290049
:10A46000F3680293029B9D422CDAB36872696B43D6
:10A4700063445B00E77AD3181A785878E379012FA0
:10A4800010D15F1E3F1A10003A005B004343606F1B
:10A490008218D3189B79002B02D0039BAB40194341
:10A4A0000135DFE7022F05D15F1EBA1A277A013F77
:10A4B000381AEAE7032FE8D1277A013FBF1A0200D2
:10A4C0003800E2E71123C943F356606C99402369D1
:10A4D0001940019B19430DF024FF667AB31EDBB2CD
:10A4E000FC2B14D8FEF70AFF0B4B05002363002357
:10A4F0000A4863630A4BFF21E4622364704306F059
:10A5000095FC29004143200014300DF0CAFC637A09
:10A51000012B00DD95E791E71D5C0200B60300000A
:10A52000095C02001FB5012381881A0068460AF001
:10A53000C8FE012303491A0068460AF0C2FE05B0AE
:10A5400000BDC046FE0300001FB5030048331A7863
:10A550000400002A0DD000221A70012381881A00FD
:10A5600068460AF0AEFE012304491A0068460AF064
:10A57000A8FE200074300AF0EBFE1FBDFF030000B0
:10A5800010B548300378002B06D00378012B03D098
:10A59000012102480AF005FD10BDC046FF0300007E
:10A5A00010B50121040006200AF0FBFC064B98427E
:10A5B00008D148342378002B04D02378012B01D014
:10A5C00020BFF7E710BDC04616FCFFFF73B5079C20
:10A5D0000500002C0ADB060048363078002807D03A
:10A5E0003078012804D00C4C200076BD0B4CFBE7E2
:10A5F0006846007E1BB20090280012B274300AF048
:10A60000BDFE002CF0D02B004A331C800024072311
:10A610004C352C803370E7E712FCFFFF17FCFFFF7F
:10A62000F0B587B00D9C06000F0002920393002C3A
:10A6300020DBFFF7A5FF330048331D78EDB2002D76
:10A640001AD1390005A80AF06CFE0C9B0194009306
:10A65000029A039B05A93000FFF7B8FF05A80AF08E
:10A6600053FE002C03D03000FFF79AFF2C0020008F
:10A6700007B0F0BD014CFAE7014CF8E717FCFFFF0B
:10A6800011FCFFFFF8B50400171E09DD060048366F
:10A690003378002B06D03378012B03D00C48F8BD5B
:10A6A0000C48FCE72200E3795632013B137023008B
:10A6B0000025200054331D8050300AF0C5FD2300D2
:10A6C0004A331F8002234C34258028003370E6E78C
:10A6D00012FCFFFF17FCFFFFF7B505000F00161E69
:10A6E00018DDFFF74DFF2B0048331C78E4B2002C37
:10A6F00012D1390001A80AF09FFD320001A92800FB
:10A70000FFF7C0FF01A80AF042FD2800FFF748FF4D
:10A710002000FEBD0148FCE70148FAE717FCFFFFF7
:10A7200011FCFFFFF8B50400161E0DDD07004837C9
:10A730003A78002A0AD03A78012A07D01548F8BD9D
:10A740006B4618229B5E07E01348F8E75D42069BC4
:10A75000FF33F5D16B1D1BB222006432138023003E
:10A76000200066331D7060300AF0E3FD23000022F4
:10A770006C331A70954200D0350023004A331D8097
:10A78000079B013E5A1E93414C340533268000201E
:10A790003B70D4E712FCFFFF17FCFFFFF0B587B05A
:10A7A00005000F00161E03931EDDFFF7E9FE2B00C8
:10A7B00048331C78E4B2002C18D1390005A80AF0FF
:10A7C000B0FD0D9B320001930C9B05A9009328005E
:10A7D000039BFFF7A7FF05A80AF096FD2800FFF7E7
:10A7E000DFFE200007B0F0BD0148FBE70148F9E7B4
:10A7F00017FCFFFF11FCFFFFFF2902D84172002068
:10A8000070470148FCE7C04617FCFFFF13B5040082
:10A8100004A80078009020000DF0AEFA002801D1C5
:10A82000207516BD0048FCE70EFCFFFF13B50400C1
:10A8300004A80078009020000DF086FA002801D1CD
:10A84000207516BD0048FCE70EFCFFFF7FB50D002C
:10A8500011000F226A4404001E1E117016D0089BBE
:10A86000002B13DD012329000093FFF7DFFF0028F1
:10A8700002D0074804B070BD0090089B3200290048
:10A880002000FFF7C3FF0028F4D0F2E70148F1E70A
:10A890000EFCFFFF17FCFFFFF7B507000D1E3FD0B2
:10A8A0000023022604690193002C35D0AA88A388CE
:10A8B0005340334204D1324204D1AB88334226D0D4
:10A8C000646AF1E7A968A0680CF076F90028F4D072
:10A8D0002B88002B02D022889A42F1D16B88002B62
:10A8E00002D062889A42EBD1EB68E268934201D0D1
:10A8F000002BE5D17B68002B01D020009847A2886F
:10A90000084B1343A380019B01330193D8E7A3684D
:10A91000AA689342D4D1DBE7019B2000002B00DC26
:10A920000148FEBD0080FFFF17FCFFFFF0B50600E9
:10A9300085B00D1E00D160E001270469002C26D0EF
:10A940000221AA8800230A4202D0A3885B083B4068
:10A95000226829688A4218D1002B12D0A968A06801
:10A960000CF02AF9002810D0EB68E26893420CD171
:10A97000A3881AB2002A02DA5B045B0CA380204889
:10A9800011E0A368AA689342EED0646AD6E7316901
:10A990002A880F000B1E08D135610123194968462A
:10A9A0000AF08FFC002005B0F0BD1888904205DA4F
:10A9B000586A1F0000280ED00300F6E718003B007D
:10A9C0000488944207D147886C88A74203DC446A14
:10A9D0000300002C0BD199420BD10888824204DB82
:10A9E00007D14C886888844203DD6962D4E720007F
:10A9F000E6E7596A69625D62CFE70348D3E7C0467C
:10AA000016FCFFFFFD03000017FCFFFF064B10B50F
:10AA10001A00040008322C33026083600830FEF70D
:10AA20002FFA200010BDC046F884020008B4024B83
:10AA30009C46083808BC60470DAA010008B4024BC8
:10AA40009C46083808BC60476B6002000C4A002333
:10AA500011002C32083110B543608381837382600A
:10AA6000036143618361C383016004000830FEF722
:10AA7000F9F9044B1A68002A00D11C60200010BDAF
:10AA8000F88402000C250020F7B50E0001250469AA
:10AA90000192002C36D0238832889A4201D0002BB4
:10AAA0002AD1638872889A4201D0002B24D1FEF704
:10AAB0004DF90123002806D0C022A3881340C03BD3
:10AAC0005A425341DBB2019A934214D1A7883BB258
:10AAD000002B10DB10223100A01808F093F940235E
:10AAE0001F420BD1FEF732F9002807D0210006489B
:10AAF000FEF7DCFA00E00025646ACAE720000BF0EC
:10AB0000BDFAF9E72800FEBD7D60020008B4024BE3
:10AB10009C46083808BC604705620200F0B587B063
:10AB200001930EAB1B88060003930D9B0D00009351
:10AB3000019B02920C9F002B3ED0002F02D1009B64
:10AB4000DB0739D528200DF02DFC040010300AF069
:10AB5000ADFB6B461B891820258063800DF022FC1D
:10AB6000049707000500009B10220593019B00211C
:10AB700008C7380008F0D8F9082204A9380008F0FE
:10AB800041F90E4B02226B6100230399E3602362BB
:10AB9000636233680A43A560A2805B6821003000CD
:10ABA0009847002806D020000AF0A7FA20000DF0F0
:10ABB000F5FB034807B0F0BD0248FBE73F62020027
:10ABC00016FCFFFF17FCFFFFF0B504001600002580
:10ABD0008380164A164B8571026021814681057378
:10ABE000186889B08C46A8421DD0124A0595049277
:10ABF000C02202926A4604AB82CB82C26146230025
:10AC00002A00FFF78BFF0B4A094B0692C0221868F7
:10AC100002926A4606AB079582CB82C223002A00C5
:10AC20003100FFF77BFF200009B0F0BD3C8502003A
:10AC30000C2500206963020030B500240373012352
:10AC4000034D84710560818082734373846030BDDD
:10AC50003884020070B583790400DB0702D5806870
:10AC60000DF09CFBA3799B0702D5A0680DF096FB25
:10AC7000A3795B0707D5A0230021144ADB00D1503C
:10AC8000A0680DF08BFBA3791B0708D5A568002DE4
:10AC900005D028000CF001F828000DF07FFBA37907
:10ACA000DB0605D5A068002802D00368DB6898475A
:10ACB0006023A2791A4205D0A068002802D0036858
:10ACC0005B6898470023A360A37170BD00700040CB
:10ACD000F7B50126037B040033422BD0612385792D
:10ACE0001D4017D1FFF7B6FF18200DF05BFB0E23B8
:10ACF0000700E35618220093637B2900019308F0B4
:10AD000013F9019A009938000DF0C1F9A379A760F1
:10AD10003343A3716023A2791A4203D0A0680DF0D7
:10AD20004CF8FEBDA3685A69586812681040431E6B
:10AD30009841F6E70048F4E716FCFFFF10B5012440
:10AD4000837941731C4004D080680DF031FA0020F3
:10AD500010BD6022134203D080680DF035F8F6E78D
:10AD60000048F5E716FCFFFF70B5040000250D4B09
:10AD70000E000833858085710360210018300BF0C8
:10AD8000A6FB2000210020300BF0C4FB064BA68060
:10AD9000A571E5712572E5602561656120001C6083
:10ADA00070BDC0464C850200202500208379DB075A
:10ADB00002D5C160002070470048FCE716FCFFFF89
:10ADC0008379DB0701D5C06870470148FCE7C046BE
:10ADD00016FCFFFF70B545690400002D20D0037AF2
:10ADE000032B1FDCFFF7ECFFA8622C200DF0DAFA32
:10ADF0002C220021050008F097F8002362695362B5
:10AE00002369002B07D122610020237A6561013379
:10AE1000237270BD0B00596A0029FBD15A62F3E717
:10AE20000148F6E70148F4E717FCFFFF13FCFFFFBA
:10AE3000144B70B55A68144C002A03D000225A6093
:10AE40000132A2601A69002A17D0002119618023FB
:10AE5000DB00E3580D4D012B10D1A923DB00E15895
:10AE600028684942FFF7A2FF2868FFF7B3FF2B6865
:10AE70005A69074BE2500123A36070BD2868FFF7B1
:10AE800095FFF8E7FC10004000100040202500204E
:10AE90000405000003000069002809D00221054ACA
:10AEA000D167426A1A611A7A013A1A72024B196022
:10AEB0007047C04604E100E000E100E010B5002961
:10AEC00003DB024B19600CF0C6FF10BD24250020E7
:10AED00070B504001E0004AB1D7805F08FF820004B
:10AEE0000E4B40302360FEF7C1FA230001364C338D
:10AEF000013522001E701D730023E1214E32A36430
:10AF00006365138053809381D381013B2000636488
:10AF10004902FFF7D3FF200070BDC046E88302005E
:10AF2000F7B580277F053D697C690822113C6C4399
:10AF300006002100684607F065FF104B009A9A4210
:10AF400019D00093002301937969300013396943C4
:10AF50000BF0F5FA019A009930000BF008FB210084
:10AF600030000BF0ECFA7969AB0813396943220021
:10AF700030000BF0EEFA0198FEBDC046FECA00009C
:10AF8000F0B50D00ABB00D9200213022060012A8E2
:10AF90000B9307F0C9FF280008F09EFA431C0C939E
:10AFA000102B00DDB7E00B9B202B00D9B3E029006C
:10AFB00030000BF009FB071E56D129000C9A12A88D
:10AFC00007F020FF0D990B9A16A807F01BFF8023AE
:10AFD0005B051F695A693000113A7A435D690D9229
:10AFE000FFF79EFF0D9B30220833002104001EA8AE
:10AFF0000F9307F099FF29001339794330000BF0C4
:10B000009EFA0F9B0B9300230C930E930C9BA34271
:10B0100049DA0B9930221EA807F0F4FE12A91EA8E7
:10B0200008F016FA00282DD13D4930002200109179
:10B0300011940BF09CFA6A460B9B099315AB23CB3A
:10B0400023C223CB23C223CB23C23000149B1299EB
:10B05000139A0BF09AFA01230E930B9B30330B9348
:10B060000C9B01330C93D1E710300B9A0D9907F02C
:10B07000A3FE040038000DF091F9002C9DD12000B2
:10B080002BB0F0BD6A460B9B099321AB23CB23C2A7
:10B0900023CB23C223CB23C230001E991F9A209BAF
:10B0A0000BF073FAD9E7E5433021ED1725404D4306
:10B0B0000F9B5D190E9B002B1BD1B81E05F02CFEBB
:10B0C00084422AD016490134300022001091119494
:10B0D0000BF04DFA6A46099515AB23CB23C223CB5F
:10B0E00023C223CB23C230001299139A149B0BF076
:10B0F0004CFA0D9930000BF022FA80235B05596958
:10B100000C2363431339023379430D9A30000BF05B
:10B1100020FA0024B3E7034CB1E7034CAFE7C04685
:10B12000FECA000017FCFFFF13FCFFFF8023F0B5F1
:10B130005B051A6995B002925A6905910299113A14
:10B1400051435C69029B133C050003915C43FFF78C
:10B15000E7FE061E39D00027039B3022083300216A
:10B16000083408A8019307F0DFFE210028000BF047
:10B17000E6F90497B74220DA0199302208A807F0CF
:10B1800041FE059908A808F063F900280DD11A4975
:10B19000721E2800069107920BF0E9F9012304932F
:10B1A000019B013730330193E4E722000C2301991E
:10B1B00028000BF0CEF93034F2E7049B002B06D1C7
:10B1C0000D49320028000BF0D2F90C4812E0039927
:10B1D00028000BF0B4F980235B0559690C23029A0F
:10B1E00013394A437343110028000233039A0BF0CA
:10B1F000B0F9002015B0F0BDFECA00000CFCFFFF46
:10B2000070B50400A280FA22002308000C499200C5
:10B2100008312160A3716061E260A3606382094923
:10B220000BF0D2F9051E09D00100200010310222D6
:10B23000123007F0E7FD28000DF0B0F8200070BDD7
:10B24000648502000792020030B50225837987B039
:10B2500004002B4204D1FDF705FEA3791D43A5711F
:10B2600020000BF0F7F900281CD06B46DD1C2800ED
:10B270000BF0E7F92B78002B17D001A80BF0DFF9C2
:10B280000321019AD3170B409B189B102382FEF7D2
:10B290006FF8E368A18818180123A0601A0002A8BB
:10B2A0000AF00FF8002007B030BD0122064B1A60EB
:10B2B000064A51680029FCD000215160044A1268F6
:10B2C000019201225A60DBE700C00040FCC0004050
:10B2D00008C50040022802D10122014B1A707047B4
:10B2E000AF2A002070B5064C05002378002B04D14E
:10B2F000044802F089FC01232370280070BDC04679
:10B30000B02A0020D5B2010070B50C0009F0D7FDBD
:10B31000002810D00023144DA40A2B7020000BF03D
:10B32000ADF9002803D00A200CF03BFFF6E72B789C
:10B33000002BFCD070BD02210C4B0D4A995080218E
:10B34000C90008005D58002DFCD0A121C9005C5047
:10B3500019580029FCD0002199508021C9005A5861
:10B36000002AFCD0E6E7C046AF2A002000E00140FA
:10B3700004050000F8B50C0015001E0009F09FFD43
:10B38000002811D00023174F3B7032002900200005
:10B390000BF072F9002803D00A200CF002FFF4E74A
:10B3A0003B78002BFCD0F8BD01210F480F4B8446A1
:10B3B00019508021C9005A58002AFCD08027002249
:10B3C000FF00964207DD910068586050D959002966
:10B3D000FCD00132F5E7002261465A50DA59002AC2
:10B3E000FCD0E0E7AF2A00200405000000E00140A7
:10B3F00008B4024B9C46443808BC60478166020092
:10B40000FA21F8B50389C9000400594332480BF00A
:10B41000E9FBFA21890005F07FFC304F2081A17AF9
:10B4200038000BF0DFFB23002600250022894C3377
:10B43000A072A0361A808C35317800232A22286821
:10B440000AF067FD002801D02548F8BD31781F2398
:10B450005B2228680AF05DFD0028F5D131782023B1
:10B460005C2228680AF055FD0028EDD131780123CF
:10B470002C2228680AF04DFD0028E5D131780123FF
:10B480002D2228680AF045FD0028DDD131780123FE
:10B490002E2228680AF03DFD0028D5D1A17A380077
:10B4A0000BF09BFB3178C3B20E2228680AF031FD05
:10B4B0000028C9D1FA2123898900594306480BF095
:10B4C0008CFB01230343DBB231782A2228680AF07F
:10B4D00020FD0028B9D0B7E7848502007C850200F2
:10B4E0000EFCFFFF08B4024B9C46443808BC604782
:10B4F00001B40100074B10B51A00040008323C33B8
:10B500000260436444300AF001F920000AF02AF88E
:10B51000200010BDE485020008B4024B9C4644386C
:10B5200008BC6047F5B4010008B4024B9C4644389F
:10B5300008BC60478B660200F0B5042583798BB0A8
:10B5400004002B4204D1FDF78DFCA3791D43A571A6
:10B5500020009030FFF7BCFB0026B0420FD1230043
:10B56000A033197820000C2307AD00938C302B00FA
:10B5700001220068FFF76AF9061E03D02C4E300046
:10B580000BB0F0BD0A2304AA9B182A785A706A7877
:10B590001A700022985EAA785A70EA781A7000220F
:10B5A000995E03912A795A706A791A7000229F5E17
:10B5B000AA795A70EA791A7000215A5E04922A7A9E
:10B5C0005A706A7A1A7000215A5E0592AA7A5A70E5
:10B5D000EA7A1F251A7000229B5EA27A9C46039B82
:10B5E000504359425143CB172B407A435B185B11B0
:10B5F000A361C3172B401818D3171D406423AD183F
:10B60000059A5B425343A36764236146049A401141
:10B610005A434B43E2676D11221DE0612562200011
:10B62000D3670AF018F8200044300AF076F8A6E74D
:10B630000EFCFFFF08B4024B9C46443808BC604730
:10B6400039B50100F7B51E00040008AB1B881500D2
:10B65000019309AB00911A8831000AAB1F88FEF7ED
:10B66000BBF820003A0031004430FEF711FB134BC9
:10B6700020001A003C336364230008322260009AE1
:10B680008C331A60AB8890308380AB796A468371C3
:10B690000B4B92880360AB68032183602B7B0373A1
:10B6A0006B7B4373AB7B83732300A0331A80FFF75C
:10B6B00045FB2000FFF7A4FE2000FEBDE48502004C
:10B6C00038840200F8B5FA260189B60004007143F7
:10B6D00026480BF087FA310005F01EFB244F20812D
:10B6E000A17A38000BF07EFA2500A072583529782F
:10B6F00000232A22606C0AF00CFC002801D01D48AF
:10B70000F8BD297810232B22606C0AF002FC002877
:10B71000F5D1297801232D22606C0AF0FAFB00286C
:10B72000EDD1297801232E22606C0AF0F2FB00286B
:10B73000E5D1A17A38000BF050FA2978C3B20E2275
:10B74000606C0AF0E6FB0028D9D1218907487143D3
:10B750000BF043FA01230343DBB229782A22606C01
:10B760000AF0D7FB0028CBD0C9E7C0464C860200C0
:10B77000448602000EFCFFFF10B50400034B0833A3
:10B78000036009F0EFFE200010BDC046AC86020049
:10B790007FB50425837904002B4204D1FDF762FBB9
:10B7A000A3791D43A57120004830FFF791FA0025C9
:10B7B000A8420DD1230058331978062302AE009316
:10B7C00001223300606CFFF741F8051E03D00D4DD8
:10B7D000280004B070BD022300210420F356A27A91
:10B7E000DB00715630565B425343C000C9005143E1
:10B7F0004243A3612368E16122629B6A200098476B
:10B80000E6E7C0460EFCFFFFF8B50400150006AAE7
:10B81000168807AA0F0012881900FDF7DDFF0F4BED
:10B820006764083323602300AA8848339A80AA7982
:10B8300020009A710A4AA264AA6822652A7B1A73B8
:10B840006A7B5A73AA7B9A730023A371230058332F
:10B850001E80FFF737FF2000F8BDC046AC8602000F
:10B860003884020010B50400034B0833036009F06C
:10B870004DFF200010BDC04640870200F0B5070014
:10B880005C3787B00400397800231022806C0AF0FE
:10B8900040FB0326002802D01F4807B0F0BD0F254B
:10B8A00002ABED180123397808220093A06C2B001D
:10B8B000FEF7CCFF184B9842EED02B78334203D0E2
:10B8C0006420FDF767FBEAE7FA262189134DB600ED
:10B8D000714328000BF086F9310005F01DFA208134
:10B8E0003978A0231122A06C0AF013FB0028D3D1D1
:10B8F000A36C21890393714328003F780BF06DF905
:10B9000001231843C3B21022390003980AF001FB47
:10B910000028C2D0C0E7C0460EFCFFFFE086020050
:10B9200070B50825837986B004002B4204D1FDF759
:10B9300099FAA3791D43A57120004C30FFF7C8F98F
:10B94000061E0DD023005C331978062304AD009346
:10B9500001222B00A06CFEF779FF061E03D0134EC8
:10B96000300006B070BD0E232A786B445A706A7896
:10B9700020001A700022995E64224A43A263AA78CA
:10B980005A70EA781A700022995E6422524251433A
:10B990006163297959706979197000215B5E5A4396
:10B9A0002368E2631B6A9847DAE7C0460EFCFFFF94
:10B9B000F8B50400150006AA168807AA0F00128819
:10B9C0001900FEF765F90D4BA764083323602300C7
:10B9D000AA884C339A80AA7920009A71084AE264B6
:10B9E000AA6862652A7B1A736A7B5A73AA7B1E82D5
:10B9F0009A73FFF743FF2000F8BDC046408702005E
:10BA000038840200F7B5FA250189204FAD00040003
:10BA1000694338000BF0E6F8290005F07DF9A17ABA
:10BA200020811B480BF0DEF82600636CA0720093A7
:10BA30002189583633786943380001930BF0CDF8EB
:10BA400007230343DBB22022019900980AF061FA30
:10BA5000002801D00F48FEBD317810232222606CEF
:10BA60000AF057FA0028F5D1A17A0948656C3778B1
:10BA70000BF0B3F880235B420343DBB2232239008F
:10BA800028000AF046FA0028E5D0E3E774870200B0
:10BA90006C8702000EFCFFFF10B50400034B083357
:10BAA000036009F05FFD200010BDC046E48702007E
:10BAB000F0B50425837985B004002B4204D1FDF74D
:10BAC000D1F9A3791D43A57120004830FFF700F993
:10BAD000061E0DD0230058331978062302AD0093BB
:10BAE000A8222B00606CFEF7B1FE061E03D0144E98
:10BAF000300005B0F0BD1F200023EA5ED3170340DD
:10BB00009B180222A95E5B11CA1702405218042139
:10BB10006F5E5211F9170140C91949112B806A80D3
:10BB2000A980A07A5B424343524242434143E361CE
:10BB30002368A26121629B6A20009847D8E7C0462B
:10BB40000EFCFFFFF8B50400150006AA168807AA28
:10BB50000F0012881900FDF73FFE0F4B6764083392
:10BB600023602300AA8848339A80AA7920009A711A
:10BB70000A4AA264AA6822652A7B1A736A7B5A73EE
:10BB8000AA7B9A730023A371230058331E80FFF70A
:10BB900039FF2000F8BDC046E48702003884020067
:10BBA000F7B5FA2504000189134EAD006943300052
:10BBB0000BF018F8290005F0AFF82700A36C2081DE
:10BBC00000935C373B7881B26943300001930BF0FE
:10BBD00004F86022C3B2019900980AF09AF900288B
:10BBE00001D00648FEBD397801236222A06C0AF01C
:10BBF00090F90028F6D0F4E7188802000EFCFFFF49
:10BC000010B50400034B0833036009F07FFD2000EA
:10BC100010BDC046408802007FB508258379040026
:10BC20002B4204D1FDF71EF9A3791D43A571200015
:10BC30004C30FFF74DF8051E0DD023005C3319780A
:10BC4000062302AE0093E8223300A06CFEF7FEFD4F
:10BC5000051E03D00B4D280004B070BD0223F25E18
:10BC600096235B425A4362630021725E2000534375
:10BC7000A3630423F25E96235343E36323681B6AA2
:10BC80009847E8E70EFCFFFFF8B50400150006AA88
:10BC9000168807AA0F0012881900FDF7F9FF0D4B4F
:10BCA000A764083323602300AA884C339A80AA79BA
:10BCB00020009A71084AE264AA6862652A7B1A73B6
:10BCC0006A7B5A73AA7B1E829A73FFF769FF200072
:10BCD000F8BDC046408802003884020010B5040058
:10BCE000054B083303601C3009F051FA200018306E
:10BCF00009F04DFA200010BD6C880200FF23F0B55A
:10BD00002B4D8DB02B7000230400694600880093F2
:10BD100003F070F9002802D16B469B782B70254EFA
:10BD20003368DB68002B07D1002320881A00190034
:10BD30000AF01BFD0DB0F0BD2B78032BF4DC1E497F
:10BD400001A8FDF759FB336801A9DE6804A809F0D2
:10BD500073FA04A930000AF066FC060004A809F092
:10BD600016FA371E1ED031002022103104A807F029
:10BD700049F830000CF012FB297804ABC9005918BF
:10BD8000082202A807F03EF820880123082202A911
:10BD90000AF0EBFC0127002804D12088074A0C2177
:10BDA0000AF0E1FC01A809F0F2F9002FC2D1BBE7CB
:10BDB00089200020342500209A920200FFFF000015
:10BDC000F0B5837991B004005B071BD5FDF7D0FA7D
:10BDD00000232269801A9941994203D1F423FF3349
:10BDE00098420FD9A068002808D0364B1D8801F072
:10BDF00061F9036815221B6A290098470422A37978
:10BE00009343A371A3799B0759D52F4D2B68DB680A
:10BE1000002B50D02D4B1B78032B4CDC294B2C498D
:10BE20001B8804A80193FDF7E7FA2B6804A9DE68D4
:10BE300008A809F001FA08A930000AF0F4FB07008D
:10BE400008A809F0A4F902AB9E1D08233200338034
:10BE500006A9073B01980AF08AFC002F08D0390098
:10BE60002022103108A806F0CDFF38000CF096FA19
:10BE7000164B32881B7806A9DE0008AB9E193000ED
:10BE800006F09AFF002813D0082206A9300006F019
:10BE9000B9FF2B6804A9DD6805A809F0CDF92023B6
:10BEA00008AA05A928000AF0C4FB05A809F06FF943
:10BEB00004A809F06CF90222A3799343A37111B08D
:10BEC000F0BDC046582A00203425002089200020DB
:10BED0009A920200F7B5040000250192C77FBD4287
:10BEE00051DA66197078884218D1152927D80122AD
:10BEF0008A402748024222D0F91801201F291DDC60
:10BF0000E1193718B9420ED800218B420FDD019A92
:10BF10007018575C01318770C9B2F6E7605D2D1863
:10BF20000135EDB2DBE70878C8540139EAE7625D14
:10BF30009A186255E27F9B18E3770020FEBD655D8D
:10BF4000013DEDB2AB4209D10023AB42F5DA019AD3
:10BF5000F118D05C01338870DBB2F6E7DF197F1B84
:10BF600001201F2FEADC0227A81C7F4236187F1B06
:10BF7000E07F2218964203D23078F0550136F7E779
:10BF8000451B023DE577019A20000AF03AFCD5E70F
:10BF9000FC002000F0B585B001930AAB1E880BAB06
:10BFA0001B78451C02930EAB1B78040003930B789F
:10BFB000170003704B8A102243820131280006F0DB
:10BFC00021FF6B469B88268363836B461B7B002681
:10BFD00023776B4601221B7A6761E683EB77A31C0C
:10BFE000DA7724210C9B0C2563622300200004AA2D
:10BFF0005218127828331A705E709E702A00310031
:10C000002C3006F091FF2000064BE663A3632A0064
:10C010003100403006F088FF2000034B2665E364C2
:10C0200005B0F0BD856702007767020070B50D00AE
:10C0300001F040F804000368002D09D15B699847BE
:10C04000FA2080006843074904F066FEE08070BD76
:10C050009B6898478542F3DA236820009B689847DD
:10C060000500EDE771020000F0B507001600A1B071
:10C0700002C70400684918A81D000AF0F4FB301E2E
:10C0800001D007F029FA01220492002283B2039220
:10C090000292023201920093320018A93800FFF791
:10C0A00079FF23005D49583318A807930AF0DBFB9A
:10C0B000281E01D007F010FA01220492002283B258
:10C0C000039202920232019200932A0018A9079863
:10C0D000FFF760FF23005249AC3318A808930AF019
:10C0E000C2FB2698002801D007F0F6F9012204923D
:10C0F000002283B203920292023201920093269AA6
:10C1000018A90898FFF746FF631CFF33454918A894
:10C1100009930AF0A8FB2798002801D007F0DCF962
:10C1200001220492002283B203920292601C023226
:10C1300001920093279A18A9FF30FFF72BFF2300E5
:10C140005533FF33384918A809930AF08CFB289817
:10C15000002801D007F0C0F901220492002283B226
:10C1600003920292023201920093289A18A9099828
:10C17000FFF710FF2300A933FF332C4918A80A93B7
:10C180000AF071FB2998002801D007F0A5F90122D7
:10C190000492002283B20392029218AD02320192FD
:10C1A0000093299A29000A98FFF7F4FE204B1B7888
:10C1B0000B93002B2DD1079B12971393089B0DAF68
:10C1C0001493631CFF331593099B1A4916930A9B1A
:10C1D000380017930AF047FB1D2149203B781022B5
:10C1E0002B707B8A12AE6B8206ABC918C01806F0A2
:10C1F00009FE06232B756B469B8D2068AB83AE61D1
:10C2000000F068FF036829001B6898470122084B6B
:10C210001A70200021B0F0BD292A0000242A000055
:10C22000252A0000272A0000262A0000282A0000CC
:10C23000B12A00200A18000070B5002504000B4B3D
:10C240008580083385710360C1601830FDF70EF9F1
:10C2500020001C30FDF70AF90123621CD377044A41
:10C26000A560656120001460A37170BD6C88020038
:10C2700034250020FA2130B585B0050001230222C3
:10C280008900684609F01DF8074C2068002809D08D
:10C290000AF022FB2988054B226819800223917934
:10C2A0000B43937105B030BD34250020582A00207F
:10C2B00010B50C0007290AD8806800F0FBFE064B79
:10C2C000195703685B6C9847002802D110BD0348DA
:10C2D000FCE70348FAE7C0469292020017FCFFFF12
:10C2E00016FCFFFFF0B5A54C0D00A5440400079314
:10C2F0009AAB1B78A24909A804930692FDF77CF833
:10C30000200029001C3008F09FFFC020800001F0B1
:10C3100071FC08200CF046F80700002100F092FEA6
:10C3200015AD0021A7600C220EA806F0FDFD2B0024
:10C330000EAA43CA43C3934B2900EB600023380085
:10C340002B610AF0B0FCA06800F0B4FE0C220021C2
:10C350000590280006F0E8FD14200CF023F88A4B25
:10C360002A0015930300C2CAC2C3884B059EC3604E
:10C370000023A43603613368002B00D0F7E030605F
:10C38000A06800F0A7FE0C2200210600280006F09D
:10C39000CBFD14200CF006F87D4B1593030086CDE1
:10C3A00086C37C4BC36000230361336B002B00D03A
:10C3B000DFE03063A06800F07DFE15AD0C220021A7
:10C3C0000600280006F0B0FD14200BF0EBFF724BC6
:10C3D00098361593030086CD86C3704BC360002347
:10C3E00003613368002B00D0C5E0012504AB1B7C42
:10C3F00004AA2B43306008A9280013740AF0B9F985
:10C40000A06800F077FE036865495B6A9847A068FA
:10C4100000F070FE036863499B699847A06800F0CC
:10C4200069FE002302680093166804992A00B04749
:10C43000049B002B0AD020000AF057FA032805DDE0
:10C44000A06800F057FE0368DB6898470EA80AF062
:10C45000CFF92F2004ABC0180AF0CAF9362004AB7C
:10C46000C0180AF0C5F93D20042504ABC0180AF035
:10C47000BFF90EAB0A93A06804AB5D7700F03AFEFB
:10C4800003680AA91B699847A06800F013FE0368B7
:10C490000AA95B6D9847A06800F00CFE03680021B4
:10C4A000DB6D9847A06800F005FE036802219B6DD4
:10C4B000984700212000FFF7FBFE18200BF072FFC9
:10C4C000A16800F057FA384B384A1B68A1680393FB
:10C4D000374B15A81B680CAE0293364B00271B6820
:10C4E0000193069B1B685B190093334B12681B6812
:10C4F000FFF7BAFD30200BF055FF079AA16800F056
:10C50000FFFAA06800F0D6FD036831009B6A9847E7
:10C510000823A0683380DB187380B78000F0CAFD61
:10C5200003683100DB6A98472900A0680AF0A7F980
:10C53000099A09219378A06852190AF0B3F9A06802
:10C5400000F0B8FD32210771A068FFF76FFD04AB62
:10C550001B7FBB4204D0A06800F0ACFD0AF079F963
:10C5600009A808F014FE95239B009D44F0BD0361CB
:10C5700005E703611DE7036137E7C046ACFDFFFF38
:10C580007F9302009367020075C20100A167020059
:10C59000FDBC0100AF670200DD670200BD6702005D
:10C5A000BDC50100F1C50100302500202C2500206B
:10C5B0000C200020282500201020002013B5062282
:10C5C0006846FCF729FF094B1C68002C0AD0694615
:10C5D00001A808F031FE200001A90AF0A7F901A87E
:10C5E00008F0D5FD684608F0D2FD13BD34250020C3
:10C5F000002373B501AE0C0031000500019302F079
:10C60000F9FC002802D1B278064B1A70064B186864
:10C61000002806D061426141044BC9B21D800AF076
:10C620008DF973BD8920002034250020582A002070
:10C6300030B5284CA9B06A220D000DA8210006F0E3
:10C64000E1FB0DA903A8FCF745FF03A906A808F024
:10C6500068FE01230193013BFF3B00930533FF3349
:10C66000642206A92800FEF799F806A808F04CFEF7
:10C67000210019226A3106A806F0C4FB0522002415
:10C68000110006AB04A808F073FE04A905A808F081
:10C6900048FE019400942300220005A92800FDF71C
:10C6A000BFFF05A808F030FE21002800FEF7A4F81F
:10C6B00005340520FCF76EFCFF2CF5D1FA20800034
:10C6C000FCF768FC04A808F01FFE03A808F01CFE95
:10C6D00029B030BD0F920200F0B59D4B95B0059288
:10C6E0001A68082307000291D16C06A80B43D36493
:10C6F0009849FCF781FE984907A8FCF77DFE3A00AF
:10C7000000240DAD28001C3206A908F0ACFD07AAD4
:10C71000290008A808F0A7FD280008F038FD7B1CB8
:10C72000DC77B86800F0C6FC03680BAE5B6998471D
:10C7300028000AF05DF82B2004ABC0180AF058F866
:10C74000322004ABC0180AF053F8392004ABC018EB
:10C750000AF04EF80B950425B8687571347100F035
:10C76000A9FC036831005B6D9847B86800F0A2FC33
:10C77000036821009B6D9847B86800F09BFC03009C
:10C7800006000A331F2221001800039306F0CCFB99
:10C79000039B3000DC770AF053F80621B8680AF0F2
:10C7A0006EF8089A09219378B86852190AF07AF855
:10C7B000B86800F07FFCC8210471B868FFF736FC48
:10C7C000B86800F077FCFF260481B86800F072FCBE
:10C7D0000AF03FF80298FDF7B7FE3800FCF742FB7D
:10C7E00002993800FFF724FF029938000AF0B9F8DF
:10C7F0000394049501257B691D402DD0574909A854
:10C80000FCF7E4FE09A90AA808F08BFD00220AA99A
:10C810001300019200920298FDF702FF0AA808F0A7
:10C8200073FD039B002B42D1043E282E41DD0025E1
:10C83000FE2E00DC039D059808F054FF002806D06A
:10C8400001237A699A431300049A13437B610024FD
:10C8500009A808F059FD03957B69049A134233D067
:10C86000FF210298C825FDF7C7FF0024AD00BB6972
:10C8700002229B5E9C4222DA380021B2183008F076
:10C8800008FD0023010002981A007430FCF7EEFE48
:10C890002800FCF77FFB029809F02EFBC820FCF76C
:10C8A00079FB02227B69134209D10134DFE70436A8
:10C8B000BBE7029809F020FB002EBCDDBAE7FA20A6
:10C8C0008000FCF767FB002402237D691D421CD019
:10C8D00006331D4024D0224909A8FCF777FE09A998
:10C8E0000AA808F01EFD00220AA901920092130076
:10C8F0000298FDF795FE0AA808F006FD1948FCF716
:10C9000049FB09A808F000FD174C6420FCF742FB26
:10C91000164B01349C4200DC6CE708F0E2FA69E750
:10C92000134909A8FCF752FE09A90AA808F0F9FC66
:10C930002B002A000AA9019500950298FDF770FEC8
:10C940000AA808F0E1FC09A808F0DEFCDDE7C04613
:10C95000B8240020A6920200B6920200B89202000B
:10C96000FD920200983A00008C0A00008B0A000039
:10C970003A93020000225C4BF0B5083306000360D6
:10C980000F001000A9B0B1600BAB991801324870CC
:10C99000102AFAD10F3A554C1A700E32105D991ABE
:10C9A0000874013AFAD2997B5A7B09020A43310092
:10C9B0000C31039125211B7813AD2B7002ABC918E4
:10C9C000452302A81B186A821800102206F01AFAE2
:10C9D000039B64216B610123002402AA2B832B7724
:10C9E0005218093313701DAB1C706D2302AA9B18DB
:10C9F0001C706E2321009B181EA80C226C83EC83F4
:10CA00006C621C7006F090FA394B0C22210023A8AE
:10CA1000AB63EC6306F088FA364B0322EB644623E3
:10CA200002A95B18DA7722002C650595347306ADF0
:10CA30002B1901345A70102CFAD101232E482B7077
:10CA40000E33195CEA1A1174013BFAD21121252028
:10CA5000AA7B6B7B12020BAC13432A78638202AB76
:10CA6000C9182270C018102206F0CCF901232375D2
:10CA700005ABA36100233800A38300F02BFB036800
:10CA800021001B68984713ABDB8BB068B38200F0C2
:10CA900021FB002203680092B18A039ADC6801231B
:10CAA000A047B06800F016FB070014200BF07AFCDA
:10CAB00004000C22002106F037FA00232000236135
:10CAC000069340C0013308222900079306F09AF923
:10CAD0000A4BE360BB69002B03D13000BC6129B075
:10CAE000F0BD2361F9E7C0468488020093930200F9
:10CAF0008567020077670200A3930200C569020000
:10CB0000F0B500260400774BDDB008330360816088
:10CB1000C260868086713200734947A809F0F2FF2F
:10CB20002300143308931223012501930E3B04952F
:10CB30000093089A330047A9039602961DA8FFF7B1
:10CB400029FA3200694947A809F0DCFF0C232200CA
:10CB50000193083B15AF10320495009347A93300A9
:10CB60000396029632A8FFF715FA320060493800A2
:10CB700009F0C8FF23001C33099308230193043BE9
:10CB8000390004950093099A33000396029647A84A
:10CB9000FFF700FA32005749380009F0B3FF54207C
:10CBA0000BF000FC230018330793122301930E3B74
:10CBB000390004950093079A330003960296069075
:10CBC000FFF7E8F9069B0822A3624B4B0AA90A93D8
:10CBD000069B0B961800DC62303006F013F9069ABB
:10CBE000464B268293631300668229331D702369A6
:10CBF0000422E3610999079806F004F904220799D1
:10CC0000089806F0FFF86622032304A95218D37788
:10CC1000BA225218D377872252005218D377069A35
:10CC200037490232D3771DAB0C9332AB0D9347AB30
:10CC30000E93069B3200A68510A80F9309F062FFA1
:10CC400030223121452004AB9B181B7812323B70F7
:10CC500004AB9B181B88323A7B8204ABC918C018FE
:10CC600006F0D0F804230CADA0683B75BD61BE830F
:10CC700000F030FA036839001B689847822204AB41
:10CC80009B181B885432238404AB9B181B88543296
:10CC9000A38404AB9B181B88A068638400F01AFA75
:10CCA000070014200BF07EFB05000C22310006F07B
:10CCB0003BF92800134B2E61082210C010A91093D5
:10CCC000119606F09FF8104BEB60BB69B34206D19A
:10CCD000BD612000FCF7C6F820005DB0F0BD2B61FF
:10CCE000F6E7C04690880200D3930200B393020097
:10CCF000C3930200E3930200D76A0200436A020072
:10CD0000F393020075CD01006D6A0200F0B50400D6
:10CD10000E00150085B000930CAB1B8810300193FA
:10CD200008F0C4FA2680658018200BF03BFB070052
:10CD300002AE33003D000AAA03CA03C3009B1022BF
:10CD400008C50021280006F0EFF83100082228006D
:10CD500006F058F8064B02227B612000002301995F
:10CD6000A7600A43E360A2802362636205B0F0BD5E
:10CD7000976A0200F0B50B898DB00593CB6805006A
:10CD800004934B88828C9A420ED1049C059B049A92
:10CD90001B1BD318032B39DD62882188012308A8C7
:10CDA00008F08FFA0434F1E7428C9A422ED1049CA9
:10CDB000059B049A1B1BD318032B27DD23882820EF
:10CDC00006936388EF680793114B08930023099338
:10CDD0000BF0E8FAC0236A460600029308AB03CBC7
:10CDE00003C22B000699079A3000FFF78FFF3B68BC
:10CDF00031005B6838009847002805D0300008F003
:10CE00007CF930000BF0CAFA0434D1E70DB0F0BD64
:10CE1000556B020070B5040090B0806809F095FE73
:10CE2000022101401AD1A38D002B17D00C4B6A466A
:10CE300004931023E568A1850591029304AB41CBCF
:10CE400041C20A00230006A8FFF760FF2B6806A96D
:10CE50009B682800984706A808F04FF910B070BDED
:10CE6000556B0200002815D0006041608260C360ED
:10CE7000046145618661C761444604624C46446270
:10CE8000544684625C46C462644604636E464663EC
:10CE900074468463002A06D0C46B043C043A2568B7
:10CEA0001560B442F9D18C6BA6464E6BB546002B8B
:10CEB00006D0CC6B043C043B1D682560B442F9D11C
:10CEC0000C6BA446CC6AA3468C6AA2464C6AA14667
:10CED0000C6AA046CF698E694D690C69CB688A6877
:10CEE000086849687047006041608260C3600461FF
:10CEF00045618661C761444604624C4644625446BB
:10CF000084625C46C462644604636E46466374464B
:10CF10008463C46B043C043925680D60B442F9D1C4
:10CF2000C76986694569046970470060416082602D
:10CF3000C360046145618661C761444604624C4632
:10CF40004462544684625C46C462644604636C4630
:10CF500044637446846304697047846BA646446BDB
:10CF6000A546046BA446C46AA346846AA246446AE2
:10CF7000A146046AA046C769866945690469C36811
:10CF8000826800684168704710B5041E0CD006F036
:10CF9000A3FA431EE3189C4208D222781978013B79
:10CFA00021705A700134F6E7014810BD0020FCE7FB
:10CFB00017FCFFFFF0B585B002900C1E2AD00023AD
:10CFC000C217161A56400193019B30005D1C63196D
:10CFD0000A215F1E039304F00FF849423031397083
:10CFE00030000A2103F022FF47420600002F0FD134
:10CFF000029B002B04DA2D23019D039A0235137046
:10D00000002320006355FFF7BFFF380005B0F0BDD7
:10D010000195D9E7004FF8E717FCFFFF0268084BBE
:10D02000406810B5C018C00010180300934205D323
:10D030001C688C4202D31800083BF7E710BDC046BD
:10D04000FFFFFF1F002370B5040001604360994299
:10D050000AD1064D2B68002B02D10AF071F8286026
:10D0600023689B00EB586360200070BD48250020BA
:10D0700070B500280DD10C4C2668002E07D1083061
:10D080000BF090F905003100FFF7DCFF2560206808
:10D0900070BD0122054906480B681340F8D10260B3
:10D0A00043600A60F4E7C0463C2500203825002094
:10D0B00040250020436810B50400002B02D104482D
:10D0C0000AF0B7FF606803681B69984710BDC04647
:10D0D00003940200436810B50400002B02D10448F9
:10D0E0000AF0A7FF606803689B69984710BDC046B7
:10D0F00003940200436810B50400002B02D10448D9
:10D100000AF097FF606803685B6A984710BDC046E5
:10D110000394020000487047FFFF0000F0B597B08D
:10D120000593036807AD1B680491039311002B005E
:10D13000060091C991C30024D36821000C220CA8D9
:10D14000EB602C6105F0F0FE22000B4B10940F9366
:10D1500011AB1C70191901344A70102CFAD15A8283
:10D160000193059B2A00009304990CAB3000039CAB
:10D17000A04717B0F0BDC046F36D0200FC3070B59B
:10D18000046C0500002C0DD124200BF00BF9064B8C
:10D1900044608361054B8460C46004614461C46180
:10D1A00003602864286C70BD7C890200648A0200D8
:10D1B000FC3070B5C56B0400002D11D134200BF08C
:10D1C000F1F8084B85604360074B45610361074BED
:10D1D0000562C361064BC5628362064BE063036070
:10D1E000E06B70BDAC8902009C8902000C8A0200D1
:10D1F0001C8A02002C8A02007FB503791548002B97
:10D200001CD0154E154C33782000002B16D102ADE2
:10D21000280009F0CBFD002815D16B88592B12D1BD
:10D220002B78AA88D91F01290AD800920C4A2021FC
:10D23000200006F07BF801233370200004B070BD9D
:10D240000092084AF3E720220749200006F076F909
:10D25000F3E7C04626940200D22A0020B22A00201A
:10D26000409402005D9402008294020010B5040014
:10D27000024B08C009F07DFE200010BD9C89020011
:10D2800010B50400024B08C009F088FE200010BD54
:10D29000AC890200064B70B50400036040680028AA
:10D2A00004D005690BF07AF82800F8E7200070BD7B
:10D2B0008C890200064B70B50400036040680028AA
:10D2C00004D005690BF06AF82800F8E7200070BD6B
:10D2D000BC890200064B70B504000360406800285A
:10D2E00004D005690BF05AF82800F8E7200070BD5B
:10D2F000CC890200064B70B504000360406800282A
:10D3000004D005690BF04AF82800F8E7200070BD4A
:10D310000C8A0200064B70B50400036040680028C8
:10D3200004D005690BF03AF82800F8E7200070BD3A
:10D330001C8A0200064B70B5040003604068002898
:10D3400004D005690BF02AF82800F8E7200070BD2A
:10D35000B0880200064B70B50400036040680028E6
:10D3600004D005690BF01AF82800F8E7200070BD1A
:10D37000C0880200064B70B50400036040680028B6
:10D3800004D005690BF00AF82800F8E7200070BD0A
:10D39000D0880200064B70B5040003604068002886
:10D3A00004D005690AF0FAFF2800F8E7200070BDF4
:10D3B000E0880200064B70B5040003604068002856
:10D3C00004D005690AF0EAFF2800F8E7200070BDE4
:10D3D0007C890200FC3070B5046C0500002C0DD176
:10D3E00024200AF0DFFF064B44608361054B846014
:10D3F000C46004614461C46103602864286C70BD2A
:10D400007C890200648A0200104B10B50833036067
:10D410000F4B0400C36080230E4A5B00C250C0184B
:10D42000FCF768FF20000C4BB830E360FFF7B2FF59
:10D430002000AC30FFF79EFF2000A030FFF78AFFEE
:10D4400020006C30FFF776FF200010BD908A0200AC
:10D45000D88A0200308C0200F0880200F0B5050086
:10D46000040087B0AC356B68AB60A868002807D0B3
:10D47000C36821009847AB68002BF4D01B69F3E721
:10D480002500B0352868002804D006690AF086FF18
:10D490003000F8E72200FC215832137828600B4056
:10D4A000137023005C33187020000A3009F03FFE2F
:10D4B0002000343009F03BFE606E002804D005697E
:10D4C0000AF06CFF2800F8E72500983560662868A8
:10D4D000002804D006690AF061FF3000F8E72860F0
:10D4E0002500A4352E68002E05D0376930000AF0DB
:10D4F00055FF3E00F7E72E6001AD31000C222800F9
:10D5000005F012FD23002A006C3383CA83C3094B44
:10D51000E667A3670C223100280005F005FD230013
:10D52000803307CD07C33000034A90341A60266069
:10D5300007B0F0BDD76D0200C96D0200444AF0B5D6
:10D540000600C260A022434B163608330360010078
:10D55000002342820400320085B0037183600374AB
:10D5600083823531137001329142FBD180258022B4
:10D570002000AD00D201F3773584110000933830DC
:10D58000002300F00DFF23002100403303931A0015
:10D590002B0000255F31157001328A42FBD1039ABE
:10D5A000FC21D577220060321380137920000B40D4
:10D5B0001371230068331D70274B2567E3660C2227
:10D5C0000021783005F0B0FC2300270088331D606F
:10D5D000224B0837FB67843700210C22380005F006
:10D5E000A3FC1F4B1F4AFB602300A0333D611A6060
:10D5F0001D4A5D60DA601D4A1D619A61DD6130007F
:10D6000009F095FD039809F092FD194B601CE36049
:10D610002300C4331D705D709D70FF3002F024FD47
:10D620008C235B00E55023001933FF335D618023B9
:10D63000104A5B00E250230001222000FE335242D8
:10D640005A86023B9D63DD631D6405B0F0BDC04694
:10D65000F0880200908A0200B0880200D76D0200B4
:10D66000C96D0200C0880200D0880200E088020074
:10D67000D88A0200308C020070B5074C2368002B5A
:10D6800007D1A02040000AF08DFE0500FFF756FFED
:10D690002560206870BDC0464C25002070B50C2266
:10D6A0000D000021040005F03FFC00232361024B24
:10D6B00025602000E36070BDE56D020070B50025B7
:10D6C0000400254B05710360244B45718360244B96
:10D6D000C5604361234B85610362234B4562C3628E
:10D6E000224B05638363C56329004430FFF7D6FFEF
:10D6F000200029005830FFF7D1FF200029006C30AE
:10D70000FFF7CCFF1A4B2200236023008032F8334E
:10D7100020C29342FCD126001D00E936FF362800C6
:10D7200008220021083505F0FFFBB542F7D18E2312
:10D730009B00E218002308C5AA42FCD18E220021DA
:10D740009200A3540B4B0C4AE318A2181980023321
:10D750009A42FBD1200070BDDC8902008C89020056
:10D760009C890200AC890200BC890200CC890200BD
:10D77000648B02003A02000062020000024B0B6060
:10D78000092313607047C0468A94020010B5040054
:10D790000020FFF771FF03681B6998470300F3330C
:10D7A0001C7086235B00C05003000021044AFC3338
:10D7B0005A61044A99615A62F4300AF072FB10BD52
:10D7C0000B7402001D740200012110B5044A080008
:10D7D00002F0F0F9031E00D00B23180010BDC04664
:10D7E0008DD70100F0B5060093B000200C00FFF7C4
:10D7F00043FF03685B6A984700F0F0FC06AB002823
:10D800000ED000221A7105AA0692082218001A7377
:10D810000AAA9A6000F0ACFD002803D013B0F0BD56
:10D820001871187300232373237101933300BA33E3
:10D830001B78019A9A4241DA07235343F218BB320C
:10D840001278BB33022A31D10025F318029306AFB8
:10D850003B7B9D4223DAAB000393089BAA009958B7
:10D8600002980AF0AEF900281DD0237BAA009C463E
:10D87000BB6899180293634608689A00A368D05061
:10D880006346013323733B7B5A1E954205D00C48F7
:10D890001B1802989B001B580B6006AB1A73019B68
:10D8A0000133DBB2C1E70135EDB2D0E72279206860
:10D8B0009100F31801320B502271F0E70020ADE720
:10D8C000FFFFFF3FF0B50A7804009BB00D00022077
:10D8D000012A44D04B88032A3BD1A03B21499BB26B
:10D8E00010008B423BD8204BAA8803209A4236D89E
:10D8F0000AAB009312AB02936A4600232600137111
:10D900001373B8363378002B05D069462000FFF733
:10D9100069FF002823D104AF18220021380005F048
:10D9200003FB2B7838003B7033783B726B46FB600F
:10D930006B883B82AB887B8209F08BFC0200032062
:10D94000002A0CD101235834217810000B43237096
:10D9500005E0203B054A9BB203209342C3D91BB08C
:10D96000F0BDC046603F0000FF3F0000E03F000008
:10D97000F0B59DB01F006B4605001A70581C0622BA
:10D98000229E02AC05F03EFA002F2ED03B88238069
:10D990007B886380BB88A380FB88E3800CAB04A9F1
:10D9A000049314AB8B602F000023B9370B710B73FA
:10D9B0003B78002B21D101203B78022708A90340A6
:10D9C0005A000B78BB4304AF4F601343002E1BD1AA
:10D9D0002A00323212788343024013430B70AB8D1E
:10D9E0000B81EB8D4B812B8E18E032232380DB18CB
:10D9F0006380F533A780FF33CFE72800FFF7F2FEFF
:10DA00000028D8D01DB0F0BDB27983430240134343
:10DA10000B7033880B8173884B81B3882200684672
:10DA20008B8109F02CFC030000208342EAD00630F1
:10DA3000082BE7D006D80130042BE3D0834209D16C
:10DA40000420DFE70520112BDCD0034A9342F7D0F6
:10DA5000102BF5D00B20D5E70232000010B50400E2
:10DA600001F094FE034B1B68002B01D02000984767
:10DA700010BDC04654250020F0B58DB0050001F062
:10DA8000F9F80020FFF7F8FD036807001B699847C5
:10DA90003B6804009B69380098473B6806005B6A56
:10DAA000380098470300288810380B2862D803F004
:10DAB00029F9063E6161615B616161676179AF88E7
:10DAC0002000390009F042FD22006B7B583201939F
:10DAD0001378A8799C46022361460B43137006AB6A
