:020000021000EC
:108000000040002069070200A5070200A707020040
:108010000000000000000000000000000000000060
:10802000000000000000000000000000A90702009E
:108030000000000000000000AB070200AD070200D6
:10804000AF0702009DB30100250E0200AF0702003A
:10805000AF07020000000000E1070200AF070200C6
:10806000AF0702001D100200AD0C0200AF070200B6
:10807000AF070200AF070200AF070200AF07020020
:10808000AF070200AF070200AF070200AF07020010
:10809000AF070200010102008D020200AF070200DB
:1080A000AF070200AF070200000000000000000060
:1080B00000000000000000000000000000000000C0
:1080C000054B0648033310B51B1A062B03D9044B86
:1080D000002B00D0984710BDAC200020AC20002021
:1080E000000000000648074910B5091A8910CB0F97
:1080F0005918491003D0044B002B00D0984710BDED
:10810000AC200020AC2000200000000010B5074C7F
:108110002378002B09D1FFF7D3FF054B002B02D0AA
:10812000044800E000BF0123237010BDB8200020E8
:1081300000000000E4980200094B10B5002B03D0AA
:108140000849094800E000BF08480368002B02D135
:10815000FFF7C8FF10BD064B002BF9D09847F7E793
:1081600000000000BC200020E4980200AC200020A9
:1081700000000000144B002B00D1124B9D46402202
:1081800092029A1A924600218B460F461148124AD3
:10819000121A0BF05FF90D4B002B00D098470C4BD7
:1081A000002B00D098470020002104000D000B4850
:1081B0000AF078FE0BF032F82000290010F010F9D8
:1081C0000AF08EFE000008000040002000000000C1
:1081D00000000000B0200020802B00205931020058
:1081E000044A84B09378032B01DC0133937004B00C
:1081F0007047C046AB2A0020044A84B09378002B15
:1082000001D0013B937004B07047C046AB2A0020F8
:1082100010B50400034B036040300DF0D1F920008D
:1082200010BDC0461C88020010B503480BF074F95D
:1082300001200AF055FEC04616930200F0B585B045
:108240001F000AAB1B880600029115000393002F44
:108250001BD0282010F0BFFA6B4604001989039B3D
:10826000AAB200933B000DF04AF9336821005B6825
:1082700030009847002806D020000DF057F9200064
:1082800010F0A5FA024805B0F0BD0248FBE7C04671
:1082900016FCFFFF17FCFFFF70B504000800251E49
:1082A00007D121000CF0BEFE054B1860200070BD08
:1082B0000D0069680029FBD10CF0B4FE6860F5E799
:1082C000D42000201FB5082001F026FA0400022067
:1082D00001F022FA002C01D1FFF7A6FF064B6060E7
:1082E0005A78210002709B78437000232370034B5F
:1082F0001868FFF7D1FF1FBDAB2A0020D420002053
:10830000094B10B51C68002C0BD02368586801F08D
:1083100037FA206801F034FA200001F031FA64687D
:10832000F1E7200010BDC046D420002070B5040045
:108330000D00814205D10CF083FE0D4B186020002A
:1083400070BD4B68002B02D10CF08EFEF5E70028C3
:10835000F5D061604B6843600B68586801F010FA13
:10836000286801F00DFA280001F00AFAE7E7C04694
:10837000D420002037B50024134D6359002B07D0BB
:10838000586801F0FDF9605901F0FAF900236351D2
:1083900004343C2CF0D10D4D2C68002C03D0FFF799
:1083A000AFFF2860F7E70A4901A801F0DBFA0948A6
:1083B000782201A9F03002F045FC01A80DF000F987
:1083C000054B1C7037BDC046DC200020D4200020A7
:1083D0000E9302001821002082200020124B70B55D
:1083E0001B68DB071ED4114D2C68002C1AD02368A3
:1083F0001A78002A0ED15A681378042B03DC013353
:1084000013706468F1E7052BFBD121002868FFF7A2
:108410008DFFF6E7012AE8D15A681378002BF4D0D3
:10842000013BEDE770BDC046D8200020D4200020DD
:1084300070B506000024084D6359B34207D1706837
:1084400001F09EF9605901F09BF900236351043457
:108450003C2CF0D170BDC046DC20002070B500245B
:10846000114BE558002D0ED0A97800290BD00F4BE9
:10847000186809F057F8002905D16A681378002BAD
:1084800005D0013B137004343C2CE9D105E0084AC7
:108490001378002B02D1FFF76DFF70BD013B280060
:1084A0001370FFF7C5FFEEE7DC200020D820002086
:1084B000AB2A002070B5060008200D0001F02CF951
:1084C0000400022001F028F9002C01D1FFF7ACFED6
:1084D00001232370044B067045706060210018680A
:1084E000FFF7DAFE70BDC046D4200020024A817A30
:1084F000D3785B18D3707047AB2A002010B543784F
:108500000400002B02D0053B437010BD0178094ADE
:1085100003290AD101391170074A13702000FFF7AF
:10852000E5FF2000FFF784FFEFE71378002BF5D07D
:10853000013BF2E781200020AA2A0020F8B5254E51
:108540003468002C45D023681D78002D1DD0646848
:10855000F7E70878874215D158784B78984211D1BF
:108560001000FFF7CBFF21003068FFF7DFFE09E0C6
:108570000878874206D149785B789942F0D0013378
:108580009942EDD004353C2DE1D0134BEA58002A36
:10859000F8D0D07801380328F4D8216853684968A6
:1085A0001F7808F03BFED6E5020D08788742E9D136
:1085B00049785B789942E5DB02339942E2DCCFE708
:1085C00008788742DED149785B789942DADB033359
:1085D000F3E7F8BDD4200020DC20002070B5104D5A
:1085E0002C68002C12D023681A78012A15D15A68F9
:1085F0000C4B1078597888420FD151789A78914273
:108600000BD11A78002A02D1FFF7B4FE70BD013AEF
:10861000210028681A70FFF789FE6468E1E7C04608
:10862000D4200020AB2A002070B5134E35682C00F2
:10863000002C20D023681B78002B1AD1002D18D0D5
:108640002B681A78012A12D122685B68526819785F
:10865000107888420BD152785B789A4207D1290072
:108660003068FFF763FE21003068FFF75FFE6D683A
:10867000E4E76468DCE770BDD4200020002003003C
:10868000044A9958002901D00130C0B204333C2B70
:10869000F7D17047DC200020F8B5204B19211E6867
:1086A000300008F03FFF00291AD10C001C4DA30038
:1086B0005B59002B03D001340F2CF8D10024194B47
:1086C0001B78002B13D0032000F0FEFC012808D0FB
:1086D000022809D0002803D10CF0E3FCA4002851A3
:1086E000F8BD0CF0FEFCF9E70CF01AFDF6E70E2CD5
:1086F000F6DC0D4F3B78002BF2D1FFF7BFFF0028CF
:10870000EED16421300008F00DFF0029E8D10CF013
:1087100028FD0123A40028513B70E1E7D820002068
:10872000DC20002081200020AA2A0020F8B51C4D62
:108730001C4B2800F0301C680DF0F7FD28001A4B88
:1087400065309A785978FF30052301F089F9002CBB
:108750000BD02800236865305B68FF305A781978A1
:10876000FF2301F07DF96468F1E7104FE359002B16
:1087700011D000263B59DA7896420CDA28005B6863
:1087800065305A781978921912B2FF30FF2301F040
:1087900067F90136EEE704343C2CE6D1F8BDC0465B
:1087A00018210020D4200020AB2A0020DC2000204B
:1087B00070B50024094BE558002D0BD0084B697AA1
:1087C000186808F0AFFE002904D16B685978187852
:1087D000FFF770FE04343C2CECD170BDDC2000208F
:1087E000D82000207FB52B4E10253400D0342A4BE2
:1087F0000322012100952000FFF720FD274B0322D3
:10880000022100952000FFF719FD254B03221A21B4
:1088100000952000FFF712FD224B04220121009554
:108820002000FFF70BFD00951F4B042202212000C2
:10883000FFF704FD1D4B1B78002B1BD0FFF776FFC5
:108840001B4A1368642B13DC01331360FFF724FF0A
:10885000FFF7AEFFFFF7C2FDFFF770FEFFF7BEFEAA
:10886000FFF7E2FEFFF7FAFDFA2000F049FEE1E72C
:108870000023EAE70F4B03A8D9780CF0BDFE3000C7
:10888000782203A9F03002F0DDF903A80CF098FE7D
:108890007FBDC04618210020F9810100E18101005F
:1088A000C5820100CD880100058A010082200020D8
:1088B000D8200020AB2A002010B5034800F00CFAA5
:1088C000FFF790FFFCE7C04618210020F0B589B003
:1088D0000391049205930290FFF7D0FE4300033307
:1088E00004001800019300F017FF00260500047033
:1088F000441C1C4BF758002F06D038000CF04EFCDF
:1089000020707B786370023404363C2EF1D1164A15
:1089100013789178DB000B432370D378134963708D
:10892000134C019B20002A00B43002F0DFFD114BF4
:10893000984208D0104B1149984205D0280000F009
:108940001FFF09B0F0BD0E4907A801F00BF8200089
:10895000782207A9F03002F075F907A80CF030FE74
:10896000ECE7C046DC200020AB2A0020D8920200B1
:108970001821002013FCFFFF17FCFFFFDD9202000F
:10898000F892020007210378034ADB069B0F13705D
:1089900003780B4093707047AB2A0020F7B503278C
:1089A000037801903B40144D8C00144E022B19D0DB
:1089B000BB421AD0012B12D00CF073FB00232851BC
:1089C00037700F4A13702B595A68019B1B785B094B
:1089D0001370019B1B78DB065B0F5370F7BD0CF027
:1089E00080FBEBE70CF09CFBE8E70CF0BAFB002304
:1089F000285133700133E4E7DC200020812000207F
:108A0000AA2A0020F0B52B4D87B002902800F03044
:108A10000391049205930DF088FC274E3468002CD6
:108A200003D0FFF76DFC3060F7E7244FE359002BCC
:108A300007D0586800F0A4FEE05900F0A1FE002322
:108A4000E35104343C2CF0D128001D49B4300DF022
:108A5000D4FF051E28D0037C0024009303001133AB
:108A60001E000193009B9C420ADA21003000FFF7B0
:108A700095FFA3007278FB5802365A700134F1E773
:108A8000009B5C00019B1C19009B002B06D103225C
:108A90000C4B1A706A460C4B12781A702000FFF7C4
:108AA00071FF6278094BDA7028000FF090FE07B072
:108AB000F0BDC04618210020D4200020DC2000207A
:108AC000D892020081200020AA2A0020AB2A002090
:108AD00010B5094C200000F047F8084A084920006A
:108AE0000FF06EFE074B08481B78022203700749FF
:108AF00001300AF01DFC10BD1821002000200020CC
:108B0000118B010080200020AB2A00208320002050
:108B1000CA23144A9B0010B5C2501C330400C0186D
:108B20000CF04EFDD0239B00E0180CF049FD200016
:108B30009130FF3001F01CFB20006930FF3001F064
:108B400017FB2000F03001F099FE2000D03002F039
:108B500013FA2000643007F0D7FC201DFFF758FB04
:108B6000200010BDA88C02001423F0B5040093B0BF
:108B7000192200931821043002F060FC2300250024
:108B8000260064331800B43513211093B83607F06B
:108B9000C7FC28000DF02BFF00221E2130000DF035
:108BA000C9FB2000D03002F007FA2300F033474A17
:108BB00006211800119301F085FE200000270123F3
:108BC00069301A0000971121FF3001F0DDFA200012
:108BD00091300097012302221A21FF3001F0D4FACC
:108BE0002000B930022201211A23FF3002F0A2FA3C
:108BF000300001F0D3F8E4235B00E050300001F0D6
:108C00001FFBE6235B00E0500100E422200052003D
:108C1000D130119BA2580095FF3001F063FD200078
:108C2000E13029001C22FF3002F0A0FD19232000B2
:108C30000F93013B0E93013B0D93013B0C93013BC2
:108C40000B93013B0A93013B0993013B0893013BC2
:108C50000793013B0693013B0593013B0493013BC2
:108C60000393013B0293013B0193F930013B08223E
:108C700000930721013BFF300DF07DFBCA239B00D1
:108C8000E018290003F08EFDD3239B00E0181D217E
:108C900002F020FBDD239B00E75010982770032192
:108CA0000FF0ABFA23002200200009499C33A032C8
:108CB0001C6011605760074A80305A61022101220E
:108CC00007F040FE200013B0F0BDC046248802002B
:108CD000C7510200B35102000123F0B505788DB0F1
:108CE00007001D4000D085E00300D0331800029338
:108CF00000F0EAFA00F00EFA28200FF06CFD0400F4
:108D000010300CF0ECFC6D4B6580238018200FF0C8
:108D100062FD06006A4B80C60390102229003000D5
:108D20000A930B950AF096FB08220AA930000AF074
:108D3000FFFA644B039AE56053611223A260A3809B
:108D4000256265622100029802F0A6F8002805D08D
:108D500020000CF0EBFB20000FF039FD01233A78E6
:108D6000594913433B703B00B433180004930DF092
:108D700044FE5649039004980DF03FFE00240590F0
:108D8000642000F0BDFB260025003B006933FF3363
:108D9000180006930CF0BFFE00282DD1039B002B7A
:108DA00033D1059B002B30D1DD2449494948A4002B
:108DB00000F086FC3B59002B1CD100F099F8010013
:108DC00008A800F0CFFD09A80CF071FACA239B0097
:108DD000F818059B09AA08A90093029B03F038FD27
:108DE00009A80CF0EDFB08A80CF0EAFBCC239B00D3
:108DF000FB583B510DB0F0BD38009130FF300CF006
:108E00008AFE0028CAD0182DC8DC3800653031B27F
:108E100022B2FF23FF30013600F022FEF6B23220EC
:108E200000F06EFB0135052E02D10026631CDCB27A
:108E3000039B192D06D0002BA7D02349049802F0DC
:108E40002BFC01E0002BF8D103980FF0C0FC059833
:108E50000FF0BDFC1E491F4800F032FCDD239B00D3
:108E6000FB580793002B20D100F042F8010008A81E
:108E700000F078FD09A80CF01AFACA20012380003E
:108E800009AA08A900933818029B03F0E1FC09A87D
:108E90000CF096FB08A80CF093FBCC239B00FB582E
:108EA0000793DD23079A9B00FA50CA2339009B00E1
:108EB000069AF031F81803F0C5FE66E7FD030000DE
:108EC0003B520200FB5102005A93020065930200DC
:108ED00000200020001C0020BFF34F8F024A034BEC
:108EE000DA60BFF34F8FFEE70400FA0500ED00E003
:108EF000F0B58DB005AF1922154938000AF018FAFF
:108F00000022144B05245A7180225205566E01220C
:108F100025000194029203930199300008F018FA99
:108F20000800029908F08EF9019B03996B430193A5
:108F3000029B361A6B430293631E2C1B6C433C1935
:108F4000225C1C1ECA54E7D108000DB0F0BDC0461B
:108F500075930200AF2A0020F0B595B018220021C9
:108F600006000EA80AF076FA13210EA80FF0A3FA55
:108F700003210EA80FF035FB4C4B1B68002B00D1D2
:108F80000133DBB202934A4A0123002109A807F00A
:108F900049FE484B9E4200D9002672B6464B10222D
:108FA000002105A81D680AF055FA444B64213000E1
:108FB0000593052408F0D0F9604350302818069036
:108FC0000A21300008F0C8F90A2108F0ABFA614321
:108FD00050316918079130000A2108F0A3FA802364
:108FE00061430024503169189B0108910093029B52
:108FF000002B59D0002500232E1F019305AB9B1990
:109000000393032C03D1802300249B01009305AB21
:109010002B4A585963000133D3180022110010263F
:109020005F1E3F783E4137001E78865D3E4202D08B
:1090300001279740394301320633092AEFD1C9434A
:10904000204B09011940039B1B68984229D1019BC1
:10905000312B26DC002109A80FF07CFBFA23139AA0
:109060000F99DB00106801421ED0013B002BF9D1A3
:10907000009B01345B000093019BE4B20133019338
:10908000FA23019A5B009A42BBD10435102DB2D16C
:10909000064B1B68002BAAD0029B013BDBB202935C
:1090A000A5E7009B1943D6E7FFF716FF942400209D
:1090B000F0FF0000E703000004200020C49302003A
:1090C0008E930200F01F0000F0B500281BDD0F4C4E
:1090D000421E276811000020BE09FB0F73407B4031
:1090E0003E097D087340BF087B406B40DB072B4384
:1090F00001251F0040002B401843E940ECD182427B
:10910000E8D32760F0BD0248FCE7C0469024002069
:1091100017FCFFFFF8B50023124C23600CF0E8F8B1
:10912000002808D0042120000CF0DEF8002801D02F
:109130000D4B2360F8BD0122A12704250B4B0C49E0
:109140001A602268FF0048604E68002EFCD0DE598D
:109150001202013D3243002DF5D1226001225A60F6
:10916000E8E7C04690240020ED5EBC0B00D0004034
:10917000FCD000400B4B70B51C68002C10D0656D06
:1091800000F0ACFBA36C002901D1834206D820007B
:109190000CF0E1F8044920000CF0CBF82C00ECE7CF
:1091A00070BDC0469C240020BC240020F0B5060001
:1091B00093B007932A4B04901C682A4B05911F68B3
:1091C000069285B2360C002F47D000230293002C64
:1091D0002FD0636D244803934823E3181A88A36CA7
:1091E0001B0C99B2854214D12048824211D1002B28
:1091F00001D0B1420BD1029B002B08D120000CF012
:10920000AAF81B4920000CF094F801230293039C58
:10921000DDE7002A01D09542F9D1002B01D0B142FF
:10922000F5D120000CF097F8114920000CF081F8DE
:10923000EDE7104BEB18012B0FD9102332000093F0
:1092400029000D4B08A80CF05AF93B6808A99B6847
:109250003800984708A80CF069F913B0F0BDC04673
:10926000C824002098240020FE030000FF03000013
:10927000BC24002002FCFFFFAD91010070B572B666
:109280000B4B1C68002C08D020000CF064F8002365
:10929000E364084B2000E36370BD62B65C200FF00E
:1092A0009AFA050021005C220AF0D4F82C00EEE7BF
:1092B000C024002000400020024B187801231840F1
:1092C0007047C046B52A0020F7B50600FFF7F4FF47
:1092D000051E33D11A4C2660FFF7D0FF194B1A49EF
:1092E00018600CF026F8FFF7C9FF184B1860184BF0
:1092F0004363184B8363206800280ED0C027164EA6
:109300002A00330015490097FEF798FF00973300B5
:109310002A0013492068FEF791FF0C200FF05BFA3A
:109320000023838083710F4B03600F4B836000F039
:10933000EDFA01230D4A11780B431370F7BDC046B7
:1093400098240020CC240020BC240020C424002029
:10935000FC3F00201D540200AD910100FF030000FE
:10936000FE0300004488020075910100B52A002028
:10937000F7B506000D0017000193002802D1002464
:109380002000FEBD0029FAD0FFF778FF041EF6D0BA
:10939000074B019A4363066045608760054B002ACE
:1093A00000D0054BA363054920000BF0C2FFE7E79F
:1093B000FC3F0020E753020005540200BC240020BB
:1093C000024B1868434258417047C046BC240020F5
:1093D000002310B504499C006258002A01D00133D3
:1093E000F9E76050100010BDA4240020002310B540
:1093F000044A99008C58844201D00133F9E70020D7
:10940000885010BDA424002010B50024074BE0585C
:10941000002802D003685B6898470434182CF5D103
:10942000034B1B68002B00D120BF10BDA4240020DB
:10943000BC240020F8B5FFF73FFF00281CD02A4DC0
:109440002C68E36CDA0718D502273B43E364274B0B
:109450001E680423F26C30001343F364636BF36300
:109460000BF09FFF3000716C03F0F3FF2868C36CB2
:109470003B4201D004F027F8F8BD1D4F1D4E3A685D
:10948000002A02D132682A6007E0216DB942FAD180
:10949000616D002900D1110029602A6831688A4273
:1094A00008D11B0706D52C60FFF7AEFF3B68002BE9
:1094B000FAD02B6029688C42DED0336899420BD1F8
:1094C0000D4B4B630D4B8B6320000BF06AFF29683B
:1094D000626C4B6C200004E09C42F5D1002210002D
:1094E0004B6C03F075FFC7E7CC240020A0240020BC
:1094F000BC240020C4240020FC3F00201D54020096
:1095000070B50500FFF7D8FE002803D128000FF042
:1095100061F870BD0C4B1C68E36CDB0706D5FFF7E8
:10952000ADFE0A4B1860002800D0040000F0D6F908
:109530002D18A56420000BF00EFF054920000BF04C
:10954000F8FEFFF777FFE4E7CC240020A0240020FA
:109550009C240020F0B51E4B1E4F1C683B6885B054
:1095600006000391002B30D0FFF7A6FE00282CD078
:10957000E36CDB070ED5FFF781FE174B051E186065
:1095800008D00BF0E8FE154928000BF0D2FE2C00A5
:10959000FFF750FF039B20001B043343A3640BF031
:1095A000DAFE20000E490BF0C4FE0E4B0020F3182B
:1095B000012B08D9C0230093039A0B4B3100386864
:1095C000FEF73CFE002005B0F0BD0848FBE7C046B2
:1095D000CC24002098240020A0240020BC240020BB
:1095E000C824002002FCFFFFAD91010016FCFFFF24
:1095F00010B5FFF761FE002809D0054C20680BF07C
:10960000AAFE044920680BF094FEFFF713FF10BD7B
:10961000CC240020C0240020F7B507000D0000284E
:109620002ED0FFF749FE00282CD00724164E3068B4
:10963000C36C1C4007D0154A290038000BF0A2FE6D
:1096400000242000FEBD03F026FF02213268D36C07
:109650001940019103D003218B43D364F1E7012426
:109660002343D3642800B8473268D36C1900A14360
:10967000D164019C5B07E4D528000BF0BBFEE0E75A
:10968000034CDEE7034CDCE7CC240020F55302005A
:1096900017FCFFFF16FCFFFF020010B5014B12CBB9
:1096A00012C210BDD0240020034B1A68034B1A606D
:1096B0007E225A607047C04604200020D02400203B
:1096C00070B5114E3278022A1AD081421AD90C1A7A
:1096D000072C17D90D00032305432B4012D172B676
:1096E0000A4DD2005051AA1851608022A4081206D7
:1096F0001443046032780132327062B6180070BDD3
:109700000348FCE70348FAE7B72A0020D8240020E2
:1097100013FCFFFF17FCFFFF70B5134C0600237806
:10972000124D002B0CD1124912482B70FFF7C8FFC5
:10973000114B984202D11E20FFF70EFC012323702B
:1097400000242B789C4209DA0C49E300C918300048
:109750000BF06AFE002805D10134F2E71420FFF770
:10976000FBFB002070BDC046B62A0020B72A0020AF
:1097700000380020802B002017FCFFFFD824002099
:1097800070B5002819D0104B10491C780023A34253
:1097900016DADA005558A84210D98A185268904251
:1097A0000CD2041F2368002B02DC1E20FFF7D4FB21
:1097B000802322681B061343236070BD0133E6E754
:1097C0001E20FFF7C9FBF8E7B72A0020D8240020A5
:1097D00070B5051E14DD0B4E0B4C3368002B02D008
:1097E00020680EF06FFDFA2120680024074B8900E5
:1097F0008361C462694335600EF06CFD200070BD6A
:109800000348FCE7E824002018250020B99801004F
:1098100017FCFFFFF8B5114F06003D68002D0AD177
:1098200030200EF0D8FF040006F0D4FE0C4BA561EA
:109830002360E5623C600B4D2B68002B09D11020A2
:109840000EF0C9FF04000EF092FD20002C600EF017
:1098500068FD3000FFF7BCFFF8BDC04618250020AA
:109860005090020014250020014B18687047C04634
:10987000E824002070B50D4C2368002B03D00C4B5E
:109880001B68002B02D10620FFF7C4FF20680EF0F2
:109890005FFD02000749C3170D684E6852197341F6
:1098A00020680A604B600EF059FD70BD1425002041
:1098B00018250020B020002010B5FFF7DBFF0024A2
:1098C000054BE058002802D003681B689847043411
:1098D000282CF5D110BDC046EC24002010B5FFF7B0
:1098E000C9FFFA22034B920018685968002307F059
:1098F00059FE10BDB020002010B5FFF7BBFF024B92
:109900001868596810BDC046B02000200B4B10B538
:109910001B680400002B03D0094B1B68002B02D1ED
:109920000620FFF777FF0023064A99008858002891
:1099300001D00133F9E78C5010BDC046142500203A
:1099400018250020EC240020002310B5044A9900BB
:109950008C58844201D00133F9E70020885010BDB3
:10996000EC24002010B50400002902D00B78002B55
:1099700003D1034B2360200010BD0BF028FEFAE753
:1099800054880200F8B504000E00150000290AD022
:109990000B78002B07D0002A05D0080097B209F0F9
:1099A000C1FF874203D90B4B23602000F8BD681D1F
:1099B000FFF7B2FE20600BF0AFFF20682A0047805F
:1099C0003100043009F0B4FC23685D1900232B71C9
:1099D000EBE7C04654880200014B03607047C04665
:1099E0005488020010B50548054C20600BF097FF25
:1099F000044A054920000EF0E3FE10BD5488020021
:109A00001C25002000200020C1550200084B73B522
:109A10001C680500002C0AD00100266808310822C5
:109A2000684609F085FC0CCD31682000884773BD7D
:109A300020250020014B03607047C0465C8802006F
:109A400010B50400002903D1044B0360200010BDB1
:109A5000016008000BF063FFF8E7C0465C88020075
:109A600030B500684488A14206DA8588AA4203DA44
:109A7000002901DB002A01DA034830BD54434018B5
:109A8000001983710020F8E717FCFFFFF0B507000D
:109A900085B00E001D00002921DD002A1FDD002BEE
:109AA0001DD00468638803938B4200DD0391A38873
:109AB0000293934200DD0292002306340193019B3E
:109AC000029A93420EDA29002000039A09F030FC32
:109AD0003B68AD195B88E418019B0133EEE702484F
:109AE00005B0F0BD0020FBE717FCFFFFF8B5040050
:109AF0000D0016001F00002901DB002A02DA0D4BC1
:109B00002360F8BD100048430630FFF705FE2060D3
:109B10000BF002FF23685D809E80002F06D03B0083
:109B2000320029002000FFF7B1FFEAE720000BF028
:109B300028FEE6E75C880200F7B506000D1E1BD084
:109B400000200F000400010001903B78002B1ED084
:109B50003022524294469C446246092A15D90A2B67
:109B60000ED1019B241801330193A14200DA210098
:109B7000002004000137E8E7164B03603000FEBD0B
:109B80000028F7D001340020F4E70120F2E76A460C
:109B90000127928809B212B230007F42FFF7A6FF78
:109BA00039000A2033689A1D2C78002CE6D0230057
:109BB000303B092B08D8FB43DB173B4043431B19C1
:109BC000303B1F000135EFE7002FFBDB1770013240
:109BD0000F00F7E75C880200F0B587B0009004A89A
:109BE00015001E000F00FFF757FD009B1B685A88E9
:109BF00095422ADA9B88B34227DD1F2F25DD059B7E
:109C000001939F4221DC052300217B430193049BA8
:109C10000293019B029A5B18A03BD35C0022039342
:109C200073189C46009B57191B685888040087428C
:109C300002DA988860450ADC0132052AF2D1013146
:109C40000529E6D1002007B0F0BD0748FBE7DB1986
:109C500010276046174160431B1803980740781E81
:109C600087417F429F71E7E717FCFFFFF7B5036865
:109C700006009C1D5B880D005A1A0192002919DD0F
:109C80000027994203DB0BF07CFD002013E03368D2
:109C90009B889F42F9DA6119019A200009F048FB7C
:109CA000019B2900E0180BF04FFD336801375B88FA
:109CB000E418ECE70048FEBD17FCFFFF10B50548AF
:109CC000054C20600BF02BFE044A054920000EF0E5
:109CD00077FD10BD5C8802002425002000200020B4
:109CE0003B57020010B5054C012120000BF00BFE84
:109CF000034A044920000EF063FD10BD2825002012
:109D000000200020C75802000388074A10B5012030
:109D1000934208D0834202D00020DB0703D41E20E8
:109D2000FFF71AF9002010BDFFFF00000048704740
:109D300016FCFFFF10B53220FFF70EF9004810BDEA
:109D400016FCFFFF8280142210B5134C02810834E8
:109D5000020000230460416202240100303283715A
:109D60008472C360036143618361C36103623631FE
:109D700013705370438683860A78A243F1342240DD
:109D80000A70020040321370021DD38701334387EB
:109D90008387C38710BDC0467C880200F0B5544F4E
:109DA00097B03B6806000593002B00D08BE006AC13
:109DB0000B331C222121200001F0F4F90EAD0B23FE
:109DC0001D2222210AA801F0EDF90B231B222321D9
:109DD000280001F0E7F908200EF0FDFC0122059BA8
:109DE000110004900DF01CF93A2130000CF086FEB1
:109DF00000281DD0A38812ADAB80A3795C20AB7185
:109E00003C4B1293A3681493237B2B73637B6B737C
:109E1000A37BAB730EF0DFFC042301933633009376
:109E20002A00049B3100040001F0A4FF3C604AE0DA
:109E3000322130000CF090FE00281CD0A38812AD17
:109E4000AB80A3795C20AB712A4B1293A368149367
:109E5000237B2B73637B6B73A37BAB730EF0BBFC19
:109E6000042301932E3300932A00049B3100040045
:109E700002F01EF9DAE73C2130000CF028FE002841
:109E80002CD0AB8812ACA380AB79A420A371194B62
:109E90001293AB6814932B7B23736B7B6373AB7B45
:109EA000A3730EF098FC052305000293013B019378
:109EB000383300932200049B310001F079FE0E4BF1
:109EC0003D6044351D600C4B094C1868002802D0D9
:109ED00021680BF08EFE206817B0F0BD44200EF014
:109EE0007AFC042204990400FFF72CFF9EE7C04689
:109EF0002C2500206C88020030250020F0B5614937
:109F0000C56885B08D4254DA0300022236331B78CF
:109F1000134059D104698C4264DA02003632127857
:109F2000520768D4426901920200019E40328E427B
:109F30006FDA010036310978090774D4002B7DD11E
:109F400013780293002B16D006000127011DCB8F3A
:109F5000363601339BB2CB8703963678BC46374002
:109F600000D188E01D2B06D963469E43039B1E70DB
:109F70000023CB8713700BF01CFD434A072390424C
:109F800076D94249043B8D4272DBC82201339200EC
:109F900095426DDC023B8C426ADB013B944267DCFC
:109FA00001980433884263DB0133904260DC002374
:109FB0005EE0C822002352009542ABDD0300363339
:109FC0001A7800239207A5D4012306001F00363615
:109FD00032785408A7433C0002279C40BA432243EE
:109FE000327097E7C822520094429BDD020036325D
:109FF0001278520796D406000122363633789F082D
:10A00000BA439700042293431A003A433270012363
:10A0100088E7C821019E49008E428FDD010036315C
:10A02000097809078AD40100012636310B78DF0848
:10A03000BE430827F600BB4333430B701378032B52
:10A0400000DD7DE70133DBB21370012B03D100216A
:10A05000031DD98774E7042B00D071E70200363264
:10A060001178033B0B43137000230430C3870B3379
:10A07000180005B0F0BD092B00D87CE7029BCF8704
:10A08000013B77E770FEFFFFFF700200E0FCFFFF7F
:10A0900070B5C369C2681B688AB00400451D1A42C6
:10A0A00007D0EB7F002B09D0013B06E033000322F1
:10A0B00039E0EB7F0B2B01DC0133EB77EB7F082BD7
:10A0C0000DDD0122A379134209D11343A371A188A5
:10A0D000130006A80BF00EFBFFF700FC2062EB7FDD
:10A0E000012B23DC0123A2791A421FD00025A1886D
:10A0F000A571022202A80BF0FDFAA31DDE7F012E3E
:10A1000014D1FFF7EBFB2B00226A801A99410090D3
:10A110000191019BA188AB4203D1134B009A9A4253
:10A12000C4D90123042206A80BF0E4FA0322A37980
:10A130001340012B0AD1FFF7D1FB0023226A801ABA
:10A140009941994204D1094B984201D80AB070BD97
:10A150000223A279A1881343A3710522012306A833
:10A160000BF0C8FAF2E7C046E7030000DB05000089
:10A1700010B50400034B08330360FFF7E5FB200034
:10A1800010BDC046B0880200F0B5070000250E00E3
:10A1900085B002930AAB1B7808370393104B040079
:10A1A00008330360019285808571290018223800E8
:10A1B00009F050F9039A310038000EF081F96B462E
:10A1C0006A469B88127AA380A31DE671DA77631D25
:10A1D00025622000DD77FFF799FB200005B0F0BD78
:10A1E000B08802000048704716FCFFFF10B533200E
:10A1F000FEF7B2FE004810BD16FCFFFF002310B5AD
:10A200000400838083710D48216408302060802021
:10A21000C000A061E0612062E3602000236163610F
:10A220006362A362E36223636363A363E3636364C0
:10A2300011000BF0B6FC200010BDC046C88802001B
:10A24000F0B5534F97B03B6806000593002B00D044
:10A250008BE00B331C22212106A80AAC00F0A2FFE0
:10A260000EAD0B231D222221200000F09BFF0B23AB
:10A270001B222321280000F095FF08200EF0ABFAE6
:10A280000122059B110004900CF0CAFE1D21300034
:10A290000CF04BFC00281DD0A38812ADAB80A37935
:10A2A0006020AB713B4B1293A3681493237B2B73F9
:10A2B000637B6B73A37BAB730EF08DFA0523019365
:10A2C000183300932A00049B3100040001F026FE9D
:10A2D0003C604AE03C2130000CF055FC00281CD0CA
:10A2E000A38812ADAB80A3796020AB71294B129388
:10A2F000A3681493237B2B73637B6B73A37BAB7378
:10A300000EF069FA05230193373300932A00049B6A
:10A310003100040001F06EFFDAE73C2130000CF060
:10A32000D6FB00282BD0AB8812ACA380AB79A4203D
:10A33000A371184B1293AB6814932B7B23736B7B25
:10A340006373AB7BA3730EF046FA052305000293FB
:10A35000013B0193383300932200049B310001F04C
:10A3600027FC0D4B1D6044353D600B4B1A68084BB4
:10A37000002A01D019684A64186817B0F0BD482057
:10A380000EF029FA052204990400FFF737FF9FE732
:10A39000302500206C8802002C25002082B0F0B50A
:10A3A0000400EBB06420719370920EF013F9052253
:10A3B0000EA811000BF0EEF997490FA8FFF7BCFBB0
:10A3C00000221FAB6AA91A605A609A600C338B4254
:10A3D000F9D11922002111A809F03CF8A0680BF06E
:10A3E000A2FF00260990FF21A06800F0BBFC8B4F64
:10A3F000A06800F05FFB07960896079B182B00DD0E
:10A40000BEE0864B9F4203D0854B9F4200DBAEE00F
:10A41000A0680BF08AFFA568824918A8FFF7A2FA86
:10A42000782218A9280000F0E3FB18A80BF0C8F860
:10A4300000267A4F0322089B606801331A40089275
:10A440000BF04FFB050060680BF052FB0022764BCF
:10A4500004929D4210DB013204922A00C8320BDBC9
:10A46000AA22042192000491954205DC0322049261
:10A47000C82D01DC013A049200220592984210DBBB
:10A48000012305930300C8330BDBAA2304329B008E
:10A490000592984205DC03230593C82801DC013BA3
:10A4A00005930EA80BF06DF9002511ABEB5C012BA9
:10A4B00008D15E496B00CA185278C95C0EA8FF2308
:10A4C000FFF7CEFA0135192DEFD16B4614229A5EB3
:10A4D0006B460EA81021595E089BFFF7C1FA002FAA
:10A4E00001DB0F2E07DD0022A068009274301300FC
:10A4F0000EA90BF05CF900230693069B04985A0002
:10A500004A4BD15C814227D19B185B78059A9342D4
:10A5100022D12C2206AB9B18069A9B5C012B1BD0E8
:10A520000C23079A216853431D0000220AA80BF050
:10A5300062FB1FAA2B0094460AAA634423CA23C3C2
:10A540002C2206AB06999B182B3A5A54079B0136CE
:10A550000133DBB20793F6B2069B01330693192B46
:10A56000CBD16420643F0EF035F83FB245E7002FB1
:10A5700002D00F2E00D05DE7A06800F09BFA59E7EB
:10A580001FA918A8079A0BF045FD6A461BAB23CB01
:10A5900023C21B6813601899199A1A9B20680BF044
:10A5A00012FBE568002D0CD0214910A8FFF7DAF95D
:10A5B0001C2318AA10A928000CF054FA10A80AF0BD
:10A5C000FFFFA0680BF0B1FE0FA910A8A5680BF063
:10A5D000C1F80022174B009210A901932800130024
:10A5E00000F0AAFA10A80BF0A8F8FA2080000DF0ED
:10A5F000F1FFA0680BF099FE0999A06800F0B2FB8A
:10A600000FA80BF09AF80EA80BF097F86BB0F0BCFF
:10A6100008BC02B01847C046A49502008C3C00005C
:10A62000D18AFFFFE995020058FDFFFF099602005D
:10A63000FE950200DC050000F0B587B001930EAB7B
:10A640001B88060003930D9B0D000093019B029253
:10A650000C9F002B3ED0002F02D1009BDB0739D589
:10A6600028200EF0B8F8040010300BF038F86B46D4
:10A670001B891820258063800EF0ADF80497070031
:10A680000500009B10220593019B002108C738009C
:10A6900008F0E0FE082204A9380008F049FE0E4B3D
:10A6A00002226B6100230399E360236263623368D3
:10A6B0000A43A560A2805B6821003000984700280B
:10A6C00006D020000AF032FF20000EF080F8034888
:10A6D00007B0F0BD0248FBE7375C020016FCFFFF45
:10A6E00017FCFFFF70B58CB08360109B0160426067
:10A6F000C3600400184918000CF07FF9051E14D03F
:10A7000001001C22103105A808F012FE6A4608ABB1
:10A7100043CB43C21B68136020680599069A079BC8
:10A720000BF051FA28000EF052F80C4B1868002874
:10A730000ED00B4A05AB059200220692C03202925F
:10A740006A4622CB22C2230003220521FFF774FFB1
:10A7500020000CB070BDC046FE95020020250020F0
:10A760009DA30100F0B5040085B0637A9C46002BE0
:10A7700004D120000BF06BFC05B0F0BDA37A266F6E
:10A7800001931023019AF35600259B1801229A4049
:10A790002900F36802920393039B9D4231DAB36868
:10A7A000019A6B439B1872695B00E77AD3181A7899
:10A7B0005878E379012F14D15F1E3F1A10003A0038
:10A7C0005B004343606F8218D3189B79634500DDBB
:10A7D0006346627B1A4202D00123AB401943013524
:10A7E000DAE7022F05D15F1EBA1A277A013F381A1D
:10A7F000E6E7032FE4D1277A013FBF1A02003800B1
:10A80000DEE71123C943F356606C99402369194070
:10A81000029B19430DF09EFFA37B072BACDC627BF0
:10A82000581C520062730B499A00A073022B03DC80
:10A8300088580DF0C4FE98E7074B200023630023DF
:10A840006363064B8958E462236414300DF042FDC3
:10A8500092E7C046F488020065A701003B60020051
:10A8600010B50400044B03600DF02CFD200005F032
:10A87000C7FE200010BDC0465090020010B5040075
:10A880000E4B08330360FFF75FF8200074300AF0C6
:10A8900054FF200060300AF050FF200058300AF0CA
:10A8A0008FFE200050300AF08BFE2000044B143045
:10A8B0006361FFF7D5FF200010BDC0461489020078
:10A8C00064900200F8B500250400324B85800833FF
:10A8D00003608571143016000F0005F07BFE200028
:10A8E0002D4BE562636125645030FFF775F8200059
:10A8F0005830FFF771F820006030FFF79BF8200018
:10A900000423F25E33682667590009B274300AF0F6
:10A9100041FF3378226FE37173680126237210239D
:10A92000E572A572A7802561D356916859188B42AC
:10A9300004DA3000984001330543F8E71123012081
:10A94000D356D16859188B4206DA02009A4026691C
:10A95000013332432261F6E714200DF03CFF2269F7
:10A9600000212A430123060006F05CF9FF226272EF
:10A97000220000230125483266646573A3732373A4
:10A9800020001370A366FEF7C1FFA37920001D43CA
:10A99000A571F8BD1489020064900200F0B5437AF5
:10A9A00085B00400002B04D120000BF050FB05B053
:10A9B000F0BD0122837A11009C461023066F00250A
:10A9C000F35603926344994001912900F36802937E
:10A9D000029B9D422CDAB36872696B4363445B004F
:10A9E000E77AD3181A785878E379012F10D15F1ECF
:10A9F0003F1A10003A005B004343606F8218D3187F
:10AA00009B79002B02D0039BAB4019430135DFE754
:10AA1000022F05D15F1EBA1A277A013F381AEAE7DA
:10AA2000032FE8D1277A013FBF1A02003800E2E77E
:10AA30001123C943F356606C994023691940019B67
:10AA400019430DF087FE667AB31EDBB2FC2B14D8D7
:10AA5000FEF70AFF0B4B0500236300230A486363DC
:10AA60000A4BFF21E4622364704306F075FC290061
:10AA70004143200014300DF02DFC637A012B00DDE2
:10AA800095E791E74F600200B60300003B600200CB
:10AA90001FB5012381881A0068460AF02BFE0123A6
:10AAA00003491A0068460AF025FE05B000BDC046FD
:10AAB000FE0300001FB5030048331A780400002A83
:10AAC0000DD000221A70012381881A0068460AF00E
:10AAD00011FE012304491A0068460AF00BFE20000B
:10AAE00074300AF04EFE1FBDFF03000010B5483061
:10AAF0000378002B06D00378012B03D001210248F4
:10AB00000AF068FC10BDC046FF03000010B501212B
:10AB1000040006200AF05EFC064B984208D1483437
:10AB20002378002B04D02378012B01D020BFF7E736
:10AB300010BDC04616FCFFFF73B5079C0500002C36
:10AB40000ADB060048363078002807D03078012824
:10AB500004D00C4C200076BD0B4CFBE76846007E11
:10AB60001BB20090280012B274300AF020FE002CB4
:10AB7000F0D02B004A331C80002407234C352C8056
:10AB80003370E7E712FCFFFF17FCFFFFF0B587B05B
:10AB90000D9C06000F0002920393002C20DBFFF7B0
:10ABA000A5FF330048331D78EDB2002D1AD13900CE
:10ABB00005A80AF0CFFD0C9B01940093029A039B19
:10ABC00005A93000FFF7B8FF05A80AF0B6FD002C74
:10ABD00003D03000FFF79AFF2C00200007B0F0BD33
:10ABE000014CFAE7014CF8E717FCFFFF11FCFFFFEF
:10ABF000F8B50400171E09DD060048363378002B2F
:10AC000006D03378012B03D00C48F8BD0C48FCE784
:10AC10002200E3795632013B137023000025200007
:10AC200054331D8050300AF028FD23004A331F8022
:10AC300002234C34258028003370E6E712FCFFFF26
:10AC400017FCFFFFF7B505000F00161E18DDFFF714
:10AC50004DFF2B0048331C78E4B2002C12D1390090
:10AC600001A80AF002FD320001A92800FFF7C0FF89
:10AC700001A80AF0A5FC2800FFF748FF2000FEBD50
:10AC80000148FCE70148FAE717FCFFFF11FCFFFF52
:10AC9000F8B50400161E0DDD070048373A78002A83
:10ACA0000AD03A78012A07D01548F8BD6B46182219
:10ACB0009B5E07E01348F8E75D42069BFF33F5D142
:10ACC0006B1D1BB222006432138023002000663308
:10ACD0001D7060300AF046FD230000226C331A70AC
:10ACE000954200D0350023004A331D80079B013E6A
:10ACF0005A1E93414C340533268000203B70D4E724
:10AD000012FCFFFF17FCFFFFF0B587B005000F0036
:10AD1000161E03931EDDFFF7E9FE2B0048331C7857
:10AD2000E4B2002C18D1390005A80AF013FD0D9BE0
:10AD3000320001930C9B05A900932800039BFFF7A9
:10AD4000A7FF05A80AF0F9FC2800FFF7DFFE2000A6
:10AD500007B0F0BD0148FBE70148F9E717FCFFFF2A
:10AD600011FCFFFFFF2902D8417200207047014803
:10AD7000FCE7C04617FCFFFF13B5040004A80078E9
:10AD8000009020000DF011FA002801D1207516BDA9
:10AD90000048FCE70EFCFFFF13B5040004A8007890
:10ADA000009020000DF0E9F9002801D1207516BDB2
:10ADB0000048FCE70EFCFFFF7FB50D0011000F22DD
:10ADC0006A4404001E1E117016D0089B002B13DD70
:10ADD000012329000093FFF7DFFF002802D0074876
:10ADE00004B070BD0090089B320029002000FFF7DE
:10ADF000C3FF0028F4D0F2E70148F1E70EFCFFFFA3
:10AE000017FCFFFFF7B507000D1E3FD000230226F9
:10AE100004690193002C35D0AA88A388534033429B
:10AE200004D1324204D1AB88334226D0646AF1E7C0
:10AE3000A968A0680CF0D9F80028F4D02B88002B62
:10AE400002D022889A42F1D16B88002B02D062880E
:10AE50009A42EBD1EB68E268934201D0002BE5D136
:10AE60007B68002B01D020009847A288084B134331
:10AE7000A380019B01330193D8E7A368AA6893429A
:10AE8000D4D1DBE7019B2000002B00DC0148FEBD94
:10AE90000080FFFF17FCFFFFF0B5060085B00D1E18
:10AEA00000D160E001270469002C26D00221AA8885
:10AEB00000230A4202D0A3885B083B40226829682D
:10AEC0008A4218D1002B12D0A968A0680CF08DF826
:10AED000002810D0EB68E26893420CD1A3881AB224
:10AEE000002A02DA5B045B0CA380204811E0A3680F
:10AEF000AA689342EED0646AD6E731692A880F00C7
:10AF00000B1E08D135610123194968460AF0F2FB8E
:10AF1000002005B0F0BD1888904205DA586A1F007D
:10AF200000280ED00300F6E718003B000488944286
:10AF300007D147886C88A74203DC446A0300002CD1
:10AF40000BD199420BD10888824204DB07D14C888F
:10AF50006888844203DD6962D4E72000E6E7596A25
:10AF600069625D62CFE70348D3E7C04616FCFFFF86
:10AF7000FD03000017FCFFFF064B10B51A0004008C
:10AF800008322C33026083600830FEF72FFA20006D
:10AF900010BDC0462C89020008B4024B9C460838FC
:10AFA00008BC604779AF010008B4024B9C460838E2
:10AFB00008BC60479D6402000C4A002311002C323B
:10AFC000083110B5436083818373826003614361FC
:10AFD0008361C383016004000830FEF7F9F9044B74
:10AFE0001A68002A00D11C60200010BD2C890200C4
:10AFF00020250020F7B50E00012504690192002CE0
:10B0000036D0238832889A4201D0002B2AD1638817
:10B0100072889A4201D0002B24D1FEF74DF901230A
:10B02000002806D0C022A3881340C03B5A42534197
:10B03000DBB2019A934214D1A7883BB2002B10DBFC
:10B0400010223100A01808F073F940231F420BD1E1
:10B05000FEF732F9002807D021000648FEF7DCFA97
:10B0600000E00025646ACAE720000BF020FAF9E747
:10B070002800FEBDAF64020008B4024B9C460838AD
:10B0800008BC604737660200F0B587B001930EAB8D
:10B090001B88060003930D9B0D000093019B0292F9
:10B0A0000C9F002B3ED0002F02D1009BDB0739D52F
:10B0B00028200DF090FB040010300AF010FB6B46C6
:10B0C0001B891820258063800DF085FB04970700FD
:10B0D0000500009B10220593019B002108C7380042
:10B0E00008F0B8F9082204A9380008F021F90E4B3D
:10B0F00002226B6100230399E36023626362336879
:10B100000A43A560A2805B682100300098470028B0
:10B1100006D020000AF00AFA20000DF058FB034880
:10B1200007B0F0BD0248FBE77166020016FCFFFFA6
:10B1300017FCFFFFF0B50400160000258380164AB7
:10B14000164B85710260218146810573186889B0AC
:10B150008C46A8421DD0124A05950492C022029244
:10B160006A4604AB82CB82C2614623002A00FFF705
:10B170008BFF0B4A094B0692C022186802926A465E
:10B1800006AB079582CB82C223002A003100FFF76D
:10B190007BFF200009B0F0BD70890200202500204F
:10B1A0009B67020030B5002403730123034D8471B3
:10B1B0000560818082734373846030BD6C880200B7
:10B1C00070B583790400DB0702D580680DF0FFFAC3
:10B1D000A3799B0702D5A0680DF0F9FAA3795B0764
:10B1E00007D5A0230021144ADB00D150A0680DF040
:10B1F000EEFAA3791B0708D5A568002D05D0280015
:10B200000BF064FF28000DF0E2FAA379DB0605D508
:10B21000A068002802D00368DB6898476023A27901
:10B220001A4205D0A068002802D003685B689847DE
:10B230000023A360A37170BD00700040F7B5012624
:10B24000037B040033422BD0612385791D4017D145
:10B25000FFF7B6FF18200DF0BEFA0E230700E356E5
:10B2600018220093637B2900019308F0F3F8019AF8
:10B27000009938000DF024F9A379A7603343A37136
:10B280006023A2791A4203D0A0680CF0AFFFFEBD84
:10B29000A3685A69586812681040431E9841F6E73F
:10B2A0000048F4E716FCFFFF10B5012483794173D1
:10B2B0001C4004D080680DF094F9002010BD60227D
:10B2C000134203D080680CF098FFF6E70048F5E7DA
:10B2D00016FCFFFF70B5040000250D4B0E0008336F
:10B2E000858085710360210018300BF009FB200078
:10B2F000210020300BF027FB064BA680A571E571DD
:10B300002572E5602561656120001C6070BDC04646
:10B3100080890200342500208379DB0702D5C160D3
:10B32000002070470048FCE716FCFFFF8379DB072D
:10B3300001D5C06870470148FCE7C04616FCFFFF16
:10B3400070B545690400002D20D0037A032B1FDC63
:10B35000FFF7ECFFA8622C200DF03DFA2C22002113
:10B36000050008F077F80023626953622369002B17
:10B3700007D122610020237A65610133237270BDF9
:10B380000B00596A0029FBD15A62F3E70148F6E73E
:10B390000148F4E717FCFFFF13FCFFFF144B70B5E7
:10B3A0005A68144C002A03D000225A600132A2606D
:10B3B0001A69002A17D0002119618023DB00E358A5
:10B3C0000D4D012B10D1A923DB00E158286849421B
:10B3D000FFF7A2FF2868FFF7B3FF2B685A69074BF6
:10B3E000E2500123A36070BD2868FFF795FFF8E7DE
:10B3F000FC1000400010004034250020040500002F
:10B4000003000069002809D00221054AD167426A79
:10B410001A611A7A013A1A72024B19607047C046D3
:10B4200004E100E000E100E010B5002903DB024B7D
:10B4300019600CF029FF10BD3825002070B50400FC
:10B440001E0004AB1D7805F08FF820000E4B403035
:10B450002360FEF7C1FA230001364C330135220088
:10B460001E701D730023E1214E32A36463651380B7
:10B4700053809381D381013B200063644902FFF72D
:10B48000D3FF200070BDC0461C880200F7B580279E
:10B490007F053D697C690822113C6C430600210050
:10B4A000684607F045FF104B009A9A4219D0009366
:10B4B0000023019379693000133969430BF058FA7E
:10B4C000019A009930000BF06BFA210030000BF06C
:10B4D0004FFA7969AB0813396943220030000BF049
:10B4E00051FA0198FEBDC046FECA0000F0B50D003D
:10B4F000ABB00D9200213022060012A80B9307F08A
:10B50000A9FF280008F00EFA431C0C93102B00DD55
:10B51000B7E00B9B202B00D9B3E0290030000BF0E3
:10B520006CFA071E56D129000C9A12A807F000FFEA
:10B530000D990B9A16A807F0FBFE80235B051F6987
:10B540005A693000113A7A435D690D92FFF79EFF08
:10B550000D9B30220833002104001EA80F9307F032
:10B5600079FF29001339794330000BF001FA0F9B62
:10B570000B9300230C930E930C9BA34249DA0B9977
:10B5800030221EA807F0D4FE12A91EA808F086F9E2
:10B5900000282DD13D4930002200109111940BF06C
:10B5A000FFF96A460B9B099315AB23CB23C223CB30
:10B5B00023C223CB23C23000149B1299139A0BF0A1
:10B5C000FDF901230E930B9B30330B930C9B01333E
:10B5D0000C93D1E710300B9A0D9907F083FE04000D
:10B5E00038000DF0F4F8002C9DD120002BB0F0BDF8
:10B5F0006A460B9B099321AB23CB23C223CB23C2E7
:10B6000023CB23C230001E991F9A209B0BF0D6F942
:10B61000D9E7E5433021ED1725404D430F9B5D19D8
:10B620000E9B002B1BD1B81E05F00CFE84422AD0C5
:10B630001649013430002200109111940BF0B0F93A
:10B640006A46099515AB23CB23C223CB23C223CB58
:10B6500023C230001299139A149B0BF0AFF90D9985
:10B6600030000BF085F980235B0559690C23634397
:10B670001339023379430D9A30000BF083F900241B
:10B68000B3E7034CB1E7034CAFE7C046FECA000086
:10B6900017FCFFFF13FCFFFF8023F0B55B051A6961
:10B6A00095B002925A6905910299113A51435C6929
:10B6B000029B133C050003915C43FFF7E7FE061E67
:10B6C00039D00027039B302208330021083408A812
:10B6D000019307F0BFFE210028000BF049F9049701
:10B6E000B74220DA0199302208A807F021FE059917
:10B6F00008A808F0D3F800280DD11A49721E2800B6
:10B70000069107920BF04CF901230493019B01373A
:10B7100030330193E4E722000C23019928000BF059
:10B7200031F93034F2E7049B002B06D10D49320089
:10B7300028000BF035F90C4812E0039928000BF0B3
:10B7400017F980235B0559690C23029A13394A4380
:10B750007343110028000233039A0BF013F9002001
:10B7600015B0F0BDFECA00000CFCFFFF70B5040070
:10B77000A280FA22002308000C49920008312160BF
:10B78000A3716061E260A360638209490BF035F93F
:10B79000051E09D00100200010310222123007F0EE
:10B7A000C7FD28000DF013F8200070BD9889020035
:10B7B0003B96020030B50225837987B004002B4206
:10B7C00004D1FDF705FEA3791D43A57120000BF000
:10B7D0005AF900281CD06B46DD1C28000BF04AF9F2
:10B7E0002B78002B17D001A80BF042F90321019A06
:10B7F000D3170B409B189B102382FEF76FF8E3686A
:10B80000A18818180123A0601A0002A809F072FF8D
:10B81000002007B030BD0122064B1A60064A51686D
:10B820000029FCD000215160044A126801920122D3
:10B830005A60DBE700C00040FCC0004008C5004083
:10B84000022802D10122014B1A707047B82A002049
:10B8500070B5064C05002378002B04D1044802F093
:10B8600089FC01232370280070BDC046B92A00203E
:10B8700041B8010070B50C0009F03AFD002810D065
:10B880000023144DA40A2B7020000BF010F900289F
:10B8900003D00A200CF09EFEF6E72B78002BFCD09C
:10B8A00070BD02210C4B0D4A99508021C90008003F
:10B8B0005D58002DFCD0A121C9005C501958002909
:10B8C000FCD0002199508021C9005A58002AFCD090
:10B8D000E6E7C046B82A002000E001400405000069
:10B8E000F8B50C0015001E0009F002FD002811D06B
:10B8F0000023174F3B703200290020000BF0D5F8D1
:10B90000002803D00A200CF065FEF4E73B78002BFA
:10B91000FCD0F8BD01210F480F4B844619508021FF
:10B92000C9005A58002AFCD080270022FF00964206
:10B9300007DD910068586050D9590029FCD00132C8
:10B94000F5E7002261465A50DA59002AFCD0E0E7B8
:10B95000B82A00200405000000E0014008B4024BB2
:10B960009C46443808BC6047B36A0200FA21F8B527
:10B970000389C9000400594332480BF04CFBFA21FB
:10B98000890005F05FFC304F2081A17A38000BF070
:10B9900042FB23002600250022894C33A072A036EA
:10B9A0001A808C35317800232A2228680AF0CAFCD4
:10B9B000002801D02548F8BD31781F235B22286874
:10B9C0000AF0C0FC0028F5D1317820235C222868D9
:10B9D0000AF0B8FC0028EDD1317801232C22286828
:10B9E0000AF0B0FC0028E5D1317801232D22286827
:10B9F0000AF0A8FC0028DDD1317801232E22286826
:10BA00000AF0A0FC0028D5D1A17A38000BF0FEFA8C
:10BA10003178C3B20E2228680AF094FC0028C9D1FC
:10BA2000FA2123898900594306480BF0EFFA0123D4
:10BA30000343DBB231782A2228680AF083FC00280D
:10BA4000B9D0B7E7B8890200B08902000EFCFFFF49
:10BA500008B4024B9C46443808BC60476DB90100ED
:10BA6000074B10B51A00040008323C3302604364EF
:10BA700044300AF064F8200009F08DFF200010BD6A
:10BA8000188A020008B4024B9C46443808BC604740
:10BA900061BA010008B4024B9C46443808BC6047B8
:10BAA000BD6A0200F0B5042583798BB004002B42F7
:10BAB00004D1FDF78DFCA3791D43A57120009030C2
:10BAC000FFF7BCFB0026B0420FD12300A03319784A
:10BAD00020000C2307AD00938C302B00012200685E
:10BAE000FFF76AF9061E03D02C4E30000BB0F0BDF4
:10BAF0000A2304AA9B182A785A706A781A700022BE
:10BB0000985EAA785A70EA781A700022995E0391BA
:10BB10002A795A706A791A7000229F5EAA795A703F
:10BB2000EA791A7000215A5E04922A7A5A706A7A67
:10BB30001A7000215A5E0592AA7A5A70EA7A1F2575
:10BB40001A7000229B5EA27A9C46039B5043594286
:10BB50005143CB172B407A435B185B11A361C3178A
:10BB60002B401818D3171D406423AD18059A5B426B
:10BB70005343A36764236146049A40115A434B43DD
:10BB8000E2676D11221DE06125622000D36709F094
:10BB90007BFF2000443009F0D9FFA6E70EFCFFFF31
:10BBA00008B4024B9C46443808BC6047A5BA010063
:10BBB000F7B51E00040008AB1B881500019309AB04
:10BBC00000911A8831000AAB1F88FEF7BBF82000ED
:10BBD0003A0031004430FEF711FB134B20001A00ED
:10BBE0003C336364230008322260009A8C331A606D
:10BBF000AB8890308380AB796A4683710B4B928817
:10BC00000360AB68032183602B7B03736B7B4373FF
:10BC1000AB7B83732300A0331A80FFF745FB200022
:10BC2000FFF7A4FE2000FEBD188A02006C88020007
:10BC3000F8B5FA260189B6000400714326480BF0D6
:10BC4000EAF9310005F0FEFA244F2081A17A38008C
:10BC50000BF0E1F92500A0725835297800232A223B
:10BC6000606C0AF06FFB002801D01D48F8BD2978F0
:10BC700010232B22606C0AF065FB0028F5D129788F
:10BC800001232D22606C0AF05DFB0028EDD129789C
:10BC900001232E22606C0AF055FB0028E5D1A17A21
:10BCA00038000BF0B3F92978C3B20E22606C0AF0A9
:10BCB00049FB0028D9D12189074871430BF0A6F927
:10BCC00001230343DBB229782A22606C0AF03AFB95
:10BCD0000028CBD0C9E7C046808A0200788A0200DB
:10BCE0000EFCFFFF10B50400034B0833036009F09E
:10BCF00052FE200010BDC046E08A02007FB5042538
:10BD0000837904002B4204D1FDF762FBA3791D4324
:10BD1000A57120004830FFF791FA0025A8420DD107
:10BD2000230058331978062302AE00930122330012
:10BD3000606CFFF741F8051E03D00D4D280004B0DC
:10BD400070BD022300210420F356A27ADB00715655
:10BD500030565B425343C000C90051434243A36184
:10BD60002368E16122629B6A20009847E6E7C046AB
:10BD70000EFCFFFFF8B50400150006AA168807AAF6
:10BD80000F0012881900FDF7DDFF0F4B67640833C1
:10BD900023602300AA8848339A80AA7920009A71E8
:10BDA0000A4AA264AA6822652A7B1A736A7B5A73BC
:10BDB000AA7B9A730023A371230058331E80FFF7D8
:10BDC00037FF2000F8BDC046E08A02006C88020000
:10BDD00010B50400034B0833036009F0B0FE2000E7
:10BDE00010BDC046748B0200F0B507005C3787B009
:10BDF0000400397800231022806C0AF0A3FA03268D
:10BE0000002802D01F4807B0F0BD0F2502ABED1887
:10BE10000123397808220093A06C2B00FEF7CCFF99
:10BE2000184B9842EED02B78334203D06420FDF7B4
:10BE300067FBEAE7FA262189134DB6007143280013
:10BE40000BF0E9F8310005F0FDF920813978A023E5
:10BE50001122A06C0AF076FA0028D3D1A36C2189B4
:10BE60000393714328003F780BF0D0F80123184367
:10BE7000C3B21022390003980AF064FA0028C2D035
:10BE8000C0E7C0460EFCFFFF148B020070B508250A
:10BE9000837986B004002B4204D1FDF799FAA37987
:10BEA0001D43A57120004C30FFF7C8F9061E0DD0C8
:10BEB00023005C331978062304AD009301222B0084
:10BEC000A06CFEF779FF061E03D0134E300006B0BB
:10BED00070BD0E232A786B445A706A7820001A705D
:10BEE0000022995E64224A43A263AA785A70EA78D3
:10BEF0001A700022995E642252425143616329798B
:10BF000059706979197000215B5E5A432368E263B6
:10BF10001B6A9847DAE7C0460EFCFFFFF8B504003D
:10BF2000150006AA168807AA0F0012881900FEF746
:10BF300065F90D4BA764083323602300AA884C33AE
:10BF40009A80AA7920009A71084AE264AA68626518
:10BF50002A7B1A736A7B5A73AA7B1E829A73FFF735
:10BF600043FF2000F8BDC046748B02006C880200BD
:10BF7000F7B5FA250189204FAD0004006943380068
:10BF80000BF049F8290005F05DF9A17A20811B48E2
:10BF90000BF041F82600636CA0720093218958369B
:10BFA00033786943380001930BF030F807230343DB
:10BFB000DBB22022019900980AF0C4F9002801D0D0
:10BFC0000F48FEBD317810232222606C0AF0BAF9C6
:10BFD0000028F5D1A17A0948656C37780BF016F87E
:10BFE00080235B420343DBB22322390028000AF09E
:10BFF000A9F90028E5D0E3E7A88B0200A08B020096
:10C000000EFCFFFF10B50400034B0833036009F07A
:10C01000C2FC200010BDC046188C0200F0B50425FB
:10C02000837985B004002B4204D1FDF7D1F9A379BF
:10C030001D43A57120004830FFF700F9061E0DD002
:10C04000230058331978062302AD0093A8222B0051
:10C05000606CFEF7B1FE061E03D0144E300005B032
:10C06000F0BD1F200023EA5ED31703409B18022275
:10C07000A95E5B11CA170240521804216F5E52116B
:10C08000F9170140C91949112B806A80A980A07A4B
:10C090005B424343524242434143E3612368A2610E
:10C0A00021629B6A20009847D8E7C0460EFCFFFF3C
:10C0B000F8B50400150006AA168807AA0F00128812
:10C0C0001900FDF73FFE0F4B676408332360230020
:10C0D000AA8848339A80AA7920009A710A4AA264F1
:10C0E000AA6822652A7B1A736A7B5A73AA7B9A73A1
:10C0F0000023A371230058331E80FFF739FF20006F
:10C10000F8BDC046188C02006C880200F7B5FA250D
:10C1100004000189134EAD00694330000AF07BFF33
:10C12000290005F08FF82700A36C208100935C376D
:10C130003B7881B26943300001930AF067FF6022C7
:10C14000C3B2019900980AF0FDF8002801D0064812
:10C15000FEBD397801236222A06C0AF0F3F80028B2
:10C16000F6D0F4E74C8C02000EFCFFFF10B5040083
:10C17000034B0833036009F0E2FC200010BDC04609
:10C18000748C02007FB50825837904002B4204D10A
:10C19000FDF71EF9A3791D43A57120004C30FFF770
:10C1A0004DF8051E0DD023005C331978062302AE2E
:10C1B0000093E8223300A06CFEF7FEFD051E03D0BD
:10C1C0000B4D280004B070BD0223F25E96235B4243
:10C1D0005A4362630021725E20005343A363042329
:10C1E000F25E96235343E36323681B6A9847E8E7AC
:10C1F0000EFCFFFFF8B50400150006AA168807AA72
:10C200000F0012881900FDF7F9FF0D4BA7640833E2
:10C2100023602300AA884C339A80AA7920009A715F
:10C22000084AE264AA6862652A7B1A736A7B5A73B9
:10C23000AA7B1E829A73FFF769FF2000F8BDC046F3
:10C24000748C02006C88020010B50400054B0833A2
:10C2500003601C3009F0B4F92000183009F0B0F97F
:10C26000200010BDA08C0200FF23F0B52B4D8DB037
:10C270002B700023040069460088009303F070F9D6
:10C28000002802D16B469B782B70254E3368DB6803
:10C29000002B07D1002320881A0019000AF07EFC29
:10C2A0000DB0F0BD2B78032BF4DC1E4901A8FDF77F
:10C2B00059FB336801A9DE6804A809F0D6F904A97E
:10C2C00030000AF0C9FB060004A809F079F9371E0E
:10C2D0001ED031002022103104A807F029F83000C8
:10C2E0000CF075FA297804ABC9005918082202A885
:10C2F00007F01EF820880123082202A90AF04EFC4C
:10C300000127002804D12088074A0C210AF044FCA8
:10C3100001A809F055F9002FC2D1BBE78520002004
:10C3200048250020CE960200FFFF0000F0B583797B
:10C3300091B004005B071BD5FDF7D0FA00232269FA
:10C34000801A9941994203D1F423FF3398420FD9BF
:10C35000A068002808D0364B1D8801F061F90368F9
:10C3600015221B6A290098470422A3799343A371DD
:10C37000A3799B0759D52F4D2B68DB68002B50D034
:10C380002D4B1B78032B4CDC294B2C491B8804A814
:10C390000193FDF7E7FA2B6804A9DE6808A809F005
:10C3A00064F908A930000AF057FB070008A809F053
:10C3B00007F902AB9E1D08233200338006A9073B14
:10C3C00001980AF0EDFB002F08D03900202210312F
:10C3D00008A806F0ADFF38000CF0F9F9164B3288CA
:10C3E0001B7806A9DE0008AB9E19300006F07AFF24
:10C3F000002813D0082206A9300006F099FF2B6808
:10C4000004A9DD6805A809F030F9202308AA05A9C8
:10C4100028000AF027FB05A809F0D2F804A809F0C3
:10C42000CFF80222A3799343A37111B0F0BDC046A7
:10C430005C2A00204825002085200020CE9602009E
:10C44000F7B5040000250192C77FBD4251DA661995
:10C450007078884218D1152927D801228A402748A8
:10C46000024222D0F91801201F291DDCE1193718DA
:10C47000B9420ED800218B420FDD019A7018575C2B
:10C4800001318770C9B2F6E7605D2D180135EDB254
:10C49000DBE70878C8540139EAE7625D9A1862550B
:10C4A000E27F9B18E3770020FEBD655D013DEDB2A4
:10C4B000AB4209D10023AB42F5DA019AF118D05C06
:10C4C00001338870DBB2F6E7DF197F1B01201F2FD5
:10C4D000EADC0227A81C7F4236187F1BE07F221867
:10C4E000964203D23078F0550136F7E7451B023DFE
:10C4F000E577019A20000AF09DFBD5E7FC002000BB
:10C50000F0B585B001930AAB1E880BAB1B78451CB8
:10C5100002930EAB1B78040003930B781700037093
:10C520004B8A102243820131280006F001FF6B463E
:10C530009B88268363836B461B7B002623776B4691
:10C5400001221B7A6761E683EB77A31CDA7724214B
:10C550000C9B0C2563622300200004AA5218127859
:10C5600028331A705E709E702A0031002C3006F05D
:10C5700071FF2000064BE663A3632A0031004030C0
:10C5800006F068FF2000034B2665E36405B0F0BDAC
:10C59000B76B0200A96B020070B50D0001F040F806
:10C5A00004000368002D09D15B699847FA208000D8
:10C5B0006843074904F046FEE08070BD9B689847D9
:10C5C0008542F3DA236820009B6898470500EDE771
:10C5D00071020000F0B507001600A1B002C7040008
:10C5E000684918A81D000AF057FB301E01D007F05B
:10C5F00099F901220492002283B20392029202323C
:10C6000001920093320018A93800FFF779FF230048
:10C610005D49583318A807930AF03EFB281E01D045
:10C6200007F080F901220492002283B20392029261
:10C630000232019200932A0018A90798FFF760FFC1
:10C6400023005249AC3318A808930AF025FB26981A
:10C65000002801D007F066F901220492002283B27B
:10C6600003920292023201920093269A18A9089826
:10C67000FFF746FF631CFF33454918A809930AF0EA
:10C680000BFB2798002801D007F04CF901220492F7
:10C69000002283B203920292601C02320192009344
:10C6A000279A18A9FF30FFF72BFF23005533FF33DC
:10C6B000384918A809930AF0EFFA2898002801D001
:10C6C00007F030F901220492002283B20392029211
:10C6D000023201920093289A18A90998FFF710FFD7
:10C6E0002300A933FF332C4918A80A930AF0D4FA7F
:10C6F0002998002801D007F015F9012204920022A0
:10C7000083B20392029218AD023201920093299AE9
:10C7100029000A98FFF7F4FE204B1B780B93002B9F
:10C720002DD1079B12971393089B0DAF1493631C95
:10C73000FF331593099B1A4916930A9B38001793E8
:10C740000AF0AAFA1D2149203B7810222B707B8A1F
:10C7500012AE6B8206ABC918C01806F0E9FD0623BD
:10C760002B756B469B8D2068AB83AE6100F068FF34
:10C77000036829001B6898470122084B1A702000A3
:10C7800021B0F0BD292A0000242A0000252A00003B
:10C79000272A0000262A0000282A0000BA2A0020A2
:10C7A0000A18000070B5002504000B4B8580083383
:10C7B00085710360C1601830FDF70EF920001C3050
:10C7C000FDF70AF90123621CD377044AA56065616D
:10C7D00020001460A37170BDA08C020048250020C9
:10C7E000FA2130B585B00500012302228900684690
:10C7F00008F080FF074C2068002809D00AF085FA6D
:10C800002988054B22681980022391790B43937183
:10C8100005B030BD482500205C2A002010B50C0072
:10C8200007290AD8806800F0FBFE064B19570368F9
:10C830005B6C9847002802D110BD0348FCE7034811
:10C84000FAE7C046C696020017FCFFFF16FCFFFF82
:10C85000F0B5A54C0D00A544040007939AAB1B78D6
:10C86000A24909A804930692FDF77CF8200029004C
:10C870001C3008F002FFC020800001F071FC08208D
:10C880000BF0A9FF0700002100F092FE15AD00217A
:10C89000A7600C220EA806F0DDFD2B000EAA43CAED
:10C8A00043C3934B2900EB60002338002B610AF04F
:10C8B00013FCA06800F0B4FE0C22002105902800B3
:10C8C00006F0C8FD14200BF086FF8A4B2A00159352
:10C8D0000300C2CAC2C3884B059EC3600023A436AE
:10C8E00003613368002B00D0F7E03060A06800F0EF
:10C8F000A7FE0C2200210600280006F0ABFD142044
:10C900000BF069FF7D4B1593030086CD86C37C4BEE
:10C91000C36000230361336B002B00D0DFE0306382
:10C92000A06800F07DFE15AD0C2200210600280055
:10C9300006F090FD14200BF04EFF724B98361593C5
:10C94000030086CD86C3704BC36000230361336848
:10C95000002B00D0C5E0012504AB1B7C04AA2B43AF
:10C96000306008A9280013740AF01CF9A06800F0D0
:10C9700077FE036865495B6A9847A06800F070FE1F
:10C98000036863499B699847A06800F069FE00232B
:10C9900002680093166804992A00B047049B002B94
:10C9A0000AD020000AF0BAF9032805DDA06800F0DB
:10C9B00057FE0368DB6898470EA80AF032F92F206B
:10C9C00004ABC0180AF02DF9362004ABC0180AF0E9
:10C9D00028F93D20042504ABC0180AF022F90EAB5B
:10C9E0000A93A06804AB5D7700F03AFE03680AA9D9
:10C9F0001B699847A06800F013FE03680AA95B6DE5
:10CA00009847A06800F00CFE03680021DB6D984792
:10CA1000A06800F005FE036802219B6D9847002185
:10CA20002000FFF7FBFE18200BF0D5FEA16800F0F8
:10CA300057FA384B384A1B68A1680393374B15A83F
:10CA40001B680CAE0293364B00271B680193069BB4
:10CA50001B685B190093334B12681B68FFF7BAFD24
:10CA600030200BF0B8FE079AA16800F0FFFAA0682A
:10CA700000F0D6FD036831009B6A98470823A06840
:10CA80003380DB187380B78000F0CAFD0368310083
:10CA9000DB6A98472900A0680AF00AF9099A092177
:10CAA0009378A06852190AF016F9A06800F0B8FD52
:10CAB00032210771A068FFF76FFD04AB1B7FBB42FB
:10CAC00004D0A06800F0ACFD0AF0DCF809A808F07A
:10CAD00077FD95239B009D44F0BD036105E703614D
:10CAE0001DE7036137E7C046ACFDFFFFB3970200C7
:10CAF000C56B0200E1C70100D36B020069C20100EF
:10CB0000E16B02000F6C0200EF6B020029CB010009
:10CB10005DCB010044250020402500200820002096
:10CB20003C2500200C20002013B506226846FCF7A7
:10CB300029FF094B1C68002C0AD0694601A808F09F
:10CB400094FD200001A90AF00AF901A808F038FDB7
:10CB5000684608F035FD13BD48250020002373B555
:10CB600001AE0C0031000500019302F0F9FC002831
:10CB700002D1B278064B1A70064B1868002806D00E
:10CB800061426141044BC9B21D800AF0F0F873BDE7
:10CB900085200020482500205C2A002030B5284C44
:10CBA000A9B06A220D000DA8210006F0C1FB0DA955
:10CBB00003A8FCF745FF03A906A808F0CBFD012355
:10CBC0000193013BFF3B00930533FF33642206A929
:10CBD0002800FEF799F806A808F0AFFD21001922F9
:10CBE0006A3106A806F0A4FB05220024110006AB5A
:10CBF00004A808F0D6FD04A905A808F0ABFD01942F
:10CC000000942300220005A92800FDF7BFFF05A816
:10CC100008F093FD21002800FEF7A4F80534052054
:10CC2000FCF76EFCFF2CF5D1FA208000FCF768FCC5
:10CC300004A808F082FD03A808F07FFD29B030BDEC
:10CC400043960200F0B59D4B95B005921A680823F3
:10CC500007000291D16C06A80B43D3649849FCF7F6
:10CC600081FE984907A8FCF77DFE3A0000240DAD2F
:10CC700028001C3206A908F00FFD07AA290008A801
:10CC800008F00AFD280008F09BFC7B1CDC77B868E4
:10CC900000F0C6FC03680BAE5B699847280009F0FA
:10CCA000C0FF2B2004ABC01809F0BBFF322004AB3F
:10CCB000C01809F0B6FF392004ABC01809F0B1FF65
:10CCC0000B950425B8687571347100F0A9FC0368F0
:10CCD00031005B6D9847B86800F0A2FC0368210042
:10CCE0009B6D9847B86800F09BFC030006000A3370
:10CCF0001F2221001800039306F0ACFB039B3000B9
:10CD0000DC7709F0B6FF0621B86809F0D1FF089A70
:10CD100009219378B868521909F0DDFFB86800F06E
:10CD20007FFCC8210471B868FFF736FCB86800F0D2
:10CD300077FCFF260481B86800F072FC09F0A2FFBE
:10CD40000298FDF7B7FE3800FCF742FB0299380065
:10CD5000FFF724FF029938000AF01CF803940495A9
:10CD600001257B691D402DD0574909A8FCF7E4FE39
:10CD700009A90AA808F0EEFC00220AA913000192F2
:10CD800000920298FDF702FF0AA808F0D6FC039B68
:10CD9000002B42D1043E282E41DD0025FE2E00DC72
:10CDA000039D059808F0B7FE002806D001237A6994
:10CDB0009A431300049A13437B61002409A808F0E6
:10CDC000BCFC03957B69049A134233D0FF2102987F
:10CDD000C825FDF7C7FF0024AD00BB6902229B5E9A
:10CDE0009C4222DA380021B2183008F06BFC002394
:10CDF000010002981A007430FCF7EEFE2800FCF7E0
:10CE00007FFB029809F091FAC820FCF779FB022217
:10CE10007B69134209D10134DFE70436BBE702988E
:10CE200009F083FA002EBCDDBAE7FA208000FCF797
:10CE300067FB002402237D691D421CD006331D4080
:10CE400024D0224909A8FCF777FE09A90AA808F00E
:10CE500081FC00220AA90192009213000298FDF7BA
:10CE600095FE0AA808F069FC1948FCF749FB09A8D7
:10CE700008F063FC174C6420FCF742FB164B0134AE
:10CE80009C4200DC6CE708F045FA69E7134909A801
:10CE9000FCF752FE09A90AA808F05CFC2B002A0046
:10CEA0000AA9019500950298FDF770FE0AA808F0FE
:10CEB00044FC09A808F041FCDDE7C046CC24002072
:10CEC000DA960200EA960200EC9602003197020020
:10CED000983A00008C0A00008B0A00006E9702004E
:10CEE00000225C4BF0B50833060003600F00100011
:10CEF000A9B0B1600BAB991801324870102AFAD171
:10CF00000F3A554C1A700E32105D991A0874013A96
:10CF1000FAD2997B5A7B09020A4331000C31039102
:10CF200025211B7813AD2B7002ABC918452302A82D
:10CF30001B186A821800102206F0FAF9039B64217C
:10CF40006B610123002402AA2B832B77521809332B
:10CF500013701DAB1C706D2302AA9B181C706E23EE
:10CF600021009B181EA80C226C83EC836C621C7041
:10CF700006F070FA394B0C22210023A8AB63EC6356
:10CF800006F068FA364B0322EB64462302A95B18CD
:10CF9000DA7722002C650595347306AD2B19013420
:10CFA0005A70102CFAD101232E482B700E33195CC5
:10CFB000EA1A1174013BFAD211212520AA7B6B7B5E
:10CFC00012020BAC13432A78638202ABC918227099
:10CFD000C018102206F0ACF90123237505ABA3613C
:10CFE00000233800A38300F02BFB036821001B689B
:10CFF000984713ABDB8BB068B38200F021FB0022B3
:10D0000003680092B18A039ADC680123A047B068E4
:10D0100000F016FB070014200BF0DDFB04000C22CF
:10D02000002106F017FA002320002361069340C078
:10D03000013308222900079306F07AF90A4BE360CE
:10D04000BB69002B03D13000BC6129B0F0BD236166
:10D05000F9E7C046B88C0200C7970200B76B020020
:10D06000A96B0200D7970200F76D0200F0B5002609
:10D070000400774BDDB0083303608160C2608680B6
:10D0800086713200734947A809F055FF2300143315
:10D0900008931223012501930E3B04950093089AEF
:10D0A000330047A9039602961DA8FFF729FA32001C
:10D0B000694947A809F03FFF0C2322000193083B70
:10D0C00015AF10320495009347A9330003960296DA
:10D0D00032A8FFF715FA32006049380009F02BFF3B
:10D0E00023001C33099308230193043B3900049562
:10D0F0000093099A33000396029647A8FFF700FAB7
:10D1000032005749380009F016FF54200BF063FB3A
:10D11000230018330793122301930E3B3900049523
:10D120000093079A3300039602960690FFF7E8F9FA
:10D13000069B0822A3624B4B0AA90A93069B0B96F7
:10D140001800DC62303006F0F3F8069A464B26826F
:10D1500093631300668229331D7023690422E361FF
:10D160000999079806F0E4F804220799089806F050
:10D17000DFF86622032304A95218D377BA22521883
:10D18000D377872252005218D377069A3749023252
:10D19000D3771DAB0C9332AB0D9347AB0E93069B2D
:10D1A0003200A68510A80F9309F0C5FE3022312168
:10D1B000452004AB9B181B7812323B7004AB9B18C4
:10D1C0001B88323A7B8204ABC918C01806F0B0F84D
:10D1D00004230CADA0683B75BD61BE8300F030FA3E
:10D1E000036839001B689847822204AB9B181B8890
:10D1F0005432238404AB9B181B885432A38404ABA1
:10D200009B181B88A068638400F01AFA070014209A
:10D210000BF0E1FA05000C22310006F01BF92800A2
:10D22000134B2E61082210C010A91093119606F01E
:10D230007FF8104BEB60BB69B34206D1BD612000A3
:10D24000FCF7C6F820005DB0F0BD2B61F6E7C046E4
:10D25000C48C020007980200E7970200F7970200CB
:10D2600017980200096F0200756E020027980200ED
:10D27000E1D201009F6E0200F0B504000E0015001F
:10D2800085B000930CAB1B881030019308F027FA8F
:10D290002680658018200BF09EFA070002AE33004E
:10D2A0003D000AAA03CA03C3009B102208C500213F
:10D2B000280006F0CFF831000822280006F038F8E0
:10D2C000064B02227B61200000230199A7600A43DC
:10D2D000E360A2802362636205B0F0BDC96E020004
:10D2E000F0B50B898DB00593CB68050004934B888E
:10D2F000828C9A420ED1049C059B049A1B1BD31866
:10D30000032B39DD62882188012308A808F0F2F98F
:10D310000434F1E7428C9A422ED1049C059B049A76
:10D320001B1BD318032B27DD238828200693638833
:10D33000EF680793114B0893002309930BF04BFA06
:10D34000C0236A460600029308AB03CB03C22B003E
:10D350000699079A3000FFF78FFF3B6831005B6842
:10D3600038009847002805D0300008F0DFF830007A
:10D370000BF02DFA0434D1E70DB0F0BD876F020039
:10D3800070B5040090B0806809F0F8FD02210140FA
:10D390001AD1A38D002B17D00C4B6A46049310238F
:10D3A000E568A1850591029304AB41CB41C20A0017
:10D3B000230006A8FFF760FF2B6806A99B682800DA
:10D3C000984706A808F0B2F810B070BD876F020049
:10D3D000002815D0006041608260C360046145612F
:10D3E0008661C761444604624C4644625446846286
:10D3F0005C46C462644604636E4646637446846356
:10D40000002A06D0C46B043C043A25681560B44277
:10D41000F9D18C6BA6464E6BB546002B06D0CC6B73
:10D42000043C043B1D682560B442F9D10C6BA44652
:10D43000CC6AA3468C6AA2464C6AA1460C6AA046F6
:10D44000CF698E694D690C69CB688A68086849683C
:10D450007047006041608260C3600461456186611D
:10D46000C761444604624C464462544684625C464A
:10D47000C462644604636E46466374468463C46B48
:10D48000043C043925680D60B442F9D1C769866946
:10D49000456904697047006041608260C36004614F
:10D4A00045618661C761444604624C464462544605
:10D4B00084625C46C462644604636C46446374469A
:10D4C000846304697047846BA646446BA546046B6D
:10D4D000A446C46AA346846AA246446AA146046A72
:10D4E000A046C769866945690469C368826800689F
:10D4F0004168704710B5041E0CD006F013FA431EA5
:10D50000E3189C4208D222781978013B21705A70A6
:10D510000134F6E7014810BD0020FCE717FCFFFFCF
:10D52000F0B585B002900C1E2AD00023C217161A3F
:10D5300056400193019B30005D1C63190A215F1E58
:10D54000039303F0EFFF49423031397030000A2174
:10D5500003F002FF47420600002F0FD1029B002B71
:10D5600004DA2D23019D039A023513700023200055
:10D570006355FFF7BFFF380005B0F0BD0195D9E74F
:10D58000004FF8E717FCFFFF0268084B406810B532
:10D59000C018C00010180300934205D31C688C42C9
:10D5A00002D31800083BF7E710BDC046FFFFFF1F7E
:10D5B000002370B504000160436099420AD1064D12
:10D5C0002B68002B02D109F0D4FF286023689B0050
:10D5D000EB586360200070BD5C25002070B500280A
:10D5E0000DD10C4C2668002E07D108300BF0F3F853
:10D5F00005003100FFF7DCFF2560206870BD0122C7
:10D60000054906480B681340F8D1026043600A6080
:10D61000F4E7C046502500204C250020542500206A
:10D62000436810B50400002B02D104480AF01AFF29
:10D63000606803681B69984710BDC04637980200B0
:10D64000436810B50400002B02D104480AF00AFF19
:10D65000606803689B69984710BDC0463798020010
:10D66000436810B50400002B02D104480AF0FAFE0A
:10D67000606803685B6A984710BDC046379802002F
:10D6800000487047FFFF0000F0B597B005930368AE
:10D6900007AD1B680491039311002B00060091C98C
:10D6A00091C30024D36821000C220CA8EB602C61EC
:10D6B00005F0D0FE22000B4B10940F9311AB1C70A1
:10D6C000191901344A70102CFAD15A820193059B22
:10D6D0002A00009304990CAB3000039CA04717B0BC
:10D6E000F0BDC04625720200FC3070B5046C050028
:10D6F000002C0DD124200BF06EF8064B44608361A2
:10D70000054B8460C46004614461C46103602864A3
:10D71000286C70BDB08D0200988E0200FC3070B590
:10D72000C56B0400002D11D134200BF054F8084BC8
:10D7300085604360074B45610361074B0562C36128
:10D74000064BC5628362064BE0630360E06B70BD0D
:10D75000E08D0200D08D0200408E0200508E02004B
:10D76000608E02007FB503791548002B1CD0154E42
:10D77000154C33782000002B16D102AD280009F09B
:10D780002EFD002815D16B88592B12D12B78AA8831
:10D79000D91F01290AD800920C4A2021200005F047
:10D7A000EBFF01233370200004B070BD0092084AE3
:10D7B000F3E720220749200006F0E6F8F3E7C04629
:10D7C0005A980200DB2A0020BB2A0020749802002D
:10D7D00091980200B698020010B50400024B08C0F0
:10D7E00009F0E0FD200010BDD08D020010B504004E
:10D7F000024B08C009F0EBFD200010BDE08D0200D7
:10D80000064B70B5040003604068002804D0056929
:10D810000AF0DDFF2800F8E7200070BDC08D02008F
:10D82000064B70B5040003604068002804D0056909
:10D830000AF0CDFF2800F8E7200070BDF08D02004F
:10D84000064B70B5040003604068002804D00569E9
:10D850000AF0BDFF2800F8E7200070BD008E02002E
:10D86000064B70B5040003604068002804D00569C9
:10D870000AF0ADFF2800F8E7200070BD408E0200DE
:10D88000064B70B5040003604068002804D00569A9
:10D890000AF09DFF2800F8E7200070BD508E0200BE
:10D8A000064B70B5040003604068002804D0056989
:10D8B0000AF08DFF2800F8E7200070BDE48C02001C
:10D8C000064B70B5040003604068002804D0056969
:10D8D0000AF07DFF2800F8E7200070BDF48C0200FC
:10D8E000064B70B5040003604068002804D0056949
:10D8F0000AF06DFF2800F8E7200070BD048D0200DB
:10D90000064B70B5040003604068002804D0056928
:10D910000AF05DFF2800F8E7200070BD148D0200BA
:10D92000064B70B5040003604068002804D0056908
:10D930000AF04DFF2800F8E7200070BDB08D02000E
:10D94000FC3070B5046C0500002C0DD124200AF0C9
:10D9500042FF064B44608361054B8460C4600461F0
:10D960004461C46103602864286C70BDB08D0200FE
:10D97000988E0200104B10B5083303600F4B040063
:10D98000C36080230E4A5B00C250C018FCF768FFDA
:10D9900020000C4BB830E360FFF7B2FF2000AC3042
:10D9A000FFF79EFF2000A030FFF78AFF20006C30B9
:10D9B000FFF776FF200010BDC48E02000C8F02001E
:10D9C00064900200248D0200F0B50500040087B0C9
:10D9D000AC356B68AB60A868002807D0C36821002D
:10D9E0009847AB68002BF4D01B69F3E72500B035EE
:10D9F0002868002804D006690AF0E9FE3000F8E73C
:10DA00002200FC215832137828600B401370230049
:10DA10005C33187020000A3009F0A2FD2000343079
:10DA200009F09EFD606E002804D005690AF0CFFE63
:10DA30002800F8E72500983560662868002804D09B
:10DA400006690AF0C4FE3000F8E728602500A43516
:10DA50002E68002E05D0376930000AF0B8FE3E006F
:10DA6000F7E72E6001AD31000C22280005F0F2FC32
:10DA700023002A006C3383CA83C3094BE667A3677C
:10DA80000C223100280005F0E5FC2300803307CD8F
:10DA900007C33000034A90341A60266007B0F0BD17
:10DAA00009720200FB710200444AF0B50600C26030
:10DAB000A022434B16360833036001000023428244
:10DAC0000400320085B003718360037483823531B2
:10DAD000137001329142FBD1802580222000AD00DD
