:020000021000EC
:1080000000400020DD050200190602001B060200E8
:108010000000000000000000000000000000000060
:108020000000000000000000000000001D0602002B
:1080300000000000000000001F06020021060200F0
:108040002306020011B20100990C0200230602006F
:10805000230602000000000055060200230602006D
:1080600023060200910E0200210B020023060200EB
:108070002306020023060200230602002306020054
:108080002306020023060200230602002306020044
:108090002306020075FF0100010102002306020011
:1080A000230602002306020000000000000000007A
:1080B00000000000000000000000000000000000C0
:1080C000054B0648033310B51B1A062B03D9044B86
:1080D000002B00D0984710BDB4200020B420002011
:1080E000000000000648074910B5091A8910CB0F97
:1080F0005918491003D0044B002B00D0984710BDED
:10810000B4200020B42000200000000010B5074C6F
:108110002378002B09D1FFF7D3FF054B002B02D0AA
:10812000044800E000BF0123237010BDC0200020E0
:108130000000000020970200094B10B5002B03D06F
:108140000849094800E000BF08480368002B02D135
:10815000FFF7C8FF10BD064B002BF9D09847F7E793
:1081600000000000C420002020970200B42000205E
:1081700000000000144B002B00D1124B9D46402202
:1081800092029A1A924600218B460F461148124AD3
:10819000121A0BF099F80D4B002B00D098470C4B9E
:1081A000002B00D098470020002104000D000B4850
:1081B0000AF0B2FD0AF06CFF2000290010F02EF842
:1081C0000AF0C8FD00000800004000200000000088
:1081D00000000000B8200020802B0020CD2F0200DE
:1081E000044A84B09378032B01DC0133937004B00C
:1081F0007047C04678200020044A84B09378002B52
:1082000001D0013B937004B07047C0467820002035
:1082100010B50400034B036040300DF0EFF8200070
:1082200010BDC0465886020030B5032087B001F06B
:10823000ADF9154A154C937811789B000B430370E8
:1082400093880500437020000323B4302A001049AE
:1082500003F086F80F4B984208D00F4B0F49984215
:1082600005D0280001F0C6F907B030BD0C4905A8BB
:1082700001F0B2FA2000782205A9F03002F01CFCCF
:1082800005A80DF0BBF8ECE7782000201C210020A9
:108290001491020013FCFFFF17FCFFFF199102006D
:1082A000349102001FB504480449B4300EF0C3FAFB
:1082B00010F0ABF905B000BD1C21002014910200A4
:1082C00010B503480BF062F801200AF043FDC046E8
:1082D00052910200F0B585B01F000AAB1B88060062
:1082E000029115000393002F1BD0282010F091F964
:1082F0006B4604001989039BAAB200933B000DF062
:108300001CF8336821005B6830009847002806D0CD
:1083100020000DF029F8200010F077F9024805B090
:10832000F0BD0248FBE7C04616FCFFFF17FCFFFF4D
:1083300070B504000800251E07D121000CF0ACFD2B
:10834000054B1860200070BD0D0069680029FBD145
:108350000CF0A2FD6860F5E7DC2000201FB50820C6
:1083600001F014F90400022001F010F9002C01D1F1
:10837000FFF7A6FF064B60605A78210002709B78D9
:10838000437000232370034B1868FFF7D1FF1FBD14
:1083900078200020DC200020094B10B51C68002C40
:1083A0000BD02368586801F025F9206801F022F904
:1083B000200001F01FF96468F1E7200010BDC046FD
:1083C000DC20002070B504000D00814205D10CF0C6
:1083D00071FD0D4B1860200070BD4B68002B02D161
:1083E0000CF07CFDF5E70028F5D061604B68436038
:1083F0000B68586801F0FEF8286801F0FBF82800C7
:1084000001F0F8F8E7E7C046DC20002037B500248B
:10841000134D6359002B07D0586801F0EBF86059F1
:1084200001F0E8F80023635104343C2CF0D10D4DE9
:108430002C68002C03D0FFF7AFFF2860F7E70A494C
:1084400001A801F0C9F90948782201A9F03002F029
:1084500033FB01A80CF0D2FF054B1C7037BDC046A2
:10846000E0200020DC2000204A9102001C21002096
:108470008720002070B5124B1B78DB071ED4114DEE
:108480002C68002C1AD023681A78002A0ED15A685A
:108490001378042B03DC013313706468F1E7052BB8
:1084A000FBD121002868FFF78DFFF6E7012AE8D10C
:1084B0005A681378002BF4D0013BEDE770BDC0463D
:1084C000AF2A0020DC200020037870B50500042BC3
:1084D00005D10A220C4B1A7000220C4B1A70002492
:1084E0000B4EA3599D420BD1686801F083F8A05947
:1084F00001F080F80023044AA3511378013B137064
:1085000004343C2CECD170BD86200020AE2A002023
:10851000E020002070B50024114BE558002D0DD04F
:10852000104BA978187808F04DFEC9B2002905D182
:108530006A681378002B05D0013B137004343C2C7F
:10854000EAD170BD084A1378002B02D1FFF75EFF15
:10855000F4E7013B28001370FFF7B6FFEEE7C046D3
:10856000E0200020AF2A00207820002070B506000F
:1085700008200D0001F00AF80400022001F006F8BE
:10858000002C01D1FFF79CFE01232370044B0670E1
:108590004570606021001868FFF7CAFE70BDC046D4
:1085A000DC200020024A837A91885B189380704710
:1085B00078200020F8B5254E3468002C45D023687B
:1085C0001D78002D1DD06468F7E70878874215D123
:1085D00058784B78984211D110000CF09CFC210087
:1085E0003068FFF7EFFE09E00878874206D1497846
:1085F0005B789942F0D001339942EDD004353C2D9F
:10860000E1D0134BEA58002AF8D0D078013803287B
:10861000F4D82168536849681F7808F039FDD6E519
:10862000020D08788742E9D149785B789942E5DB09
:1086300002339942E2DCCFE708788742DED14978FD
:108640005B789942DADB0333F3E7F8BDDC200020E6
:10865000E020002070B5104D2C68002C1BD0236842
:108660001A78012A0ED15A680C4B10785978884232
:1086700008D151789A78914204D11A78002A03D10E
:10868000FFF7C4FE6468E8E7013A210028681A7021
:10869000FFF798FEF6E770BDDC2000207820002070
:1086A00070B5134E35682C00002C20D023681B7841
:1086B000002B1AD1002D18D02B681A78012A12D15C
:1086C00022685B6852681978107888420BD152781A
:1086D0005B789A4207D129003068FFF773FE2100CA
:1086E0003068FFF76FFE6D68E4E76468DCE770BD33
:1086F000DC20002010B50C2000F048FF041E01D142
:10870000FFF7DEFD022000F041FF042319210122C2
:108710000370617023700531E370A372044BA17084
:108720001939606042702272200061721A7010BDA7
:10873000AE2A002070B5184B1921187808F042FDB8
:10874000C9B200291DD1154B1C78002C19D1144D2C
:10875000A3005B59002B03D001340F2CF8D1002467
:10876000104B1B78002B13D0032000F0E7FB0128EF
:1087700008D0022809D0002803D10CF0DAFBA400AD
:10878000285170BD0CF0F4FBF9E70CF010FCF6E793
:10879000FFF7B0FFF3E7C046AF2A0020AE2A002063
:1087A000E020002086200020F8B51C4D1C4B28003E
:1087B000F0301C680DF0D7FC28001A4B65309A7811
:1087C0005978FF30052301F085F8002C0BD02800E4
:1087D000236865305B68FF305A781978FF2301F011
:1087E00079F86468F1E7104FE359002B11D00026A7
:1087F0003B59DA7896420CDA28005B6865305A7883
:108800001978921912B2FF30FF2301F063F8013694
:10881000EEE704343C2CE6D1F8BDC0461C21002014
:10882000DC20002078200020E020002070B500240B
:108830000A4BE558002D0CD0094B697A187808F0DE
:10884000C1FCC9B2002904D16B6859781878FFF7C8
:108850008DFE04343C2CEBD170BDC046E0200020DE
:10886000AF2A00207FB52B4E10253400D0342A4B80
:108870000322012100952000FFF72CFD274B032246
:10888000022100952000FFF725FD254B03221A2128
:1088900000952000FFF71EFD224B042201210095C8
:1088A0002000FFF717FD00951F4B04220221200036
:1088B000FFF710FD1D4B1B78002B1BD0FFF774FF3B
:1088C0001B4A1378642B13DC01331370FFF732FF5C
:1088D000FFF7ACFFFFF7CEFDFFF76CFEFFF7BAFE28
:1088E000FFF7DEFEFFF716FEFA2000F043FDE1E79A
:1088F0000023EAE70F4B03A899880CF09BFD30009A
:10890000782203A9F03002F0D7F803A80CF076FD26
:108910007FBDC0461C210020F9810100E1810100DA
:108920005D83010029820100A582010087200020CB
:10893000AF2A00207820002010B5034800F006F987
:10894000FFF790FFFCE7C0461C21002010B5084C43
:10895000200000F043F8074A074920000FF04EFEC0
:1089600006480222064901300AF01CFC10BDC04630
:108970001C21002000200020858901007820002093
:1089800088200020CA23144A9B0010B5C2501C3313
:108990000400C0180CF032FDD0239B00E0180CF04E
:1089A0002DFD20009130FF3001F01CFB20006930CC
:1089B000FF3001F017FB2000F03001F099FE20009D
:1089C000D03002F013FA2000643007F0D7FC201DED
:1089D000FFF71EFC200010BDE48A02001423F0B54E
:1089E000040093B0192200931821043002F060FCB7
:1089F00023002500260064331800B435132110939A
:108A0000B83607F0C7FC28000DF00FFF00221E212A
:108A100030000DF0ADFB2000D03002F007FA23004B
:108A2000F033474A06211800119301F085FE20001B
:108A30000027012369301A0000971121FF3001F04F
:108A4000DDFA200091300097012302221A21FF3025
:108A500001F0D4FA2000B930022201211A23FF309C
:108A600002F0A2FA300001F0D3F8E4235B00E050FA
:108A7000300001F01FFBE6235B00E0500100E42220
:108A800020005200D130119BA2580095FF3001F018
:108A900063FD2000E13029001C22FF3002F0A0FD20
:108AA000192320000F93013B0E93013B0D93013BD3
:108AB0000C93013B0B93013B0A93013B0993013B50
:108AC0000893013B0793013B0693013B0593013B50
:108AD0000493013B0393013B0293013B0193F93063
:108AE000013B082200930721013BFF300DF061FBA1
:108AF000CA239B00E018290003F08EFDD3239B00BE
:108B0000E0181D2102F020FBDD239B00E7501098A8
:108B1000277003210FF08FFA23002200200009495B
:108B20009C33A0321C6011605760074A80305A6144
:108B30000221012207F040FE200013B0F0BDC04624
:108B40006086020003500200EF4F02000123F0B5DF
:108B500005788DB007001D4000D085E00300D033BC
:108B60001800029300F0EAFA00F00EFA28200FF045
:108B700050FD040010300CF0D0FC6D4B658023805C
:108B800018200FF046FD06006A4B80C603901022A5
:108B9000290030000A930B950AF096FB08220AA9D7
:108BA00030000AF0FFFA644B039AE5605361122328
:108BB000A260A380256265622100029802F0A6F8F7
:108BC000002805D020000CF0CFFB20000FF01DFD89
:108BD00001233A78594913433B703B00B4331800E2
:108BE00004930DF028FE5649039004980DF023FEDF
:108BF00000240590642000F0BDFB260025003B000A
:108C00006933FF33180006930CF0A3FE00282DD122
:108C1000039B002B33D1059B002B30D1DD24494928
:108C20004948A40000F086FC3B59002B1CD100F001
:108C300099F8010008A800F0CFFD09A80CF055FA3A
:108C4000CA239B00F818059B09AA08A90093029B58
:108C500003F038FD09A80CF0D1FB08A80CF0CEFBFE
:108C6000CC239B00FB583B510DB0F0BD3800913038
:108C7000FF300CF06EFE0028CAD0182DC8DC38007A
:108C8000653031B222B2FF23FF30013600F022FE00
:108C9000F6B2322000F06EFB0135052E02D100261F
:108CA000631CDCB2039B192D06D0002BA7D02349EF
:108CB000049802F02BFC01E0002BF8D103980FF090
:108CC000A4FC05980FF0A1FC1E491F4800F032FCDF
:108CD000DD239B00FB580793002B20D100F042F8C6
:108CE000010008A800F078FD09A80CF0FEF9CA20E0
:108CF0000123800009AA08A900933818029B03F0F9
:108D0000E1FC09A80CF07AFB08A80CF077FBCC2357
:108D10009B00FB580793DD23079A9B00FA50CA2358
:108D200039009B00069AF031F81803F0C5FE66E79B
:108D3000FD030000775002003750020096910200B8
:108D4000A191020000200020001C0020BFF34F8FE3
:108D5000024A034BDA60BFF34F8FFEE70400FA05C7
:108D600000ED00E0F0B58DB005AF192215493800CF
:108D70000AF018FA0022144B05245A718022520579
:108D8000566E01222500019402920393019930004E
:108D900008F018FA0800029908F08EF9019B03996F
:108DA0006B430193029B361A6B430293631E2C1B89
:108DB0006C433C19225C1C1ECA54E7D108000DB05C
:108DC000F0BDC046B1910200B02A0020F0B595B0C8
:108DD0001822002106000EA80AF076FA13210EA828
:108DE0000FF087FA03210EA80FF019FB4C4B1B68FC
:108DF000002B00D10133DBB202934A4A0123002148
:108E000009A807F049FE484B9E4200D9002672B6D9
:108E1000464B1022002105A81D680AF055FA444B64
:108E2000642130000593052408F0D0F960435030E8
:108E3000281806900A21300008F0C8F90A2108F025
:108E4000ABFA614350316918079130000A2108F0EC
:108E5000A3FA802361430024503169189B010891D3
:108E60000093029B002B59D0002500232E1F019355
:108E700005AB9B190393032C03D1802300249B0192
:108E8000009305AB2B4A585963000133D3180022D5
:108E9000110010265F1E3F783E4137001E78865D28
:108EA0003E4202D001279740394301320633092A56
:108EB000EFD1C943204B09011940039B1B6898421D
:108EC00029D1019B312B26DC002109A80FF060FB82
:108ED000FA23139A0F99DB00106801421ED0013B60
:108EE000002BF9D1009B01345B000093019BE4B29D
:108EF00001330193FA23019A5B009A42BBD10435F6
:108F0000102DB2D1064B1B68002BAAD0029B013B4F
:108F1000DBB20293A5E7009B1943D6E7FFF716FFE4
:108F200098240020F0FF0000E70300000420002048
:108F300000920200CA910200F01F0000F0B5002864
:108F40001BDD0F4C421E276811000020BE09FB0FDD
:108F500073407B403E097D087340BF087B406B40F7
:108F6000DB072B4301251F0040002B401843E9403D
:108F7000ECD18242E8D32760F0BD0248FCE7C0464E
:108F80009424002017FCFFFFF8B50023124C236047
:108F90000CF0CCF8002808D0042120000CF0C2F816
:108FA000002801D00D4B2360F8BD0122A127042524
:108FB0000B4B0C491A602268FF0048604E68002E77
:108FC000FCD0DE591202013D3243002DF5D1226062
:108FD00001225A60E8E7C04694240020ED5EBC0BF5
:108FE00000D00040FCD000400B4B70B51C68002C3A
:108FF00010D0656D00F0ACFBA36C002901D1834259
:1090000006D820000CF0C5F8044920000CF0AFF899
:109010002C00ECE770BDC046A0240020C024002036
:10902000F0B5060093B007932A4B04901C682A4BB6
:1090300005911F68069285B2360C002F47D0002399
:109040000293002C2FD0636D244803934823E31828
:109050001A88A36C1B0C99B2854214D12048824215
:1090600011D1002B01D0B1420BD1029B002B08D1B2
:1090700020000CF08EF81B4920000CF078F801233A
:109080000293039CDDE7002A01D09542F9D1002B21
:1090900001D0B142F5D120000CF07BF8114920003D
:1090A0000CF065F8EDE7104BEB18012B0FD91023EE
:1090B0003200009329000D4B08A80CF03EF93B68E4
:1090C00008A99B683800984708A80CF04DF913B020
:1090D000F0BDC046CC2400209C240020FE030000EC
:1090E000FF030000C024002002FCFFFF21900100CC
:1090F00070B572B60B4B1C68002C08D020000CF029
:1091000048F80023E364084B2000E36370BD62B6B7
:109110005C200FF07EFA050021005C220AF0D4F8F2
:109120002C00EEE7C424002000400020024B1878F9
:10913000012318407047C046B62A0020F7B5060044
:10914000FFF7F4FF051E33D11A4C2660FFF7D0FF5E
:10915000194B1A4918600CF00AF8FFF7C9FF184BB1
:109160001860184B4363184B8363206800280ED0A7
:10917000C027164E2A00330015490097FFF7AAF8BA
:10918000009733002A0013492068FFF7A3F80C204A
:109190000FF03FFA0023838083710F4B03600F4B66
:1091A000836000F0EDFA01230D4A11780B43137030
:1091B000F7BDC0469C240020D0240020C0240020FD
:1091C000C8240020FC3F00205952020021900100D9
:1091D000FF030000FE03000080860200E98F01000B
:1091E000B62A0020F7B506000D00170001930028ED
:1091F00002D100242000FEBD0029FAD0FFF778FF3D
:10920000041EF6D0074B019A4363066045608760F1
:10921000054B002A00D0054BA363054920000BF045
:10922000A6FFE7E7FC3F0020235202004152020064
:10923000C0240020024B1868434258417047C04682
:10924000C0240020002310B504499C006258002A65
:1092500001D00133F9E76050100010BDA8240020B0
:10926000002310B5044A99008C58844201D0013380
:10927000F9E70020885010BDA824002010B5002474
:10928000074BE058002802D003685B689847043415
:10929000182CF5D1034B1B68002B00D120BF10BD4B
:1092A000A8240020C0240020F8B5FFF73FFF0028C5
:1092B0001CD02A4D2C68E36CDA0718D502273B43F3
:1092C000E364274B1E680423F26C30001343F364FD
:1092D000636BF3630BF083FF3000716C03F0F3FFFB
:1092E0002868C36C3B4201D004F027F8F8BD1D4F3D
:1092F0001D4E3A68002A02D132682A6007E0216DCB
:10930000B942FAD1616D002900D1110029602A68A3
:1093100031688A4208D11B0706D52C60FFF7AEFFE3
:109320003B68002BFAD02B6029688C42DED0336872
:1093300099420BD10D4B4B630D4B8B6320000BF00F
:109340004EFF2968626C4B6C200004E09C42F5D112
:10935000002210004B6C03F075FFC7E7D0240020FB
:10936000A4240020C0240020C8240020FC3F0020AA
:109370005952020070B50500FFF7D8FE002803D14E
:1093800028000FF045F870BD0C4B1C68E36CDB0740
:1093900006D5FFF7ADFE0A4B1860002800D0040088
:1093A00000F0D6F92D18A56420000BF0F2FE054957
:1093B00020000BF0DCFEFFF777FFE4E7D02400206D
:1093C000A4240020A0240020F0B51E4B1E4F1C68D2
:1093D0003B6885B006000391002B30D0FFF7A6FE56
:1093E00000282CD0E36CDB070ED5FFF781FE174B6E
:1093F000051E186008D00BF0CCFE154928000BF0B4
:10940000B6FE2C00FFF750FF039B20001B043343E4
:10941000A3640BF0BEFE20000E490BF0A8FE0E4B1D
:109420000020F318012B08D9C0230093039A0B4B9B
:1094300031003868FEF74EFF002005B0F0BD084847
:10944000FBE7C046D02400209C240020A424002058
:10945000C0240020CC24002002FCFFFF219001004A
:1094600016FCFFFF10B5FFF761FE002809D0054C80
:1094700020680BF08EFE044920680BF078FEFFF7A1
:1094800013FF10BDD0240020C4240020F7B507002E
:109490000D0000282ED0FFF749FE00282CD007240D
:1094A000164E3068C36C1C4007D0154A290038009E
:1094B0000BF086FE00242000FEBD03F026FF0221F3
:1094C0003268D36C1940019103D003218B43D364DC
:1094D000F1E701242343D3642800B8473268D36CF2
:1094E0001900A143D164019C5B07E4D528000BF06F
:1094F0009FFEE0E7034CDEE7034CDCE7D0240020CE
:109500003152020017FCFFFF16FCFFFF020010B5EE
:10951000014B12CB12C210BDD4240020034B1A6899
:10952000034B1A607E225A607047C0460420002018
:10953000D424002070B5114E3278022A1AD081420C
:109540001AD90C1A072C17D90D00032305432B40F9
:1095500012D172B60A4DD2005051AA185160802221
:10956000A40812061443046032780132327062B6E5
:10957000180070BD0348FCE70348FAE7B82A00204A
:10958000DC24002013FCFFFF17FCFFFF70B5134C19
:1095900006002378124D002B0CD1124912482B7073
:1095A000FFF7C8FF114B984202D11E20FFF70EFCB7
:1095B0000123237000242B789C4209DA0C49E30034
:1095C000C91830000BF04EFE002805D10134F2E737
:1095D0001420FFF7FBFB002070BDC046B72A002017
:1095E000B82A002000380020802B002017FCFFFF45
:1095F000DC24002070B5002819D0104B10491C78CD
:109600000023A34216DADA005558A84210D98A1866
:10961000526890420CD2041F2368002B02DC1E20EB
:10962000FFF7D4FB802322681B061343236070BD21
:109630000133E6E71E20FFF7C9FBF8E7B82A002050
:10964000DC24002070B5051E14DD0B4E0B4C336876
:10965000002B02D020680EF053FDFA212068002470
:10966000074B89008361C462694335600EF050FD89
:10967000200070BD0348FCE7EC2400201C250020DE
:109680002D97010017FCFFFFF8B5114F06003D684C
:10969000002D0AD130200EF0BCFF040006F0D4FEED
:1096A0000C4BA5612360E5623C600B4D2B68002BE1
:1096B00009D110200EF0ADFF04000EF076FD200061
:1096C0002C600EF04CFD3000FFF7BCFFF8BDC0462B
:1096D0001C2500208C8E020018250020014B1868E4
:1096E0007047C046EC24002070B50D4C2368002B59
:1096F00003D00C4B1B68002B02D10620FFF7C4FFE0
:1097000020680EF043FD02000749C3170D684E683C
:109710005219734120680A604B600EF03DFD70BD28
:10972000182500201C250020B820002010B5FFF7C8
:10973000DBFF0024054BE058002802D003681B68BB
:1097400098470434282CF5D110BDC046F0240020E1
:1097500010B5FFF7C9FFFA22034B92001868596849
:10976000002307F059FE10BDB820002010B5FFF708
:10977000BBFF024B1868596810BDC046B8200020D6
:109780000B4B10B51B680400002B03D0094B1B6862
:10979000002B02D10620FFF777FF0023064A99002D
:1097A0008858002801D00133F9E78C5010BDC0461D
:1097B000182500201C250020F0240020002310B5CF
:1097C000044A99008C58844201D00133F9E7002003
:1097D000885010BDF024002010B50400002902D0EC
:1097E0000B78002B03D1034B2360200010BD0BF03E
:1097F0000CFEFAE790860200F8B504000E00150092
:1098000000290AD00B78002B07D0002A05D00800C9
:1098100097B209F0C1FF874203D90B4B23602000A8
:10982000F8BD681DFFF7B2FE20600BF093FF2068C3
:109830002A0047803100043009F0B4FC23685D1928
:1098400000232B71EBE7C04690860200014B0360BA
:109850007047C0469086020010B50548054C206050
:109860000BF07BFF044A054920000EF0C7FE10BD37
:10987000908602002025002000200020FD530200D9
:10988000084B73B51C680500002C0AD0010026683F
:1098900008310822684609F085FC0CCD31682000AB
:1098A000884773BD24250020014B03607047C046E4
:1098B0009886020010B50400002903D1044B036010
:1098C000200010BD016008000BF047FFF8E7C0461C
:1098D0009886020030B500684488A14206DA85887F
:1098E000AA4203DA002901DB002A01DA034830BD6D
:1098F00054434018001983710020F8E717FCFFFF5C
:10990000F0B5070085B00E001D00002921DD002AFA
:109910001FDD002B1DD00468638803938B4200DD9C
:109920000391A3880293934200DD02920023063440
:109930000193019B029A93420EDA29002000039AB8
:1099400009F030FC3B68AD195B88E418019B0133DA
:10995000EEE7024805B0F0BD0020FBE717FCFFFF73
:10996000F8B504000D0016001F00002901DB002AD5
:1099700002DA0D4B2360F8BD100048430630FFF7B4
:1099800005FE20600BF0E6FE23685D809E80002FC0
:1099900006D03B00320029002000FFF7B1FFEAE7C4
:1099A00020000BF00CFEE6E798860200F7B50600F3
:1099B0000D1E1BD000200F000400010001903B7819
:1099C000002B1ED03022524294469C446246092A03
:1099D00015D90A2B0ED1019B241801330193A14202
:1099E00000DA2100002004000137E8E7164B03608D
:1099F0003000FEBD0028F7D001340020F4E701203C
:109A0000F2E76A460127928809B212B230007F421B
:109A1000FFF7A6FF39000A2033689A1D2C78002C26
:109A2000E6D02300303B092B08D8FB43DB173B4033
:109A300043431B19303B1F000135EFE7002FFBDBD1
:109A4000177001320F00F7E798860200F0B587B073
:109A5000009004A815001E000F00FFF757FD009BA3
:109A60001B685A8895422ADA9B88B34227DD1F2F4C
:109A700025DD059B01939F4221DC052300217B43CB
:109A80000193049B0293019B029A5B18A03BD35C59
:109A90000022039373189C46009B57191B68588833
:109AA0000400874202DA988860450ADC0132052A00
:109AB000F2D101310529E6D1002007B0F0BD0748F9
:109AC000FBE7DB1910276046174160431B1803981A
:109AD0000740781E87417F429F71E7E717FCFFFF31
:109AE000F7B5036806009C1D5B880D005A1A0192A9
:109AF000002919DD0027994203DB0BF060FD0020EF
:109B000013E033689B889F42F9DA6119019A2000BB
:109B100009F048FB019B2900E0180BF033FD336886
:109B200001375B88E418ECE70048FEBD17FCFFFF37
:109B300010B50548054C20600BF00FFE044A05499E
:109B400020000EF05BFD10BD988602002825002045
:109B5000002000207755020010B5054C012120009F
:109B60000BF0EFFD034A044920000EF047FD10BD45
:109B70002C25002000200020035702000388074AFC
:109B800010B50120934208D0834202D00020DB07A9
:109B900003D41E20FFF71AF9002010BDFFFF0000BC
:109BA0000048704716FCFFFF10B53220FFF70EF992
:109BB000004810BD16FCFFFF8280142210B5134C24
:109BC0000281083402000023046041620224010083
:109BD000303283718472C360036143618361C36106
:109BE0000362363113705370438683860A78A2432A
:109BF000F13422400A70020040321370021DD387F4
:109C0000013343878387C38710BDC046B8860200EF
:109C1000F0B5544F97B03B6806000593002B00D079
:109C20008BE006AC0B331C222121200001F0F4F95B
:109C30000EAD0B231D2222210AA801F0EDF90B2302
:109C40001B222321280001F0E7F908200EF0E1FC97
:109C50000122059B110004900DF000F93A2130001B
:109C60000CF06AFE00281DD0A38812ADAB80A3794A
:109C70005C20AB713C4B1293A3681493237B2B7332
:109C8000637B6B73A37BAB730EF0C3FC0423019364
:109C9000363300932A00049B3100040001F0A4FF36
:109CA0003C604AE0322130000CF074FE00281CD0E9
:109CB000A38812ADAB80A3795C20AB712A4B1293C1
:109CC000A3681493237B2B73637B6B73A37BAB73AE
:109CD0000EF09FFC042301932E3300932A00049B73
:109CE0003100040002F01EF9DAE73C2130000CF0EC
:109CF0000CFE00282CD0AB8812ACA380AB79A4203A
:109D0000A371194B1293AB6814932B7B23736B7B5A
:109D10006373AB7BA3730EF07CFC052305000293F9
:109D2000013B0193383300932200049B310001F082
:109D300079FE0E4B3D6044351D600C4B094C186894
:109D4000002802D021680BF072FE206817B0F0BD29
:109D500044200EF05EFC042204990400FFF72CFF5F
:109D60009EE7C04630250020A8860200342500204A
:109D7000F0B56149C56885B08D4254DA030002220E
:109D800036331B78134059D104698C4264DA0200DF
:109D900036321278520768D4426901920200019E5D
:109DA00040328E426FDA010036310978090774D4E7
:109DB000002B7DD113780293002B16D006000127CB
:109DC000011DCB8F363601339BB2CB870396367895
:109DD000BC46374000D188E01D2B06D963469E4320
:109DE000039B1E700023CB8713700BF000FD434ACA
:109DF0000723904276D94249043B8D4272DBC82248
:109E00000133920095426DDC023B8C426ADB013BE0
:109E1000944267DC01980433884263DB013390424B
:109E200060DC00235EE0C822002352009542ABDDD7
:109E3000030036331A7800239207A5D401230600C5
:109E40001F00363632785408A7433C0002279C4056
:109E5000BA432243327097E7C822520094429BDDF6
:109E6000020036321278520796D4060001223636A6
:109E700033789F08BA439700042293431A003A4369
:109E80003270012388E7C821019E49008E428FDD90
:109E900001003631097809078AD4010001263631DC
:109EA0000B78DF08BE430827F600BB4333430B7033
:109EB0001378032B00DD7DE70133DBB21370012B38
:109EC00003D10021031DD98774E7042B00D071E76B
:109ED000020036321178033B0B4313700023043029
:109EE000C3870B33180005B0F0BD092B00D87CE701
:109EF000029BCF87013B77E770FEFFFFFF700200F8
:109F0000E0FCFFFF70B5C369C2681B688AB004003B
:109F1000451D1A4207D0EB7F002B09D0013B06E01C
:109F20003300032239E0EB7F0B2B01DC0133EB77AD
:109F3000EB7F082B0DDD0122A379134209D11343D6
:109F4000A371A188130006A80BF0F2FAFFF700FC3A
:109F50002062EB7F012B23DC0123A2791A421FD060
:109F60000025A188A571022202A80BF0E1FAA31D29
:109F7000DE7F012E14D1FFF7EBFB2B00226A801A43
:109F8000994100900191019BA188AB4203D1134BF1
:109F9000009A9A42C4D90123042206A80BF0C8FAF9
:109FA0000322A3791340012B0AD1FFF7D1FB002331
:109FB000226A801A9941994204D1094B984201D8EA
:109FC0000AB070BD0223A279A1881343A3710522B0
:109FD000012306A80BF0ACFAF2E7C046E703000045
:109FE000DB05000010B50400034B08330360FFF7E6
:109FF000E5FB200010BDC046EC860200F0B507006E
:10A0000000250E0085B002930AAB1B780837039336
:10A01000104B04000833036001928580857129008C
:10A020001822380009F050F9039A310038000EF078
:10A0300065F96B466A469B88127AA380A31DE67178
:10A04000DA77631D25622000DD77FFF799FB20009A
:10A0500005B0F0BDEC8602000048704716FCFFFF1B
:10A0600010B53320FEF7B2FE004810BD16FCFFFF0E
:10A07000002310B50400838083710D4821640830EB
:10A0800020608020C000A061E0612062E3602000C9
:10A09000236163616362A362E36223636363A36317
:10A0A000E363636411000BF09AFC200010BDC0460E
:10A0B00004870200F0B5534F97B03B680600059344
:10A0C000002B00D08BE00B331C22212106A80AAC08
:10A0D00000F0A2FF0EAD0B231D222221200000F074
:10A0E0009BFF0B231B222321280000F095FF082053
:10A0F0000EF08FFA0122059B110004900CF0AEFEC9
:10A100001D2130000CF02FFC00281DD0A38812ADBB
:10A11000AB80A3796020AB713B4B1293A36814937F
:10A12000237B2B73637B6B73A37BAB730EF071FA92
:10A1300005230193183300932A00049B3100040087
:10A1400001F026FE3C604AE03C2130000CF039FC76
:10A1500000281CD0A38812ADAB80A3796020AB711E
:10A16000294B1293A3681493237B2B73637B6B732C
:10A17000A37BAB730EF04DFA0523019337330093A5
:10A180002A00049B3100040001F06EFFDAE73C2155
:10A1900030000CF0BAFB00282BD0AB8812ACA380A7
:10A1A000AB79A420A371184B1293AB6814932B7B4B
:10A1B00023736B7B6373AB7BA3730EF02AFA0523C7
:10A1C00005000293013B0193383300932200049B66
:10A1D000310001F027FC0D4B1D6044353D600B4BF9
:10A1E0001A68084B002A01D019684A64186817B029
:10A1F000F0BD48200EF00DFA052204990400FFF787
:10A2000037FF9FE734250020A88602003025002074
:10A2100082B0F0B50400EBB06420719370920EF040
:10A22000F7F805220EA811000BF0D2F997490FA8F4
:10A23000FFF7BCFB00221FAB6AA91A605A609A6044
:10A240000C338B42F9D11922002111A809F03CF8F6
:10A25000A0680BF086FF00260990FF21A06800F09F
:10A26000BBFC8B4FA06800F05FFB07960896079B2E
:10A27000182B00DDBEE0864B9F4203D0854B9F42EA
:10A2800000DBAEE0A0680BF06EFFA568824918A85D
:10A29000FFF7A2FA782218A9280000F0E3FB18A81B
:10A2A0000BF0ACF800267A4F0322089B606801335C
:10A2B0001A4008920BF033FB050060680BF036FB88
:10A2C0000022764B04929D4210DB013204922A0058
:10A2D000C8320BDBAA22042192000491954205DCCE
:10A2E00003220492C82D01DC013A04920022059257
:10A2F000984210DB012305930300C8330BDBAA232C
:10A3000004329B000592984205DC03230593C8287C
:10A3100001DC013B05930EA80BF051F9002511ABB0
:10A32000EB5C012B08D15E496B00CA185278C95CFE
:10A330000EA8FF23FFF7CEFA0135192DEFD16B469A
:10A3400014229A5E6B460EA81021595E089BFFF7F7
:10A35000C1FA002F01DB0F2E07DD0022A06800925A
:10A36000743013000EA90BF040F900230693069BEE
:10A3700004985A004A4BD15C814227D19B185B78E4
:10A38000059A934222D12C2206AB9B18069A9B5C1D
:10A39000012B1BD00C23079A216853431D00002278
:10A3A0000AA80BF046FB1FAA2B0094460AAA634496
:10A3B00023CA23C32C2206AB06999B182B3A5A5466
:10A3C000079B01360133DBB20793F6B2069B0133DC
:10A3D0000693192BCBD16420643F0EF019F83FB2DD
:10A3E00045E7002F02D00F2E00D05DE7A06800F0F7
:10A3F0009BFA59E71FA918A8079A0BF029FD6A468E
:10A400001BAB23CB23C21B6813601899199A1A9BA4
:10A4100020680BF0F6FAE568002D0CD0214910A851
:10A42000FFF7DAF91C2318AA10A928000CF038FA53
:10A4300010A80AF0E3FFA0680BF095FE0FA910A882
:10A44000A5680BF0A5F80022174B009210A9019304
:10A450002800130000F0AAFA10A80BF08CF8FA20DC
:10A4600080000DF0D5FFA0680BF07DFE0999A06873
:10A4700000F0B2FB0FA80BF07EF80EA80BF07BF8F3
:10A480006BB0F0BC08BC02B01847C046E0930200B5
:10A490008C3C0000D18AFFFF2594020058FDFFFF8D
:10A4A000459402003A940200DC050000F0B587B044
:10A4B00001930EAB1B88060003930D9B0D000093C8
:10A4C000019B02920C9F002B3ED0002F02D1009BDB
:10A4D000DB0739D528200EF09CF8040010300BF073
:10A4E0001CF86B461B891820258063800EF091F8BC
:10A4F000049707000500009B10220593019B002193
:10A5000008C7380008F0E0FE082204A9380008F067
:10A5100049FE0E4B02226B6100230399E360236224
:10A52000636233680A43A560A2805B682100300043
:10A530009847002806D020000AF016FF20000EF0F1
:10A5400064F8034807B0F0BD0248FBE7735A020005
:10A5500016FCFFFF17FCFFFF70B58CB08360109BEB
:10A5600001604260C3600400184918000CF063F9F0
:10A57000051E14D001001C22103105A808F012FE9F
:10A580006A4608AB43CB43C21B6813602068059939
:10A59000069A079B0BF035FA28000EF036F80C4BA4
:10A5A000186800280ED00B4A05AB059200220692CF
:10A5B000C03202926A4622CB22C223000322052126
:10A5C000FFF774FF20000CB070BDC0463A94020043
:10A5D0002425002011A20100F0B5040085B0637AA3
:10A5E0009C46002B04D120000BF04FFC05B0F0BDC1
:10A5F000A37A266F01931023019AF35600259B1826
:10A6000001229A402900F36802920393039B9D4222
:10A6100031DAB368019A6B439B1872695B00E77A81
:10A62000D3181A785878E379012F14D15F1E3F1A96
:10A6300010003A005B004343606F8218D3189B7987
:10A64000634500DD6346627B1A4202D00123AB40C2
:10A6500019430135DAE7022F05D15F1EBA1A277AAE
:10A66000013F381AE6E7032FE4D1277A013FBF1AEA
:10A6700002003800DEE71123C943F356606C9940AD
:10A6800023691940029B19430DF082FFA37B072B1E
:10A69000ACDC627B581C520062730B499A00A073B9
:10A6A000022B03DC88580DF0A8FE98E7074B20002A
:10A6B000236300236363064B8958E46223641430E8
:10A6C0000DF026FD92E7C04630870200D9A50100B3
:10A6D000775E020010B50400044B03600DF010FD1E
:10A6E000200005F0C7FE200010BDC0468C8E020081
:10A6F00010B504000E4B08330360FFF75FF820002D
:10A7000074300AF038FF200060300AF034FF200077
:10A7100058300AF073FE200050300AF06FFE20001F
:10A72000044B14306361FFF7D5FF200010BDC04615
:10A7300050870200A08E0200F8B500250400324BBD
:10A740008580083303608571143016000F0005F012
:10A750007BFE20002D4BE562636125645030FFF7DE
:10A7600075F820005830FFF771F820006030FFF7CF
:10A770009BF820000423F25E33682667590009B273
:10A7800074300AF025FF3378226FE3717368012675
:10A7900023721023E572A572A7802561D3569168B4
:10A7A00059188B4204DA3000984001330543F8E72A
:10A7B00011230120D356D16859188B4206DA0200C2
:10A7C0009A402669013332432261F6E714200DF0E6
:10A7D00020FF226900212A430123060006F05CF9CC
:10A7E000FF226272220000230125483266646573ED
:10A7F000A373237320001370A366FEF7C1FFA37930
:10A8000020001D43A571F8BD50870200A08E0200F4
:10A81000F0B5437A85B00400002B04D120000BF082
:10A8200034FB05B0F0BD0122837A11009C46102351
:10A83000066F0025F3560392634499400191290065
:10A84000F3680293029B9D422CDAB36872696B43F2
:10A8500063445B00E77AD3181A785878E379012FBC
:10A8600010D15F1E3F1A10003A005B004343606F37
:10A870008218D3189B79002B02D0039BAB4019435D
:10A880000135DFE7022F05D15F1EBA1A277A013F93
:10A89000381AEAE7032FE8D1277A013FBF1A0200EE
:10A8A0003800E2E71123C943F356606C99402369ED
:10A8B0001940019B19430DF06BFE667AB31EDBB2A3
:10A8C000FC2B14D8FEF70AFF0B4B05002363002373
:10A8D0000A4863630A4BFF21E4622364704306F075
:10A8E00075FC29004143200014300DF011FC637AFF
:10A8F000012B00DD95E791E78B5E0200B6030000B7
:10A90000775E02001FB5012381881A0068460AF0AD
:10A910000FFE012303491A0068460AF009FE05B03C
:10A9200000BDC046FE0300001FB5030048331A787F
:10A930000400002A0DD000221A70012381881A0019
:10A9400068460AF0F5FD012304491A0068460AF03A
:10A95000EFFD200074300AF032FE1FBDFF0300003F
:10A9600010B548300378002B06D00378012B03D0B4
:10A97000012102480AF04CFC10BDC046FF03000054
:10A9800010B50121040006200AF042FC064B984253
:10A9900008D148342378002B04D02378012B01D030
:10A9A00020BFF7E710BDC04616FCFFFF73B5079C3C
:10A9B0000500002C0ADB060048363078002807D056
:10A9C0003078012804D00C4C200076BD0B4CFBE7FE
:10A9D0006846007E1BB20090280012B274300AF064
:10A9E00004FE002CF0D02B004A331C8000240723E7
:10A9F0004C352C803370E7E712FCFFFF17FCFFFF9C
:10AA0000F0B587B00D9C06000F0002920393002C56
:10AA100020DBFFF7A5FF330048331D78EDB2002D92
:10AA20001AD1390005A80AF0B3FD0C9B01940093DC
:10AA3000029A039B05A93000FFF7B8FF05A80AF0AA
:10AA40009AFD002C03D03000FFF79AFF2C00200065
:10AA500007B0F0BD014CFAE7014CF8E717FCFFFF27
:10AA600011FCFFFFF8B50400171E09DD060048368B
:10AA70003378002B06D03378012B03D00C48F8BD77
:10AA80000C48FCE72200E3795632013B13702300A7
:10AA90000025200054331D8050300AF00CFD2300A7
:10AAA0004A331F8002234C34258028003370E6E7A8
:10AAB00012FCFFFF17FCFFFFF7B505000F00161E85
:10AAC00018DDFFF74DFF2B0048331C78E4B2002C53
:10AAD00012D1390001A80AF0E6FC320001A92800D1
:10AAE000FFF7C0FF01A80AF089FC2800FFF748FF24
:10AAF0002000FEBD0148FCE70148FAE717FCFFFF14
:10AB000011FCFFFFF8B50400161E0DDD07004837E5
:10AB10003A78002A0AD03A78012A07D01548F8BDB9
:10AB20006B4618229B5E07E01348F8E75D42069BE0
:10AB3000FF33F5D16B1D1BB222006432138023005A
:10AB4000200066331D7060300AF02AFD23000022C9
:10AB50006C331A70954200D0350023004A331D80B3
:10AB6000079B013E5A1E93414C340533268000203A
:10AB70003B70D4E712FCFFFF17FCFFFFF0B587B076
:10AB800005000F00161E03931EDDFFF7E9FE2B00E4
:10AB900048331C78E4B2002C18D1390005A80AF01B
:10ABA000F7FC0D9B320001930C9B05A90093280034
:10ABB000039BFFF7A7FF05A80AF0DDFC2800FFF7BD
:10ABC000DFFE200007B0F0BD0148FBE70148F9E7D0
:10ABD00017FCFFFF11FCFFFFFF2902D84172002084
:10ABE00070470148FCE7C04617FCFFFF13B504009F
:10ABF00004A80078009020000DF0F5F9002801D19C
:10AC0000207516BD0048FCE70EFCFFFF13B50400DD
:10AC100004A80078009020000DF0CDF9002801D1A3
:10AC2000207516BD0048FCE70EFCFFFF7FB50D0048
:10AC300011000F226A4404001E1E117016D0089BDA
:10AC4000002B13DD012329000093FFF7DFFF00280D
:10AC500002D0074804B070BD0090089B3200290064
:10AC60002000FFF7C3FF0028F4D0F2E70148F1E726
:10AC70000EFCFFFF17FCFFFFF7B507000D1E3FD0CE
:10AC80000023022604690193002C35D0AA88A388EA
:10AC90005340334204D1324204D1AB88334226D0F0
:10ACA000646AF1E7A968A0680CF0BDF80028F4D048
:10ACB0002B88002B02D022889A42F1D16B88002B7E
:10ACC00002D062889A42EBD1EB68E268934201D0ED
:10ACD000002BE5D17B68002B01D020009847A2888B
:10ACE000084B1343A380019B01330193D8E7A3686A
:10ACF000AA689342D4D1DBE7019B2000002B00DC43
:10AD00000148FEBD0080FFFF17FCFFFFF0B5060005
:10AD100085B00D1E00D160E001270469002C26D00B
:10AD20000221AA8800230A4202D0A3885B083B4084
:10AD3000226829688A4218D1002B12D0A968A0681D
:10AD40000CF071F8002810D0EB68E26893420CD147
:10AD5000A3881AB2002A02DA5B045B0CA3802048A5
:10AD600011E0A368AA689342EED0646AD6E731691D
:10AD70002A880F000B1E08D1356101231949684646
:10AD80000AF0D6FB002005B0F0BD1888904205DA25
:10AD9000586A1F0000280ED00300F6E718003B0099
:10ADA0000488944207D147886C88A74203DC446A30
:10ADB0000300002C0BD199420BD10888824204DB9E
:10ADC00007D14C886888844203DD6962D4E720009B
:10ADD000E6E7596A69625D62CFE70348D3E7C04698
:10ADE00016FCFFFFFD03000017FCFFFF064B10B52C
:10ADF0001A00040008322C33026083600830FEF72A
:10AE00002FFA200010BDC0466887020008B4024B2C
:10AE10009C46083808BC6047EDAD010008B4024B01
:10AE20009C46083808BC6047D96202000C4A0023DF
:10AE300011002C32083110B5436083818373826026
:10AE4000036143618361C383016004000830FEF73E
:10AE5000F9F9044B1A68002A00D11C60200010BDCB
:10AE60006887020024250020F7B50E00012504693B
:10AE70000192002C36D0238832889A4201D0002BD0
:10AE80002AD1638872889A4201D0002B24D1FEF720
:10AE90004DF90123002806D0C022A3881340C03BEF
:10AEA0005A425341DBB2019A934214D1A7883BB274
:10AEB000002B10DB10223100A01808F073F940239A
:10AEC0001F420BD1FEF732F9002807D021000648B7
:10AED000FEF7DCFA00E00025646ACAE720000BF008
:10AEE00004FAF9E72800FEBDEB62020008B4024B49
:10AEF0009C46083808BC604773640200F0B587B010
:10AF000001930EAB1B88060003930D9B0D0000936D
:10AF1000019B02920C9F002B3ED0002F02D1009B80
:10AF2000DB0739D528200DF074FB040010300AF03F
:10AF3000F4FA6B461B891820258063800DF069FBAD
:10AF4000049707000500009B10220593019B002138
:10AF500008C7380008F0B8F9082204A9380008F03A
:10AF600021F90E4B02226B6100230399E3602362F7
:10AF7000636233680A43A560A2805B6821003000E9
:10AF80009847002806D020000AF0EEF920000DF0C6
:10AF90003CFB034807B0F0BD0248FBE7AD6402008C
:10AFA00016FCFFFF17FCFFFFF0B50400160000259C
:10AFB0008380164A164B8571026021814681057394
:10AFC000186889B08C46A8421DD0124A0595049293
:10AFD000C02202926A4604AB82CB82C26146230041
:10AFE0002A00FFF78BFF0B4A094B0692C022186814
:10AFF00002926A4606AB079582CB82C223002A00E2
:10B000003100FFF77BFF200009B0F0BDAC870200E4
:10B0100024250020D765020030B5002403730123E6
:10B02000034D84710560818082734373846030BDF9
:10B03000A886020070B583790400DB0702D580681A
:10B040000DF0E3FAA3799B0702D5A0680DF0DDFAB5
:10B05000A3795B0707D5A0230021144ADB00D15058
:10B06000A0680DF0D2FAA3791B0708D5A568002DBA
:10B0700005D028000BF048FF28000DF0C6FAA37990
:10B08000DB0605D5A068002802D00368DB68984776
:10B090006023A2791A4205D0A068002802D0036874
:10B0A0005B6898470023A360A37170BD00700040E7
:10B0B000F7B50126037B040033422BD06123857949
:10B0C0001D4017D1FFF7B6FF18200DF0A2FA0E238E
:10B0D0000700E35618220093637B2900019308F0D0
:10B0E000F3F8019A009938000DF008F9A379A760E8
:10B0F0003343A3716023A2791A4203D0A0680CF0F5
:10B1000093FFFEBDA3685A69586812681040431E39
:10B110009841F6E70048F4E716FCFFFF10B501245C
:10B12000837941731C4004D080680DF078F90020C9
:10B1300010BD6022134203D080680CF07CFFF6E75C
:10B140000048F5E716FCFFFF70B5040000250D4B25
:10B150000E000833858085710360210018300BF0E4
:10B16000EDFA2000210020300BF00BFB064BA680EF
:10B17000A571E5712572E5602561656120001C609F
:10B1800070BDC046BC870200382500208379DB07EC
:10B1900002D5C160002070470048FCE716FCFFFFA5
:10B1A0008379DB0701D5C06870470148FCE7C046DA
:10B1B00016FCFFFF70B545690400002D20D0037A0E
:10B1C000032B1FDCFFF7ECFFA8622C200DF021FA07
:10B1D0002C220021050008F077F8002362695362F1
:10B1E0002369002B07D122610020237A6561013396
:10B1F000237270BD0B00596A0029FBD15A62F3E734
:10B200000148F6E70148F4E717FCFFFF13FCFFFFD6
:10B21000144B70B55A68144C002A03D000225A60AF
:10B220000132A2601A69002A17D000211961802317
:10B23000DB00E3580D4D012B10D1A923DB00E158B1
:10B2400028684942FFF7A2FF2868FFF7B3FF2B6881
:10B250005A69074BE2500123A36070BD2868FFF7CD
:10B2600095FFF8E7FC100040001000403825002052
:10B270000405000003000069002809D00221054AE6
:10B28000D167426A1A611A7A013A1A72024B19603E
:10B290007047C04604E100E000E100E010B500297D
:10B2A00003DB024B19600CF00DFF10BD3C250020A4
:10B2B00070B504001E0004AB1D7805F08FF8200067
:10B2C0000E4B40302360FEF7C1FA230001364C33A9
:10B2D000013522001E701D730023E1214E32A3644C
:10B2E0006365138053809381D381013B20006364A5
:10B2F0004902FFF7D3FF200070BDC0465886020008
:10B30000F7B580277F053D697C690822113C6C43B5
:10B3100006002100684607F045FF104B009A9A424C
:10B3200019D00093002301937969300013396943E0
:10B330000BF03CFA019A009930000BF04FFA210013
:10B3400030000BF033FA7969AB08133969432200F6
:10B3500030000BF035FA0198FEBDC046FECA000071
:10B36000F0B50D00ABB00D9200213022060012A8FE
:10B370000B9307F0A9FF280008F00EFA431C0C936A
:10B38000102B00DDB7E00B9B202B00D9B3E0290088
:10B3900030000BF050FA071E56D129000C9A12A863
:10B3A00007F000FF0D990B9A16A807F0FBFE80230B
:10B3B0005B051F695A693000113A7A435D690D9245
:10B3C000FFF79EFF0D9B30220833002104001EA8CA
:10B3D0000F9307F079FF29001339794330000BF000
:10B3E000E5F90F9B0B9300230C930E930C9BA34248
:10B3F00049DA0B9930221EA807F0D4FE12A91EA824
:10B4000008F086F900282DD13D4930002200109126
:10B4100011940BF0E3F96A460B9B099315AB23CB10
:10B4200023C223CB23C223CB23C23000149B129907
:10B43000139A0BF0E1F901230E930B9B30330B931E
:10B440000C9B01330C93D1E710300B9A0D9907F048
:10B4500083FE040038000DF0D8F8002C9DD12000A8
:10B460002BB0F0BD6A460B9B099321AB23CB23C2C3
:10B4700023CB23C223CB23C230001E991F9A209BCB
:10B480000BF0BAF9D9E7E5433021ED1725404D43DC
:10B490000F9B5D190E9B002B1BD1B81E05F00CFEF7
:10B4A00084422AD0164901343000220010911194B0
:10B4B0000BF094F96A46099515AB23CB23C223CB35
:10B4C00023C223CB23C230001299139A149B0BF092
:10B4D00093F90D9930000BF069F980235B055969E8
:10B4E0000C2363431339023379430D9A30000BF078
:10B4F00067F90024B3E7034CB1E7034CAFE7C0465C
:10B50000FECA000017FCFFFF13FCFFFF8023F0B50D
:10B510005B051A6995B002925A6905910299113A30
:10B5200051435C69029B133C050003915C43FFF7A8
:10B53000E7FE061E39D00027039B30220833002186
:10B54000083408A8019307F0BFFE210028000BF083
:10B550002DF90497B74220DA0199302208A807F0A4
:10B5600021FE059908A808F0D3F800280DD11A4942
:10B57000721E2800069107920BF030F90123049304
:10B58000019B013730330193E4E722000C2301993A
:10B5900028000BF015F93034F2E7049B002B06D19C
:10B5A0000D49320028000BF019F90C4812E00399FC
:10B5B00028000BF0FBF880235B0559690C23029AE5
:10B5C00013394A437343110028000233039A0BF0E6
:10B5D000F7F8002015B0F0BDFECA00000CFCFFFF1C
:10B5E00070B50400A280FA22002308000C499200E2
:10B5F00008312160A3716061E260A3606382094940
:10B600000BF019F9051E09D00100200010310222AB
:10B61000123007F0C7FD28000CF0F7FF200070BDC6
:10B62000D48702007794020030B50225837987B071
:10B6300004002B4204D1FDF705FEA3791D43A5713B
:10B6400020000BF03EF900281CD06B46DD1C2800C2
:10B650000BF02EF92B78002B17D001A80BF026F950
:10B660000321019AD3170B409B189B102382FEF7EE
:10B670006FF8E368A18818180123A0601A0002A8D7
:10B6800009F056FF002007B030BD0122064B1A60BA
:10B69000064A51680029FCD000215160044A126812
:10B6A000019201225A60DBE700C00040FCC000406C
:10B6B00008C50040022802D10122014B1A707047D0
:10B6C000B92A002070B5064C05002378002B04D160
:10B6D000044802F089FC01232370280070BDC04695
:10B6E000BA2A0020B5B6010070B50C0009F01EFDA5
:10B6F000002810D00023144DA40A2B7020000BF05A
:10B70000F4F8002803D00A200CF082FEF6E72B782C
:10B71000002BFCD070BD02210C4B0D4A99508021AA
:10B72000C90008005D58002DFCD0A121C9005C5063
:10B7300019580029FCD0002199508021C9005A587D
:10B74000002AFCD0E6E7C046B92A002000E001400C
:10B7500004050000F8B50C0015001E0009F0E6FC19
:10B76000002811D00023174F3B7032002900200021
:10B770000BF0B9F8002803D00A200CF049FEF4E7DA
:10B780003B78002BFCD0F8BD01210F480F4B8446BD
:10B7900019508021C9005A58002AFCD08027002265
:10B7A000FF00964207DD910068586050D959002982
:10B7B000FCD00132F5E7002261465A50DA59002ADE
:10B7C000FCD0E0E7B92A00200405000000E00140B9
:10B7D00008B4024B9C46443808BC6047EF6802003E
:10B7E000FA21F8B50389C9000400594332480BF027
:10B7F00030FBFA21890005F05FFC304F2081A17AEF
:10B8000038000BF026FB23002600250022894C334C
:10B81000A072A0361A808C35317800232A2228683D
:10B820000AF0AEFC002801D02548F8BD31781F236E
:10B830005B2228680AF0A4FC0028F5D13178202387
:10B840005C2228680AF09CFC0028EDD131780123A5
:10B850002C2228680AF094FC0028E5D131780123D5
:10B860002D2228680AF08CFC0028DDD131780123D4
:10B870002E2228680AF084FC0028D5D1A17A38004D
:10B880000BF0E2FA3178C3B20E2228680AF078FC95
:10B890000028C9D1FA2123898900594306480BF0B1
:10B8A000D3FA01230343DBB231782A2228680AF055
:10B8B00067FC0028B9D0B7E7F4870200EC870200E4
:10B8C0000EFCFFFF08B4024B9C46443808BC60479E
:10B8D000E1B70100074B10B51A00040008323C33F1
:10B8E0000260436444300AF048F8200009F071FF18
:10B8F000200010BD5488020008B4024B9C46443816
:10B9000008BC6047D5B8010008B4024B9C464438D7
:10B9100008BC6047F9680200F0B5042583798BB054
:10B9200004002B4204D1FDF78DFCA3791D43A571C2
:10B9300020009030FFF7BCFB0026B0420FD123005F
:10B94000A033197820000C2307AD00938C302B0016
:10B9500001220068FFF76AF9061E03D02C4E300062
:10B960000BB0F0BD0A2304AA9B182A785A706A7893
:10B970001A700022985EAA785A70EA781A7000222B
:10B98000995E03912A795A706A791A7000229F5E33
:10B99000AA795A70EA791A7000215A5E04922A7ABA
:10B9A0005A706A7A1A7000215A5E0592AA7A5A7001
:10B9B000EA7A1F251A7000229B5EA27A9C46039B9E
:10B9C000504359425143CB172B407A435B185B11CC
:10B9D000A361C3172B401818D3171D406423AD185B
:10B9E000059A5B425343A36764236146049A40115E
:10B9F0005A434B43E2676D11221DE061256220002E
:10BA0000D36709F05FFF2000443009F0BDFFA6E7CF
:10BA10000EFCFFFF08B4024B9C46443808BC60474C
:10BA200019B90100F7B51E00040008AB1B8815000A
:10BA3000019309AB00911A8831000AAB1F88FEF709
:10BA4000BBF820003A0031004430FEF711FB134BE5
:10BA500020001A003C336364230008322260009AFD
:10BA60008C331A60AB8890308380AB796A468371DF
:10BA70000B4B92880360AB68032183602B7B0373BD
:10BA80006B7B4373AB7B83732300A0331A80FFF778
:10BA900045FB2000FFF7A4FE2000FEBD54880200F5
:10BAA000A8860200F8B5FA260189B60004007143A1
:10BAB00026480BF0CEF9310005F0FEFA244F208124
:10BAC000A17A38000BF0C5F92500A0725835297805
:10BAD00000232A22606C0AF053FB002801D01D4885
:10BAE000F8BD297810232B22606C0AF049FB00284E
:10BAF000F5D1297801232D22606C0AF041FB002842
:10BB0000EDD1297801232E22606C0AF039FB002840
:10BB1000E5D1A17A38000BF097F92978C3B20E224B
:10BB2000606C0AF02DFB0028D9D1218907487143A8
:10BB30000BF08AF901230343DBB229782A22606CD7
:10BB40000AF01EFB0028CBD0C9E7C046BC88020023
:10BB5000B48802000EFCFFFF10B50400034B08334D
:10BB6000036009F036FE200010BDC0461C890200AB
:10BB70007FB50425837904002B4204D1FDF762FBD5
:10BB8000A3791D43A57120004830FFF791FA0025E5
:10BB9000A8420DD1230058331978062302AE009332
:10BBA00001223300606CFFF741F8051E03D00D4DF4
:10BBB000280004B070BD022300210420F356A27AAD
:10BBC000DB00715630565B425343C000C9005143FD
:10BBD0004243A3612368E16122629B6A2000984787
:10BBE000E6E7C0460EFCFFFFF8B50400150006AA04
:10BBF000168807AA0F0012881900FDF7DDFF0F4B0A
:10BC00006764083323602300AA8848339A80AA799E
:10BC100020009A710A4AA264AA6822652A7B1A73D4
:10BC20006A7B5A73AA7B9A730023A371230058334B
:10BC30001E80FFF737FF2000F8BDC0461C890200B8
:10BC4000A886020010B50400034B0833036009F016
:10BC500094FE200010BDC046B0890200F0B5070078
:10BC60005C3787B00400397800231022806C0AF01A
:10BC700087FA0326002802D01F4807B0F0BD0F2521
:10BC800002ABED180123397808220093A06C2B0039
:10BC9000FEF7CCFF184B9842EED02B78334203D0FE
:10BCA0006420FDF767FBEAE7FA262189134DB60009
:10BCB000714328000BF0CDF8310005F0FDF920812B
:10BCC0003978A0231122A06C0AF05AFA0028D3D1A7
:10BCD000A36C21890393714328003F780BF0B4F8DB
:10BCE00001231843C3B21022390003980AF048FA1E
:10BCF0000028C2D0C0E7C0460EFCFFFF50890200FA
:10BD000070B50825837986B004002B4204D1FDF775
:10BD100099FAA3791D43A57120004C30FFF7C8F9AB
:10BD2000061E0DD023005C331978062304AD009362
:10BD300001222B00A06CFEF779FF061E03D0134EE4
:10BD4000300006B070BD0E232A786B445A706A78B2
:10BD500020001A700022995E64224A43A263AA78E6
:10BD60005A70EA781A700022995E64225242514356
:10BD70006163297959706979197000215B5E5A43B2
:10BD80002368E2631B6A9847DAE7C0460EFCFFFFB0
:10BD9000F8B50400150006AA168807AA0F00128835
:10BDA0001900FEF765F90D4BA764083323602300E3
:10BDB000AA884C339A80AA7920009A71084AE264D2
:10BDC000AA6862652A7B1A736A7B5A73AA7B1E82F1
:10BDD0009A73FFF743FF2000F8BDC046B089020008
:10BDE000A8860200F7B5FA250189204FAD000400AE
:10BDF000694338000BF02DF8290005F05DF9A17AB0
:10BE000020811B480BF025F82600636CA07200937C
:10BE10002189583633786943380001930BF014F8C0
:10BE200007230343DBB22022019900980AF0A8F906
:10BE3000002801D00F48FEBD317810232222606C0B
:10BE40000AF09EF90028F5D1A17A0948656C377887
:10BE50000AF0FAFF80235B420343DBB2232239005E
:10BE600028000AF08DF90028E5D0E3E7E489020014
:10BE7000DC8902000EFCFFFF10B50400034B083301
:10BE8000036009F0A6FC200010BDC046548A0200E1
:10BE9000F0B50425837985B004002B4204D1FDF769
:10BEA000D1F9A3791D43A57120004830FFF700F9AF
:10BEB000061E0DD0230058331978062302AD0093D7
:10BEC000A8222B00606CFEF7B1FE061E03D0144EB4
:10BED000300005B0F0BD1F200023EA5ED3170340F9
:10BEE0009B180222A95E5B11CA1702405218042156
:10BEF0006F5E5211F9170140C91949112B806A80F0
:10BF0000A980A07A5B424343524242434143E361EA
:10BF10002368A26121629B6A20009847D8E7C04647
:10BF20000EFCFFFFF8B50400150006AA168807AA44
:10BF30000F0012881900FDF73FFE0F4B67640833AE
:10BF400023602300AA8848339A80AA7920009A7136
:10BF50000A4AA264AA6822652A7B1A736A7B5A730A
:10BF6000AA7B9A730023A371230058331E80FFF726
:10BF700039FF2000F8BDC046548A0200A88602009E
:10BF8000F7B5FA2504000189134EAD00694330006E
:10BF90000AF05FFF290005F08FF82700A36C2081CD
:10BFA00000935C373B7881B26943300001930AF01B
:10BFB0004BFF6022C3B2019900980AF0E1F8002813
:10BFC00001D00648FEBD397801236222A06C0AF038
:10BFD000D7F80028F6D0F4E7888A02000EFCFFFFAD
:10BFE00010B50400034B0833036009F0C6FC2000C1
:10BFF00010BDC046B08A02007FB5082583790400D1
:10C000002B4204D1FDF71EF9A3791D43A571200031
:10C010004C30FFF74DF8051E0DD023005C33197826
:10C02000062302AE0093E8223300A06CFEF7FEFD6B
:10C03000051E03D00B4D280004B070BD0223F25E34
:10C0400096235B425A4362630021725E2000534391
:10C05000A3630423F25E96235343E36323681B6ABE
:10C060009847E8E70EFCFFFFF8B50400150006AAA4
:10C07000168807AA0F0012881900FDF7F9FF0D4B6B
:10C08000A764083323602300AA884C339A80AA79D6
:10C0900020009A71084AE264AA6862652A7B1A73D2
:10C0A0006A7B5A73AA7B1E829A73FFF769FF20008E
:10C0B000F8BDC046B08A0200A886020010B5040090
:10C0C000054B083303601C3009F098F92000183044
:10C0D00009F094F9200010BDDC8A0200FF23F0B5BE
:10C0E0002B4D8DB02B70002304006946008800930F
:10C0F00003F070F9002802D16B469B782B70254E17
:10C100003368DB68002B07D1002320881A00190050
:10C110000AF062FC0DB0F0BD2B78032BF4DC1E4955
:10C1200001A8FDF759FB336801A9DE6804A809F0EE
:10C13000BAF904A930000AF0ADFB060004A809F022
:10C140005DF9371E1ED031002022103104A807F0FF
:10C1500029F830000CF059FA297804ABC9005918B5
:10C16000082202A807F01EF820880123082202A94D
:10C170000AF032FC0127002804D12088074A0C214C
:10C180000AF028FC01A809F039F9002FC2D1BBE759
:10C190008A2000204C2500200A950200FFFF0000A5
:10C1A000F0B5837991B004005B071BD5FDF7D0FA99
:10C1B00000232269801A9941994203D1F423FF3365
:10C1C00098420FD9A068002808D0364B1D8801F08E
:10C1D00061F9036815221B6A290098470422A37994
:10C1E0009343A371A3799B0759D52F4D2B68DB6827
:10C1F000002B50D02D4B1B78032B4CDC294B2C49AA
:10C200001B8804A80193FDF7E7FA2B6804A9DE68F0
:10C2100008A809F048F908A930000AF03BFB07001C
:10C2200008A809F0EBF802AB9E1D0823320033800A
:10C2300006A9073B01980AF0D1FB002F08D039006E
:10C240002022103108A806F0ADFF38000CF0DDF90F
:10C25000164B32881B7806A9DE0008AB9E19300009
:10C2600006F07AFF002813D0082206A9300006F055
:10C2700099FF2B6804A9DD6805A809F014F92023AB
:10C2800008AA05A928000AF00BFB05A809F0B6F8D2
:10C2900004A809F0B3F80222A3799343A37111B063
:10C2A000F0BDC046602A00204C2500208A200020D6
:10C2B0000A950200F7B5040000250192C77FBD4230
:10C2C00051DA66197078884218D1152927D80122C9
:10C2D0008A402748024222D0F91801201F291DDC7C
:10C2E000E1193718B9420ED800218B420FDD019AAF
:10C2F0007018575C01318770C9B2F6E7605D2D1880
:10C300000135EDB2DBE70878C8540139EAE7625D30
:10C310009A186255E27F9B18E3770020FEBD655DA9
:10C32000013DEDB2AB4209D10023AB42F5DA019AEF
:10C33000F118D05C01338870DBB2F6E7DF197F1BA0
:10C3400001201F2FEADC0227A81C7F4236187F1B22
:10C35000E07F2218964203D23078F0550136F7E795
:10C36000451B023DE577019A20000AF081FBD5E7E5
:10C37000FC002000F0B585B001930AAB1E880BAB22
:10C380001B78451C02930EAB1B78040003930B78BB
:10C39000170003704B8A102243820131280006F0F7
:10C3A00001FF6B469B88268363836B461B7B0026BD
:10C3B00023776B4601221B7A6761E683EB77A31C28
:10C3C000DA7724210C9B0C2563622300200004AA49
:10C3D0005218127828331A705E709E702A0031004D
:10C3E0002C3006F071FF2000064BE663A3632A00A1
:10C3F0003100403006F068FF2000034B2665E364FF
:10C4000005B0F0BDF3690200E569020070B50D00EA
:10C4100001F040F804000368002D09D15B699847DA
:10C42000FA2080006843074904F046FEE08070BDB2
:10C430009B6898478542F3DA236820009B689847F9
:10C440000500EDE771020000F0B507001600A1B08D
:10C4500002C70400684918A81D000AF03BFB301E03
:10C4600001D007F099F901220492002283B20392CD
:10C470000292023201920093320018A93800FFF7AD
:10C4800079FF23005D49583318A807930AF022FB6F
:10C49000281E01D007F080F901220492002283B205
:10C4A000039202920232019200932A0018A907987F
:10C4B000FFF760FF23005249AC3318A808930AF035
:10C4C00009FB2698002801D007F066F901220492A2
:10C4D000002283B203920292023201920093269AC2
:10C4E00018A90898FFF746FF631CFF33454918A8B1
:10C4F00009930AF0EFFA2798002801D007F04CF9C9
:10C5000001220492002283B203920292601C023242
:10C5100001920093279A18A9FF30FFF72BFF230001
:10C520005533FF33384918A809930AF0D3FA2898ED
:10C53000002801D007F030F901220492002283B2D2
:10C5400003920292023201920093289A18A9099844
:10C55000FFF710FF2300A933FF332C4918A80A93D3
:10C560000AF0B8FA2998002801D007F015F901223D
:10C570000492002283B20392029218AD0232019219
:10C580000093299A29000A98FFF7F4FE204B1B78A4
:10C590000B93002B2DD1079B12971393089B0DAF84
:10C5A0001493631CFF331593099B1A4916930A9B36
:10C5B000380017930AF08EFA1D2149203B7810228B
:10C5C0002B707B8A12AE6B8206ABC918C01806F0BE
:10C5D000E9FD06232B756B469B8D2068AB83AE610E
:10C5E00000F068FF036829001B6898470122084B88
:10C5F0001A70200021B0F0BD292A0000242A000072
:10C60000252A0000272A0000262A0000282A0000E8
:10C61000BB2A00200A18000070B5002504000B4B4F
:10C620008580083385710360C1601830FDF70EF90D
:10C6300020001C30FDF70AF90123621CD377044A5D
:10C64000A560656120001460A37170BDDC8A0200E2
:10C650004C250020FA2130B585B0050001230222C7
:10C660008900684608F064FF074C2068002809D05C
:10C670000AF069FA2988054B22681980022391790A
:10C680000B43937105B030BD4C250020602A00207B
:10C6900010B50C0007290AD8806800F0FBFE064B95
:10C6A000195703685B6C9847002802D110BD0348F6
:10C6B000FCE70348FAE7C0460295020017FCFFFFBB
:10C6C00016FCFFFFF0B5A54C0D00A5440400079330
:10C6D0009AAB1B78A24909A804930692FDF77CF84F
:10C6E000200029001C3008F0E6FEC020800001F088
:10C6F00071FC08200BF08DFF0700002100F092FE76
:10C7000015AD0021A7600C220EA806F0DDFD2B0060
:10C710000EAA43CA43C3934B2900EB6000233800A1
:10C720002B610AF0F7FBA06800F0B4FE0C22002198
:10C730000590280006F0C8FD14200BF06AFF8A4B14
:10C740002A0015930300C2CAC2C3884B059EC3606A
:10C750000023A43603613368002B00D0F7E030607B
:10C76000A06800F0A7FE0C2200210600280006F0B9
:10C77000ABFD14200BF04DFF7D4B1593030086CDD0
:10C7800086C37C4BC36000230361336B002B00D056
:10C79000DFE03063A06800F07DFE15AD0C220021C3
:10C7A0000600280006F090FD14200BF032FF724BBB
:10C7B00098361593030086CD86C3704BC360002363
:10C7C00003613368002B00D0C5E0012504AB1B7C5E
:10C7D00004AA2B43306008A9280013740AF000F95A
:10C7E000A06800F077FE036865495B6A9847A06817
:10C7F00000F070FE036863499B699847A06800F0E9
:10C8000069FE002302680093166804992A00B04765
:10C81000049B002B0AD020000AF09EF9032805DDB6
:10C82000A06800F057FE0368DB6898470EA80AF07E
:10C8300016F92F2004ABC0180AF011F9362004AB0A
:10C84000C0180AF00CF93D20042504ABC0180AF00A
:10C8500006F90EAB0A93A06804AB5D7700F03AFED0
:10C8600003680AA91B699847A06800F013FE0368D3
:10C870000AA95B6D9847A06800F00CFE03680021D0
:10C88000DB6D9847A06800F005FE036802219B6DF0
:10C89000984700212000FFF7FBFE18200BF0B9FE9F
:10C8A000A16800F057FA384B384A1B68A168039317
:10C8B000374B15A81B680CAE0293364B00271B683C
:10C8C0000193069B1B685B190093334B12681B682E
:10C8D000FFF7BAFD30200BF09CFE079AA16800F02C
:10C8E000FFFAA06800F0D6FD036831009B6A984704
:10C8F0000823A0683380DB187380B78000F0CAFD7E
:10C9000003683100DB6A98472900A0680AF0EEF856
:10C91000099A09219378A06852190AF0FAF8A068D8
:10C9200000F0B8FD32210771A068FFF76FFD04AB7E
:10C930001B7FBB4204D0A06800F0ACFD0AF0C0F839
:10C9400009A808F05BFD95239B009D44F0BD0361A1
:10C9500005E703611DE7036137E7C046ACFDFFFF54
:10C96000EF950200016A020055C601000F6A02003D
:10C97000DDC001001D6A02004B6A02002B6A020042
:10C980009DC90100D1C9010048250020442500208F
:10C9900008200020402500200C20002013B506228E
:10C9A0006846FCF729FF094B1C68002C0AD0694631
:10C9B00001A808F078FD200001A90AF0EEF801A80E
:10C9C00008F01CFD684608F019FD13BD4C25002039
:10C9D000002373B501AE0C0031000500019302F095
:10C9E000F9FC002802D1B278064B1A70064B186881
:10C9F000002806D061426141044BC9B21D800AF093
:10CA0000D4F873BD8A2000204C250020602A002025
:10CA100030B5284CA9B06A220D000DA8210006F0FF
:10CA2000C1FB0DA903A8FCF745FF03A906A808F060
:10CA3000AFFD01230193013BFF3B00930533FF331F
:10CA4000642206A92800FEF799F806A808F093FDCD
:10CA5000210019226A3106A806F0A4FB0522002451
:10CA6000110006AB04A808F0BAFD04A905A808F057
:10CA70008FFD019400942300220005A92800FDF7F2
:10CA8000BFFF05A808F077FD21002800FEF7A4F8F5
:10CA900005340520FCF76EFCFF2CF5D1FA20800050
:10CAA000FCF768FC04A808F066FD03A808F063FD25
:10CAB00029B030BD7F940200F0B59D4B95B0059232
:10CAC0001A68082307000291D16C06A80B43D364AF
:10CAD0009849FCF781FE984907A8FCF77DFE3A00CB
:10CAE00000240DAD28001C3206A908F0F3FC07AAAB
:10CAF000290008A808F0EEFC280008F07FFC7B1C49
:10CB0000DC77B86800F0C6FC03680BAE5B69984739
:10CB1000280009F0A4FF2B2004ABC01809F09FFFE8
:10CB2000322004ABC01809F09AFF392004ABC018BA
:10CB300009F095FF0B950425B8687571347100F004
:10CB4000A9FC036831005B6D9847B86800F0A2FC4F
:10CB5000036821009B6D9847B86800F09BFC0300B8
:10CB600006000A331F2221001800039306F0ACFBD5
:10CB7000039B3000DC7709F09AFF0621B86809F0C2
:10CB8000B5FF089A09219378B868521909F0C1FFD6
:10CB9000B86800F07FFCC8210471B868FFF736FC64
:10CBA000B86800F077FCFF260481B86800F072FCDA
:10CBB00009F086FF0298FDF7B7FE3800FCF742FB4C
:10CBC00002993800FFF724FF029938000AF000F8B4
:10CBD0000394049501257B691D402DD0574909A870
:10CBE000FCF7E4FE09A90AA808F0D2FC00220AA971
:10CBF0001300019200920298FDF702FF0AA808F0C4
:10CC0000BAFC039B002B42D1043E282E41DD0025B7
:10CC1000FE2E00DC039D059808F09BFE002806D040
:10CC200001237A699A431300049A13437B61002419
:10CC300009A808F0A0FC03957B69049A134233D03D
:10CC4000FF210298C825FDF7C7FF0024AD00BB698E
:10CC500002229B5E9C4222DA380021B2183008F092
:10CC60004FFC0023010002981A007430FCF7EEFE1E
:10CC70002800FCF77FFB029809F075FAC820FCF742
:10CC800079FB02227B69134209D10134DFE70436C4
:10CC9000BBE7029809F067FA002EBCDDBAE7FA207C
:10CCA0008000FCF767FB002402237D691D421CD035
:10CCB00006331D4024D0224909A8FCF777FE09A9B4
:10CCC0000AA808F065FC00220AA90192009213004C
:10CCD0000298FDF795FE0AA808F04DFC1948FCF7EC
:10CCE00049FB09A808F047FC174C6420FCF742FBFD
:10CCF000164B01349C4200DC6CE708F029FA69E726
:10CD0000134909A8FCF752FE09A90AA808F040FC3B
:10CD10002B002A000AA9019500950298FDF770FEE4
:10CD20000AA808F028FC09A808F025FCDDE7C046A1
:10CD3000D0240020169502002695020028950200B6
:10CD40006D950200983A00008C0A00008B0A0000E2
:10CD5000AA95020000225C4BF0B508330600036080
:10CD60000F001000A9B0B1600BAB991801324870E8
:10CD7000102AFAD10F3A554C1A700E32105D991ADA
:10CD80000874013AFAD2997B5A7B09020A433100AE
:10CD90000C31039125211B7813AD2B7002ABC91800
:10CDA000452302A81B186A821800102206F0FAF91F
:10CDB000039B64216B610123002402AA2B832B7740
:10CDC0005218093313701DAB1C706D2302AA9B18F7
:10CDD0001C706E2321009B181EA80C226C83EC8310
:10CDE0006C621C7006F070FA394B0C22210023A8EB
:10CDF000AB63EC6306F068FA364B0322EB64462320
:10CE000002A95B18DA7722002C650595347306AD0C
:10CE10002B1901345A70102CFAD101232E482B7093
:10CE20000E33195CEA1A1174013BFAD21121252044
:10CE3000AA7B6B7B12020BAC13432A78638202AB92
:10CE4000C9182270C018102206F0ACF9012323750E
:10CE500005ABA36100233800A38300F02BFB03681C
:10CE600021001B68984713ABDB8BB068B38200F0DE
:10CE700021FB002203680092B18A039ADC68012337
:10CE8000A047B06800F016FB070014200BF0C1FBB0
:10CE900004000C22002106F017FA00232000236171
:10CEA000069340C0013308222900079306F07AF95F
:10CEB0000A4BE360BB69002B03D13000BC6129B091
:10CEC000F0BD2361F9E7C046F48A02000396020030
:10CED000F3690200E569020013960200336C020058
:10CEE000F0B500260400774BDDB0083303608160A5
:10CEF000C260868086713200734947A809F039FF05
:10CF00002300143308931223012501930E3B04954B
:10CF10000093089A330047A9039602961DA8FFF7CD
:10CF200029FA3200694947A809F023FF0C2322009F
:10CF30000193083B15AF10320495009347A93300C5
:10CF40000396029632A8FFF715FA320060493800BE
:10CF500009F00FFF23001C33099308230193043BBE
:10CF6000390004950093099A33000396029647A866
:10CF7000FFF700FA32005749380009F0FAFE542052
:10CF80000BF047FB230018330793122301930E3B4A
:10CF9000390004950093079A330003960296069091
:10CFA000FFF7E8F9069B0822A3624B4B0AA90A93F4
:10CFB000069B0B961800DC62303006F0F3F8069AF8
:10CFC000464B268293631300668229331D702369C2
:10CFD0000422E3610999079806F0E4F8042207990E
:10CFE000089806F0DFF86622032304A95218D377C5
:10CFF000BA225218D377872252005218D377069A52
:10D0000037490232D3771DAB0C9332AB0D9347AB4C
:10D010000E93069B3200A68510A80F9309F0A9FE77
:10D0200030223121452004AB9B181B7812323B7013
:10D0300004AB9B181B88323A7B8204ABC918C0181A
:10D0400006F0B0F804230CADA0683B75BD61BE834B
:10D0500000F030FA036839001B689847822204AB5D
:10D060009B181B885432238404AB9B181B885432B2
:10D07000A38404AB9B181B88A068638400F01AFA91
:10D08000070014200BF0C5FA05000C22310006F051
:10D090001BF92800134B2E61082210C010A9109311
:10D0A000119606F07FF8104BEB60BB69B34206D1D6
:10D0B000BD612000FCF7C6F820005DB0F0BD2B611B
:10D0C000F6E7C046008B020043960200239602005A
:10D0D0003396020053960200456D0200B16C0200C7
:10D0E0006396020055D10100DB6C0200F0B504002C
:10D0F0000E00150085B000930CAB1B881030019317
:10D1000008F00BFA2680658018200BF082FA0700E1
:10D1100002AE33003D000AAA03CA03C3009B1022DB
:10D1200008C50021280006F0CFF8310008222800A9
:10D1300006F038F8064B02227B612000002301999B
:10D14000A7600A43E360A2802362636205B0F0BD7A
:10D15000056D0200F0B50B898DB00593CB68050015
:10D1600004934B88828C9A420ED1049C059B049AAE
:10D170001B1BD318032B39DD62882188012308A8E3
:10D1800008F0D6F90434F1E7428C9A422ED1049C7F
:10D19000059B049A1B1BD318032B27DD238828200B
:10D1A00006936388EF680793114B08930023099354
:10D1B0000BF02FFAC0236A460600029308AB03CB9C
:10D1C00003C22B000699079A3000FFF78FFF3B68D8
:10D1D00031005B6838009847002805D0300008F01F
:10D1E000C3F830000BF011FA0434D1E70DB0F0BDF4
:10D1F000C36D020070B5040090B0806809F0DCFDDA
:10D20000022101401AD1A38D002B17D00C4B6A4686
:10D2100004931023E568A1850591029304AB41CBEB
:10D2200041C20A00230006A8FFF760FF2B6806A989
:10D230009B682800984706A808F096F810B070BDC3
:10D24000C36D0200002815D0006041608260C36099
:10D25000046145618661C761444604624C4644628C
:10D26000544684625C46C462644604636E46466308
:10D2700074468463002A06D0C46B043C043A2568D3
:10D280001560B442F9D18C6BA6464E6BB546002BA7
:10D2900006D0CC6B043C043B1D682560B442F9D138
:10D2A0000C6BA446CC6AA3468C6AA2464C6AA14683
:10D2B0000C6AA046CF698E694D690C69CB688A6893
:10D2C000086849687047006041608260C36004611B
:10D2D00045618661C761444604624C4644625446D7
:10D2E00084625C46C462644604636E464663744668
:10D2F0008463C46B043C043925680D60B442F9D1E1
:10D30000C769866945690469704700604160826049
:10D31000C360046145618661C761444604624C464E
:10D320004462544684625C46C462644604636C464C
:10D3300044637446846304697047846BA646446BF7
:10D34000A546046BA446C46AA346846AA246446AFE
:10D35000A146046AA046C769866945690469C3682D
:10D36000826800684168704710B5041E0CD006F052
:10D3700013FA431EE3189C4208D222781978013B25
:10D3800021705A700134F6E7014810BD0020FCE717
:10D3900017FCFFFFF0B585B002900C1E2AD00023C9
:10D3A000C217161A56400193019B30005D1C631989
:10D3B0000A215F1E039303F0EFFF494230313970B9
:10D3C00030000A2103F002FF47420600002F0FD170
:10D3D000029B002B04DA2D23019D039A0235137062
:10D3E000002320006355FFF7BFFF380005B0F0BDF4
:10D3F0000195D9E7004FF8E717FCFFFF0268084BDB
:10D40000406810B5C018C00010180300934205D33F
:10D410001C688C4202D31800083BF7E710BDC046D9
:10D42000FFFFFF1F002370B50400016043609942B5
:10D430000AD1064D2B68002B02D109F0B8FF2860F5
:10D4400023689B00EB586360200070BD60250020BE
:10D4500070B500280DD10C4C2668002E07D108307D
:10D460000BF0D7F805003100FFF7DCFF25602068DE
:10D4700070BD0122054906480B681340F8D10260CF
:10D4800043600A60F4E7C046542500205025002080
:10D4900058250020436810B50400002B02D1044831
:10D4A0000AF0FEFE606803681B69984710BDC0461D
:10D4B00073960200436810B50400002B02D10448A3
:10D4C0000AF0EEFE606803689B69984710BDC0468D
:10D4D00073960200436810B50400002B02D1044883
:10D4E0000AF0DEFE606803685B6A984710BDC046BC
:10D4F0007396020000487047FFFF0000F0B597B038
:10D500000593036807AD1B680491039311002B007A
:10D51000060091C991C30024D36821000C220CA8F5
:10D52000EB602C6105F0D0FE22000B4B10940F93A2
:10D5300011AB1C70191901344A70102CFAD15A829F
:10D540000193059B2A00009304990CAB3000039CC7
:10D55000A04717B0F0BDC04661700200FC3070B546
:10D56000046C0500002C0DD124200BF052F8064B62
:10D5700044608361054B8460C46004614461C4619C
:10D5800003602864286C70BDEC8B0200D48C020010
:10D59000FC3070B5C56B0400002D11D134200BF0A8
:10D5A00038F8084B85604360074B45610361074BC2
:10D5B0000562C361064BC5628362064BE06303608C
:10D5C000E06B70BD1C8C02000C8C02007C8C020095
:10D5D0008C8C02009C8C02007FB503791548002BCF
:10D5E0001CD0154E154C33782000002B16D102ADFF
:10D5F000280009F012FD002815D16B88592B12D193
:10D600002B78AA88D91F01290AD800920C4A202118
:10D61000200005F0EBFF01233370200004B070BD43
:10D620000092084AF3E720220749200006F0E6F8B6
:10D63000F3E7C04696960200DC2A0020BC2A0020B0
:10D64000B0960200CD960200F296020010B50400DA
:10D65000024B08C009F0C4FD200010BD0C8C020074
:10D6600010B50400024B08C009F0CFFD200010BD2A
:10D670001C8C0200064B70B5040003604068002853
:10D6800004D005690AF0C1FF2800F8E7200070BD4A
:10D69000FC8B0200064B70B5040003604068002854
:10D6A00004D005690AF0B1FF2800F8E7200070BD3A
:10D6B0002C8C0200064B70B5040003604068002803
:10D6C00004D005690AF0A1FF2800F8E7200070BD2A
:10D6D0003C8C0200064B70B50400036040680028D3
:10D6E00004D005690AF091FF2800F8E7200070BD1A
:10D6F0007C8C0200064B70B5040003604068002873
:10D7000004D005690AF081FF2800F8E7200070BD09
:10D710008C8C0200064B70B5040003604068002842
:10D7200004D005690AF071FF2800F8E7200070BDF9
:10D73000208B0200064B70B504000360406800288F
:10D7400004D005690AF061FF2800F8E7200070BDE9
:10D75000308B0200064B70B504000360406800285F
:10D7600004D005690AF051FF2800F8E7200070BDD9
:10D77000408B0200064B70B504000360406800282F
:10D7800004D005690AF041FF2800F8E7200070BDC9
:10D79000508B0200064B70B50400036040680028FF
:10D7A00004D005690AF031FF2800F8E7200070BDB9
:10D7B000EC8B0200FC3070B5046C0500002C0DD120
:10D7C00024200AF026FF064B44608361054B8460E9
:10D7D000C46004614461C46103602864286C70BD46
:10D7E000EC8B0200D48C0200104B10B508330360A0
:10D7F0000F4B0400C36080230E4A5B00C250C01868
:10D80000FCF768FF20000C4BB830E360FFF7B2FF75
:10D810002000AC30FFF79EFF2000A030FFF78AFF0A
:10D8200020006C30FFF776FF200010BD008D020055
:10D83000488D0200A08E0200608B0200F0B505004A
:10D84000040087B0AC356B68AB60A868002807D0CF
:10D85000C36821009847AB68002BF4D01B69F3E73D
:10D860002500B0352868002804D006690AF0CDFEEE
:10D870003000F8E72200FC215832137828600B4072
:10D88000137023005C33187020000A3009F086FD05
:10D890002000343009F082FD606E002804D0056954
:10D8A0000AF0B3FE2800F8E725009835606628687E
:10D8B000002804D006690AF0A8FE3000F8E72860C6
:10D8C0002500A4352E68002E05D0376930000AF0F7
:10D8D0009CFE3E00F7E72E6001AD31000C222800CF
:10D8E00005F0F2FC23002A006C3383CA83C3094B82
:10D8F000E667A3670C223100280005F0E5FC230051
:10D90000803307CD07C33000034A90341A60266085
:10D9100007B0F0BD4570020037700200444AF0B510
:10D920000600C260A022434B163608330360010094
:10D93000002342820400320085B0037183600374C7
:10D9400083823531137001329142FBD180258022D0
:10D950002000AD00D201F3773584110000933830F8
:10D96000002300F00DFF23002100403303931A0031
:10D970002B0000255F31157001328A42FBD1039ADA
:10D98000FC21D577220060321380137920000B40F0
:10D990001371230068331D70274B2567E3660C2243
:10D9A0000021783005F090FC2300270088331D60AB
:10D9B000224B0837FB67843700210C22380005F022
:10D9C00083FC1F4B1F4AFB602300A0333D611A609C
:10D9D0001D4A5D60DA601D4A1D619A61DD6130009B
:10D9E00009F0DCFC039809F0D9FC194B601CE360DA
:10D9F0002300C4331D705D709D70FF3002F024FD64
:10DA00008C235B00E55023001933FF335D618023D5
:10DA1000104A5B00E250230001222000FE335242F4
:10DA20005A86023B9D63DD631D6405B0F0BDC046B0
:10DA3000608B0200008D0200208B02004570020006
:10DA400037700200308B0200408B0200508B0200C6
:10DA5000488D0200A08E020070B5074C2368002B91
:10DA600007D1A02040000AF0D4FD0500FFF756FFC3
:10DA70002560206870BDC0466425002070B50C226A
:10DA80000D000021040005F01FFC00232361024B60
:10DA900025602000E36070BD5370020070B5002562
:10DAA0000400254B05710360244B45718360244BB2
:10DAB000C5604361234B85610362234B4562C362AA
:10DAC000224B05638363C56329004430FFF7D6FF0B
:10DAD000200029005830FFF7D1FF200029006C30CA
