:020000021000EC
:1080000000400020E10102001D0202001F020200E8
:108010000000000000000000000000000000000060
:10802000000000000000000000000000210202002B
:1080300000000000000000002302020025020200F0
:108040002702020015AE01009D080200270202006F
:10805000270202000000000059020200270202006D
:1080600027020200950A02002507020027020200EB
:108070002702020027020200270202002702020054
:108080002702020027020200270202002702020044
:108090002702020079FB010005FD01002702020012
:1080A000270202002702020000000000000000007A
:1080B00000000000000000000000000000000000C0
:1080C000054B0648033310B51B1A062B03D9044B86
:1080D000002B00D0984710BDB0200020B020002019
:1080E000000000000648074910B5091A8910CB0F97
:1080F0005918491003D0044B002B00D0984710BDED
:10810000B0200020B02000200000000010B5074C77
:108110002378002B09D1FFF7D3FF054B002B02D0AA
:10812000044800E000BF0123237010BDB8200020E8
:108130000000000004930200094B10B5002B03D08F
:108140000849094800E000BF08480368002B02D135
:10815000FFF7C8FF10BD064B002BF9D09847F7E793
:1081600000000000BC20002004930200B02000208A
:1081700000000000144B002B00D1124B9D46402202
:1081800092029A1A924600218B460F461148124AD3
:10819000121A0AF091FE0D4B002B00D098470C4BA1
:1081A000002B00D098470020002104000D000B4850
:1081B0000AF0AAFB0AF064FD200029000FF024FE5B
:1081C0000AF0C0FB00000800004000200000000092
:1081D00000000000B0200020682B0020BD2B020012
:1081E000044A84B09378032B01DC0133937004B00C
:1081F0007047C04684200020044A84B09378002B46
:1082000001D0013B937004B07047C0468420002029
:1082100010B50400034B036040300CF0E5FE200075
:1082200010BDC0464482020030B5022087B000F085
:10823000AFFF144B144C5A78050002709B782A004B
:10824000437020000223B430104902F08BFE104B23
:10825000984208D00F4B1049984205D0280000F0F2
:10826000CBFF07B030BD0D4905A801F0B7F82000DD
:10827000782205A9F03002F021FA05A80CF0B4FE2E
:10828000ECE7C0468420002004210020008D02007D
:1082900013FCFFFF17FCFFFF058D0200208D02007D
:1082A0001FB5009009480191B43009490292039327
:1082B0000EF0B7F8002804D0064B027C5A70427CBE
:1082C0009A700FF098FF05B000BDC0460421002051
:1082D000008D02008420002010B503480AF04EFEF5
:1082E00001200AF02FFBC046368D0200F0B585B0A4
:1082F0001F000AAB1B880600029115000393002F94
:108300001BD028200FF07BFF6B4604001989039BCC
:10831000AAB200933B000CF006FE336821005B68B4
:1083200030009847002806D020000CF013FE2000F3
:108330000FF061FF024805B0F0BD0248FBE7C04600
:1083400016FCFFFF17FCFFFF70B504000800251E98
:1083500007D121000CF098FB054B1860200070BD80
:108360000D0069680029FBD10CF08EFB6860F5E711
:10837000D42000201FB5082000F00AFF04000220CE
:1083800000F006FF002C01D1FFF7A6FF064B60604E
:108390005A78210002709B78437000232370034BAE
:1083A0001868FFF7D1FF1FBD84200020D4200020D3
:1083B00070B504000D00814205D10CF073FB0B4B2E
:1083C0001860200070BD4B68002B02D10CF07AFBC6
:1083D000F5E70028F5D061604B684360086800F05D
:1083E0000BFF280000F008FFEBE7C046D420002078
:1083F00070B50F4D2C68002C18D023685B68197875
:1084000004290CDC0B480131C9B2653019705A7867
:1084100009B2FF23FF3001F05FF86468EBE705293C
:10842000FBD121002868FFF7C3FFF6E770BDC04607
:10843000D42000200421002070B50024651C032CEA
:1084400008DC0CF058FB0D4BA400E0502C000B2D69
:10845000F4D111E0231F022B02D80CF069FBF2E7E4
:10846000E31F022B02D80CF07FFBECE70A2CEDD1C6
:108470000CF097FB014B986270BDC046D8200020DD
:1084800073B5254E10253400D034244B032201212E
:1084900000952000FFF72AFF214B032202210095BF
:1084A0002000FFF723FF1F4B03221A210095200015
:1084B000FFF71CFF1C4B0422012100952000FFF751
:1084C00015FF1A4B0422022100952000FFF70EFF32
:1084D000FFF7B2FF164B1B68002B1CD03000340096
:1084E000F0300DF036FC6534124BFF349A78597831
:1084F0002000052300F0F0FF0F4B20005B685B6855
:108500005A781978FF2300F0E7FFFFF771FFFA2090
:1085100000F032FDDEE773BD04210020F981010087
:10852000E18101007583010029820100A18201001F
:108530000420002084200020D820002010B503480B
:1085400000F006F9FFF79CFFFCE7C046042100207D
:1085500010B5084C200000F043F8074A07492000F6
:108560000FF042FE06480222064901300AF012FCD2
:1085700010BDC04604210020002000208985010094
:108580008420002087200020CA23144A9B0010B5B5
:10859000C2501C330400C0180CF026FDD0239B00F1
:1085A000E0180CF021FD20009130FF3001F01CFBA1
:1085B00020006930FF3001F017FB2000F03001F09F
:1085C00099FE2000D03002F013FA2000643007F04A
:1085D000D7FC201DFFF71CFE200010BDD086020036
:1085E0001423F0B5040093B019220093182104302D
:1085F00002F060FC23002500260064331800B43527
:1086000013211093B83607F0C7FC28000DF003FFC4
:1086100000221E2130000DF0A1FB2000D03002F01E
:1086200007FA2300F033474A06211800119301F09E
:1086300085FE20000027012369301A0000971121D0
:10864000FF3001F0DDFA2000913000970123022273
:108650001A21FF3001F0D4FA2000B93002220121A2
:108660001A23FF3002F0A2FA300001F0D3F8E4231D
:108670005B00E050300001F01FFBE6235B00E050A0
:108680000100E42220005200D130119BA258009535
:10869000FF3001F063FD2000E13029001C22FF3093
:1086A00002F0A0FD192320000F93013B0E93013B24
:1086B0000D93013B0C93013B0B93013B0A93013B50
:1086C0000993013B0893013B0793013B0693013B50
:1086D0000593013B0493013B0393013B0293013B50
:1086E0000193F930013B082200930721013BFF3041
:1086F0000DF055FBCA239B00E018290003F08EFD06
:10870000D3239B00E0181D2102F020FBDD239B00FA
:10871000E7501098277003210FF083FA23002200FE
:10872000200009499C33A0321C6011605760074A41
:1087300080305A610221012207F040FE200013B070
:10874000F0BDC0464C820200EF4B0200DB4B020042
:108750000123F0B505788DB007001D4000D085E0FD
:108760000300D0331800029300F0EAFA00F00EFA8A
:1087700028200FF044FD040010300CF0C4FC6D4BB9
:108780006580238018200FF03AFD06006A4B80C6F2
:1087900003901022290030000A930B950AF08CFBFD
:1087A00008220AA930000AF0F5FA644B039AE56042
:1087B00053611223A260A3802562656221000298A2
:1087C00002F0A6F8002805D020000CF0C3FB200022
:1087D0000FF011FD01233A78594913433B703B00D8
:1087E000B433180004930DF01CFE5649039004980E
:1087F0000DF017FE00240590642000F0BDFB26005C
:1088000025003B006933FF33180006930CF097FEF8
:1088100000282DD1039B002B33D1059B002B30D199
:10882000DD2449494948A40000F086FC3B59002B4F
:108830001CD100F099F8010008A800F0CFFD09A8AC
:108840000CF049FACA239B00F818059B09AA08A94D
:108850000093029B03F038FD09A80CF0C5FB08A8A3
:108860000CF0C2FBCC239B00FB583B510DB0F0BD7C
:1088700038009130FF300CF062FE0028CAD0182D6D
:10888000C8DC3800653031B222B2FF23FF30013638
:1088900000F022FEF6B2322000F06EFB0135052E0C
:1088A00002D10026631CDCB2039B192D06D0002BDD
:1088B000A7D02349049802F02BFC01E0002BF8D14B
:1088C00003980FF098FC05980FF095FC1E491F487F
:1088D00000F032FCDD239B00FB580793002B20D1D6
:1088E00000F042F8010008A800F078FD09A80CF09B
:1088F000F2F9CA200123800009AA08A900933818B8
:10890000029B03F0E1FC09A80CF06EFB08A80CF038
:108910006BFBCC239B00FB580793DD23079A9B003E
:10892000FA50CA2339009B00069AF031F81803F078
:10893000C5FE66E7FD030000634C0200234C020005
:108940007A8D0200858D020000200020001C00208E
:10895000BFF34F8F024A034BDA60BFF34F8FFEE73E
:108960000400FA0500ED00E0F0B58DB005AF192266
:10897000154938000AF00EFA0022144B05245A71EA
:1089800080225205566E0122250001940292039323
:108990000199300008F00EFA0800029908F084F9F5
:1089A000019B03996B430193029B361A6B4302931D
:1089B000631E2C1B6C433C19225C1C1ECA54E7D15D
:1089C00008000DB0F0BDC046958D0200962A00202B
:1089D000F0B595B01822002106000EA80AF06CFA36
:1089E00013210EA80FF07BFA03210EA80FF00DFB48
:1089F0004C4B1B68002B00D10133DBB202934A4A77
:108A00000123002109A807F049FE484B9E4200D9E6
:108A1000002672B6464B1022002105A81D680AF0F8
:108A20004BFA444B642130000593052408F0C6F945
:108A300060435030281806900A21300008F0BEF933
:108A40000A2108F0A1FA61435031691807913000FA
:108A50000A2108F099FA80236143002450316918F3
:108A60009B0108910093029B002B59D00025002305
:108A70002E1F019305AB9B190393032C03D1802375
:108A800000249B01009305AB2B4A58596300013326
:108A9000D3180022110010265F1E3F783E41370098
:108AA0001E78865D3E4202D001279740394301324D
:108AB0000633092AEFD1C943204B09011940039B12
:108AC0001B68984229D1019B312B26DC002109A883
:108AD0000FF054FBFA23139A0F99DB001068014240
:108AE0001ED0013B002BF9D1009B01345B000093A9
:108AF000019BE4B201330193FA23019A5B009A428D
:108B0000BBD10435102DB2D1064B1B68002BAAD067
:108B1000029B013BDBB20293A5E7009B1943D6E71A
:108B2000FFF716FF80240020F0FF0000E70300009D
:108B300008200020E48D0200AE8D0200F01F00002E
:108B4000F0B500281BDD0F4C421E276811000020E5
:108B5000BE09FB0F73407B403E097D087340BF0890
:108B60007B406B40DB072B4301251F0040002B405F
:108B70001843E940ECD18242E8D32760F0BD0248B7
:108B8000FCE7C0467C24002017FCFFFFF8B500235B
:108B9000124C23600CF0C0F8002808D004212000FB
:108BA0000CF0B6F8002801D00D4B2360F8BD01226F
:108BB000A12704250B4B0C491A602268FF0048606E
:108BC0004E68002EFCD0DE591202013D3243002DCA
:108BD000F5D1226001225A60E8E7C0467C240020DB
:108BE000ED5EBC0B00D00040FCD000400B4B70B5DC
:108BF0001C68002C10D0656D00F0ACFBA36C002944
:108C000001D1834206D820000CF0B9F804492000B5
:108C10000CF0A3F82C00ECE770BDC04688240020BF
:108C2000A8240020F0B5060093B007932A4B0490C7
:108C30001C682A4B05911F68069285B2360C002FDE
:108C400047D000230293002C2FD0636D2448039358
:108C50004823E3181A88A36C1B0C99B2854214D1DF
:108C60002048824211D1002B01D0B1420BD1029B8E
:108C7000002B08D120000CF082F81B4920000CF0DA
:108C80006CF801230293039CDDE7002A01D0954292
:108C9000F9D1002B01D0B142F5D120000CF06FF8D2
:108CA000114920000CF059F8EDE7104BEB18012B9F
:108CB0000FD910233200009329000D4B08A80CF0A7
:108CC00032F93B6808A99B683800984708A80CF05F
:108CD00041F913B0F0BDC046B42400208424002024
:108CE000FE030000FF030000A824002002FCFFFF99
:108CF000258C010070B572B60B4B1C68002C08D097
:108D000020000CF03CF80023E364084B2000E363F0
:108D100070BD62B65C200FF072FA050021005C2283
:108D20000AF0CAF82C00EEE7AC2400200040002036
:108D3000024B1878012318407047C0469C2A002037
:108D4000F7B50600FFF7F4FF051E33D11A4C266075
:108D5000FFF7D0FF194B1A4918600BF0FEFFFFF721
:108D6000C9FF184B1860184B4363184B8363206886
:108D700000280ED0C027164E2A0033001549009750
:108D8000FFF7B4FA009733002A0013492068FFF771
:108D9000ADFA0C200FF033FA0023838083710F4B60
:108DA00003600F4B836000F0EDFA01230D4A117848
:108DB0000B431370F7BDC04684240020B824002064
:108DC000A8240020B0240020FC3F0020454E0200D3
:108DD000258C0100FF030000FE0300006C820200EE
:108DE000ED8B01009C2A0020F7B506000D0017004E
:108DF0000193002802D100242000FEBD0029FAD0F2
:108E0000FFF778FF041EF6D0074B019A4363066014
:108E100045608760054B002A00D0054BA3630549D8
:108E200020000BF09AFFE7E7FC3F00200F4E020006
:108E30002D4E0200A8240020024B186843425841DE
:108E40007047C046A8240020002310B504499C00A8
:108E50006258002A01D00133F9E76050100010BDBC
:108E600090240020002310B5044A99008C588442B5
:108E700001D00133F9E70020885010BD9024002074
:108E800010B50024074BE058002802D003685B6847
:108E900098470434182CF5D1034B1B68002B00D1E4
:108EA00020BF10BD90240020A8240020F8B5FFF7B3
:108EB0003FFF00281CD02A4D2C68E36CDA0718D538
:108EC00002273B43E364274B1E680423F26C300007
:108ED0001343F364636BF3630BF077FF3000716C43
:108EE00003F0F3FF2868C36C3B4201D004F027F87D
:108EF000F8BD1D4F1D4E3A68002A02D132682A6023
:108F000007E0216DB942FAD1616D002900D111004D
:108F100029602A6831688A4208D11B0706D52C606F
:108F2000FFF7AEFF3B68002BFAD02B6029688C421C
:108F3000DED0336899420BD10D4B4B630D4B8B63E5
:108F400020000BF042FF2968626C4B6C200004E0AB
:108F50009C42F5D1002210004B6C03F075FFC7E76F
:108F6000B82400208C240020A8240020B024002055
:108F7000FC3F0020454E020070B50500FFF7D8FE0B
:108F8000002803D128000FF039F870BD0C4B1C6885
:108F9000E36CDB0706D5FFF7ADFE0A4B186000282F
:108FA00000D0040000F0D6F92D18A56420000BF0C5
:108FB000E6FE054920000BF0D0FEFFF777FFE4E75F
:108FC000B82400208C24002088240020F0B51E4BFB
:108FD0001E4F1C683B6885B006000391002B30D003
:108FE000FFF7A6FE00282CD0E36CDB070ED5FFF7B9
:108FF00081FE174B051E186008D00BF0C0FE154906
:1090000028000BF0AAFE2C00FFF750FF039B200066
:109010001B043343A3640BF0B2FE20000E490BF097
:109020009CFE0E4B0020F318012B08D9C02300939F
:10903000039A0B4B31003868FFF758F9002005B050
:10904000F0BD0848FBE7C046B82400208424002077
:109050008C240020A8240020B424002002FCFFFF60
:10906000258C010016FCFFFF10B5FFF761FE0028FC
:1090700009D0054C20680BF082FE044920680BF0F3
:109080006CFEFFF713FF10BDB8240020AC240020B5
:10909000F7B507000D0000282ED0FFF749FE002885
:1090A0002CD00724164E3068C36C1C4007D0154ADC
:1090B000290038000BF07AFE00242000FEBD03F0EA
:1090C00026FF02213268D36C1940019103D003219D
:1090D0008B43D364F1E701242343D3642800B847CA
:1090E0003268D36C1900A143D164019C5B07E4D5BD
:1090F00028000BF093FEE0E7034CDEE7034CDCE7CF
:10910000B82400201D4E020017FCFFFF16FCFFFFD5
:10911000020010B5014B12CB12C210BDBC240020BE
:10912000034B1A68034B1A607E225A607047C04690
:1091300008200020BC24002070B5114E3278022A8D
:109140001AD081421AD90C1A072C17D90D00032303
:1091500005432B4012D172B60A4DD2005051AA18C5
:1091600051608022A4081206144304603278013250
:10917000327062B6180070BD0348FCE70348FAE796
:109180009E2A0020C424002013FCFFFF17FCFFFFD1
:1091900070B5134C06002378124D002B0CD11249E8
:1091A00012482B70FFF7C8FF114B984202D11E20C6
:1091B000FFF70EFC0123237000242B789C4209DA70
:1091C0000C49E300C91830000BF042FE002805D11D
:1091D0000134F2E71420FFF7FBFB002070BDC0460E
:1091E0009D2A00209E2A002000380020682B0020A5
:1091F00017FCFFFFC424002070B5002819D0104BC5
:1092000010491C780023A34216DADA005558A84208
:1092100010D98A18526890420CD2041F2368002B80
:1092200002DC1E20FFF7D4FB802322681B061343B9
:10923000236070BD0133E6E71E20FFF7C9FBF8E7A6
:109240009E2A0020C424002070B5051E14DD0B4E9C
:109250000B4C3368002B02D020680EF047FDFA213A
:1092600020680024074B89008361C462694335602C
:109270000EF044FD200070BD0348FCE7D42400201C
:10928000042500203193010017FCFFFFF8B5114FB2
:1092900006003D68002D0AD130200EF0B0FF04001A
:1092A00006F0D4FE0C4BA5612360E5623C600B4DDB
:1092B0002B68002B09D110200EF0A1FF04000EF046
:1092C0006AFD20002C600EF040FD3000FFF7BCFF6F
:1092D000F8BDC04604250020788A02000025002041
:1092E000014B18687047C046D424002070B50D4C5F
:1092F0002368002B03D00C4B1B68002B02D10620E7
:10930000FFF7C4FF20680EF037FD02000749C317BE
:109310000D684E685219734120680A604B600EF068
:1093200031FD70BD0025002004250020B020002064
:1093300010B5FFF7DBFF0024054BE058002802D0F2
:1093400003681B6898470434282CF5D110BDC0462B
:10935000D824002010B5FFF7C9FFFA22034B920072
:1093600018685968002307F04FFE10BDB020002098
:1093700010B5FFF7BBFF024B1868596810BDC04617
:10938000B02000200B4B10B51B680400002B03D04D
:10939000094B1B68002B02D10620FFF777FF002343
:1093A000064A99008858002801D00133F9E78C500B
:1093B00010BDC0460025002004250020D824002030
:1093C000002310B5044A99008C58844201D001331F
:1093D000F9E70020885010BDD824002010B5040003
:1093E000002902D00B78002B03D1034B236020000F
:1093F00010BD0BF000FEFAE77C820200F8B5040015
:109400000E00150000290AD00B78002B07D0002A87
:1094100005D0080097B209F0B7FF874203D90B4B7C
:1094200023602000F8BD681DFFF7B2FE20600BF03E
:1094300087FF20682A0047803100043009F0AAFC29
:1094400023685D1900232B71EBE7C0467C82020084
:10945000014B03607047C0467C82020010B505488E
:10946000054C20600BF06FFF044A054920000EF008
:10947000BBFE10BD7C8202000825002000200020D9
:10948000E94F0200084B73B51C680500002C0AD098
:109490000100266808310822684609F07BFC0CCDE3
:1094A00031682000884773BD0C250020014B036004
:1094B0007047C0468482020010B50400002903D121
:1094C000044B0360200010BD016008000BF03BFF5F
:1094D000F8E7C0468482020030B500684488A142A3
:1094E00006DA8588AA4203DA002901DB002A01DABC
:1094F000034830BD54434018001983710020F8E739
:1095000017FCFFFFF0B5070085B00E001D00002915
:1095100021DD002A1FDD002B1DD004686388039322
:109520008B4200DD0391A3880293934200DD0292F7
:10953000002306340193019B029A93420EDA29001C
:109540002000039A09F026FC3B68AD195B88E418FB
:10955000019B0133EEE7024805B0F0BD0020FBE7B8
:1095600017FCFFFFF8B504000D0016001F000029CE
:1095700001DB002A02DA0D4B2360F8BD10004843DE
:109580000630FFF705FE20600BF0DAFE23685D80F1
:109590009E80002F06D03B00320029002000FFF7FC
:1095A000B1FFEAE720000BF000FEE6E7848202004C
:1095B000F7B506000D1E1BD000200F0004000100AF
:1095C00001903B78002B1ED03022524294469C449E
:1095D0006246092A15D90A2B0ED1019B24180133A2
:1095E0000193A14200DA2100002004000137E8E7DE
:1095F000164B03603000FEBD0028F7D00134002078
:10960000F4E70120F2E76A460127928809B212B214
:1096100030007F42FFF7A6FF39000A2033689A1D09
:109620002C78002CE6D02300303B092B08D8FB43D4
:10963000DB173B4043431B19303B1F000135EFE76D
:10964000002FFBDB177001320F00F7E78482020066
:10965000F0B587B0009004A815001E000F00FFF7BA
:1096600057FD009B1B685A8895422ADA9B88B342B3
:1096700027DD1F2F25DD059B01939F4221DC05235C
:1096800000217B430193049B0293019B029A5B1888
:10969000A03BD35C0022039373189C46009B571990
:1096A0001B6858880400874202DA988860450ADC03
:1096B0000132052AF2D101310529E6D1002007B097
:1096C000F0BD0748FBE7DB191027604617416043F0
:1096D0001B1803980740781E87417F429F71E7E778
:1096E00017FCFFFFF7B5036806009C1D5B880D00A3
:1096F0005A1A0192002919DD0027994203DB0BF069
:1097000054FD002013E033689B889F42F9DA611909
:10971000019A200009F03EFB019B2900E0180BF0A4
:1097200027FD336801375B88E418ECE70048FEBD8D
:1097300017FCFFFF10B50548054C20600BF003FE39
:10974000044A054920000EF04FFD10BD848202003E
:1097500010250020002000206351020010B5054CA8
:10976000012120000BF0E3FD034A044920000EF024
:109770003BFD10BD1425002000200020EF52020008
:109780000388074A10B50120934208D0834202D0D3
:109790000020DB0703D41E20FFF71AF9002010BDBC
:1097A000FFFF00000048704716FCFFFF10B5322095
:1097B000FFF70EF9004810BD16FCFFFF828014224F
:1097C00010B5134C0281083402000023046041628A
:1097D00002240100303283718472C36003614361EB
:1097E0008361C3610362363113705370438683868D
:1097F0000A78A243F13422400A700200403213700A
:10980000021DD387013343878387C38710BDC046BA
:10981000A4820200F0B5544F97B03B680600059350
:10982000002B00D08BE006AC0B331C222121200042
:1098300001F0F4F90EAD0B231D2222210AA801F03C
:10984000EDF90B231B222321280001F0E7F9082062
:109850000EF0D5FC0122059B110004900DF0F4F8E8
:109860003A2130000CF05EFE00281DD0A38812AD16
:10987000AB80A3795C20AB713C4B1293A36814932B
:10988000237B2B73637B6B73A37BAB730EF0B7FCF3
:1098900004230193363300932A00049B3100040013
:1098A00001F0A4FF3C604AE0322130000CF068FE79
:1098B00000281CD0A38812ADAB80A3795C20AB71CB
:1098C0002A4B1293A3681493237B2B73637B6B73D4
:1098D000A37BAB730EF093FC042301932E33009310
:1098E0002A00049B3100040002F01EF9DAE73C2153
:1098F00030000CF000FE00282CD0AB8812ACA38006
:10990000AB79A420A371194B1293AB6814932B7BF2
:1099100023736B7B6373AB7BA3730EF070FC052327
:1099200005000293013B0193383300932200049B0E
:10993000310001F079FE0E4B3D6044351D600C4B4B
:10994000094C1868002802D021680BF066FE2068D8
:1099500017B0F0BD44200EF052FC0422049904001C
:10996000FFF72CFF9EE7C0461825002094820200D6
:109970001C250020F0B56149C56885B08D4254DAD8
:109980000300022236331B78134059D104698C42FC
:1099900064DA020036321278520768D442690192C2
:1099A0000200019E40328E426FDA010036310978A2
:1099B000090774D4002B7DD113780293002B16D0A5
:1099C00006000127011DCB8F363601339BB2CB87B2
:1099D00003963678BC46374000D188E01D2B06D967
:1099E00063469E43039B1E700023CB8713700BF0CE
:1099F000F4FC434A0723904276D94249043B8D4206
:109A000072DBC8220133920095426DDC023B8C422E
:109A10006ADB013B944267DC01980433884263DBD4
:109A20000133904260DC00235EE0C8220023520034
:109A30009542ABDD030036331A7800239207A5D494
:109A4000012306001F00363632785408A7433C0035
:109A500002279C40BA432243327097E7C822520043
:109A600094429BDD020036321278520796D40600EB
:109A70000122363633789F08BA4397000422934375
:109A80001A003A433270012388E7C821019E490039
:109A90008E428FDD01003631097809078AD4010032
:109AA000012636310B78DF08BE430827F600BB439A
:109AB00033430B701378032B00DD7DE70133DBB2FA
:109AC0001370012B03D10021031DD98774E7042BE8
:109AD00000D071E7020036321178033B0B4313705C
:109AE00000230430C3870B33180005B0F0BD092BE9
:109AF00000D87CE7029BCF87013B77E770FEFFFF32
:109B0000FF700200E0FCFFFF70B5C369C2681B680C
:109B10008AB00400451D1A4207D0EB7F002B09D004
:109B2000013B06E03300032239E0EB7F0B2B01DC25
:109B30000133EB77EB7F082B0DDD0122A379134274
:109B400009D11343A371A188130006A80BF0E6FA0C
:109B5000FFF700FC2062EB7F012B23DC0123A279BD
:109B60001A421FD00025A188A571022202A80BF07D
:109B7000D5FAA31DDE7F012E14D1FFF7EBFB2B00DE
:109B8000226A801A994100900191019BA188AB4201
:109B900003D1134B009A9A42C4D90123042206A888
:109BA0000BF0BCFA0322A3791340012B0AD1FFF773
:109BB000D1FB0023226A801A9941994204D1094BB2
:109BC000984201D80AB070BD0223A279A18813433C
:109BD000A3710522012306A80BF0A0FAF2E7C04604
:109BE000E7030000DB05000010B50400034B083359
:109BF0000360FFF7E5FB200010BDC046D8820200DD
:109C0000F0B5070000250E0085B002930AAB1B7863
:109C100008370393104B04000833036001928580DA
:109C2000857129001822380009F046F9039A31009D
:109C300038000EF059F96B466A469B88127AA38069
:109C4000A31DE671DA77631D25622000DD77FFF73B
:109C500099FB200005B0F0BDD88202000048704793
:109C600016FCFFFF10B53320FEF7B2FE004810BD12
:109C700016FCFFFF002310B50400838083710D489C
:109C80002164083020608020C000A061E061206273
:109C9000E3602000236163616362A362E362236384
:109CA0006363A363E363636411000BF08EFC200025
:109CB00010BDC046F0820200F0B5534F97B03B682C
:109CC00006000593002B00D08BE00B331C222121D2
:109CD00006A80AAC00F0A2FF0EAD0B231D22222124
:109CE000200000F09BFF0B231B222321280000F003
:109CF00095FF08200EF083FA0122059B11000490C5
:109D00000CF0A2FE1D2130000CF023FC00281DD019
:109D1000A38812ADAB80A3796020AB713B4B12934B
:109D2000A3681493237B2B73637B6B73A37BAB734D
:109D30000EF065FA05230193183300932A00049B63
:109D40003100040001F026FE3C604AE03C21300076
:109D50000CF02DFC00281CD0A38812ADAB80A37999
:109D60006020AB71294B1293A3681493237B2B7350
:109D7000637B6B73A37BAB730EF041FA05230193F6
:109D8000373300932A00049B3100040001F06EFF7A
:109D9000DAE73C2130000CF0AEFB00282BD0AB887A
:109DA00012ACA380AB79A420A371184B1293AB68BB
:109DB00014932B7B23736B7B6373AB7BA3730EF0CA
:109DC0001EFA052305000293013B019338330093EB
:109DD0002200049B310001F027FC0D4B1D6044352F
:109DE0003D600B4B1A68084B002A01D019684A6481
:109DF000186817B0F0BD48200EF001FA052204994A
:109E00000400FFF737FF9FE71C2500209482020023
:109E10001825002082B0F0B50400EBB064207193E7
:109E200070920EF0EBF805220EA811000BF0C6F9A7
:109E300097490FA8FFF7BCFB00221FAB6AA91A6065
:109E40005A609A600C338B42F9D11922002111A873
:109E500009F032F8A0680BF07AFF00260990FF2184
:109E6000A06800F0BBFC8B4FA06800F05FFB07967A
:109E70000896079B182B00DDBEE0864B9F4203D05F
:109E8000854B9F4200DBAEE0A0680BF062FFA56847
:109E9000824918A8FFF7A2FA782218A9280000F032
:109EA000E3FB18A80BF0A0F800267A4F0322089BCA
:109EB000606801331A4008920BF027FB05006068C8
:109EC0000BF02AFB0022764B04929D4210DB0132FC
:109ED00004922A00C8320BDBAA22042192000491CA
:109EE000954205DC03220492C82D01DC013A04925C
:109EF00000220592984210DB012305930300C8332A
:109F00000BDBAA2304329B000592984205DC032355
:109F10000593C82801DC013B05930EA80BF045F919
:109F2000002511ABEB5C012B08D15E496B00CA1810
:109F30005278C95C0EA8FF23FFF7CEFA0135192D20
:109F4000EFD16B4614229A5E6B460EA81021595E23
:109F5000089BFFF7C1FA002F01DB0F2E07DD00225F
:109F6000A0680092743013000EA90BF034F900239E
:109F70000693069B04985A004A4BD15C814227D134
:109F80009B185B78059A934222D12C2206AB9B1832
:109F9000069A9B5C012B1BD00C23079A2168534324
:109FA0001D0000220AA80BF03AFB1FAA2B009446C2
:109FB0000AAA634423CA23C32C2206AB06999B1822
:109FC0002B3A5A54079B01360133DBB20793F6B2A2
:109FD000069B01330693192BCBD16420643F0EF00E
:109FE0000DF83FB245E7002F02D00F2E00D05DE7FD
:109FF000A06800F09BFA59E71FA918A8079A0BF070
:10A000001DFD6A461BAB23CB23C21B681360189946
:10A01000199A1A9B20680BF0EAFAE568002D0CD01B
:10A02000214910A8FFF7DAF91C2318AA10A9280063
:10A030000CF02CFA10A80AF0D7FFA0680BF089FEEC
:10A040000FA910A8A5680BF099F80022174B0092F1
:10A0500010A901932800130000F0AAFA10A80BF031
:10A0600080F8FA2080000DF0C9FFA0680BF071FEA7
:10A070000999A06800F0B2FB0FA80BF072F80EA8C7
:10A080000BF06FF86BB0F0BC08BC02B01847C046CC
:10A09000C48F02008C3C0000D18AFFFF09900200AF
:10A0A00058FDFFFF299002001E900200DC05000011
:10A0B000F0B587B001930EAB1B88060003930D9B90
:10A0C0000D000093019B02920C9F002B3ED0002FAD
:10A0D00002D1009BDB0739D528200EF090F8040050
:10A0E00010300BF010F86B461B8918202580638018
:10A0F0000EF085F8049707000500009B10220593D9
:10A10000019B002108C7380008F0D6FE082204A9E8
:10A11000380008F03FFE0E4B02226B6100230399CA
:10A12000E3602362636233680A43A560A2805B68D0
:10A13000210030009847002806D020000AF00AFFCE
:10A1400020000EF058F8034807B0F0BD0248FBE7C6
:10A150005F56020016FCFFFF17FCFFFF70B58CB0C6
:10A160008360109B01604260C360040018491800BE
:10A170000CF057F9051E14D001001C22103105A85F
:10A1800008F008FE6A4608AB43CB43C21B68136065
:10A1900020680599069A079B0BF029FA28000EF013
:10A1A0002AF80C4B186800280ED00B4A05AB059214
:10A1B00000220692C03202926A4622CB22C22300BB
:10A1C00003220521FFF774FF20000CB070BDC046CC
:10A1D0001E9002000C250020159E0100F0B5040021
:10A1E00085B0637A9C46002B04D120000BF043FC21
:10A1F00005B0F0BDA37A266F01931023019AF356A0
:10A2000000259B1801229A402900F36802920393CB
:10A21000039B9D4231DAB368019A6B439B187269C4
:10A220005B00E77AD3181A785878E379012F14D1B4
:10A230005F1E3F1A10003A005B004343606F8218B4
:10A24000D3189B79634500DD6346627B1A4202D0D6
:10A250000123AB4019430135DAE7022F05D15F1E18
:10A26000BA1A277A013F381AE6E7032FE4D1277A92
:10A27000013FBF1A02003800DEE71123C943F3563D
:10A28000606C994023691940029B19430DF076FFD9
:10A29000A37B072BACDC627B581C520062730B491A
:10A2A0009A00A073022B03DC88580DF09CFE98E7FF
:10A2B000074B2000236300236363064B8958E46245
:10A2C000236414300DF01AFD92E7C0461C8302008F
:10A2D000DDA10100635A020010B50400044B0360C5
:10A2E0000DF004FD200005F0C7FE200010BDC046A3
:10A2F000788A020010B504000E4B08330360FFF7A4
:10A300005FF8200074300AF02CFF200060300AF063
:10A3100028FF200058300AF067FE200050300AF075
:10A3200063FE2000044B14306361FFF7D5FF20006B
:10A3300010BDC0463C8302008C8A0200F8B500259F
:10A340000400324B85800833036085711430160099
:10A350000F0005F07BFE20002D4BE5626361256454
:10A360005030FFF775F820005830FFF771F82000E3
:10A370006030FFF79BF820000423F25E3368266705
:10A38000590009B274300AF019FF3378226FE37173
:10A390007368012623721023E572A572A7802561D8
:10A3A000D356916859188B4204DA30009840013333
:10A3B0000543F8E711230120D356D16859188B4281
:10A3C00006DA02009A402669013332432261F6E739
:10A3D00014200DF014FF226900212A4301230600F6
:10A3E00006F05CF9FF226272220000230125483248
:10A3F00066646573A373237320001370A366FEF76E
:10A40000C1FFA37920001D43A571F8BD3C83020064
:10A410008C8A0200F0B5437A85B00400002B04D189
:10A4200020000BF028FB05B0F0BD0122837A11005B
:10A430009C461023066F0025F3560392634499400F
:10A4400001912900F3680293029B9D422CDAB368C4
:10A4500072696B4363445B00E77AD3181A785878C3
:10A46000E379012F10D15F1E3F1A10003A005B0004
:10A470004343606F8218D3189B79002B02D0039B53
:10A48000AB4019430135DFE7022F05D15F1EBA1A31
:10A49000277A013F381AEAE7032FE8D1277A013FEC
:10A4A000BF1A02003800E2E71123C943F356606C7B
:10A4B000994023691940019B19430DF05FFE667AAC
:10A4C000B31EDBB2FC2B14D8FEF70AFF0B4B0500C2
:10A4D000236300230A4863630A4BFF21E462236479
:10A4E000704306F06BFC29004143200014300DF04E
:10A4F00005FC637A012B00DD95E791E7775A0200AE
:10A50000B6030000635A02001FB5012381881A00B8
:10A5100068460AF003FE012303491A0068460AF060
:10A52000FDFD05B000BDC046FE0300001FB50300E1
:10A5300048331A780400002A0DD000221A70012333
:10A5400081881A0068460AF0E9FD012304491A00CF
:10A5500068460AF0E3FD200074300AF026FE1FBDB5
:10A56000FF03000010B548300378002B06D00378B5
:10A57000012B03D0012102480AF040FC10BDC04667
:10A58000FF03000010B50121040006200AF036FC8C
:10A59000064B984208D148342378002B04D0237806
:10A5A000012B01D020BFF7E710BDC04616FCFFFF0E
:10A5B00073B5079C0500002C0ADB0600483630788E
:10A5C000002807D03078012804D00C4C200076BD3C
:10A5D0000B4CFBE76846007E1BB20090280012B2CD
:10A5E00074300AF0F8FD002CF0D02B004A331C80A8
:10A5F000002407234C352C803370E7E712FCFFFF63
:10A6000017FCFFFFF0B587B00D9C06000F0002920B
:10A610000393002C20DBFFF7A5FF330048331D78A0
:10A62000EDB2002D1AD1390005A80AF0A7FD0C9B48
:10A6300001940093029A039B05A93000FFF7B8FF2D
:10A6400005A80AF08EFD002C03D03000FFF79AFF1A
:10A650002C00200007B0F0BD014CFAE7014CF8E7F0
:10A6600017FCFFFF11FCFFFFF8B50400171E09DD02
:10A67000060048363378002B06D03378012B03D000
:10A680000C48F8BD0C48FCE72200E3795632013B48
:10A69000137023000025200054331D8050300AF031
:10A6A00000FD23004A331F8002234C3425802800FC
:10A6B0003370E6E712FCFFFF17FCFFFFF7B505005C
:10A6C0000F00161E18DDFFF74DFF2B0048331C78D6
:10A6D000E4B2002C12D1390001A80AF0DAFC3200F1
:10A6E00001A92800FFF7C0FF01A80AF07DFC28009F
:10A6F000FFF748FF2000FEBD0148FCE70148FAE7EC
:10A7000017FCFFFF11FCFFFFF8B50400161E0DDD5E
:10A71000070048373A78002A0AD03A78012A07D049
:10A720001548F8BD6B4618229B5E07E01348F8E712
:10A730005D42069BFF33F5D16B1D1BB222006432D4
:10A7400013802300200066331D7060300AF01EFD68
:10A75000230000226C331A70954200D0350023008C
:10A760004A331D80079B013E5A1E93414C340533EA
:10A77000268000203B70D4E712FCFFFF17FCFFFF90
:10A78000F0B587B005000F00161E03931EDDFFF71E
:10A79000E9FE2B0048331C78E4B2002C18D13900B4
:10A7A00005A80AF0EBFC0D9B320001930C9B05A958
:10A7B00000932800039BFFF7A7FF05A80AF0D1FC30
:10A7C0002800FFF7DFFE200007B0F0BD0148FBE7DF
:10A7D0000148F9E717FCFFFF11FCFFFFFF2902D832
:10A7E0004172002070470148FCE7C04617FCFFFF9C
:10A7F00013B5040004A80078009020000DF0E9F9DA
:10A80000002801D1207516BD0048FCE70EFCFFFFB3
:10A8100013B5040004A80078009020000DF0C1F9E1
:10A82000002801D1207516BD0048FCE70EFCFFFF93
:10A830007FB50D0011000F226A4404001E1E117026
:10A8400016D0089B002B13DD012329000093FFF78E
:10A85000DFFF002802D0074804B070BD0090089BBD
:10A86000320029002000FFF7C3FF0028F4D0F2E7F0
:10A870000148F1E70EFCFFFF17FCFFFFF7B50700EB
:10A880000D1E3FD00023022604690193002C35D011
:10A89000AA88A3885340334204D1324204D1AB8802
:10A8A000334226D0646AF1E7A968A0680CF0B1F8D9
:10A8B0000028F4D02B88002B02D022889A42F1D1B4
:10A8C0006B88002B02D062889A42EBD1EB68E26879
:10A8D000934201D0002BE5D17B68002B01D02000F2
:10A8E0009847A288084B1343A380019B013301932F
:10A8F000D8E7A368AA689342D4D1DBE7019B200084
:10A90000002B00DC0148FEBD0080FFFF17FCFFFFAD
:10A91000F0B5060085B00D1E00D160E00127046986
:10A92000002C26D00221AA8800230A4202D0A38844
:10A930005B083B40226829688A4218D1002B12D05C
:10A94000A968A0680CF065F8002810D0EB68E268F0
:10A9500093420CD1A3881AB2002A02DA5B045B0C82
:10A96000A380204811E0A368AA689342EED0646AED
:10A97000D6E731692A880F000B1E08D13561012303
:10A98000194968460AF0CAFB002005B0F0BD1888D6
:10A99000904205DA586A1F0000280ED00300F6E73F
:10A9A00018003B000488944207D147886C88A7426E
:10A9B00003DC446A0300002C0BD199420BD10888B8
:10A9C000824204DB07D14C886888844203DD6962D7
:10A9D000D4E72000E6E7596A69625D62CFE7034881
:10A9E000D3E7C04616FCFFFFFD03000017FCFFFF86
:10A9F000064B10B51A00040008322C330260836045
:10AA00000830FEF72FFA200010BDC0465483020024
:10AA100008B4024B9C46083808BC6047F1A9010005
:10AA200008B4024B9C46083808BC6047C55E02006B
:10AA30000C4A002311002C32083110B54360838189
:10AA400083738260036143618361C3830160040097
:10AA50000830FEF7F9F9044B1A68002A00D11C608F
:10AA6000200010BD548302000C250020F7B50E0015
:10AA7000012504690192002C36D0238832889A423D
:10AA800001D0002B2AD1638872889A4201D0002B12
:10AA900024D1FEF74DF90123002806D0C022A38857
:10AAA0001340C03B5A425341DBB2019A934214D146
:10AAB000A7883BB2002B10DB10223100A01808F051
:10AAC00069F940231F420BD1FEF732F9002807D065
:10AAD00021000648FEF7DCFA00E00025646ACAE7B8
:10AAE00020000BF0F8F9F9E72800FEBDD75E020060
:10AAF00008B4024B9C46083808BC60475F600200FF
:10AB0000F0B587B001930EAB1B88060003930D9B35
:10AB10000D000093019B02920C9F002B3ED0002F52
:10AB200002D1009BDB0739D528200DF068FB04001B
:10AB300010300AF0E8FA6B461B89182025806380E4
:10AB40000DF05DFB049707000500009B10220593A4
:10AB5000019B002108C7380008F0AEF9082204A9BB
:10AB6000380008F017F90E4B02226B61002303999D
:10AB7000E3602362636233680A43A560A2805B6876
:10AB8000210030009847002806D020000AF0E2F9A2
:10AB900020000DF030FB034807B0F0BD0248FBE792
:10ABA0009960020016FCFFFF17FCFFFFF0B50400E0
:10ABB000160000258380164A164B8571026021819C
:10ABC00046810573186889B08C46A8421DD0124A88
:10ABD00005950492C02202926A4604AB82CB82C2DF
:10ABE000614623002A00FFF78BFF0B4A094B0692B0
:10ABF000C022186802926A4606AB079582CB82C2D1
:10AC000023002A003100FFF77BFF200009B0F0BDD0
:10AC1000988302000C250020C361020030B5002497
:10AC200003730123034D8471056081808273437334
:10AC3000846030BD9482020070B583790400DB0724
:10AC400002D580680DF0D7FAA3799B0702D5A068DA
:10AC50000DF0D1FAA3795B0707D5A0230021144A90
:10AC6000DB00D150A0680DF0C6FAA3791B0708D508
:10AC7000A568002D05D028000BF03CFF28000DF042
:10AC8000BAFAA379DB0605D5A068002802D00368CC
:10AC9000DB6898476023A2791A4205D0A068002893
:10ACA00002D003685B6898470023A360A37170BD5E
:10ACB00000700040F7B50126037B040033422BD01F
:10ACC000612385791D4017D1FFF7B6FF18200DF0DD
:10ACD00096FA0E230700E35618220093637B29009F
:10ACE000019308F0E9F8019A009938000DF0FCF89A
:10ACF000A379A7603343A3716023A2791A4203D0DA
:10AD0000A0680CF087FFFEBDA3685A6958681268F6
:10AD10001040431E9841F6E70048F4E716FCFFFF99
:10AD200010B50124837941731C4004D080680DF074
:10AD30006CF9002010BD6022134203D080680CF033
:10AD400070FFF6E70048F5E716FCFFFF70B504005A
:10AD500000250D4B0E0008338580857103602100AE
:10AD600018300BF0E1FA2000210020300BF0FFFA40
:10AD7000064BA680A571E5712572E56025616561C8
:10AD800020001C6070BDC046A88302002025002062
:10AD90008379DB0702D5C160002070470048FCE7DB
:10ADA00016FCFFFF8379DB0701D5C06870470148B7
:10ADB000FCE7C04616FCFFFF70B545690400002D96
:10ADC00020D0037A032B1FDCFFF7ECFFA8622C20B6
:10ADD0000DF015FA2C220021050008F06DF8002373
:10ADE000626953622369002B07D122610020237A14
:10ADF00065610133237270BD0B00596A0029FBD1D4
:10AE00005A62F3E70148F6E70148F4E717FCFFFF51
:10AE100013FCFFFF144B70B55A68144C002A03D082
:10AE200000225A600132A2601A69002A17D000215C
:10AE300019618023DB00E3580D4D012B10D1A923AC
:10AE4000DB00E15828684942FFF7A2FF2868FFF7B6
:10AE5000B3FF2B685A69074BE2500123A36070BD12
:10AE60002868FFF795FFF8E7FC100040001000404D
:10AE7000202500200405000003000069002809D0F7
:10AE80000221054AD167426A1A611A7A013A1A7296
:10AE9000024B19607047C04604E100E000E100E0A9
:10AEA00010B5002903DB024B19600CF001FF10BD47
:10AEB0002425002070B504001E0004AB1D7805F0A9
:10AEC0008FF820000E4B40302360FEF7C1FA2300BC
:10AED00001364C33013522001E701D730023E12121
:10AEE0004E32A3646365138053809381D381013B09
:10AEF000200063644902FFF7D3FF200070BDC04605
:10AF000044820200F7B580277F053D697C690822ED
:10AF1000113C6C4306002100684607F03BFF104BD4
:10AF2000009A9A4219D00093002301937969300066
:10AF3000133969430BF030FA019A009930000BF095
:10AF400043FA210030000BF027FA7969AB08133976
:10AF50006943220030000BF029FA0198FEBDC0467B
:10AF6000FECA0000F0B50D00ABB00D9200213022FA
:10AF7000060012A80B9307F09FFF280008F004FAC0
:10AF8000431C0C93102B00DDB7E00B9B202B00D94A
:10AF9000B3E0290030000BF044FA071E56D1290017
:10AFA0000C9A12A807F0F6FE0D990B9A16A807F056
:10AFB000F1FE80235B051F695A693000113A7A431C
:10AFC0005D690D92FFF79EFF0D9B30220833002133
:10AFD00004001EA80F9307F06FFF2900133979436F
:10AFE00030000BF0D9F90F9B0B9300230C930E93B9
:10AFF0000C9BA34249DA0B9930221EA807F0CAFE27
:10B0000012A91EA808F07CF900282DD13D49300076
:10B010002200109111940BF0D7F96A460B9B09930B
:10B0200015AB23CB23C223CB23C223CB23C23000B7
:10B03000149B1299139A0BF0D5F901230E930B9BD5
:10B0400030330B930C9B01330C93D1E710300B9AE8
:10B050000D9907F079FE040038000DF0CCF8002CB3
:10B060009DD120002BB0F0BD6A460B9B099321AB0C
:10B0700023CB23C223CB23C223CB23C230001E9970
:10B080001F9A209B0BF0AEF9D9E7E5433021ED176D
:10B0900025404D430F9B5D190E9B002B1BD1B81E05
:10B0A00005F002FE84422AD0164901343000220005
:10B0B000109111940BF088F96A46099515AB23CBD2
:10B0C00023C223CB23C223CB23C230001299139A6D
:10B0D000149B0BF087F90D9930000BF05DF980237C
:10B0E0005B0559690C2363431339023379430D9A85
:10B0F00030000BF05BF90024B3E7034CB1E7034CDD
:10B10000AFE7C046FECA000017FCFFFF13FCFFFFBD
:10B110008023F0B55B051A6995B002925A690591D2
:10B120000299113A51435C69029B133C050003915B
:10B130005C43FFF7E7FE061E39D00027039B302251
:10B1400008330021083408A8019307F0B5FE210058
:10B1500028000BF021F90497B74220DA0199302238
:10B1600008A807F017FE059908A808F0C9F80028F4
:10B170000DD11A49721E2800069107920BF024F98E
:10B1800001230493019B013730330193E4E722004C
:10B190000C23019928000BF009F93034F2E7049BE5
:10B1A000002B06D10D49320028000BF00DF90C4898
:10B1B00012E0039928000BF0EFF880235B05596932
:10B1C0000C23029A13394A437343110028000233B7
:10B1D000039A0BF0EBF8002015B0F0BDFECA00009A
:10B1E0000CFCFFFF70B50400A280FA2200230800C7
:10B1F0000C49920008312160A3716061E260A36094
:10B20000638209490BF00DF9051E09D001002000E9
:10B2100010310222123007F0BDFD28000CF0EBFFC8
:10B22000200070BDC08302005B90020030B5022593
:10B23000837987B004002B4204D1FDF705FEA37982
:10B240001D43A57120000BF032F900281CD06B467D
:10B25000DD1C28000BF022F92B78002B17D001A859
:10B260000BF01AF90321019AD3170B409B189B107E
:10B270002382FEF76FF8E368A18818180123A06005
:10B280001A0002A809F04AFF002007B030BD0122D1
:10B29000064B1A60064A51680029FCD00021516013
:10B2A000044A1268019201225A60DBE700C00040A4
:10B2B000FCC0004008C50040022802D10122014B19
:10B2C0001A7070479F2A002070B5064C050023783D
:10B2D000002B04D1044802F089FC012323702800CC
:10B2E00070BDC046A02A0020B9B2010070B50C00A4
:10B2F00009F012FD002810D00023144DA40A2B7071
:10B3000020000BF0E8F8002803D00A200CF076FEAD
:10B31000F6E72B78002BFCD070BD02210C4B0D4AB8
:10B3200099508021C90008005D58002DFCD0A12152
:10B33000C9005C5019580029FCD000219950802187
:10B34000C9005A58002AFCD0E6E7C0469F2A0020D0
:10B3500000E0014004050000F8B50C0015001E00D7
:10B3600009F0DAFC002811D00023174F3B7032009F
:10B37000290020000BF0ADF8002803D00A200CF0C3
:10B380003DFEF4E73B78002BFCD0F8BD01210F48CF
:10B390000F4B844619508021C9005A58002AFCD00E
:10B3A00080270022FF00964207DD91006858605018
:10B3B000D9590029FCD00132F5E7002261465A50E4
:10B3C000DA59002AFCD0E0E79F2A0020040500009B
:10B3D00000E0014008B4024B9C46443808BC60477A
:10B3E000DB640200FA21F8B50389C900040059435F
:10B3F00032480BF024FBFA21890005F055FC304F50
:10B400002081A17A38000BF01AFB230026002500CA
:10B4100022894C33A072A0361A808C3531780023F3
:10B420002A2228680AF0A2FC002801D02548F8BD8D
:10B4300031781F235B2228680AF098FC0028F5D198
:10B44000317820235C2228680AF090FC0028EDD196
:10B45000317801232C2228680AF088FC0028E5D1E5
:10B46000317801232D2228680AF080FC0028DDD1E4
:10B47000317801232E2228680AF078FC0028D5D1E3
:10B48000A17A38000BF0D6FA3178C3B20E222868C0
:10B490000AF06CFC0028C9D1FA212389890059439C
:10B4A00006480BF0C7FA01230343DBB231782A22A6
:10B4B00028680AF05BFC0028B9D0B7E7E0830200F7
:10B4C000D88302000EFCFFFF08B4024B9C464438B0
:10B4D00008BC6047E5B30100074B10B51A00040033
:10B4E00008323C330260436444300AF03CF82000E8
:10B4F00009F065FF200010BD4084020008B4024B33
:10B500009C46443808BC6047D9B4010008B4024BDB
:10B510009C46443808BC6047E5640200F0B5042549
:10B5200083798BB004002B4204D1FDF78DFCA37905
:10B530001D43A57120009030FFF7BCFB0026B042F0
:10B540000FD12300A033197820000C2307AD0093FE
:10B550008C302B0001220068FFF76AF9061E03D029
:10B560002C4E30000BB0F0BD0A2304AA9B182A7899
:10B570005A706A781A700022985EAA785A70EA782F
:10B580001A700022995E03912A795A706A791A70AA
:10B5900000229F5EAA795A70EA791A7000215A5ED9
:10B5A00004922A7A5A706A7A1A7000215A5E0592B9
:10B5B000AA7A5A70EA7A1F251A7000229B5EA27A34
:10B5C0009C46039B504359425143CB172B407A432F
:10B5D0005B185B11A361C3172B401818D3171D40CC
:10B5E0006423AD18059A5B425343A3676423614605
:10B5F000049A40115A434B43E2676D11221DE061EA
:10B6000025622000D36709F053FF2000443009F081
:10B61000B1FFA6E70EFCFFFF08B4024B9C4644387E
:10B6200008BC60471DB50100F7B51E00040008AB5B
:10B630001B881500019309AB00911A8831000AABF1
:10B640001F88FEF7BBF820003A0031004430FEF7B7
:10B6500011FB134B20001A003C33636423000832B3
:10B660002260009A8C331A60AB8890308380AB796B
:10B670006A4683710B4B92880360AB680321836039
:10B680002B7B03736B7B4373AB7B83732300A033F0
:10B690001A80FFF745FB2000FFF7A4FE2000FEBD47
:10B6A0004084020094820200F8B5FA260189B600AF
:10B6B0000400714326480BF0C2F9310005F0F4FA9A
:10B6C000244F2081A17A38000BF0B9F92500A0722F
:10B6D0005835297800232A22606C0AF047FB00289D
:10B6E00001D01D48F8BD297810232B22606C0AF088
:10B6F0003DFB0028F5D1297801232D22606C0AF04A
:10B7000035FB0028EDD1297801232E22606C0AF048
:10B710002DFB0028E5D1A17A38000BF08BF92978B0
:10B72000C3B20E22606C0AF021FB0028D9D1218916
:10B73000074871430BF07EF901230343DBB22978FC
:10B740002A22606C0AF012FB0028CBD0C9E7C04661
:10B75000A8840200A08402000EFCFFFF10B50400C4
:10B76000034B0833036009F02AFE200010BDC046D9
:10B77000088502007FB50425837904002B4204D19B
:10B78000FDF762FBA3791D43A57120004830FFF748
:10B7900091FA0025A8420DD12300583319780623C9
:10B7A00002AE009301223300606CFFF741F8051EE2
:10B7B00003D00D4D280004B070BD022300210420E9
:10B7C000F356A27ADB00715630565B425343C000F9
:10B7D000C90051434243A3612368E16122629B6A2D
:10B7E00020009847E6E7C0460EFCFFFFF8B50400CE
:10B7F000150006AA168807AA0F0012881900FDF77F
:10B80000DDFF0F4B6764083323602300AA884833A9
:10B810009A80AA7920009A710A4AA264AA682265CD
:10B820002A7B1A736A7B5A73AA7B9A730023A371CB
:10B83000230058331E80FFF737FF2000F8BDC046B5
:10B84000088502009482020010B50400034B0833FF
:10B85000036009F088FE200010BDC0469C850200F0
:10B86000F0B507005C3787B0040039780023102258
:10B87000806C0AF07BFA0326002802D01F4807B02C
:10B88000F0BD0F2502ABED18012339780822009393
:10B89000A06C2B00FEF7CCFF184B9842EED02B7813
:10B8A000334203D06420FDF767FBEAE7FA262189DB
:10B8B000134DB600714328000BF0C1F8310005F0BC
:10B8C000F3F920813978A0231122A06C0AF04EFAF6
:10B8D0000028D3D1A36C21890393714328003F78BA
:10B8E0000BF0A8F801231843C3B2102239000398C3
:10B8F0000AF03CFA0028C2D0C0E7C0460EFCFFFFA9
:10B900003C85020070B50825837986B004002B427F
:10B9100004D1FDF799FAA3791D43A57120004C309D
:10B92000FFF7C8F9061E0DD023005C3319780623F3
:10B9300004AD009301222B00A06CFEF779FF061ED8
:10B9400003D0134E300006B070BD0E232A786B442E
:10B950005A706A7820001A700022995E64224A4365
:10B96000A263AA785A70EA781A700022995E64225B
:10B9700052425143616329795970697919700021E4
:10B980005B5E5A432368E2631B6A9847DAE7C04666
:10B990000EFCFFFFF8B50400150006AA168807AADA
:10B9A0000F0012881900FEF765F90D4BA7640833E4
:10B9B00023602300AA884C339A80AA7920009A71C8
:10B9C000084AE264AA6862652A7B1A736A7B5A7322
:10B9D000AA7B1E829A73FFF743FF2000F8BDC04682
:10B9E0009C85020094820200F7B5FA250189204F58
:10B9F000AD000400694338000BF021F8290005F080
:10BA000053F9A17A20811B480BF019F82600636CCA
:10BA1000A072009321895836337869433800019326
:10BA20000BF008F807230343DBB2202201990098AA
:10BA30000AF09CF9002801D00F48FEBD3178102390
:10BA40002222606C0AF092F90028F5D1A17A094807
:10BA5000656C37780AF0EEFF80235B420343DBB26C
:10BA60002322390028000AF081F90028E5D0E3E715
:10BA7000D0850200C88502000EFCFFFF10B504004F
:10BA8000034B0833036009F09AFC200010BDC04648
:10BA900040860200F0B50425837985B004002B426E
:10BAA00004D1FDF7D1F9A3791D43A57120004830D9
:10BAB000FFF700F9061E0DD023005833197806232E
:10BAC00002AD0093A8222B00606CFEF7B1FE061EAB
:10BAD00003D0144E300005B0F0BD1F200023EA5EF5
:10BAE000D31703409B180222A95E5B11CA170240BC
:10BAF000521804216F5E5211F9170140C9194911FA
:10BB00002B806A80A980A07A5B4243435242424321
:10BB10004143E3612368A26121629B6A2000984748
:10BB2000D8E7C0460EFCFFFFF8B50400150006AAD2
:10BB3000168807AA0F0012881900FDF73FFE0F4B69
:10BB40006764083323602300AA8848339A80AA795F
:10BB500020009A710A4AA264AA6822652A7B1A7395
:10BB60006A7B5A73AA7B9A730023A371230058330C
:10BB70001E80FFF739FF2000F8BDC0464086020056
:10BB800094820200F7B5FA2504000189134EAD0036
:10BB9000694330000AF053FF290005F085F82700BB
:10BBA000A36C208100935C373B7881B269433000FD
:10BBB00001930AF03FFF6022C3B2019900980AF096
:10BBC000D5F8002801D00648FEBD3978012362224D
:10BBD000A06C0AF0CBF80028F6D0F4E774860200D7
:10BBE0000EFCFFFF10B50400034B0833036009F09F
:10BBF000BAFC200010BDC0469C8602007FB5082517
:10BC0000837904002B4204D1FDF71EF9A3791D436B
:10BC1000A57120004C30FFF74DF8051E0DD0230014
:10BC20005C331978062302AE0093E8223300A06C3F
:10BC3000FEF7FEFD051E03D00B4D280004B070BDBD
:10BC40000223F25E96235B425A4362630021725ED6
:10BC500020005343A3630423F25E96235343E3631C
:10BC600023681B6A9847E8E70EFCFFFFF8B504005D
:10BC7000150006AA168807AA0F0012881900FDF7FA
:10BC8000F9FF0D4BA764083323602300AA884C33C7
:10BC90009A80AA7920009A71084AE264AA686265CB
:10BCA0002A7B1A736A7B5A73AA7B1E829A73FFF7E8
:10BCB00069FF2000F8BDC0469C8602009482020005
:10BCC00010B50400054B083303601C3009F08CF9F3
:10BCD0002000183009F088F9200010BDC886020045
:10BCE000FF23F0B52B4D8DB02B7000230400694667
:10BCF0000088009303F070F9002802D16B469B780E
:10BD00002B70254E3368DB68002B07D10023208879
:10BD10001A0019000AF056FC0DB0F0BD2B78032B69
:10BD2000F4DC1E4901A8FDF759FB336801A9DE6860
:10BD300004A809F0AEF904A930000AF0A1FB06003E
:10BD400004A809F051F9371E1ED03100202210310D
:10BD500004A807F01FF830000CF04DFA297804AB66
:10BD6000C9005918082202A807F014F820880123F6
:10BD7000082202A90AF026FC0127002804D1208805
:10BD8000074A0C210AF01CFC01A809F02DF9002F2C
:10BD9000C2D1BBE78920002034250020EE900200AC
:10BDA000FFFF0000F0B5837991B004005B071BD55D
:10BDB000FDF7D0FA00232269801A9941994203D1F4
:10BDC000F423FF3398420FD9A068002808D0364BDF
:10BDD0001D8801F061F9036815221B6A2900984744
:10BDE0000422A3799343A371A3799B0759D52F4DBF
:10BDF0002B68DB68002B50D02D4B1B78032B4CDCC1
:10BE0000294B2C491B8804A80193FDF7E7FA2B68FE
:10BE100004A9DE6808A809F03CF908A930000AF076
:10BE20002FFB070008A809F0DFF802AB9E1D0823CE
:10BE30003200338006A9073B01980AF0C5FB002FAA
:10BE400008D039002022103108A806F0A3FF3800DE
:10BE50000CF0D1F9164B32881B7806A9DE0008AB2E
:10BE60009E19300006F070FF002813D0082206A9A2
:10BE7000300006F08FFF2B6804A9DD6805A809F0E3
:10BE800008F9202308AA05A928000AF0FFFA05A846
:10BE900009F0AAF804A809F0A7F80222A3799343AD
:10BEA000A37111B0F0BDC046482A002034250020FF
:10BEB00089200020EE900200F7B5040000250192D1
:10BEC000C77FBD4251DA66197078884218D11529AA
:10BED00027D801228A402748024222D0F91801209F
:10BEE0001F291DDCE1193718B9420ED800218B42F9
:10BEF0000FDD019A7018575C01318770C9B2F6E7FF
:10BF0000605D2D180135EDB2DBE70878C8540139C2
:10BF1000EAE7625D9A186255E27F9B18E37700209A
:10BF2000FEBD655D013DEDB2AB4209D10023AB42E0
:10BF3000F5DA019AF118D05C01338870DBB2F6E7CC
:10BF4000DF197F1B01201F2FEADC0227A81C7F427C
:10BF500036187F1BE07F2218964203D23078F055C6
:10BF60000136F7E7451B023DE577019A20000AF00C
:10BF700075FBD5E7FC002000F0B585B001930AAB56
:10BF80001E880BAB1B78451C02930EAB1B7804007C
:10BF900003930B78170003704B8A10224382013100
:10BFA000280006F0F7FE6B469B88268363836B466A
:10BFB0001B7B002623776B4601221B7A6761E68391
:10BFC000EB77A31CDA7724210C9B0C2563622300FA
:10BFD000200004AA5218127828331A705E709E70DE
:10BFE0002A0031002C3006F067FF2000064BE66384
:10BFF000A3632A003100403006F05EFF2000034BAF
:10C000002665E36405B0F0BDDF650200D16502007E
:10C0100070B50D0001F040F804000368002D09D14F
:10C020005B699847FA2080006843074904F03CFEAA
:10C03000E08070BD9B6898478542F3DA2368200052
:10C040009B6898470500EDE771020000F0B5070016
:10C050001600A1B002C70400684918A81D000AF024
:10C060002FFB301E01D007F08FF90122049200222D
:10C0700083B203920292023201920093320018A915
:10C080003800FFF779FF23005D49583318A807935C
:10C090000AF016FB281E01D007F076F9012204925F
:10C0A000002283B2039202920232019200932A008C
:10C0B00018A90798FFF760FF23005249AC3318A86E
:10C0C00008930AF0FDFA2698002801D007F05CF9E1
:10C0D00001220492002283B2039202920232019260
:10C0E0000093269A18A90898FFF746FF631CFF33B0
:10C0F000454918A809930AF0E3FA2798002801D0C7
:10C1000007F042F901220492002283B203920292C4
:10C11000601C023201920093279A18A9FF30FFF7A2
:10C120002BFF23005533FF33384918A809930AF031
:10C13000C7FA2898002801D007F026F901220492B6
:10C14000002283B203920292023201920093289A53
:10C1500018A90998FFF710FF2300A933FF332C49D2
:10C1600018A80A930AF0ACFA2998002801D007F021
:10C170000BF901220492002283B20392029218ADBD
:10C18000023201920093299A29000A98FFF7F4FEDF
:10C19000204B1B780B93002B2DD1079B12971393E9
:10C1A000089B0DAF1493631CFF331593099B1A4929
:10C1B00016930A9B380017930AF082FA1D21492032
:10C1C0003B7810222B707B8A12AE6B8206ABC918AB
:10C1D000C01806F0DFFD06232B756B469B8D20688B
:10C1E000AB83AE6100F068FF036829001B689847C5
:10C1F0000122084B1A70200021B0F0BD292A00004E
:10C20000242A0000252A0000272A0000262A0000F0
:10C21000282A0000A12A00200A18000070B5002575
:10C2200004000B4B8580083385710360C1601830B2
:10C23000FDF70EF920001C30FDF70AF90123621CFE
:10C24000D377044AA560656120001460A37170BDB6
:10C25000C886020034250020FA2130B585B00500DB
:10C26000012302228900684608F058FF074C206825
:10C27000002809D00AF05DFA2988054B2268198048
:10C28000022391790B43937105B030BD3425002012
:10C29000482A002010B50C0007290AD8806800F051
:10C2A000FBFE064B195703685B6C9847002802D1C8
:10C2B00010BD0348FCE70348FAE7C046E6900200D9
:10C2C00017FCFFFF16FCFFFFF0B5A54C0D00A544C1
:10C2D000040007939AAB1B78A24909A8049306921D
:10C2E000FDF77CF8200029001C3008F0DAFEC020A1
:10C2F000800001F071FC08200BF081FF0700002195
:10C3000000F092FE15AD0021A7600C220EA806F0E9
:10C31000D3FD2B000EAA43CA43C3934B2900EB6005
:10C32000002338002B610AF0EBFBA06800F0B4FE9C
:10C330000C2200210590280006F0BEFD14200BF011
:10C340005EFF8A4B2A0015930300C2CAC2C3884B02
:10C35000059EC3600023A43603613368002B00D020
:10C36000F7E03060A06800F0A7FE0C220021060074
:10C37000280006F0A1FD14200BF041FF7D4B159322
:10C38000030086CD86C37C4BC36000230361336BFF
:10C39000002B00D0DFE03063A06800F07DFE15AD1B
:10C3A0000C2200210600280006F086FD14200BF068
:10C3B00026FF724B98361593030086CD86C3704BCB
:10C3C000C360002303613368002B00D0C5E0012562
:10C3D00004AB1B7C04AA2B43306008A9280013740B
:10C3E0000AF0F4F8A06800F077FE036865495B6A1C
:10C3F0009847A06800F070FE036863499B699847FE
:10C40000A06800F069FE0023026800931668049992
:10C410002A00B047049B002B0AD020000AF092F9B2
:10C42000032805DDA06800F057FE0368DB68984725
:10C430000EA80AF00AF92F2004ABC0180AF005F97B
:10C44000362004ABC0180AF000F93D20042504ABE7
:10C45000C0180AF0FAF80EAB0A93A06804AB5D7737
:10C4600000F03AFE03680AA91B699847A06800F02B
:10C4700013FE03680AA95B6D9847A06800F00CFEE4
:10C4800003680021DB6D9847A06800F005FE036893
:10C4900002219B6D984700212000FFF7FBFE18202A
:10C4A0000BF0ADFEA16800F057FA384B384A1B6814
:10C4B000A1680393374B15A81B680CAE0293364B4B
:10C4C00000271B680193069B1B685B190093334B85
:10C4D00012681B68FFF7BAFD30200BF090FE079A38
:10C4E000A16800F0FFFAA06800F0D6FD03683100F3
:10C4F0009B6A98470823A0683380DB187380B78055
:10C5000000F0CAFD03683100DB6A98472900A06883
:10C510000AF0E2F8099A09219378A06852190AF002
:10C52000EEF8A06800F0B8FD32210771A068FFF7AF
:10C530006FFD04AB1B7FBB4204D0A06800F0ACFDD4
:10C540000AF0B4F809A808F04FFD95239B009D441C
:10C55000F0BD036105E703611DE7036137E7C046EE
:10C56000ACFDFFFFD3910200ED65020059C201004E
:10C57000FB650200E1BC01000966020037660200AB
:10C5800017660200A1C50100D5C5010030250020B5
:10C590002C2500200C200020282500201020002021
:10C5A00013B506226846FCF729FF094B1C68002CCE
:10C5B0000AD0694601A808F06CFD200001A90AF024
:10C5C000E2F801A808F010FD684608F00DFD13BD63
:10C5D00034250020002373B501AE0C0031000500A6
:10C5E000019302F0F9FC002802D1B278064B1A70D0
:10C5F000064B1868002806D061426141044BC9B25D
:10C600001D800AF0C8F873BD892000203425002061
:10C61000482A002030B5284CA9B06A220D000DA888
:10C62000210006F0B7FB0DA903A8FCF745FF03A9FD
:10C6300006A808F0A3FD01230193013BFF3B0093F3
:10C640000533FF33642206A92800FEF799F806A8EF
:10C6500008F087FD210019226A3106A806F09AFB2E
:10C6600005220024110006AB04A808F0AEFD04A9C1
:10C6700005A808F083FD019400942300220005A979
:10C680002800FDF7BFFF05A808F06BFD210028007A
:10C69000FEF7A4F805340520FCF76EFCFF2CF5D15D
:10C6A000FA208000FCF768FC04A808F05AFD03A8F3
:10C6B00008F057FD29B030BD63900200F0B59D4BE6
:10C6C00095B005921A68082307000291D16C06A85C
:10C6D0000B43D3649849FCF781FE984907A8FCF7FF
:10C6E0007DFE3A0000240DAD28001C3206A908F09A
:10C6F000E7FC07AA290008A808F0E2FC280008F0D7
:10C7000073FC7B1CDC77B86800F0C6FC03680BAEDA
:10C710005B699847280009F098FF2B2004ABC018EC
:10C7200009F093FF322004ABC01809F08EFF3920C6
:10C7300004ABC01809F089FF0B950425B868757122
:10C74000347100F0A9FC036831005B6D9847B8684C
:10C7500000F0A2FC036821009B6D9847B86800F0C8
:10C760009BFC030006000A331F22210018000393DC
:10C7700006F0A2FB039B3000DC7709F08EFF062158
:10C78000B86809F0A9FF089A09219378B868521986
:10C7900009F0B5FFB86800F07FFCC8210471B868E3
:10C7A000FFF736FCB86800F077FCFF260481B86814
:10C7B00000F072FC09F07AFF0298FDF7B7FE38002E
:10C7C000FCF742FB02993800FFF724FF029938007A
:10C7D00009F0F4FF0394049501257B691D402DD0D9
:10C7E000574909A8FCF7E4FE09A90AA808F0C6FC05
:10C7F00000220AA91300019200920298FDF702FF9D
:10C800000AA808F0AEFC039B002B42D1043E282E60
:10C8100041DD0025FE2E00DC039D059808F08FFE0B
:10C82000002806D001237A699A431300049A13431F
:10C830007B61002409A808F094FC03957B69049AA5
:10C84000134233D0FF210298C825FDF7C7FF00240B
:10C85000AD00BB6902229B5E9C4222DA380021B205
:10C86000183008F043FC0023010002981A007430CD
:10C87000FCF7EEFE2800FCF77FFB029809F069FA4E
:10C88000C820FCF779FB02227B69134209D10134ED
:10C89000DFE70436BBE7029809F05BFA002EBCDD47
:10C8A000BAE7FA208000FCF767FB002402237D69C9
:10C8B0001D421CD006331D4024D0224909A8FCF794
:10C8C00077FE09A90AA808F059FC00220AA90192DA
:10C8D000009213000298FDF795FE0AA808F041FCAB
:10C8E0001948FCF749FB09A808F03BFC174C6420E9
:10C8F000FCF742FB164B01349C4200DC6CE708F06D
:10C900001DFA69E7134909A8FCF752FE09A90AA80C
:10C9100008F034FC2B002A000AA901950095029822
:10C92000FDF770FE0AA808F01CFC09A808F019FC25
:10C93000DDE7C046B8240020FA9002000A91020008
:10C940000C91020051910200983A00008C0A0000FC
:10C950008B0A00008E91020000225C4BF0B5083378
:10C96000060003600F001000A9B0B1600BAB99186E
:10C9700001324870102AFAD10F3A554C1A700E3213
:10C98000105D991A0874013AFAD2997B5A7B090210
:10C990000A4331000C31039125211B7813AD2B7014
:10C9A00002ABC918452302A81B186A82180010227E
:10C9B00006F0F0F9039B64216B610123002402AAB5
:10C9C0002B832B775218093313701DAB1C706D230A
:10C9D00002AA9B181C706E2321009B181EA80C2213
:10C9E0006C83EC836C621C7006F066FA394B0C2287
:10C9F000210023A8AB63EC6306F05EFA364B0322FA
:10CA0000EB64462302A95B18DA7722002C650595B2
:10CA1000347306AD2B1901345A70102CFAD101234E
:10CA20002E482B700E33195CEA1A1174013BFAD2AE
:10CA300011212520AA7B6B7B12020BAC13432A78B1
:10CA4000638202ABC9182270C018102206F0A2F946
:10CA50000123237505ABA36100233800A38300F0F5
:10CA60002BFB036821001B68984713ABDB8BB06876
:10CA7000B38200F021FB002203680092B18A039A7E
:10CA8000DC680123A047B06800F016FB0700142003
:10CA90000BF0B5FB04000C22002106F00DFA002378
:10CAA00020002361069340C0013308222900079328
:10CAB00006F070F90A4BE360BB69002B03D130002C
:10CAC000BC6129B0F0BD2361F9E7C046E0860200F1
:10CAD000E7910200DF650200D1650200F7910200D4
:10CAE0001F680200F0B500260400774BDDB0083364
:10CAF00003608160C260868086713200734947A8F6
:10CB000009F02DFF2300143308931223012501930C
:10CB10000E3B04950093089A330047A903960296AA
:10CB20001DA8FFF729FA3200694947A809F017FF45
:10CB30000C2322000193083B15AF1032049500939B
:10CB400047A933000396029632A8FFF715FA320080
:10CB50006049380009F003FF23001C3309930823C0
:10CB60000193043B390004950093099A330003961E
:10CB7000029647A8FFF700FA32005749380009F03B
:10CB8000EEFE54200BF03BFB2300183307931223D7
:10CB900001930E3B390004950093079A33000396E6
:10CBA00002960690FFF7E8F9069B0822A3624B4B1A
:10CBB0000AA90A93069B0B961800DC62303006F037
:10CBC000E9F8069A464B268293631300668229335E
:10CBD0001D7023690422E3610999079806F0DAF8C9
:10CBE00004220799089806F0D5F86622032304A9C1
:10CBF0005218D377BA225218D3778722520052188C
:10CC0000D377069A37490232D3771DAB0C9332ABF8
:10CC10000D9347AB0E93069B3200A68510A80F9389
:10CC200009F09DFE30223121452004AB9B181B7872
:10CC300012323B7004AB9B181B88323A7B8204ABE8
:10CC4000C918C01806F0A6F804230CADA0683B75FF
:10CC5000BD61BE8300F030FA036839001B68984755
:10CC6000822204AB9B181B885432238404AB9B188C
:10CC70001B885432A38404AB9B181B88A068638470
:10CC800000F01AFA070014200BF0B9FA05000C2284
:10CC9000310006F011F92800134B2E61082210C054
:10CCA00010A91093119606F075F8104BEB60BB6954
:10CCB000B34206D1BD612000FCF7C6F820005DB08C
:10CCC000F0BD2B61F6E7C046EC8602002792020019
:10CCD00007920200179202003792020031690200A7
:10CCE0009D6802004792020059CD0100C76802000A
:10CCF000F0B504000E00150085B000930CAB1B8846
:10CD00001030019308F0FFF92680658018200BF0A1
:10CD100076FA070002AE33003D000AAA03CA03C335
:10CD2000009B102208C50021280006F0C5F831003C
:10CD30000822280006F02EF8064B02227B61200014
:10CD400000230199A7600A43E360A2802362636223
:10CD500005B0F0BDF1680200F0B50B898DB0059308
:10CD6000CB68050004934B88828C9A420ED1049CB8
:10CD7000059B049A1B1BD318032B39DD628821887D
:10CD8000012308A808F0CAF90434F1E7428C9A425A
:10CD90002ED1049C059B049A1B1BD318032B27DD63
:10CDA0002388282006936388EF680793114B089324
:10CDB000002309930BF023FAC0236A46060002936E
:10CDC00008AB03CB03C22B000699079A3000FFF78C
:10CDD0008FFF3B6831005B6838009847002805D01A
:10CDE000300008F0B7F830000BF005FA0434D1E752
:10CDF0000DB0F0BDAF69020070B5040090B080685E
:10CE000009F0D0FD022101401AD1A38D002B17D0CB
:10CE10000C4B6A4604931023E568A18505910293A3
:10CE200004AB41CB41C20A00230006A8FFF760FF14
:10CE30002B6806A99B682800984706A808F08AF87E
:10CE400010B070BDAF690200002815D000604160CD
:10CE50008260C360046145618661C76144460462C3
:10CE60004C464462544684625C46C4626446046331
:10CE70006E46466374468463002A06D0C46B043C45
:10CE8000043A25681560B442F9D18C6BA6464E6B06
:10CE9000B546002B06D0CC6B043C043B1D682560D6
:10CEA000B442F9D10C6BA446CC6AA3468C6AA24664
:10CEB0004C6AA1460C6AA046CF698E694D690C691F
:10CEC000CB688A6808684968704700604160826082
:10CED000C360046145618661C761444604624C4693
:10CEE0004462544684625C46C462644604636E468F
:10CEF000466374468463C46B043C043925680D6042
:10CF0000B442F9D1C7698669456904697047006010
:10CF100041608260C360046145618661C7614446C7
:10CF200004624C464462544684625C46C462644671
:10CF300004636C4644637446846304697047846B7D
:10CF4000A646446BA546046BA446C46AA346846AFD
:10CF5000A246446AA146046AA046C7698669456933
:10CF60000469C368826800684168704710B5041E90
:10CF70000CD006F009FA431EE3189C4208D222782E
:10CF80001978013B21705A700134F6E7014810BD51
:10CF90000020FCE717FCFFFFF0B585B002900C1EE7
:10CFA0002AD00023C217161A56400193019B300065
:10CFB0005D1C63190A215F1E039303F0E5FF4942DC
:10CFC0003031397030000A2103F0F8FE4742060084
:10CFD000002F0FD1029B002B04DA2D23019D039A11
:10CFE00002351370002320006355FFF7BFFF3800A0
:10CFF00005B0F0BD0195D9E7004FF8E717FCFFFF3A
:10D000000268084B406810B5C018C0001018030033
:10D01000934205D31C688C4202D31800083BF7E703
:10D0200010BDC046FFFFFF1F002370B50400016064
:10D03000436099420AD1064D2B68002B02D109F0BA
:10D04000ACFF286023689B00EB586360200070BD34
:10D050004825002070B500280DD10C4C2668002E04
:10D0600007D108300BF0CBF805003100FFF7DCFFEB
:10D070002560206870BD0122054906480B681340F1
:10D08000F8D1026043600A60F4E7C0463C25002006
:10D090003825002040250020436810B50400002BEF
:10D0A00002D104480AF0F2FE606803681B699847E1
:10D0B00010BDC04657920200436810B50400002B13
:10D0C00002D104480AF0E2FE606803689B69984751
:10D0D00010BDC04657920200436810B50400002BF3
:10D0E00002D104480AF0D2FE606803685B6A984780
:10D0F00010BDC0465792020000487047FFFF000075
:10D10000F0B597B00593036807AD1B6804910393CE
:10D1100011002B00060091C991C30024D36821009F
:10D120000C220CA8EB602C6105F0C6FE22000B4B14
:10D1300010940F9311AB1C70191901344A70102C04
:10D14000FAD15A820193059B2A00009304990CABF3
:10D150003000039CA04717B0F0BDC0464D6C0200E4
:10D16000FC3070B5046C0500002C0DD124200BF0B0
:10D1700046F8064B44608361054B8460C4600461DB
:10D180004461C46103602864286C70BDD8870200C4
:10D19000C0880200FC3070B5C56B0400002D11D1B1
:10D1A00034200BF02CF8084B85604360074B456139
:10D1B0000361074B0562C361064BC5628362064B80
:10D1C000E0630360E06B70BD08880200F88702002E
:10D1D0006888020078880200888802007FB5037999
:10D1E0001548002B1CD0154E154C33782000002B11
:10D1F00016D102AD280009F006FD002815D16B8874
:10D20000592B12D12B78AA88D91F01290AD800924C
:10D210000C4A2021200005F0E1FF0123337020009B
:10D2200004B070BD0092084AF3E7202207492000AD
:10D2300006F0DCF8F3E7C0467A920200C22A00202A
:10D24000A22A002094920200B1920200D69202001B
:10D2500010B50400024B08C009F0B8FD200010BD55
:10D26000F887020010B50400024B08C009F0C3FDA6
:10D27000200010BD08880200064B70B50400036052
:10D280004068002804D005690AF0B5FF2800F8E7D7
:10D29000200070BDE8870200064B70B504000360F3
:10D2A0004068002804D005690AF0A5FF2800F8E7C7
:10D2B000200070BD18880200064B70B504000360A2
:10D2C0004068002804D005690AF095FF2800F8E7B7
:10D2D000200070BD28880200064B70B50400036072
:10D2E0004068002804D005690AF085FF2800F8E7A7
:10D2F000200070BD68880200064B70B50400036012
:10D300004068002804D005690AF075FF2800F8E796
:10D31000200070BD78880200064B70B504000360E1
:10D320004068002804D005690AF065FF2800F8E786
:10D33000200070BD0C870200064B70B5040003602E
:10D340004068002804D005690AF055FF2800F8E776
:10D35000200070BD1C870200064B70B504000360FE
:10D360004068002804D005690AF045FF2800F8E766
:10D37000200070BD2C870200064B70B504000360CE
:10D380004068002804D005690AF035FF2800F8E756
:10D39000200070BD3C870200064B70B5040003609E
:10D3A0004068002804D005690AF025FF2800F8E746
:10D3B000200070BDD8870200FC3070B5046C0500F9
:10D3C000002C0DD124200AF01AFF064B4460836123
:10D3D000054B8460C46004614461C46103602864D7
:10D3E000286C70BDD8870200C0880200104B10B5B1
:10D3F000083303600F4B0400C36080230E4A5B00B8
:10D40000C250C018FCF768FF20000C4BB830E36036
:10D41000FFF7B2FF2000AC30FFF79EFF2000A030E6
:10D42000FFF78AFF20006C30FFF776FF200010BD69
:10D43000EC880200348902008C8A02004C870200CA
:10D44000F0B50500040087B0AC356B68AB60A86828
:10D45000002807D0C36821009847AB68002BF4D0A0
:10D460001B69F3E72500B0352868002804D0066959
:10D470000AF0C1FE3000F8E72200FC215832137890
:10D4800028600B40137023005C33187020000A30B2
:10D4900009F07AFD2000343009F076FD606E002836
:10D4A00004D005690AF0A7FE2800F8E725009835A2
:10D4B00060662868002804D006690AF09CFE3000E7
:10D4C000F8E728602500A4352E68002E05D03769BE
:10D4D00030000AF090FE3E00F7E72E6001AD31000B
:10D4E0000C22280005F0E8FC23002A006C3383CAD4
:10D4F00083C3094BE667A3670C223100280005F0BF
:10D50000DBFC2300803307CD07C33000034A90348F
:10D510001A60266007B0F0BD316C0200236C020077
:10D52000444AF0B50600C260A022434B16360833C9
:10D5300003600100002342820400320085B00371C1
:10D540008360037483823531137001329142FBD1C1
:10D55000802580222000AD00D201F37735841100B0
:10D5600000933830002300F00DFF230021004033EA
:10D5700003931A002B0000255F31157001328A4297
:10D58000FBD1039AFC21D5772200603213801379F6
:10D5900020000B401371230068331D70274B256753
:10D5A000E3660C220021783005F086FC230027007A
:10D5B00088331D60224B0837FB67843700210C221B
:10D5C000380005F079FC1F4B1F4AFB602300A03395
:10D5D0003D611A601D4A5D60DA601D4A1D619A61F5
:10D5E000DD61300009F0D0FC039809F0CDFC194B47
:10D5F000601CE3602300C4331D705D709D70FF30BC
:10D6000002F024FD8C235B00E55023001933FF3327
:10D610005D618023104A5B00E2502300012220005C
:10D62000FE3352425A86023B9D63DD631D6405B0A2
:10D63000F0BDC0464C870200EC8802000C87020057
:10D64000316C0200236C02001C8702002C87020050
:10D650003C870200348902008C8A020070B5074CB6
:10D660002368002B07D1A02040000AF0C8FD050068
:10D67000FFF756FF2560206870BDC0464C2500208E
:10D6800070B50C220D000021040005F015FC0023EC
:10D690002361024B25602000E36070BD3F6C0200F7
:10D6A00070B500250400254B05710360244B4571BE
:10D6B0008360244BC5604361234B85610362234B28
:10D6C0004562C362224B05638363C563290044300E
:10D6D000FFF7D6FF200029005830FFF7D1FF2000C8
:10D6E00029006C30FFF7CCFF1A4B22002360230087
:10D6F0008032F83320C29342FCD126001D00E93667
:10D70000FF36280008220021083505F0D5FBB54278
:10D71000F7D18E239B00E218002308C5AA42FCD152
:10D720008E2200219200A3540B4B0C4AE318A2183E
:10D73000198002339A42FBD1200070BD3888020064
:10D74000E8870200F88702000888020018880200B3
:10D7500028880200C08902003A020000620200002C
:10D76000024B0B60092313607047C046DE92020033
:10D7700010B504000020FFF771FF03681B6998478C
:10D780000300F3331C7086235B00C05003000021AC
:10D79000044AFC335A61044A99615A62F4300AF02F
:10D7A000ADFA10BD6572020077720200012110B55A
:10D7B000044A080002F0F0F9031E00D00B23180001
:10D7C00010BDC04671D70100F0B5060093B000202F
:10D7D0000C00FFF743FF03685B6A984700F0F0FC1A
:10D7E00006AB00280ED000221A7105AA0692082264
:10D7F00018001A730AAA9A6000F0ACFD002803D042
:10D8000013B0F0BD187118730023237323710193B3
:10D810003300BA331B78019A9A4241DA0723534303
:10D82000F218BB321278BB33022A31D10025F3182B
:10D83000029306AF3B7B9D4223DAAB000393089B28
:10D84000AA00995802980AF0E9F800281DD0237B15
:10D85000AA009C46BB6899180293634608689A0020
:10D86000A368D0506346013323733B7B5A1E954215
:10D8700005D00C481B1802989B001B580B6006AB88
:10D880001A73019B0133DBB2C1E70135EDB2D0E77A
:10D89000227920689100F31801320B502271F0E7D1
:10D8A0000020ADE7FFFFFF3FF0B50A7804009BB012
:10D8B0000D000220012A44D04B88032A3BD1A03B13
:10D8C00021499BB210008B423BD8204BAA880320F1
:10D8D0009A4236D80AAB009312AB02936A460023F1
:10D8E000260013711373B8363378002B05D06946C0
:10D8F0002000FFF769FF002823D104AF1822002180
:10D90000380005F0D9FA2B7838003B7033783B7239
:10D910006B46FB606B883B82AB887B8209F0C6FB61
:10D9200002000320002A0CD1012358342178100072
:10D930000B43237005E0203B054A9BB20320934232
:10D94000C3D91BB0F0BDC046603F0000FF3F0000E0
:10D95000E03F0000F0B59DB01F006B4605001A7057
:10D96000581C0622229E02AC05F014FA002F2ED07D
:10D970003B8823807B886380BB88A380FB88E3800F
:10D980000CAB04A9049314AB8B602F000023B937B0
:10D990000B710B733B78002B21D101203B780227C0
:10D9A00008A903405A000B78BB4304AF4F601343F0
:10D9B000002E1BD12A0032321278834302401343D7
:10D9C0000B70AB8D0B81EB8D4B812B8E18E03223CE
:10D9D0002380DB186380F533A780FF33CFE728006F
:10D9E000FFF7F2FE0028D8D01DB0F0BDB279834316
:10D9F000024013430B7033880B8173884B81B388CB
:10DA0000220068468B8109F067FB030000208342F7
:10DA1000EAD00630082BE7D006D80130042BE3D03B
:10DA2000834209D10420DFE70520112BDCD0034A13
:10DA30009342F7D0102BF5D00B20D5E7023200002F
:10DA400010B5040001F094FE034B1B68002B01D0BD
:10DA50002000984710BDC04654250020F0B58DB079
:10DA6000050001F0F9F80020FFF7F8FD0368070052
:10DA70001B6998473B6804009B69380098473B68DE
:10DA800006005B6A380098470300288810380B2886
:10DA900062D803F0FFF8063E6161615B6161616716
:10DAA0006179AF882000390009F07DFC22006B7B92
:10DAB000583201931378A8799C46022361460B43A0
:10DAC000137006AB1F80012306AA9370D070130059
:10DAD0006A461279E91D9A722B000622163307A8AE
